{
  "_format": "hh-sol-artifact-1",
  "contractName": "Proxy",
  "sourceName": "contracts/Proxy.sol",
  "abi": [
    {
      "inputs": [
        {
          "internalType": "address",
          "name": "_owner",
          "type": "address"
        },
        {
          "internalType": "address",
          "name": "_implementation",
          "type": "address"
        }
      ],
      "stateMutability": "nonpayable",
      "type": "constructor"
    },
    {
      "stateMutability": "payable",
      "type": "fallback"
    },
    {
      "inputs": [],
      "name": "getImplementation",
      "outputs": [
        {
          "internalType": "address",
          "name": "",
          "type": "address"
        }
      ],
      "stateMutability": "view",
      "type": "function"
    },
    {
      "inputs": [],
      "name": "getProxyOwner",
      "outputs": [
        {
          "internalType": "address",
          "name": "",
          "type": "address"
        }
      ],
      "stateMutability": "view",
      "type": "function"
    },
    {
      "inputs": [
        {
          "internalType": "address",
          "name": "newImplementation",
          "type": "address"
        }
      ],
      "name": "setImplementation",
      "outputs": [],
      "stateMutability": "nonpayable",
      "type": "function"
    },
    {
      "stateMutability": "payable",
      "type": "receive"
    }
  ],
  "bytecode": "0x60806040523480156200001157600080fd5b5060405162000e2038038062000e2083398181016040528101906200003791906200047e565b6200005367cd9673ad12968c2460c01b620000ed60201b60201c565b6200006f67cd6fa23b16ad65f160c01b620000ed60201b60201c565b6200008b67f461f5a6ef9c821b60c01b620000ed60201b60201c565b6200009c82620000f060201b60201c565b620000b8679c5a2d4b5c62e11760c01b620000ed60201b60201c565b620000d4678b8c0cd43812c2e960c01b620000ed60201b60201c565b620000e5816200028660201b60201c565b50506200060c565b50565b6200010c679561683f0907f48a60c01b620000ed60201b60201c565b6200012867cf69053e00f4b46260c01b620000ed60201b60201c565b6200014467a726b70ddd1bb91960c01b620000ed60201b60201c565b62000160676bd5c11dc4354c1860c01b620000ed60201b60201c565b600073ffffffffffffffffffffffffffffffffffffffff168173ffffffffffffffffffffffffffffffffffffffff161415620001d3576040517f08c379a0000000000000000000000000000000000000000000000000000000008152600401620001ca9062000569565b60405180910390fd5b620001ef67d6b953bf62aa80d360c01b620000ed60201b60201c565b6200020b67fbce62611b9970dc60c01b620000ed60201b60201c565b80620002427f58a6b8f109ed5c70ad37140473420d0209511d3629dc7480eab94a450067bd5f6200042260201b620004051760201c565b60000160006101000a81548173ffffffffffffffffffffffffffffffffffffffff021916908373ffffffffffffffffffffffffffffffffffffffff16021790555050565b620002a2671b43ba544d106e6060c01b620000ed60201b60201c565b620002be67a269328f3acaa9d760c01b620000ed60201b60201c565b620002da6758e8795154afd59960c01b620000ed60201b60201c565b620002f6675d875c1ce7d4d92660c01b620000ed60201b60201c565b60008173ffffffffffffffffffffffffffffffffffffffff16803b806020016040519081016040528181526000908060200190933c51116200036f576040517f08c379a000000000000000000000000000000000000000000000000000000000815260040162000366906200058b565b60405180910390fd5b6200038b67873cc75093c949c660c01b620000ed60201b60201c565b620003a76796ea197da854144d60c01b620000ed60201b60201c565b80620003de7f24ed44ee9374370fd3aa7c8b1abf58827504c20f65246b17d2b9e7e1aef778476200042260201b620004051760201c565b60000160006101000a81548173ffffffffffffffffffffffffffffffffffffffff021916908373ffffffffffffffffffffffffffffffffffffffff16021790555050565b60006200044067da192cbb89fc298e60c01b6200046460201b60201c565b6200045c670ced46ea7b2f548260c01b6200046460201b60201c565b819050919050565b50565b6000815190506200047881620005f2565b92915050565b600080604083850312156200049257600080fd5b6000620004a28582860162000467565b9250506020620004b58582860162000467565b9150509250929050565b6000620004ce601483620005ad565b91507f61646d696e203d207a65726f20616464726573730000000000000000000000006000830152602082019050919050565b600062000510602f83620005ad565b91507f4e657720696d706c656d656e746174696f6e20616464726573732073686f756c60008301527f64206265206120636f6e747261637400000000000000000000000000000000006020830152604082019050919050565b600060208201905081810360008301526200058481620004bf565b9050919050565b60006020820190508181036000830152620005a68162000501565b9050919050565b600082825260208201905092915050565b6000620005cb82620005d2565b9050919050565b600073ffffffffffffffffffffffffffffffffffffffff82169050919050565b620005fd81620005be565b81146200060957600080fd5b50565b610804806200061c6000396000f3fe6080604052600436106100385760003560e01c80631ab7710d146100b1578063aaf10f42146100dc578063d784d4261461010757610063565b36610063576100516719e3e3e5232f8d5860c01b610130565b61006161005c610133565b6101c3565b005b610077677a5afd3c7c745a6360c01b610130565b61008b67dc16e28e726b8fca60c01b610130565b61009f6770c05cd05759f83560c01b610130565b6100af6100aa610133565b6101c3565b005b3480156100bd57600080fd5b506100c6610212565b6040516100d39190610719565b60405180910390f35b3480156100e857600080fd5b506100f161025d565b6040516100fe9190610719565b60405180910390f35b34801561011357600080fd5b5061012e6004803603810190610129919061063b565b6102a8565b005b50565b600061014967727c73c54687cf0560c01b610130565b61015d674c1a6e733a6da0e560c01b610130565b610171672da4656b35d3550860c01b610130565b61019a7f24ed44ee9374370fd3aa7c8b1abf58827504c20f65246b17d2b9e7e1aef77847610405565b60000160009054906101000a900473ffffffffffffffffffffffffffffffffffffffff16905090565b6101d76783af00ed13e0d4d560c01b610130565b6101eb670bdad5450deaed5f60c01b610130565b60405136600082376000803683855af43d806000843e816000811461020e578184f35b8184fd5b600061022867146cfdccf0e58e9360c01b610130565b61023c67d7f8470c5de5774160c01b610130565b61025067e8c0773d2c1b526e60c01b610130565b610258610437565b905090565b60006102736708f1b6d77e37b2cc60c01b610130565b61028767322b33fea13344d360c01b610130565b61029b67d16125e6429b489a60c01b610130565b6102a3610133565b905090565b6102bc67b6a97ef3b11fcf4f60c01b610130565b6102d067ad6398dd5f110ae160c01b610130565b6102e4672cbe22c5a5f7179260c01b610130565b6102f86796ae05c8b98d524b60c01b610130565b61030c6739eabff9eabff38860c01b610130565b610314610437565b73ffffffffffffffffffffffffffffffffffffffff163373ffffffffffffffffffffffffffffffffffffffff1614610381576040517f08c379a000000000000000000000000000000000000000000000000000000000815260040161037890610754565b60405180910390fd5b6103956764f0ff6487c337ec60c01b610130565b6103a967015b1900b90a7b9d60c01b610130565b6103bd67a055aadb559a9b9260c01b610130565b6103d167d3817d4e6ff12b6d60c01b610130565b6103e5679528574f6485c25360c01b610130565b6103f9679845ebcb05618c3c60c01b610130565b610402816104c7565b50565b600061041b67da192cbb89fc298e60c01b610623565b61042f670ced46ea7b2f548260c01b610623565b819050919050565b600061044d67db4cb1575d38cc5460c01b610130565b610461679c31936cfc0571ee60c01b610130565b61047567a0a036b14cc3836e60c01b610130565b61049e7f58a6b8f109ed5c70ad37140473420d0209511d3629dc7480eab94a450067bd5f610405565b60000160009054906101000a900473ffffffffffffffffffffffffffffffffffffffff16905090565b6104db671b43ba544d106e6060c01b610130565b6104ef67a269328f3acaa9d760c01b610130565b6105036758e8795154afd59960c01b610130565b610517675d875c1ce7d4d92660c01b610130565b60008173ffffffffffffffffffffffffffffffffffffffff16803b806020016040519081016040528181526000908060200190933c511161058d576040517f08c379a000000000000000000000000000000000000000000000000000000000815260040161058490610734565b60405180910390fd5b6105a167873cc75093c949c660c01b610130565b6105b56796ea197da854144d60c01b610130565b806105df7f24ed44ee9374370fd3aa7c8b1abf58827504c20f65246b17d2b9e7e1aef77847610405565b60000160006101000a81548173ffffffffffffffffffffffffffffffffffffffff021916908373ffffffffffffffffffffffffffffffffffffffff16021790555050565b50565b600081359050610635816107b7565b92915050565b60006020828403121561064d57600080fd5b600061065b84828501610626565b91505092915050565b61066d81610785565b82525050565b6000610680602f83610774565b91507f4e657720696d706c656d656e746174696f6e20616464726573732073686f756c60008301527f64206265206120636f6e747261637400000000000000000000000000000000006020830152604082019050919050565b60006106e6601e83610774565b91507f50726f78793a2063616c6c6572206973206e6f7420746865206f776e657200006000830152602082019050919050565b600060208201905061072e6000830184610664565b92915050565b6000602082019050818103600083015261074d81610673565b9050919050565b6000602082019050818103600083015261076d816106d9565b9050919050565b600082825260208201905092915050565b600061079082610797565b9050919050565b600073ffffffffffffffffffffffffffffffffffffffff82169050919050565b6107c081610785565b81146107cb57600080fd5b5056fea2646970667358221220b55a6902fb71def379b75863139d22c8cd9ff00cd163053dfd2ed0a5d571a78864736f6c63430008000033",
  "linkReferences": {},
  "deployedLinkReferences": {}
}