{"contracts/Safe.sol":{"Safe":{"abi":[{"inputs":[{"internalType":"address","name":"_owner","type":"address"}],"stateMutability":"nonpayable","type":"constructor"},{"inputs":[{"internalType":"address","name":"token","type":"address"}],"name":"balanceOf","outputs":[{"internalType":"uint256","name":"","type":"uint256"}],"stateMutability":"view","type":"function"},{"inputs":[{"internalType":"address","name":"token","type":"address"},{"internalType":"uint256","name":"amount","type":"uint256"}],"name":"deposit","outputs":[],"stateMutability":"nonpayable","type":"function"},{"inputs":[],"name":"getOwner","outputs":[{"internalType":"address","name":"","type":"address"}],"stateMutability":"view","type":"function"},{"inputs":[],"name":"owner","outputs":[{"internalType":"address","name":"","type":"address"}],"stateMutability":"view","type":"function"},{"inputs":[{"internalType":"address","name":"token","type":"address"}],"name":"takeFee","outputs":[],"stateMutability":"nonpayable","type":"function"},{"inputs":[{"internalType":"address","name":"token","type":"address"},{"internalType":"uint256","name":"amount","type":"uint256"}],"name":"withdraw","outputs":[],"stateMutability":"nonpayable","type":"function"}],"evm":{"bytecode":{"linkReferences":{},"object":"60806040523480156200001157600080fd5b50604051620011e9380380620011e98339818101604052810190620000379190620000d1565b6200005367f3e0dcf25690517760c01b620000b760201b60201c565b6200006f6780a297d2730280d160c01b620000b760201b60201c565b80600160006101000a81548173ffffffffffffffffffffffffffffffffffffffff021916908373ffffffffffffffffffffffffffffffffffffffff160217905550506200014b565b50565b600081519050620000cb8162000131565b92915050565b600060208284031215620000e457600080fd5b6000620000f484828501620000ba565b91505092915050565b60006200010a8262000111565b9050919050565b600073ffffffffffffffffffffffffffffffffffffffff82169050919050565b6200013c81620000fd565b81146200014857600080fd5b50565b61108e806200015b6000396000f3fe608060405234801561001057600080fd5b50600436106100625760003560e01c806347e7ef241461006757806370a0823114610083578063893d20e8146100b35780638da5cb5b146100d1578063a5bf8ec6146100ef578063f3fef3a31461010b575b600080fd5b610081600480360381019061007c9190610c68565b610127565b005b61009d60048036038101906100989190610c3f565b61046c565b6040516100aa9190610e86565b60405180910390f35b6100bb61052d565b6040516100c89190610dab565b60405180910390f35b6100d9610593565b6040516100e69190610dab565b60405180910390f35b61010960048036038101906101049190610c3f565b6105b9565b005b61012560048036038101906101209190610c68565b6108e8565b005b61013b674a32d6cf2adcbf1c60c01b610bfd565b61014f6756acf12c413ef60060c01b610bfd565b61016367a19da07d082d9b3460c01b610bfd565b61017767d124cfa8de31682c60c01b610bfd565b600081116101ba576040517f08c379a00000000000000000000000000000000000000000000000000000000081526004016101b190610e26565b60405180910390fd5b6101ce67c42d7c7db9dc105860c01b610bfd565b6101e267c7468688e55fb75160c01b610bfd565b6101f6679a6faa7d4ab7518c60c01b610bfd565b8173ffffffffffffffffffffffffffffffffffffffff166323b872dd3330846040518463ffffffff1660e01b815260040161023393929190610dc6565b602060405180830381600087803b15801561024d57600080fd5b505af1158015610261573d6000803e3d6000fd5b505050506040513d601f19601f820116820180604052508101906102859190610ca4565b5061029a67e252e19c86e5967f60c01b610bfd565b6102ae6743a94d22d929225e60c01b610bfd565b60006103e8826102be9190610f08565b90506102d4670f4fed0d9977177460c01b610bfd565b6102e867a270a2942adc8eb760c01b610bfd565b600081836102f69190610f39565b905061030c673f002d58d0b5ff5060c01b610bfd565b806000803373ffffffffffffffffffffffffffffffffffffffff1673ffffffffffffffffffffffffffffffffffffffff16815260200190815260200160002060008673ffffffffffffffffffffffffffffffffffffffff1673ffffffffffffffffffffffffffffffffffffffff16815260200190815260200160002060008282546103979190610eb2565b925050819055506103b2674314e4e46f59efc260c01b610bfd565b81600080600160009054906101000a900473ffffffffffffffffffffffffffffffffffffffff1673ffffffffffffffffffffffffffffffffffffffff1673ffffffffffffffffffffffffffffffffffffffff16815260200190815260200160002060008673ffffffffffffffffffffffffffffffffffffffff1673ffffffffffffffffffffffffffffffffffffffff168152602001908152602001600020600082825461045f9190610eb2565b9250508190555050505050565b6000610482671f8ffd56a862505860c01b610bfd565b610496672cae6d371de2473e60c01b610bfd565b6104aa676d00f2fb00e480f460c01b610bfd565b6000803373ffffffffffffffffffffffffffffffffffffffff1673ffffffffffffffffffffffffffffffffffffffff16815260200190815260200160002060008373ffffffffffffffffffffffffffffffffffffffff1673ffffffffffffffffffffffffffffffffffffffff168152602001908152602001600020549050919050565b6000610543675cabbb8b8b36f1df60c01b610bfd565b61055767e5641f50649b399a60c01b610bfd565b61056b6738cb44f9297a02cd60c01b610bfd565b600160009054906101000a900473ffffffffffffffffffffffffffffffffffffffff16905090565b600160009054906101000a900473ffffffffffffffffffffffffffffffffffffffff1681565b6105cd67add117ec7879f3c660c01b610bfd565b6105e167c2832f8e0127ca2960c01b610bfd565b6105f56765bcc9a5416582a960c01b610bfd565b61060967f641cac2f7bd578c60c01b610bfd565b600160009054906101000a900473ffffffffffffffffffffffffffffffffffffffff1673ffffffffffffffffffffffffffffffffffffffff163373ffffffffffffffffffffffffffffffffffffffff1614610699576040517f08c379a000000000000000000000000000000000000000000000000000000000815260040161069090610e66565b60405180910390fd5b6106ad6735c8cab8ec379f1660c01b610bfd565b6106c167c1928bfb0da5e88860c01b610bfd565b6106d567f97db5fb2358aa9d60c01b610bfd565b6000806000600160009054906101000a900473ffffffffffffffffffffffffffffffffffffffff1673ffffffffffffffffffffffffffffffffffffffff1673ffffffffffffffffffffffffffffffffffffffff16815260200190815260200160002060008373ffffffffffffffffffffffffffffffffffffffff1673ffffffffffffffffffffffffffffffffffffffff16815260200190815260200160002054905061078b67a2fbd030a2a6940360c01b610bfd565b61079f678a89e88d7cea72c660c01b610bfd565b8173ffffffffffffffffffffffffffffffffffffffff1663a9059cbb33836040518363ffffffff1660e01b81526004016107da929190610dfd565b602060405180830381600087803b1580156107f457600080fd5b505af1158015610808573d6000803e3d6000fd5b505050506040513d601f19601f8201168201806040525081019061082c9190610ca4565b50610841674ec6e9ffb84eec2a60c01b610bfd565b6000806000600160009054906101000a900473ffffffffffffffffffffffffffffffffffffffff1673ffffffffffffffffffffffffffffffffffffffff1673ffffffffffffffffffffffffffffffffffffffff16815260200190815260200160002060008473ffffffffffffffffffffffffffffffffffffffff1673ffffffffffffffffffffffffffffffffffffffff168152602001908152602001600020819055505050565b6108fc679b48360e5746a39360c01b610bfd565b610910676e04b93bdae267e360c01b610bfd565b61092467d9876bd4071c269b60c01b610bfd565b610938670500b24c3cd59ffb60c01b610bfd565b6000811161097b576040517f08c379a000000000000000000000000000000000000000000000000000000000815260040161097290610e26565b60405180910390fd5b61098f6775a765bd351aaf4460c01b610bfd565b6109a3676933283e1161702e60c01b610bfd565b6109b7670f250d1feb9c72f560c01b610bfd565b6109cb67fb454d1fc565996a60c01b610bfd565b806000803373ffffffffffffffffffffffffffffffffffffffff1673ffffffffffffffffffffffffffffffffffffffff16815260200190815260200160002060008473ffffffffffffffffffffffffffffffffffffffff1673ffffffffffffffffffffffffffffffffffffffff168152602001908152602001600020541015610a89576040517f08c379a0000000000000000000000000000000000000000000000000000000008152600401610a8090610e46565b60405180910390fd5b610a9d67e2387a69c0877e2860c01b610bfd565b610ab16750de72c56ad2983960c01b610bfd565b610ac567f1896b27841668cf60c01b610bfd565b8173ffffffffffffffffffffffffffffffffffffffff1663a9059cbb33836040518363ffffffff1660e01b8152600401610b00929190610dfd565b602060405180830381600087803b158015610b1a57600080fd5b505af1158015610b2e573d6000803e3d6000fd5b505050506040513d601f19601f82011682018060405250810190610b529190610ca4565b50610b67674617020797e246a260c01b610bfd565b806000803373ffffffffffffffffffffffffffffffffffffffff1673ffffffffffffffffffffffffffffffffffffffff16815260200190815260200160002060008473ffffffffffffffffffffffffffffffffffffffff1673ffffffffffffffffffffffffffffffffffffffff1681526020019081526020016000206000828254610bf29190610f39565b925050819055505050565b50565b600081359050610c0f81611013565b92915050565b600081519050610c248161102a565b92915050565b600081359050610c3981611041565b92915050565b600060208284031215610c5157600080fd5b6000610c5f84828501610c00565b91505092915050565b60008060408385031215610c7b57600080fd5b6000610c8985828601610c00565b9250506020610c9a85828601610c2a565b9150509250929050565b600060208284031215610cb657600080fd5b6000610cc484828501610c15565b91505092915050565b610cd681610f6d565b82525050565b6000610ce9601d83610ea1565b91507f416d6f756e74206d7573742062652067726561746572207468616e20300000006000830152602082019050919050565b6000610d29601483610ea1565b91507f496e73756666696369656e742062616c616e63650000000000000000000000006000830152602082019050919050565b6000610d69601b83610ea1565b91507f4f6e6c79206f776e65722063616e207472616e73666572206f757400000000006000830152602082019050919050565b610da581610fab565b82525050565b6000602082019050610dc06000830184610ccd565b92915050565b6000606082019050610ddb6000830186610ccd565b610de86020830185610ccd565b610df56040830184610d9c565b949350505050565b6000604082019050610e126000830185610ccd565b610e1f6020830184610d9c565b9392505050565b60006020820190508181036000830152610e3f81610cdc565b9050919050565b60006020820190508181036000830152610e5f81610d1c565b9050919050565b60006020820190508181036000830152610e7f81610d5c565b9050919050565b6000602082019050610e9b6000830184610d9c565b92915050565b600082825260208201905092915050565b6000610ebd82610fab565b9150610ec883610fab565b9250827fffffffffffffffffffffffffffffffffffffffffffffffffffffffffffffffff03821115610efd57610efc610fb5565b5b828201905092915050565b6000610f1382610fab565b9150610f1e83610fab565b925082610f2e57610f2d610fe4565b5b828204905092915050565b6000610f4482610fab565b9150610f4f83610fab565b925082821015610f6257610f61610fb5565b5b828203905092915050565b6000610f7882610f8b565b9050919050565b60008115159050919050565b600073ffffffffffffffffffffffffffffffffffffffff82169050919050565b6000819050919050565b7f4e487b7100000000000000000000000000000000000000000000000000000000600052601160045260246000fd5b7f4e487b7100000000000000000000000000000000000000000000000000000000600052601260045260246000fd5b61101c81610f6d565b811461102757600080fd5b50565b61103381610f7f565b811461103e57600080fd5b50565b61104a81610fab565b811461105557600080fd5b5056fea2646970667358221220bb37443148ac7df26de64c2c0360b639d964d0139ebb95e5c0efeee82184201a64736f6c63430008000033","opcodes":"PUSH1 0x80 PUSH1 0x40 MSTORE CALLVALUE DUP1 ISZERO PUSH3 0x11 JUMPI PUSH1 0x0 DUP1 REVERT JUMPDEST POP PUSH1 0x40 MLOAD PUSH3 0x11E9 CODESIZE SUB DUP1 PUSH3 0x11E9 DUP4 CODECOPY DUP2 DUP2 ADD PUSH1 0x40 MSTORE DUP2 ADD SWAP1 PUSH3 0x37 SWAP2 SWAP1 PUSH3 0xD1 JUMP JUMPDEST PUSH3 0x53 PUSH8 0xF3E0DCF256905177 PUSH1 0xC0 SHL PUSH3 0xB7 PUSH1 0x20 SHL PUSH1 0x20 SHR JUMP JUMPDEST PUSH3 0x6F PUSH8 0x80A297D2730280D1 PUSH1 0xC0 SHL PUSH3 0xB7 PUSH1 0x20 SHL PUSH1 0x20 SHR JUMP JUMPDEST DUP1 PUSH1 0x1 PUSH1 0x0 PUSH2 0x100 EXP DUP2 SLOAD DUP2 PUSH20 0xFFFFFFFFFFFFFFFFFFFFFFFFFFFFFFFFFFFFFFFF MUL NOT AND SWAP1 DUP4 PUSH20 0xFFFFFFFFFFFFFFFFFFFFFFFFFFFFFFFFFFFFFFFF AND MUL OR SWAP1 SSTORE POP POP PUSH3 0x14B JUMP JUMPDEST POP JUMP JUMPDEST PUSH1 0x0 DUP2 MLOAD SWAP1 POP PUSH3 0xCB DUP2 PUSH3 0x131 JUMP JUMPDEST SWAP3 SWAP2 POP POP JUMP JUMPDEST PUSH1 0x0 PUSH1 0x20 DUP3 DUP5 SUB SLT ISZERO PUSH3 0xE4 JUMPI PUSH1 0x0 DUP1 REVERT JUMPDEST PUSH1 0x0 PUSH3 0xF4 DUP5 DUP3 DUP6 ADD PUSH3 0xBA JUMP JUMPDEST SWAP2 POP POP SWAP3 SWAP2 POP POP JUMP JUMPDEST PUSH1 0x0 PUSH3 0x10A DUP3 PUSH3 0x111 JUMP JUMPDEST SWAP1 POP SWAP2 SWAP1 POP JUMP JUMPDEST PUSH1 0x0 PUSH20 0xFFFFFFFFFFFFFFFFFFFFFFFFFFFFFFFFFFFFFFFF DUP3 AND SWAP1 POP SWAP2 SWAP1 POP JUMP JUMPDEST PUSH3 0x13C DUP2 PUSH3 0xFD JUMP JUMPDEST DUP2 EQ PUSH3 0x148 JUMPI PUSH1 0x0 DUP1 REVERT JUMPDEST POP JUMP JUMPDEST PUSH2 0x108E DUP1 PUSH3 0x15B PUSH1 0x0 CODECOPY PUSH1 0x0 RETURN INVALID PUSH1 0x80 PUSH1 0x40 MSTORE CALLVALUE DUP1 ISZERO PUSH2 0x10 JUMPI PUSH1 0x0 DUP1 REVERT JUMPDEST POP PUSH1 0x4 CALLDATASIZE LT PUSH2 0x62 JUMPI PUSH1 0x0 CALLDATALOAD PUSH1 0xE0 SHR DUP1 PUSH4 0x47E7EF24 EQ PUSH2 0x67 JUMPI DUP1 PUSH4 0x70A08231 EQ PUSH2 0x83 JUMPI DUP1 PUSH4 0x893D20E8 EQ PUSH2 0xB3 JUMPI DUP1 PUSH4 0x8DA5CB5B EQ PUSH2 0xD1 JUMPI DUP1 PUSH4 0xA5BF8EC6 EQ PUSH2 0xEF JUMPI DUP1 PUSH4 0xF3FEF3A3 EQ PUSH2 0x10B JUMPI JUMPDEST PUSH1 0x0 DUP1 REVERT JUMPDEST PUSH2 0x81 PUSH1 0x4 DUP1 CALLDATASIZE SUB DUP2 ADD SWAP1 PUSH2 0x7C SWAP2 SWAP1 PUSH2 0xC68 JUMP JUMPDEST PUSH2 0x127 JUMP JUMPDEST STOP JUMPDEST PUSH2 0x9D PUSH1 0x4 DUP1 CALLDATASIZE SUB DUP2 ADD SWAP1 PUSH2 0x98 SWAP2 SWAP1 PUSH2 0xC3F JUMP JUMPDEST PUSH2 0x46C JUMP JUMPDEST PUSH1 0x40 MLOAD PUSH2 0xAA SWAP2 SWAP1 PUSH2 0xE86 JUMP JUMPDEST PUSH1 0x40 MLOAD DUP1 SWAP2 SUB SWAP1 RETURN JUMPDEST PUSH2 0xBB PUSH2 0x52D JUMP JUMPDEST PUSH1 0x40 MLOAD PUSH2 0xC8 SWAP2 SWAP1 PUSH2 0xDAB JUMP JUMPDEST PUSH1 0x40 MLOAD DUP1 SWAP2 SUB SWAP1 RETURN JUMPDEST PUSH2 0xD9 PUSH2 0x593 JUMP JUMPDEST PUSH1 0x40 MLOAD PUSH2 0xE6 SWAP2 SWAP1 PUSH2 0xDAB JUMP JUMPDEST PUSH1 0x40 MLOAD DUP1 SWAP2 SUB SWAP1 RETURN JUMPDEST PUSH2 0x109 PUSH1 0x4 DUP1 CALLDATASIZE SUB DUP2 ADD SWAP1 PUSH2 0x104 SWAP2 SWAP1 PUSH2 0xC3F JUMP JUMPDEST PUSH2 0x5B9 JUMP JUMPDEST STOP JUMPDEST PUSH2 0x125 PUSH1 0x4 DUP1 CALLDATASIZE SUB DUP2 ADD SWAP1 PUSH2 0x120 SWAP2 SWAP1 PUSH2 0xC68 JUMP JUMPDEST PUSH2 0x8E8 JUMP JUMPDEST STOP JUMPDEST PUSH2 0x13B PUSH8 0x4A32D6CF2ADCBF1C PUSH1 0xC0 SHL PUSH2 0xBFD JUMP JUMPDEST PUSH2 0x14F PUSH8 0x56ACF12C413EF600 PUSH1 0xC0 SHL PUSH2 0xBFD JUMP JUMPDEST PUSH2 0x163 PUSH8 0xA19DA07D082D9B34 PUSH1 0xC0 SHL PUSH2 0xBFD JUMP JUMPDEST PUSH2 0x177 PUSH8 0xD124CFA8DE31682C PUSH1 0xC0 SHL PUSH2 0xBFD JUMP JUMPDEST PUSH1 0x0 DUP2 GT PUSH2 0x1BA JUMPI PUSH1 0x40 MLOAD PUSH32 0x8C379A000000000000000000000000000000000000000000000000000000000 DUP2 MSTORE PUSH1 0x4 ADD PUSH2 0x1B1 SWAP1 PUSH2 0xE26 JUMP JUMPDEST PUSH1 0x40 MLOAD DUP1 SWAP2 SUB SWAP1 REVERT JUMPDEST PUSH2 0x1CE PUSH8 0xC42D7C7DB9DC1058 PUSH1 0xC0 SHL PUSH2 0xBFD JUMP JUMPDEST PUSH2 0x1E2 PUSH8 0xC7468688E55FB751 PUSH1 0xC0 SHL PUSH2 0xBFD JUMP JUMPDEST PUSH2 0x1F6 PUSH8 0x9A6FAA7D4AB7518C PUSH1 0xC0 SHL PUSH2 0xBFD JUMP JUMPDEST DUP2 PUSH20 0xFFFFFFFFFFFFFFFFFFFFFFFFFFFFFFFFFFFFFFFF AND PUSH4 0x23B872DD CALLER ADDRESS DUP5 PUSH1 0x40 MLOAD DUP5 PUSH4 0xFFFFFFFF AND PUSH1 0xE0 SHL DUP2 MSTORE PUSH1 0x4 ADD PUSH2 0x233 SWAP4 SWAP3 SWAP2 SWAP1 PUSH2 0xDC6 JUMP JUMPDEST PUSH1 0x20 PUSH1 0x40 MLOAD DUP1 DUP4 SUB DUP2 PUSH1 0x0 DUP8 DUP1 EXTCODESIZE ISZERO DUP1 ISZERO PUSH2 0x24D JUMPI PUSH1 0x0 DUP1 REVERT JUMPDEST POP GAS CALL ISZERO DUP1 ISZERO PUSH2 0x261 JUMPI RETURNDATASIZE PUSH1 0x0 DUP1 RETURNDATACOPY RETURNDATASIZE PUSH1 0x0 REVERT JUMPDEST POP POP POP POP PUSH1 0x40 MLOAD RETURNDATASIZE PUSH1 0x1F NOT PUSH1 0x1F DUP3 ADD AND DUP3 ADD DUP1 PUSH1 0x40 MSTORE POP DUP2 ADD SWAP1 PUSH2 0x285 SWAP2 SWAP1 PUSH2 0xCA4 JUMP JUMPDEST POP PUSH2 0x29A PUSH8 0xE252E19C86E5967F PUSH1 0xC0 SHL PUSH2 0xBFD JUMP JUMPDEST PUSH2 0x2AE PUSH8 0x43A94D22D929225E PUSH1 0xC0 SHL PUSH2 0xBFD JUMP JUMPDEST PUSH1 0x0 PUSH2 0x3E8 DUP3 PUSH2 0x2BE SWAP2 SWAP1 PUSH2 0xF08 JUMP JUMPDEST SWAP1 POP PUSH2 0x2D4 PUSH8 0xF4FED0D99771774 PUSH1 0xC0 SHL PUSH2 0xBFD JUMP JUMPDEST PUSH2 0x2E8 PUSH8 0xA270A2942ADC8EB7 PUSH1 0xC0 SHL PUSH2 0xBFD JUMP JUMPDEST PUSH1 0x0 DUP2 DUP4 PUSH2 0x2F6 SWAP2 SWAP1 PUSH2 0xF39 JUMP JUMPDEST SWAP1 POP PUSH2 0x30C PUSH8 0x3F002D58D0B5FF50 PUSH1 0xC0 SHL PUSH2 0xBFD JUMP JUMPDEST DUP1 PUSH1 0x0 DUP1 CALLER PUSH20 0xFFFFFFFFFFFFFFFFFFFFFFFFFFFFFFFFFFFFFFFF AND PUSH20 0xFFFFFFFFFFFFFFFFFFFFFFFFFFFFFFFFFFFFFFFF AND DUP2 MSTORE PUSH1 0x20 ADD SWAP1 DUP2 MSTORE PUSH1 0x20 ADD PUSH1 0x0 KECCAK256 PUSH1 0x0 DUP7 PUSH20 0xFFFFFFFFFFFFFFFFFFFFFFFFFFFFFFFFFFFFFFFF AND PUSH20 0xFFFFFFFFFFFFFFFFFFFFFFFFFFFFFFFFFFFFFFFF AND DUP2 MSTORE PUSH1 0x20 ADD SWAP1 DUP2 MSTORE PUSH1 0x20 ADD PUSH1 0x0 KECCAK256 PUSH1 0x0 DUP3 DUP3 SLOAD PUSH2 0x397 SWAP2 SWAP1 PUSH2 0xEB2 JUMP JUMPDEST SWAP3 POP POP DUP2 SWAP1 SSTORE POP PUSH2 0x3B2 PUSH8 0x4314E4E46F59EFC2 PUSH1 0xC0 SHL PUSH2 0xBFD JUMP JUMPDEST DUP2 PUSH1 0x0 DUP1 PUSH1 0x1 PUSH1 0x0 SWAP1 SLOAD SWAP1 PUSH2 0x100 EXP SWAP1 DIV PUSH20 0xFFFFFFFFFFFFFFFFFFFFFFFFFFFFFFFFFFFFFFFF AND PUSH20 0xFFFFFFFFFFFFFFFFFFFFFFFFFFFFFFFFFFFFFFFF AND PUSH20 0xFFFFFFFFFFFFFFFFFFFFFFFFFFFFFFFFFFFFFFFF AND DUP2 MSTORE PUSH1 0x20 ADD SWAP1 DUP2 MSTORE PUSH1 0x20 ADD PUSH1 0x0 KECCAK256 PUSH1 0x0 DUP7 PUSH20 0xFFFFFFFFFFFFFFFFFFFFFFFFFFFFFFFFFFFFFFFF AND PUSH20 0xFFFFFFFFFFFFFFFFFFFFFFFFFFFFFFFFFFFFFFFF AND DUP2 MSTORE PUSH1 0x20 ADD SWAP1 DUP2 MSTORE PUSH1 0x20 ADD PUSH1 0x0 KECCAK256 PUSH1 0x0 DUP3 DUP3 SLOAD PUSH2 0x45F SWAP2 SWAP1 PUSH2 0xEB2 JUMP JUMPDEST SWAP3 POP POP DUP2 SWAP1 SSTORE POP POP POP POP POP JUMP JUMPDEST PUSH1 0x0 PUSH2 0x482 PUSH8 0x1F8FFD56A8625058 PUSH1 0xC0 SHL PUSH2 0xBFD JUMP JUMPDEST PUSH2 0x496 PUSH8 0x2CAE6D371DE2473E PUSH1 0xC0 SHL PUSH2 0xBFD JUMP JUMPDEST PUSH2 0x4AA PUSH8 0x6D00F2FB00E480F4 PUSH1 0xC0 SHL PUSH2 0xBFD JUMP JUMPDEST PUSH1 0x0 DUP1 CALLER PUSH20 0xFFFFFFFFFFFFFFFFFFFFFFFFFFFFFFFFFFFFFFFF AND PUSH20 0xFFFFFFFFFFFFFFFFFFFFFFFFFFFFFFFFFFFFFFFF AND DUP2 MSTORE PUSH1 0x20 ADD SWAP1 DUP2 MSTORE PUSH1 0x20 ADD PUSH1 0x0 KECCAK256 PUSH1 0x0 DUP4 PUSH20 0xFFFFFFFFFFFFFFFFFFFFFFFFFFFFFFFFFFFFFFFF AND PUSH20 0xFFFFFFFFFFFFFFFFFFFFFFFFFFFFFFFFFFFFFFFF AND DUP2 MSTORE PUSH1 0x20 ADD SWAP1 DUP2 MSTORE PUSH1 0x20 ADD PUSH1 0x0 KECCAK256 SLOAD SWAP1 POP SWAP2 SWAP1 POP JUMP JUMPDEST PUSH1 0x0 PUSH2 0x543 PUSH8 0x5CABBB8B8B36F1DF PUSH1 0xC0 SHL PUSH2 0xBFD JUMP JUMPDEST PUSH2 0x557 PUSH8 0xE5641F50649B399A PUSH1 0xC0 SHL PUSH2 0xBFD JUMP JUMPDEST PUSH2 0x56B PUSH8 0x38CB44F9297A02CD PUSH1 0xC0 SHL PUSH2 0xBFD JUMP JUMPDEST PUSH1 0x1 PUSH1 0x0 SWAP1 SLOAD SWAP1 PUSH2 0x100 EXP SWAP1 DIV PUSH20 0xFFFFFFFFFFFFFFFFFFFFFFFFFFFFFFFFFFFFFFFF AND SWAP1 POP SWAP1 JUMP JUMPDEST PUSH1 0x1 PUSH1 0x0 SWAP1 SLOAD SWAP1 PUSH2 0x100 EXP SWAP1 DIV PUSH20 0xFFFFFFFFFFFFFFFFFFFFFFFFFFFFFFFFFFFFFFFF AND DUP2 JUMP JUMPDEST PUSH2 0x5CD PUSH8 0xADD117EC7879F3C6 PUSH1 0xC0 SHL PUSH2 0xBFD JUMP JUMPDEST PUSH2 0x5E1 PUSH8 0xC2832F8E0127CA29 PUSH1 0xC0 SHL PUSH2 0xBFD JUMP JUMPDEST PUSH2 0x5F5 PUSH8 0x65BCC9A5416582A9 PUSH1 0xC0 SHL PUSH2 0xBFD JUMP JUMPDEST PUSH2 0x609 PUSH8 0xF641CAC2F7BD578C PUSH1 0xC0 SHL PUSH2 0xBFD JUMP JUMPDEST PUSH1 0x1 PUSH1 0x0 SWAP1 SLOAD SWAP1 PUSH2 0x100 EXP SWAP1 DIV PUSH20 0xFFFFFFFFFFFFFFFFFFFFFFFFFFFFFFFFFFFFFFFF AND PUSH20 0xFFFFFFFFFFFFFFFFFFFFFFFFFFFFFFFFFFFFFFFF AND CALLER PUSH20 0xFFFFFFFFFFFFFFFFFFFFFFFFFFFFFFFFFFFFFFFF AND EQ PUSH2 0x699 JUMPI PUSH1 0x40 MLOAD PUSH32 0x8C379A000000000000000000000000000000000000000000000000000000000 DUP2 MSTORE PUSH1 0x4 ADD PUSH2 0x690 SWAP1 PUSH2 0xE66 JUMP JUMPDEST PUSH1 0x40 MLOAD DUP1 SWAP2 SUB SWAP1 REVERT JUMPDEST PUSH2 0x6AD PUSH8 0x35C8CAB8EC379F16 PUSH1 0xC0 SHL PUSH2 0xBFD JUMP JUMPDEST PUSH2 0x6C1 PUSH8 0xC1928BFB0DA5E888 PUSH1 0xC0 SHL PUSH2 0xBFD JUMP JUMPDEST PUSH2 0x6D5 PUSH8 0xF97DB5FB2358AA9D PUSH1 0xC0 SHL PUSH2 0xBFD JUMP JUMPDEST PUSH1 0x0 DUP1 PUSH1 0x0 PUSH1 0x1 PUSH1 0x0 SWAP1 SLOAD SWAP1 PUSH2 0x100 EXP SWAP1 DIV PUSH20 0xFFFFFFFFFFFFFFFFFFFFFFFFFFFFFFFFFFFFFFFF AND PUSH20 0xFFFFFFFFFFFFFFFFFFFFFFFFFFFFFFFFFFFFFFFF AND PUSH20 0xFFFFFFFFFFFFFFFFFFFFFFFFFFFFFFFFFFFFFFFF AND DUP2 MSTORE PUSH1 0x20 ADD SWAP1 DUP2 MSTORE PUSH1 0x20 ADD PUSH1 0x0 KECCAK256 PUSH1 0x0 DUP4 PUSH20 0xFFFFFFFFFFFFFFFFFFFFFFFFFFFFFFFFFFFFFFFF AND PUSH20 0xFFFFFFFFFFFFFFFFFFFFFFFFFFFFFFFFFFFFFFFF AND DUP2 MSTORE PUSH1 0x20 ADD SWAP1 DUP2 MSTORE PUSH1 0x20 ADD PUSH1 0x0 KECCAK256 SLOAD SWAP1 POP PUSH2 0x78B PUSH8 0xA2FBD030A2A69403 PUSH1 0xC0 SHL PUSH2 0xBFD JUMP JUMPDEST PUSH2 0x79F PUSH8 0x8A89E88D7CEA72C6 PUSH1 0xC0 SHL PUSH2 0xBFD JUMP JUMPDEST DUP2 PUSH20 0xFFFFFFFFFFFFFFFFFFFFFFFFFFFFFFFFFFFFFFFF AND PUSH4 0xA9059CBB CALLER DUP4 PUSH1 0x40 MLOAD DUP4 PUSH4 0xFFFFFFFF AND PUSH1 0xE0 SHL DUP2 MSTORE PUSH1 0x4 ADD PUSH2 0x7DA SWAP3 SWAP2 SWAP1 PUSH2 0xDFD JUMP JUMPDEST PUSH1 0x20 PUSH1 0x40 MLOAD DUP1 DUP4 SUB DUP2 PUSH1 0x0 DUP8 DUP1 EXTCODESIZE ISZERO DUP1 ISZERO PUSH2 0x7F4 JUMPI PUSH1 0x0 DUP1 REVERT JUMPDEST POP GAS CALL ISZERO DUP1 ISZERO PUSH2 0x808 JUMPI RETURNDATASIZE PUSH1 0x0 DUP1 RETURNDATACOPY RETURNDATASIZE PUSH1 0x0 REVERT JUMPDEST POP POP POP POP PUSH1 0x40 MLOAD RETURNDATASIZE PUSH1 0x1F NOT PUSH1 0x1F DUP3 ADD AND DUP3 ADD DUP1 PUSH1 0x40 MSTORE POP DUP2 ADD SWAP1 PUSH2 0x82C SWAP2 SWAP1 PUSH2 0xCA4 JUMP JUMPDEST POP PUSH2 0x841 PUSH8 0x4EC6E9FFB84EEC2A PUSH1 0xC0 SHL PUSH2 0xBFD JUMP JUMPDEST PUSH1 0x0 DUP1 PUSH1 0x0 PUSH1 0x1 PUSH1 0x0 SWAP1 SLOAD SWAP1 PUSH2 0x100 EXP SWAP1 DIV PUSH20 0xFFFFFFFFFFFFFFFFFFFFFFFFFFFFFFFFFFFFFFFF AND PUSH20 0xFFFFFFFFFFFFFFFFFFFFFFFFFFFFFFFFFFFFFFFF AND PUSH20 0xFFFFFFFFFFFFFFFFFFFFFFFFFFFFFFFFFFFFFFFF AND DUP2 MSTORE PUSH1 0x20 ADD SWAP1 DUP2 MSTORE PUSH1 0x20 ADD PUSH1 0x0 KECCAK256 PUSH1 0x0 DUP5 PUSH20 0xFFFFFFFFFFFFFFFFFFFFFFFFFFFFFFFFFFFFFFFF AND PUSH20 0xFFFFFFFFFFFFFFFFFFFFFFFFFFFFFFFFFFFFFFFF AND DUP2 MSTORE PUSH1 0x20 ADD SWAP1 DUP2 MSTORE PUSH1 0x20 ADD PUSH1 0x0 KECCAK256 DUP2 SWAP1 SSTORE POP POP POP JUMP JUMPDEST PUSH2 0x8FC PUSH8 0x9B48360E5746A393 PUSH1 0xC0 SHL PUSH2 0xBFD JUMP JUMPDEST PUSH2 0x910 PUSH8 0x6E04B93BDAE267E3 PUSH1 0xC0 SHL PUSH2 0xBFD JUMP JUMPDEST PUSH2 0x924 PUSH8 0xD9876BD4071C269B PUSH1 0xC0 SHL PUSH2 0xBFD JUMP JUMPDEST PUSH2 0x938 PUSH8 0x500B24C3CD59FFB PUSH1 0xC0 SHL PUSH2 0xBFD JUMP JUMPDEST PUSH1 0x0 DUP2 GT PUSH2 0x97B JUMPI PUSH1 0x40 MLOAD PUSH32 0x8C379A000000000000000000000000000000000000000000000000000000000 DUP2 MSTORE PUSH1 0x4 ADD PUSH2 0x972 SWAP1 PUSH2 0xE26 JUMP JUMPDEST PUSH1 0x40 MLOAD DUP1 SWAP2 SUB SWAP1 REVERT JUMPDEST PUSH2 0x98F PUSH8 0x75A765BD351AAF44 PUSH1 0xC0 SHL PUSH2 0xBFD JUMP JUMPDEST PUSH2 0x9A3 PUSH8 0x6933283E1161702E PUSH1 0xC0 SHL PUSH2 0xBFD JUMP JUMPDEST PUSH2 0x9B7 PUSH8 0xF250D1FEB9C72F5 PUSH1 0xC0 SHL PUSH2 0xBFD JUMP JUMPDEST PUSH2 0x9CB PUSH8 0xFB454D1FC565996A PUSH1 0xC0 SHL PUSH2 0xBFD JUMP JUMPDEST DUP1 PUSH1 0x0 DUP1 CALLER PUSH20 0xFFFFFFFFFFFFFFFFFFFFFFFFFFFFFFFFFFFFFFFF AND PUSH20 0xFFFFFFFFFFFFFFFFFFFFFFFFFFFFFFFFFFFFFFFF AND DUP2 MSTORE PUSH1 0x20 ADD SWAP1 DUP2 MSTORE PUSH1 0x20 ADD PUSH1 0x0 KECCAK256 PUSH1 0x0 DUP5 PUSH20 0xFFFFFFFFFFFFFFFFFFFFFFFFFFFFFFFFFFFFFFFF AND PUSH20 0xFFFFFFFFFFFFFFFFFFFFFFFFFFFFFFFFFFFFFFFF AND DUP2 MSTORE PUSH1 0x20 ADD SWAP1 DUP2 MSTORE PUSH1 0x20 ADD PUSH1 0x0 KECCAK256 SLOAD LT ISZERO PUSH2 0xA89 JUMPI PUSH1 0x40 MLOAD PUSH32 0x8C379A000000000000000000000000000000000000000000000000000000000 DUP2 MSTORE PUSH1 0x4 ADD PUSH2 0xA80 SWAP1 PUSH2 0xE46 JUMP JUMPDEST PUSH1 0x40 MLOAD DUP1 SWAP2 SUB SWAP1 REVERT JUMPDEST PUSH2 0xA9D PUSH8 0xE2387A69C0877E28 PUSH1 0xC0 SHL PUSH2 0xBFD JUMP JUMPDEST PUSH2 0xAB1 PUSH8 0x50DE72C56AD29839 PUSH1 0xC0 SHL PUSH2 0xBFD JUMP JUMPDEST PUSH2 0xAC5 PUSH8 0xF1896B27841668CF PUSH1 0xC0 SHL PUSH2 0xBFD JUMP JUMPDEST DUP2 PUSH20 0xFFFFFFFFFFFFFFFFFFFFFFFFFFFFFFFFFFFFFFFF AND PUSH4 0xA9059CBB CALLER DUP4 PUSH1 0x40 MLOAD DUP4 PUSH4 0xFFFFFFFF AND PUSH1 0xE0 SHL DUP2 MSTORE PUSH1 0x4 ADD PUSH2 0xB00 SWAP3 SWAP2 SWAP1 PUSH2 0xDFD JUMP JUMPDEST PUSH1 0x20 PUSH1 0x40 MLOAD DUP1 DUP4 SUB DUP2 PUSH1 0x0 DUP8 DUP1 EXTCODESIZE ISZERO DUP1 ISZERO PUSH2 0xB1A JUMPI PUSH1 0x0 DUP1 REVERT JUMPDEST POP GAS CALL ISZERO DUP1 ISZERO PUSH2 0xB2E JUMPI RETURNDATASIZE PUSH1 0x0 DUP1 RETURNDATACOPY RETURNDATASIZE PUSH1 0x0 REVERT JUMPDEST POP POP POP POP PUSH1 0x40 MLOAD RETURNDATASIZE PUSH1 0x1F NOT PUSH1 0x1F DUP3 ADD AND DUP3 ADD DUP1 PUSH1 0x40 MSTORE POP DUP2 ADD SWAP1 PUSH2 0xB52 SWAP2 SWAP1 PUSH2 0xCA4 JUMP JUMPDEST POP PUSH2 0xB67 PUSH8 0x4617020797E246A2 PUSH1 0xC0 SHL PUSH2 0xBFD JUMP JUMPDEST DUP1 PUSH1 0x0 DUP1 CALLER PUSH20 0xFFFFFFFFFFFFFFFFFFFFFFFFFFFFFFFFFFFFFFFF AND PUSH20 0xFFFFFFFFFFFFFFFFFFFFFFFFFFFFFFFFFFFFFFFF AND DUP2 MSTORE PUSH1 0x20 ADD SWAP1 DUP2 MSTORE PUSH1 0x20 ADD PUSH1 0x0 KECCAK256 PUSH1 0x0 DUP5 PUSH20 0xFFFFFFFFFFFFFFFFFFFFFFFFFFFFFFFFFFFFFFFF AND PUSH20 0xFFFFFFFFFFFFFFFFFFFFFFFFFFFFFFFFFFFFFFFF AND DUP2 MSTORE PUSH1 0x20 ADD SWAP1 DUP2 MSTORE PUSH1 0x20 ADD PUSH1 0x0 KECCAK256 PUSH1 0x0 DUP3 DUP3 SLOAD PUSH2 0xBF2 SWAP2 SWAP1 PUSH2 0xF39 JUMP JUMPDEST SWAP3 POP POP DUP2 SWAP1 SSTORE POP POP POP JUMP JUMPDEST POP JUMP JUMPDEST PUSH1 0x0 DUP2 CALLDATALOAD SWAP1 POP PUSH2 0xC0F DUP2 PUSH2 0x1013 JUMP JUMPDEST SWAP3 SWAP2 POP POP JUMP JUMPDEST PUSH1 0x0 DUP2 MLOAD SWAP1 POP PUSH2 0xC24 DUP2 PUSH2 0x102A JUMP JUMPDEST SWAP3 SWAP2 POP POP JUMP JUMPDEST PUSH1 0x0 DUP2 CALLDATALOAD SWAP1 POP PUSH2 0xC39 DUP2 PUSH2 0x1041 JUMP JUMPDEST SWAP3 SWAP2 POP POP JUMP JUMPDEST PUSH1 0x0 PUSH1 0x20 DUP3 DUP5 SUB SLT ISZERO PUSH2 0xC51 JUMPI PUSH1 0x0 DUP1 REVERT JUMPDEST PUSH1 0x0 PUSH2 0xC5F DUP5 DUP3 DUP6 ADD PUSH2 0xC00 JUMP JUMPDEST SWAP2 POP POP SWAP3 SWAP2 POP POP JUMP JUMPDEST PUSH1 0x0 DUP1 PUSH1 0x40 DUP4 DUP6 SUB SLT ISZERO PUSH2 0xC7B JUMPI PUSH1 0x0 DUP1 REVERT JUMPDEST PUSH1 0x0 PUSH2 0xC89 DUP6 DUP3 DUP7 ADD PUSH2 0xC00 JUMP JUMPDEST SWAP3 POP POP PUSH1 0x20 PUSH2 0xC9A DUP6 DUP3 DUP7 ADD PUSH2 0xC2A JUMP JUMPDEST SWAP2 POP POP SWAP3 POP SWAP3 SWAP1 POP JUMP JUMPDEST PUSH1 0x0 PUSH1 0x20 DUP3 DUP5 SUB SLT ISZERO PUSH2 0xCB6 JUMPI PUSH1 0x0 DUP1 REVERT JUMPDEST PUSH1 0x0 PUSH2 0xCC4 DUP5 DUP3 DUP6 ADD PUSH2 0xC15 JUMP JUMPDEST SWAP2 POP POP SWAP3 SWAP2 POP POP JUMP JUMPDEST PUSH2 0xCD6 DUP2 PUSH2 0xF6D JUMP JUMPDEST DUP3 MSTORE POP POP JUMP JUMPDEST PUSH1 0x0 PUSH2 0xCE9 PUSH1 0x1D DUP4 PUSH2 0xEA1 JUMP JUMPDEST SWAP2 POP PUSH32 0x416D6F756E74206D7573742062652067726561746572207468616E2030000000 PUSH1 0x0 DUP4 ADD MSTORE PUSH1 0x20 DUP3 ADD SWAP1 POP SWAP2 SWAP1 POP JUMP JUMPDEST PUSH1 0x0 PUSH2 0xD29 PUSH1 0x14 DUP4 PUSH2 0xEA1 JUMP JUMPDEST SWAP2 POP PUSH32 0x496E73756666696369656E742062616C616E6365000000000000000000000000 PUSH1 0x0 DUP4 ADD MSTORE PUSH1 0x20 DUP3 ADD SWAP1 POP SWAP2 SWAP1 POP JUMP JUMPDEST PUSH1 0x0 PUSH2 0xD69 PUSH1 0x1B DUP4 PUSH2 0xEA1 JUMP JUMPDEST SWAP2 POP PUSH32 0x4F6E6C79206F776E65722063616E207472616E73666572206F75740000000000 PUSH1 0x0 DUP4 ADD MSTORE PUSH1 0x20 DUP3 ADD SWAP1 POP SWAP2 SWAP1 POP JUMP JUMPDEST PUSH2 0xDA5 DUP2 PUSH2 0xFAB JUMP JUMPDEST DUP3 MSTORE POP POP JUMP JUMPDEST PUSH1 0x0 PUSH1 0x20 DUP3 ADD SWAP1 POP PUSH2 0xDC0 PUSH1 0x0 DUP4 ADD DUP5 PUSH2 0xCCD JUMP JUMPDEST SWAP3 SWAP2 POP POP JUMP JUMPDEST PUSH1 0x0 PUSH1 0x60 DUP3 ADD SWAP1 POP PUSH2 0xDDB PUSH1 0x0 DUP4 ADD DUP7 PUSH2 0xCCD JUMP JUMPDEST PUSH2 0xDE8 PUSH1 0x20 DUP4 ADD DUP6 PUSH2 0xCCD JUMP JUMPDEST PUSH2 0xDF5 PUSH1 0x40 DUP4 ADD DUP5 PUSH2 0xD9C JUMP JUMPDEST SWAP5 SWAP4 POP POP POP POP JUMP JUMPDEST PUSH1 0x0 PUSH1 0x40 DUP3 ADD SWAP1 POP PUSH2 0xE12 PUSH1 0x0 DUP4 ADD DUP6 PUSH2 0xCCD JUMP JUMPDEST PUSH2 0xE1F PUSH1 0x20 DUP4 ADD DUP5 PUSH2 0xD9C JUMP JUMPDEST SWAP4 SWAP3 POP POP POP JUMP JUMPDEST PUSH1 0x0 PUSH1 0x20 DUP3 ADD SWAP1 POP DUP2 DUP2 SUB PUSH1 0x0 DUP4 ADD MSTORE PUSH2 0xE3F DUP2 PUSH2 0xCDC JUMP JUMPDEST SWAP1 POP SWAP2 SWAP1 POP JUMP JUMPDEST PUSH1 0x0 PUSH1 0x20 DUP3 ADD SWAP1 POP DUP2 DUP2 SUB PUSH1 0x0 DUP4 ADD MSTORE PUSH2 0xE5F DUP2 PUSH2 0xD1C JUMP JUMPDEST SWAP1 POP SWAP2 SWAP1 POP JUMP JUMPDEST PUSH1 0x0 PUSH1 0x20 DUP3 ADD SWAP1 POP DUP2 DUP2 SUB PUSH1 0x0 DUP4 ADD MSTORE PUSH2 0xE7F DUP2 PUSH2 0xD5C JUMP JUMPDEST SWAP1 POP SWAP2 SWAP1 POP JUMP JUMPDEST PUSH1 0x0 PUSH1 0x20 DUP3 ADD SWAP1 POP PUSH2 0xE9B PUSH1 0x0 DUP4 ADD DUP5 PUSH2 0xD9C JUMP JUMPDEST SWAP3 SWAP2 POP POP JUMP JUMPDEST PUSH1 0x0 DUP3 DUP3 MSTORE PUSH1 0x20 DUP3 ADD SWAP1 POP SWAP3 SWAP2 POP POP JUMP JUMPDEST PUSH1 0x0 PUSH2 0xEBD DUP3 PUSH2 0xFAB JUMP JUMPDEST SWAP2 POP PUSH2 0xEC8 DUP4 PUSH2 0xFAB JUMP JUMPDEST SWAP3 POP DUP3 PUSH32 0xFFFFFFFFFFFFFFFFFFFFFFFFFFFFFFFFFFFFFFFFFFFFFFFFFFFFFFFFFFFFFFFF SUB DUP3 GT ISZERO PUSH2 0xEFD JUMPI PUSH2 0xEFC PUSH2 0xFB5 JUMP JUMPDEST JUMPDEST DUP3 DUP3 ADD SWAP1 POP SWAP3 SWAP2 POP POP JUMP JUMPDEST PUSH1 0x0 PUSH2 0xF13 DUP3 PUSH2 0xFAB JUMP JUMPDEST SWAP2 POP PUSH2 0xF1E DUP4 PUSH2 0xFAB JUMP JUMPDEST SWAP3 POP DUP3 PUSH2 0xF2E JUMPI PUSH2 0xF2D PUSH2 0xFE4 JUMP JUMPDEST JUMPDEST DUP3 DUP3 DIV SWAP1 POP SWAP3 SWAP2 POP POP JUMP JUMPDEST PUSH1 0x0 PUSH2 0xF44 DUP3 PUSH2 0xFAB JUMP JUMPDEST SWAP2 POP PUSH2 0xF4F DUP4 PUSH2 0xFAB JUMP JUMPDEST SWAP3 POP DUP3 DUP3 LT ISZERO PUSH2 0xF62 JUMPI PUSH2 0xF61 PUSH2 0xFB5 JUMP JUMPDEST JUMPDEST DUP3 DUP3 SUB SWAP1 POP SWAP3 SWAP2 POP POP JUMP JUMPDEST PUSH1 0x0 PUSH2 0xF78 DUP3 PUSH2 0xF8B JUMP JUMPDEST SWAP1 POP SWAP2 SWAP1 POP JUMP JUMPDEST PUSH1 0x0 DUP2 ISZERO ISZERO SWAP1 POP SWAP2 SWAP1 POP JUMP JUMPDEST PUSH1 0x0 PUSH20 0xFFFFFFFFFFFFFFFFFFFFFFFFFFFFFFFFFFFFFFFF DUP3 AND SWAP1 POP SWAP2 SWAP1 POP JUMP JUMPDEST PUSH1 0x0 DUP2 SWAP1 POP SWAP2 SWAP1 POP JUMP JUMPDEST PUSH32 0x4E487B7100000000000000000000000000000000000000000000000000000000 PUSH1 0x0 MSTORE PUSH1 0x11 PUSH1 0x4 MSTORE PUSH1 0x24 PUSH1 0x0 REVERT JUMPDEST PUSH32 0x4E487B7100000000000000000000000000000000000000000000000000000000 PUSH1 0x0 MSTORE PUSH1 0x12 PUSH1 0x4 MSTORE PUSH1 0x24 PUSH1 0x0 REVERT JUMPDEST PUSH2 0x101C DUP2 PUSH2 0xF6D JUMP JUMPDEST DUP2 EQ PUSH2 0x1027 JUMPI PUSH1 0x0 DUP1 REVERT JUMPDEST POP JUMP JUMPDEST PUSH2 0x1033 DUP2 PUSH2 0xF7F JUMP JUMPDEST DUP2 EQ PUSH2 0x103E JUMPI PUSH1 0x0 DUP1 REVERT JUMPDEST POP JUMP JUMPDEST PUSH2 0x104A DUP2 PUSH2 0xFAB JUMP JUMPDEST DUP2 EQ PUSH2 0x1055 JUMPI PUSH1 0x0 DUP1 REVERT JUMPDEST POP JUMP INVALID LOG2 PUSH5 0x6970667358 0x22 SLT KECCAK256 0xBB CALLDATACOPY DIFFICULTY BALANCE 0x48 0xAC PUSH30 0xF26DE64C2C0360B639D964D0139EBB95E5C0EFEEE82184201A64736F6C63 NUMBER STOP ADDMOD STOP STOP CALLER "},"methodIdentifiers":{"balanceOf(address)":"70a08231","deposit(address,uint256)":"47e7ef24","getOwner()":"893d20e8","owner()":"8da5cb5b","takeFee(address)":"a5bf8ec6","withdraw(address,uint256)":"f3fef3a3"}}}}}