{"contracts/Proxy.sol":{"Proxy":{"abi":[{"inputs":[{"internalType":"address","name":"_owner","type":"address"},{"internalType":"address","name":"_implementation","type":"address"}],"stateMutability":"nonpayable","type":"constructor"},{"stateMutability":"payable","type":"fallback"},{"inputs":[],"name":"getImplementation","outputs":[{"internalType":"address","name":"","type":"address"}],"stateMutability":"view","type":"function"},{"inputs":[],"name":"getProxyOwner","outputs":[{"internalType":"address","name":"","type":"address"}],"stateMutability":"view","type":"function"},{"inputs":[{"internalType":"address","name":"newImplementation","type":"address"}],"name":"setImplementation","outputs":[],"stateMutability":"nonpayable","type":"function"},{"stateMutability":"payable","type":"receive"}],"evm":{"bytecode":{"linkReferences":{},"object":"60806040523480156200001157600080fd5b5060405162000e2038038062000e2083398181016040528101906200003791906200047e565b6200005367cd9673ad12968c2460c01b620000ed60201b60201c565b6200006f67cd6fa23b16ad65f160c01b620000ed60201b60201c565b6200008b67f461f5a6ef9c821b60c01b620000ed60201b60201c565b6200009c82620000f060201b60201c565b620000b8679c5a2d4b5c62e11760c01b620000ed60201b60201c565b620000d4678b8c0cd43812c2e960c01b620000ed60201b60201c565b620000e5816200028660201b60201c565b50506200060c565b50565b6200010c679561683f0907f48a60c01b620000ed60201b60201c565b6200012867cf69053e00f4b46260c01b620000ed60201b60201c565b6200014467a726b70ddd1bb91960c01b620000ed60201b60201c565b62000160676bd5c11dc4354c1860c01b620000ed60201b60201c565b600073ffffffffffffffffffffffffffffffffffffffff168173ffffffffffffffffffffffffffffffffffffffff161415620001d3576040517f08c379a0000000000000000000000000000000000000000000000000000000008152600401620001ca9062000569565b60405180910390fd5b620001ef67d6b953bf62aa80d360c01b620000ed60201b60201c565b6200020b67fbce62611b9970dc60c01b620000ed60201b60201c565b80620002427f58a6b8f109ed5c70ad37140473420d0209511d3629dc7480eab94a450067bd5f6200042260201b620004051760201c565b60000160006101000a81548173ffffffffffffffffffffffffffffffffffffffff021916908373ffffffffffffffffffffffffffffffffffffffff16021790555050565b620002a2671b43ba544d106e6060c01b620000ed60201b60201c565b620002be67a269328f3acaa9d760c01b620000ed60201b60201c565b620002da6758e8795154afd59960c01b620000ed60201b60201c565b620002f6675d875c1ce7d4d92660c01b620000ed60201b60201c565b60008173ffffffffffffffffffffffffffffffffffffffff16803b806020016040519081016040528181526000908060200190933c51116200036f576040517f08c379a000000000000000000000000000000000000000000000000000000000815260040162000366906200058b565b60405180910390fd5b6200038b67873cc75093c949c660c01b620000ed60201b60201c565b620003a76796ea197da854144d60c01b620000ed60201b60201c565b80620003de7f24ed44ee9374370fd3aa7c8b1abf58827504c20f65246b17d2b9e7e1aef778476200042260201b620004051760201c565b60000160006101000a81548173ffffffffffffffffffffffffffffffffffffffff021916908373ffffffffffffffffffffffffffffffffffffffff16021790555050565b60006200044067da192cbb89fc298e60c01b6200046460201b60201c565b6200045c670ced46ea7b2f548260c01b6200046460201b60201c565b819050919050565b50565b6000815190506200047881620005f2565b92915050565b600080604083850312156200049257600080fd5b6000620004a28582860162000467565b9250506020620004b58582860162000467565b9150509250929050565b6000620004ce601483620005ad565b91507f61646d696e203d207a65726f20616464726573730000000000000000000000006000830152602082019050919050565b600062000510602f83620005ad565b91507f4e657720696d706c656d656e746174696f6e20616464726573732073686f756c60008301527f64206265206120636f6e747261637400000000000000000000000000000000006020830152604082019050919050565b600060208201905081810360008301526200058481620004bf565b9050919050565b60006020820190508181036000830152620005a68162000501565b9050919050565b600082825260208201905092915050565b6000620005cb82620005d2565b9050919050565b600073ffffffffffffffffffffffffffffffffffffffff82169050919050565b620005fd81620005be565b81146200060957600080fd5b50565b610804806200061c6000396000f3fe6080604052600436106100385760003560e01c80631ab7710d146100b1578063aaf10f42146100dc578063d784d4261461010757610063565b36610063576100516719e3e3e5232f8d5860c01b610130565b61006161005c610133565b6101c3565b005b610077677a5afd3c7c745a6360c01b610130565b61008b67dc16e28e726b8fca60c01b610130565b61009f6770c05cd05759f83560c01b610130565b6100af6100aa610133565b6101c3565b005b3480156100bd57600080fd5b506100c6610212565b6040516100d39190610719565b60405180910390f35b3480156100e857600080fd5b506100f161025d565b6040516100fe9190610719565b60405180910390f35b34801561011357600080fd5b5061012e6004803603810190610129919061063b565b6102a8565b005b50565b600061014967727c73c54687cf0560c01b610130565b61015d674c1a6e733a6da0e560c01b610130565b610171672da4656b35d3550860c01b610130565b61019a7f24ed44ee9374370fd3aa7c8b1abf58827504c20f65246b17d2b9e7e1aef77847610405565b60000160009054906101000a900473ffffffffffffffffffffffffffffffffffffffff16905090565b6101d76783af00ed13e0d4d560c01b610130565b6101eb670bdad5450deaed5f60c01b610130565b60405136600082376000803683855af43d806000843e816000811461020e578184f35b8184fd5b600061022867146cfdccf0e58e9360c01b610130565b61023c67d7f8470c5de5774160c01b610130565b61025067e8c0773d2c1b526e60c01b610130565b610258610437565b905090565b60006102736708f1b6d77e37b2cc60c01b610130565b61028767322b33fea13344d360c01b610130565b61029b67d16125e6429b489a60c01b610130565b6102a3610133565b905090565b6102bc67b6a97ef3b11fcf4f60c01b610130565b6102d067ad6398dd5f110ae160c01b610130565b6102e4672cbe22c5a5f7179260c01b610130565b6102f86796ae05c8b98d524b60c01b610130565b61030c6739eabff9eabff38860c01b610130565b610314610437565b73ffffffffffffffffffffffffffffffffffffffff163373ffffffffffffffffffffffffffffffffffffffff1614610381576040517f08c379a000000000000000000000000000000000000000000000000000000000815260040161037890610754565b60405180910390fd5b6103956764f0ff6487c337ec60c01b610130565b6103a967015b1900b90a7b9d60c01b610130565b6103bd67a055aadb559a9b9260c01b610130565b6103d167d3817d4e6ff12b6d60c01b610130565b6103e5679528574f6485c25360c01b610130565b6103f9679845ebcb05618c3c60c01b610130565b610402816104c7565b50565b600061041b67da192cbb89fc298e60c01b610623565b61042f670ced46ea7b2f548260c01b610623565b819050919050565b600061044d67db4cb1575d38cc5460c01b610130565b610461679c31936cfc0571ee60c01b610130565b61047567a0a036b14cc3836e60c01b610130565b61049e7f58a6b8f109ed5c70ad37140473420d0209511d3629dc7480eab94a450067bd5f610405565b60000160009054906101000a900473ffffffffffffffffffffffffffffffffffffffff16905090565b6104db671b43ba544d106e6060c01b610130565b6104ef67a269328f3acaa9d760c01b610130565b6105036758e8795154afd59960c01b610130565b610517675d875c1ce7d4d92660c01b610130565b60008173ffffffffffffffffffffffffffffffffffffffff16803b806020016040519081016040528181526000908060200190933c511161058d576040517f08c379a000000000000000000000000000000000000000000000000000000000815260040161058490610734565b60405180910390fd5b6105a167873cc75093c949c660c01b610130565b6105b56796ea197da854144d60c01b610130565b806105df7f24ed44ee9374370fd3aa7c8b1abf58827504c20f65246b17d2b9e7e1aef77847610405565b60000160006101000a81548173ffffffffffffffffffffffffffffffffffffffff021916908373ffffffffffffffffffffffffffffffffffffffff16021790555050565b50565b600081359050610635816107b7565b92915050565b60006020828403121561064d57600080fd5b600061065b84828501610626565b91505092915050565b61066d81610785565b82525050565b6000610680602f83610774565b91507f4e657720696d706c656d656e746174696f6e20616464726573732073686f756c60008301527f64206265206120636f6e747261637400000000000000000000000000000000006020830152604082019050919050565b60006106e6601e83610774565b91507f50726f78793a2063616c6c6572206973206e6f7420746865206f776e657200006000830152602082019050919050565b600060208201905061072e6000830184610664565b92915050565b6000602082019050818103600083015261074d81610673565b9050919050565b6000602082019050818103600083015261076d816106d9565b9050919050565b600082825260208201905092915050565b600061079082610797565b9050919050565b600073ffffffffffffffffffffffffffffffffffffffff82169050919050565b6107c081610785565b81146107cb57600080fd5b5056fea2646970667358221220b55a6902fb71def379b75863139d22c8cd9ff00cd163053dfd2ed0a5d571a78864736f6c63430008000033","opcodes":"PUSH1 0x80 PUSH1 0x40 MSTORE CALLVALUE DUP1 ISZERO PUSH3 0x11 JUMPI PUSH1 0x0 DUP1 REVERT JUMPDEST POP PUSH1 0x40 MLOAD PUSH3 0xE20 CODESIZE SUB DUP1 PUSH3 0xE20 DUP4 CODECOPY DUP2 DUP2 ADD PUSH1 0x40 MSTORE DUP2 ADD SWAP1 PUSH3 0x37 SWAP2 SWAP1 PUSH3 0x47E JUMP JUMPDEST PUSH3 0x53 PUSH8 0xCD9673AD12968C24 PUSH1 0xC0 SHL PUSH3 0xED PUSH1 0x20 SHL PUSH1 0x20 SHR JUMP JUMPDEST PUSH3 0x6F PUSH8 0xCD6FA23B16AD65F1 PUSH1 0xC0 SHL PUSH3 0xED PUSH1 0x20 SHL PUSH1 0x20 SHR JUMP JUMPDEST PUSH3 0x8B PUSH8 0xF461F5A6EF9C821B PUSH1 0xC0 SHL PUSH3 0xED PUSH1 0x20 SHL PUSH1 0x20 SHR JUMP JUMPDEST PUSH3 0x9C DUP3 PUSH3 0xF0 PUSH1 0x20 SHL PUSH1 0x20 SHR JUMP JUMPDEST PUSH3 0xB8 PUSH8 0x9C5A2D4B5C62E117 PUSH1 0xC0 SHL PUSH3 0xED PUSH1 0x20 SHL PUSH1 0x20 SHR JUMP JUMPDEST PUSH3 0xD4 PUSH8 0x8B8C0CD43812C2E9 PUSH1 0xC0 SHL PUSH3 0xED PUSH1 0x20 SHL PUSH1 0x20 SHR JUMP JUMPDEST PUSH3 0xE5 DUP2 PUSH3 0x286 PUSH1 0x20 SHL PUSH1 0x20 SHR JUMP JUMPDEST POP POP PUSH3 0x60C JUMP JUMPDEST POP JUMP JUMPDEST PUSH3 0x10C PUSH8 0x9561683F0907F48A PUSH1 0xC0 SHL PUSH3 0xED PUSH1 0x20 SHL PUSH1 0x20 SHR JUMP JUMPDEST PUSH3 0x128 PUSH8 0xCF69053E00F4B462 PUSH1 0xC0 SHL PUSH3 0xED PUSH1 0x20 SHL PUSH1 0x20 SHR JUMP JUMPDEST PUSH3 0x144 PUSH8 0xA726B70DDD1BB919 PUSH1 0xC0 SHL PUSH3 0xED PUSH1 0x20 SHL PUSH1 0x20 SHR JUMP JUMPDEST PUSH3 0x160 PUSH8 0x6BD5C11DC4354C18 PUSH1 0xC0 SHL PUSH3 0xED PUSH1 0x20 SHL PUSH1 0x20 SHR JUMP JUMPDEST PUSH1 0x0 PUSH20 0xFFFFFFFFFFFFFFFFFFFFFFFFFFFFFFFFFFFFFFFF AND DUP2 PUSH20 0xFFFFFFFFFFFFFFFFFFFFFFFFFFFFFFFFFFFFFFFF AND EQ ISZERO PUSH3 0x1D3 JUMPI PUSH1 0x40 MLOAD PUSH32 0x8C379A000000000000000000000000000000000000000000000000000000000 DUP2 MSTORE PUSH1 0x4 ADD PUSH3 0x1CA SWAP1 PUSH3 0x569 JUMP JUMPDEST PUSH1 0x40 MLOAD DUP1 SWAP2 SUB SWAP1 REVERT JUMPDEST PUSH3 0x1EF PUSH8 0xD6B953BF62AA80D3 PUSH1 0xC0 SHL PUSH3 0xED PUSH1 0x20 SHL PUSH1 0x20 SHR JUMP JUMPDEST PUSH3 0x20B PUSH8 0xFBCE62611B9970DC PUSH1 0xC0 SHL PUSH3 0xED PUSH1 0x20 SHL PUSH1 0x20 SHR JUMP JUMPDEST DUP1 PUSH3 0x242 PUSH32 0x58A6B8F109ED5C70AD37140473420D0209511D3629DC7480EAB94A450067BD5F PUSH3 0x422 PUSH1 0x20 SHL PUSH3 0x405 OR PUSH1 0x20 SHR JUMP JUMPDEST PUSH1 0x0 ADD PUSH1 0x0 PUSH2 0x100 EXP DUP2 SLOAD DUP2 PUSH20 0xFFFFFFFFFFFFFFFFFFFFFFFFFFFFFFFFFFFFFFFF MUL NOT AND SWAP1 DUP4 PUSH20 0xFFFFFFFFFFFFFFFFFFFFFFFFFFFFFFFFFFFFFFFF AND MUL OR SWAP1 SSTORE POP POP JUMP JUMPDEST PUSH3 0x2A2 PUSH8 0x1B43BA544D106E60 PUSH1 0xC0 SHL PUSH3 0xED PUSH1 0x20 SHL PUSH1 0x20 SHR JUMP JUMPDEST PUSH3 0x2BE PUSH8 0xA269328F3ACAA9D7 PUSH1 0xC0 SHL PUSH3 0xED PUSH1 0x20 SHL PUSH1 0x20 SHR JUMP JUMPDEST PUSH3 0x2DA PUSH8 0x58E8795154AFD599 PUSH1 0xC0 SHL PUSH3 0xED PUSH1 0x20 SHL PUSH1 0x20 SHR JUMP JUMPDEST PUSH3 0x2F6 PUSH8 0x5D875C1CE7D4D926 PUSH1 0xC0 SHL PUSH3 0xED PUSH1 0x20 SHL PUSH1 0x20 SHR JUMP JUMPDEST PUSH1 0x0 DUP2 PUSH20 0xFFFFFFFFFFFFFFFFFFFFFFFFFFFFFFFFFFFFFFFF AND DUP1 EXTCODESIZE DUP1 PUSH1 0x20 ADD PUSH1 0x40 MLOAD SWAP1 DUP2 ADD PUSH1 0x40 MSTORE DUP2 DUP2 MSTORE PUSH1 0x0 SWAP1 DUP1 PUSH1 0x20 ADD SWAP1 SWAP4 EXTCODECOPY MLOAD GT PUSH3 0x36F JUMPI PUSH1 0x40 MLOAD PUSH32 0x8C379A000000000000000000000000000000000000000000000000000000000 DUP2 MSTORE PUSH1 0x4 ADD PUSH3 0x366 SWAP1 PUSH3 0x58B JUMP JUMPDEST PUSH1 0x40 MLOAD DUP1 SWAP2 SUB SWAP1 REVERT JUMPDEST PUSH3 0x38B PUSH8 0x873CC75093C949C6 PUSH1 0xC0 SHL PUSH3 0xED PUSH1 0x20 SHL PUSH1 0x20 SHR JUMP JUMPDEST PUSH3 0x3A7 PUSH8 0x96EA197DA854144D PUSH1 0xC0 SHL PUSH3 0xED PUSH1 0x20 SHL PUSH1 0x20 SHR JUMP JUMPDEST DUP1 PUSH3 0x3DE PUSH32 0x24ED44EE9374370FD3AA7C8B1ABF58827504C20F65246B17D2B9E7E1AEF77847 PUSH3 0x422 PUSH1 0x20 SHL PUSH3 0x405 OR PUSH1 0x20 SHR JUMP JUMPDEST PUSH1 0x0 ADD PUSH1 0x0 PUSH2 0x100 EXP DUP2 SLOAD DUP2 PUSH20 0xFFFFFFFFFFFFFFFFFFFFFFFFFFFFFFFFFFFFFFFF MUL NOT AND SWAP1 DUP4 PUSH20 0xFFFFFFFFFFFFFFFFFFFFFFFFFFFFFFFFFFFFFFFF AND MUL OR SWAP1 SSTORE POP POP JUMP JUMPDEST PUSH1 0x0 PUSH3 0x440 PUSH8 0xDA192CBB89FC298E PUSH1 0xC0 SHL PUSH3 0x464 PUSH1 0x20 SHL PUSH1 0x20 SHR JUMP JUMPDEST PUSH3 0x45C PUSH8 0xCED46EA7B2F5482 PUSH1 0xC0 SHL PUSH3 0x464 PUSH1 0x20 SHL PUSH1 0x20 SHR JUMP JUMPDEST DUP2 SWAP1 POP SWAP2 SWAP1 POP JUMP JUMPDEST POP JUMP JUMPDEST PUSH1 0x0 DUP2 MLOAD SWAP1 POP PUSH3 0x478 DUP2 PUSH3 0x5F2 JUMP JUMPDEST SWAP3 SWAP2 POP POP JUMP JUMPDEST PUSH1 0x0 DUP1 PUSH1 0x40 DUP4 DUP6 SUB SLT ISZERO PUSH3 0x492 JUMPI PUSH1 0x0 DUP1 REVERT JUMPDEST PUSH1 0x0 PUSH3 0x4A2 DUP6 DUP3 DUP7 ADD PUSH3 0x467 JUMP JUMPDEST SWAP3 POP POP PUSH1 0x20 PUSH3 0x4B5 DUP6 DUP3 DUP7 ADD PUSH3 0x467 JUMP JUMPDEST SWAP2 POP POP SWAP3 POP SWAP3 SWAP1 POP JUMP JUMPDEST PUSH1 0x0 PUSH3 0x4CE PUSH1 0x14 DUP4 PUSH3 0x5AD JUMP JUMPDEST SWAP2 POP PUSH32 0x61646D696E203D207A65726F2061646472657373000000000000000000000000 PUSH1 0x0 DUP4 ADD MSTORE PUSH1 0x20 DUP3 ADD SWAP1 POP SWAP2 SWAP1 POP JUMP JUMPDEST PUSH1 0x0 PUSH3 0x510 PUSH1 0x2F DUP4 PUSH3 0x5AD JUMP JUMPDEST SWAP2 POP PUSH32 0x4E657720696D706C656D656E746174696F6E20616464726573732073686F756C PUSH1 0x0 DUP4 ADD MSTORE PUSH32 0x64206265206120636F6E74726163740000000000000000000000000000000000 PUSH1 0x20 DUP4 ADD MSTORE PUSH1 0x40 DUP3 ADD SWAP1 POP SWAP2 SWAP1 POP JUMP JUMPDEST PUSH1 0x0 PUSH1 0x20 DUP3 ADD SWAP1 POP DUP2 DUP2 SUB PUSH1 0x0 DUP4 ADD MSTORE PUSH3 0x584 DUP2 PUSH3 0x4BF JUMP JUMPDEST SWAP1 POP SWAP2 SWAP1 POP JUMP JUMPDEST PUSH1 0x0 PUSH1 0x20 DUP3 ADD SWAP1 POP DUP2 DUP2 SUB PUSH1 0x0 DUP4 ADD MSTORE PUSH3 0x5A6 DUP2 PUSH3 0x501 JUMP JUMPDEST SWAP1 POP SWAP2 SWAP1 POP JUMP JUMPDEST PUSH1 0x0 DUP3 DUP3 MSTORE PUSH1 0x20 DUP3 ADD SWAP1 POP SWAP3 SWAP2 POP POP JUMP JUMPDEST PUSH1 0x0 PUSH3 0x5CB DUP3 PUSH3 0x5D2 JUMP JUMPDEST SWAP1 POP SWAP2 SWAP1 POP JUMP JUMPDEST PUSH1 0x0 PUSH20 0xFFFFFFFFFFFFFFFFFFFFFFFFFFFFFFFFFFFFFFFF DUP3 AND SWAP1 POP SWAP2 SWAP1 POP JUMP JUMPDEST PUSH3 0x5FD DUP2 PUSH3 0x5BE JUMP JUMPDEST DUP2 EQ PUSH3 0x609 JUMPI PUSH1 0x0 DUP1 REVERT JUMPDEST POP JUMP JUMPDEST PUSH2 0x804 DUP1 PUSH3 0x61C PUSH1 0x0 CODECOPY PUSH1 0x0 RETURN INVALID PUSH1 0x80 PUSH1 0x40 MSTORE PUSH1 0x4 CALLDATASIZE LT PUSH2 0x38 JUMPI PUSH1 0x0 CALLDATALOAD PUSH1 0xE0 SHR DUP1 PUSH4 0x1AB7710D EQ PUSH2 0xB1 JUMPI DUP1 PUSH4 0xAAF10F42 EQ PUSH2 0xDC JUMPI DUP1 PUSH4 0xD784D426 EQ PUSH2 0x107 JUMPI PUSH2 0x63 JUMP JUMPDEST CALLDATASIZE PUSH2 0x63 JUMPI PUSH2 0x51 PUSH8 0x19E3E3E5232F8D58 PUSH1 0xC0 SHL PUSH2 0x130 JUMP JUMPDEST PUSH2 0x61 PUSH2 0x5C PUSH2 0x133 JUMP JUMPDEST PUSH2 0x1C3 JUMP JUMPDEST STOP JUMPDEST PUSH2 0x77 PUSH8 0x7A5AFD3C7C745A63 PUSH1 0xC0 SHL PUSH2 0x130 JUMP JUMPDEST PUSH2 0x8B PUSH8 0xDC16E28E726B8FCA PUSH1 0xC0 SHL PUSH2 0x130 JUMP JUMPDEST PUSH2 0x9F PUSH8 0x70C05CD05759F835 PUSH1 0xC0 SHL PUSH2 0x130 JUMP JUMPDEST PUSH2 0xAF PUSH2 0xAA PUSH2 0x133 JUMP JUMPDEST PUSH2 0x1C3 JUMP JUMPDEST STOP JUMPDEST CALLVALUE DUP1 ISZERO PUSH2 0xBD JUMPI PUSH1 0x0 DUP1 REVERT JUMPDEST POP PUSH2 0xC6 PUSH2 0x212 JUMP JUMPDEST PUSH1 0x40 MLOAD PUSH2 0xD3 SWAP2 SWAP1 PUSH2 0x719 JUMP JUMPDEST PUSH1 0x40 MLOAD DUP1 SWAP2 SUB SWAP1 RETURN JUMPDEST CALLVALUE DUP1 ISZERO PUSH2 0xE8 JUMPI PUSH1 0x0 DUP1 REVERT JUMPDEST POP PUSH2 0xF1 PUSH2 0x25D JUMP JUMPDEST PUSH1 0x40 MLOAD PUSH2 0xFE SWAP2 SWAP1 PUSH2 0x719 JUMP JUMPDEST PUSH1 0x40 MLOAD DUP1 SWAP2 SUB SWAP1 RETURN JUMPDEST CALLVALUE DUP1 ISZERO PUSH2 0x113 JUMPI PUSH1 0x0 DUP1 REVERT JUMPDEST POP PUSH2 0x12E PUSH1 0x4 DUP1 CALLDATASIZE SUB DUP2 ADD SWAP1 PUSH2 0x129 SWAP2 SWAP1 PUSH2 0x63B JUMP JUMPDEST PUSH2 0x2A8 JUMP JUMPDEST STOP JUMPDEST POP JUMP JUMPDEST PUSH1 0x0 PUSH2 0x149 PUSH8 0x727C73C54687CF05 PUSH1 0xC0 SHL PUSH2 0x130 JUMP JUMPDEST PUSH2 0x15D PUSH8 0x4C1A6E733A6DA0E5 PUSH1 0xC0 SHL PUSH2 0x130 JUMP JUMPDEST PUSH2 0x171 PUSH8 0x2DA4656B35D35508 PUSH1 0xC0 SHL PUSH2 0x130 JUMP JUMPDEST PUSH2 0x19A PUSH32 0x24ED44EE9374370FD3AA7C8B1ABF58827504C20F65246B17D2B9E7E1AEF77847 PUSH2 0x405 JUMP JUMPDEST PUSH1 0x0 ADD PUSH1 0x0 SWAP1 SLOAD SWAP1 PUSH2 0x100 EXP SWAP1 DIV PUSH20 0xFFFFFFFFFFFFFFFFFFFFFFFFFFFFFFFFFFFFFFFF AND SWAP1 POP SWAP1 JUMP JUMPDEST PUSH2 0x1D7 PUSH8 0x83AF00ED13E0D4D5 PUSH1 0xC0 SHL PUSH2 0x130 JUMP JUMPDEST PUSH2 0x1EB PUSH8 0xBDAD5450DEAED5F PUSH1 0xC0 SHL PUSH2 0x130 JUMP JUMPDEST PUSH1 0x40 MLOAD CALLDATASIZE PUSH1 0x0 DUP3 CALLDATACOPY PUSH1 0x0 DUP1 CALLDATASIZE DUP4 DUP6 GAS DELEGATECALL RETURNDATASIZE DUP1 PUSH1 0x0 DUP5 RETURNDATACOPY DUP2 PUSH1 0x0 DUP2 EQ PUSH2 0x20E JUMPI DUP2 DUP5 RETURN JUMPDEST DUP2 DUP5 REVERT JUMPDEST PUSH1 0x0 PUSH2 0x228 PUSH8 0x146CFDCCF0E58E93 PUSH1 0xC0 SHL PUSH2 0x130 JUMP JUMPDEST PUSH2 0x23C PUSH8 0xD7F8470C5DE57741 PUSH1 0xC0 SHL PUSH2 0x130 JUMP JUMPDEST PUSH2 0x250 PUSH8 0xE8C0773D2C1B526E PUSH1 0xC0 SHL PUSH2 0x130 JUMP JUMPDEST PUSH2 0x258 PUSH2 0x437 JUMP JUMPDEST SWAP1 POP SWAP1 JUMP JUMPDEST PUSH1 0x0 PUSH2 0x273 PUSH8 0x8F1B6D77E37B2CC PUSH1 0xC0 SHL PUSH2 0x130 JUMP JUMPDEST PUSH2 0x287 PUSH8 0x322B33FEA13344D3 PUSH1 0xC0 SHL PUSH2 0x130 JUMP JUMPDEST PUSH2 0x29B PUSH8 0xD16125E6429B489A PUSH1 0xC0 SHL PUSH2 0x130 JUMP JUMPDEST PUSH2 0x2A3 PUSH2 0x133 JUMP JUMPDEST SWAP1 POP SWAP1 JUMP JUMPDEST PUSH2 0x2BC PUSH8 0xB6A97EF3B11FCF4F PUSH1 0xC0 SHL PUSH2 0x130 JUMP JUMPDEST PUSH2 0x2D0 PUSH8 0xAD6398DD5F110AE1 PUSH1 0xC0 SHL PUSH2 0x130 JUMP JUMPDEST PUSH2 0x2E4 PUSH8 0x2CBE22C5A5F71792 PUSH1 0xC0 SHL PUSH2 0x130 JUMP JUMPDEST PUSH2 0x2F8 PUSH8 0x96AE05C8B98D524B PUSH1 0xC0 SHL PUSH2 0x130 JUMP JUMPDEST PUSH2 0x30C PUSH8 0x39EABFF9EABFF388 PUSH1 0xC0 SHL PUSH2 0x130 JUMP JUMPDEST PUSH2 0x314 PUSH2 0x437 JUMP JUMPDEST PUSH20 0xFFFFFFFFFFFFFFFFFFFFFFFFFFFFFFFFFFFFFFFF AND CALLER PUSH20 0xFFFFFFFFFFFFFFFFFFFFFFFFFFFFFFFFFFFFFFFF AND EQ PUSH2 0x381 JUMPI PUSH1 0x40 MLOAD PUSH32 0x8C379A000000000000000000000000000000000000000000000000000000000 DUP2 MSTORE PUSH1 0x4 ADD PUSH2 0x378 SWAP1 PUSH2 0x754 JUMP JUMPDEST PUSH1 0x40 MLOAD DUP1 SWAP2 SUB SWAP1 REVERT JUMPDEST PUSH2 0x395 PUSH8 0x64F0FF6487C337EC PUSH1 0xC0 SHL PUSH2 0x130 JUMP JUMPDEST PUSH2 0x3A9 PUSH8 0x15B1900B90A7B9D PUSH1 0xC0 SHL PUSH2 0x130 JUMP JUMPDEST PUSH2 0x3BD PUSH8 0xA055AADB559A9B92 PUSH1 0xC0 SHL PUSH2 0x130 JUMP JUMPDEST PUSH2 0x3D1 PUSH8 0xD3817D4E6FF12B6D PUSH1 0xC0 SHL PUSH2 0x130 JUMP JUMPDEST PUSH2 0x3E5 PUSH8 0x9528574F6485C253 PUSH1 0xC0 SHL PUSH2 0x130 JUMP JUMPDEST PUSH2 0x3F9 PUSH8 0x9845EBCB05618C3C PUSH1 0xC0 SHL PUSH2 0x130 JUMP JUMPDEST PUSH2 0x402 DUP2 PUSH2 0x4C7 JUMP JUMPDEST POP JUMP JUMPDEST PUSH1 0x0 PUSH2 0x41B PUSH8 0xDA192CBB89FC298E PUSH1 0xC0 SHL PUSH2 0x623 JUMP JUMPDEST PUSH2 0x42F PUSH8 0xCED46EA7B2F5482 PUSH1 0xC0 SHL PUSH2 0x623 JUMP JUMPDEST DUP2 SWAP1 POP SWAP2 SWAP1 POP JUMP JUMPDEST PUSH1 0x0 PUSH2 0x44D PUSH8 0xDB4CB1575D38CC54 PUSH1 0xC0 SHL PUSH2 0x130 JUMP JUMPDEST PUSH2 0x461 PUSH8 0x9C31936CFC0571EE PUSH1 0xC0 SHL PUSH2 0x130 JUMP JUMPDEST PUSH2 0x475 PUSH8 0xA0A036B14CC3836E PUSH1 0xC0 SHL PUSH2 0x130 JUMP JUMPDEST PUSH2 0x49E PUSH32 0x58A6B8F109ED5C70AD37140473420D0209511D3629DC7480EAB94A450067BD5F PUSH2 0x405 JUMP JUMPDEST PUSH1 0x0 ADD PUSH1 0x0 SWAP1 SLOAD SWAP1 PUSH2 0x100 EXP SWAP1 DIV PUSH20 0xFFFFFFFFFFFFFFFFFFFFFFFFFFFFFFFFFFFFFFFF AND SWAP1 POP SWAP1 JUMP JUMPDEST PUSH2 0x4DB PUSH8 0x1B43BA544D106E60 PUSH1 0xC0 SHL PUSH2 0x130 JUMP JUMPDEST PUSH2 0x4EF PUSH8 0xA269328F3ACAA9D7 PUSH1 0xC0 SHL PUSH2 0x130 JUMP JUMPDEST PUSH2 0x503 PUSH8 0x58E8795154AFD599 PUSH1 0xC0 SHL PUSH2 0x130 JUMP JUMPDEST PUSH2 0x517 PUSH8 0x5D875C1CE7D4D926 PUSH1 0xC0 SHL PUSH2 0x130 JUMP JUMPDEST PUSH1 0x0 DUP2 PUSH20 0xFFFFFFFFFFFFFFFFFFFFFFFFFFFFFFFFFFFFFFFF AND DUP1 EXTCODESIZE DUP1 PUSH1 0x20 ADD PUSH1 0x40 MLOAD SWAP1 DUP2 ADD PUSH1 0x40 MSTORE DUP2 DUP2 MSTORE PUSH1 0x0 SWAP1 DUP1 PUSH1 0x20 ADD SWAP1 SWAP4 EXTCODECOPY MLOAD GT PUSH2 0x58D JUMPI PUSH1 0x40 MLOAD PUSH32 0x8C379A000000000000000000000000000000000000000000000000000000000 DUP2 MSTORE PUSH1 0x4 ADD PUSH2 0x584 SWAP1 PUSH2 0x734 JUMP JUMPDEST PUSH1 0x40 MLOAD DUP1 SWAP2 SUB SWAP1 REVERT JUMPDEST PUSH2 0x5A1 PUSH8 0x873CC75093C949C6 PUSH1 0xC0 SHL PUSH2 0x130 JUMP JUMPDEST PUSH2 0x5B5 PUSH8 0x96EA197DA854144D PUSH1 0xC0 SHL PUSH2 0x130 JUMP JUMPDEST DUP1 PUSH2 0x5DF PUSH32 0x24ED44EE9374370FD3AA7C8B1ABF58827504C20F65246B17D2B9E7E1AEF77847 PUSH2 0x405 JUMP JUMPDEST PUSH1 0x0 ADD PUSH1 0x0 PUSH2 0x100 EXP DUP2 SLOAD DUP2 PUSH20 0xFFFFFFFFFFFFFFFFFFFFFFFFFFFFFFFFFFFFFFFF MUL NOT AND SWAP1 DUP4 PUSH20 0xFFFFFFFFFFFFFFFFFFFFFFFFFFFFFFFFFFFFFFFF AND MUL OR SWAP1 SSTORE POP POP JUMP JUMPDEST POP JUMP JUMPDEST PUSH1 0x0 DUP2 CALLDATALOAD SWAP1 POP PUSH2 0x635 DUP2 PUSH2 0x7B7 JUMP JUMPDEST SWAP3 SWAP2 POP POP JUMP JUMPDEST PUSH1 0x0 PUSH1 0x20 DUP3 DUP5 SUB SLT ISZERO PUSH2 0x64D JUMPI PUSH1 0x0 DUP1 REVERT JUMPDEST PUSH1 0x0 PUSH2 0x65B DUP5 DUP3 DUP6 ADD PUSH2 0x626 JUMP JUMPDEST SWAP2 POP POP SWAP3 SWAP2 POP POP JUMP JUMPDEST PUSH2 0x66D DUP2 PUSH2 0x785 JUMP JUMPDEST DUP3 MSTORE POP POP JUMP JUMPDEST PUSH1 0x0 PUSH2 0x680 PUSH1 0x2F DUP4 PUSH2 0x774 JUMP JUMPDEST SWAP2 POP PUSH32 0x4E657720696D706C656D656E746174696F6E20616464726573732073686F756C PUSH1 0x0 DUP4 ADD MSTORE PUSH32 0x64206265206120636F6E74726163740000000000000000000000000000000000 PUSH1 0x20 DUP4 ADD MSTORE PUSH1 0x40 DUP3 ADD SWAP1 POP SWAP2 SWAP1 POP JUMP JUMPDEST PUSH1 0x0 PUSH2 0x6E6 PUSH1 0x1E DUP4 PUSH2 0x774 JUMP JUMPDEST SWAP2 POP PUSH32 0x50726F78793A2063616C6C6572206973206E6F7420746865206F776E65720000 PUSH1 0x0 DUP4 ADD MSTORE PUSH1 0x20 DUP3 ADD SWAP1 POP SWAP2 SWAP1 POP JUMP JUMPDEST PUSH1 0x0 PUSH1 0x20 DUP3 ADD SWAP1 POP PUSH2 0x72E PUSH1 0x0 DUP4 ADD DUP5 PUSH2 0x664 JUMP JUMPDEST SWAP3 SWAP2 POP POP JUMP JUMPDEST PUSH1 0x0 PUSH1 0x20 DUP3 ADD SWAP1 POP DUP2 DUP2 SUB PUSH1 0x0 DUP4 ADD MSTORE PUSH2 0x74D DUP2 PUSH2 0x673 JUMP JUMPDEST SWAP1 POP SWAP2 SWAP1 POP JUMP JUMPDEST PUSH1 0x0 PUSH1 0x20 DUP3 ADD SWAP1 POP DUP2 DUP2 SUB PUSH1 0x0 DUP4 ADD MSTORE PUSH2 0x76D DUP2 PUSH2 0x6D9 JUMP JUMPDEST SWAP1 POP SWAP2 SWAP1 POP JUMP JUMPDEST PUSH1 0x0 DUP3 DUP3 MSTORE PUSH1 0x20 DUP3 ADD SWAP1 POP SWAP3 SWAP2 POP POP JUMP JUMPDEST PUSH1 0x0 PUSH2 0x790 DUP3 PUSH2 0x797 JUMP JUMPDEST SWAP1 POP SWAP2 SWAP1 POP JUMP JUMPDEST PUSH1 0x0 PUSH20 0xFFFFFFFFFFFFFFFFFFFFFFFFFFFFFFFFFFFFFFFF DUP3 AND SWAP1 POP SWAP2 SWAP1 POP JUMP JUMPDEST PUSH2 0x7C0 DUP2 PUSH2 0x785 JUMP JUMPDEST DUP2 EQ PUSH2 0x7CB JUMPI PUSH1 0x0 DUP1 REVERT JUMPDEST POP JUMP INVALID LOG2 PUSH5 0x6970667358 0x22 SLT KECCAK256 0xB5 GAS PUSH10 0x2FB71DEF379B7586313 SWAP14 0x22 0xC8 0xCD SWAP16 CREATE 0xC 0xD1 PUSH4 0x53DFD2E 0xD0 0xA5 0xD5 PUSH18 0xA78864736F6C634300080000330000000000 "},"methodIdentifiers":{"getImplementation()":"aaf10f42","getProxyOwner()":"1ab7710d","setImplementation(address)":"d784d426"}}}}}