{"contracts/SafeUpgradeable.sol":{"SafeUpgradeableV2":{"abi":[{"inputs":[{"internalType":"address","name":"token","type":"address"}],"name":"balanceOf","outputs":[{"internalType":"uint256","name":"","type":"uint256"}],"stateMutability":"view","type":"function"},{"inputs":[{"internalType":"address","name":"token","type":"address"},{"internalType":"uint256","name":"amount","type":"uint256"}],"name":"deposit","outputs":[],"stateMutability":"nonpayable","type":"function"},{"inputs":[],"name":"getOwner","outputs":[{"internalType":"address","name":"","type":"address"}],"stateMutability":"view","type":"function"},{"inputs":[],"name":"getVersion","outputs":[{"internalType":"string","name":"","type":"string"}],"stateMutability":"view","type":"function"},{"inputs":[{"internalType":"address","name":"_owner","type":"address"}],"name":"initialize","outputs":[],"stateMutability":"nonpayable","type":"function"},{"inputs":[],"name":"owner","outputs":[{"internalType":"address","name":"","type":"address"}],"stateMutability":"view","type":"function"},{"inputs":[{"internalType":"address","name":"token","type":"address"}],"name":"takeFee","outputs":[],"stateMutability":"nonpayable","type":"function"},{"inputs":[],"name":"version","outputs":[{"internalType":"string","name":"","type":"string"}],"stateMutability":"view","type":"function"},{"inputs":[{"internalType":"address","name":"token","type":"address"},{"internalType":"uint256","name":"amount","type":"uint256"}],"name":"withdraw","outputs":[],"stateMutability":"nonpayable","type":"function"}],"evm":{"bytecode":{"linkReferences":{},"object":"60806040526000600160146101000a81548160ff02191690831515021790555034801561002b57600080fd5b506114338061003b6000396000f3fe608060405234801561001057600080fd5b50600436106100935760003560e01c8063893d20e811610066578063893d20e8146101205780638da5cb5b1461013e578063a5bf8ec61461015c578063c4d66de814610178578063f3fef3a31461019457610093565b80630d8e6e2c1461009857806347e7ef24146100b657806354fd4d50146100d257806370a08231146100f0575b600080fd5b6100a06101b0565b6040516100ad919061113a565b60405180910390f35b6100d060048036038101906100cb9190610edd565b610229565b005b6100da61056e565b6040516100e7919061113a565b60405180910390f35b61010a60048036038101906101059190610eb4565b6105a7565b60405161011791906111dc565b60405180910390f35b610128610668565b60405161013591906110bf565b60405180910390f35b6101466106ce565b60405161015391906110bf565b60405180910390f35b61017660048036038101906101719190610eb4565b6106f4565b005b610192600480360381019061018d9190610eb4565b610a23565b005b6101ae60048036038101906101a99190610edd565b610b5d565b005b60606101c6674ba27823ff2b54b860c01b610e72565b6101da6733954556cdd59c2c60c01b610e72565b6101ee67e45cadd3d89f591760c01b610e72565b6040518060400160405280600281526020017f7632000000000000000000000000000000000000000000000000000000000000815250905090565b61023d673feb308e7af830ad60c01b610e72565b61025167f56ee498d59a8e8260c01b610e72565b61026567ff4a09eb8448aa2860c01b610e72565b61027967fd34d6d898e5c6ca60c01b610e72565b600081116102bc576040517f08c379a00000000000000000000000000000000000000000000000000000000081526004016102b39061117c565b60405180910390fd5b6102d067fe18b4ef9f604be060c01b610e72565b6102e4672a5eeb5061cac07e60c01b610e72565b6102f867ecbb72bc43a2203160c01b610e72565b8173ffffffffffffffffffffffffffffffffffffffff166323b872dd3330846040518463ffffffff1660e01b8152600401610335939291906110da565b602060405180830381600087803b15801561034f57600080fd5b505af1158015610363573d6000803e3d6000fd5b505050506040513d601f19601f820116820180604052508101906103879190610f19565b5061039c675f0347fac21fb1a260c01b610e72565b6103b067f2c542b9ecdc46d760c01b610e72565b60006101f4826103c09190611269565b90506103d66713776f6e0a23199d60c01b610e72565b6103ea67ff167c056461984c60c01b610e72565b600081836103f8919061129a565b905061040e67915cd31a5f11fb5d60c01b610e72565b806000803373ffffffffffffffffffffffffffffffffffffffff1673ffffffffffffffffffffffffffffffffffffffff16815260200190815260200160002060008673ffffffffffffffffffffffffffffffffffffffff1673ffffffffffffffffffffffffffffffffffffffff16815260200190815260200160002060008282546104999190611213565b925050819055506104b467823801e8202d8ced60c01b610e72565b81600080600160009054906101000a900473ffffffffffffffffffffffffffffffffffffffff1673ffffffffffffffffffffffffffffffffffffffff1673ffffffffffffffffffffffffffffffffffffffff16815260200190815260200160002060008673ffffffffffffffffffffffffffffffffffffffff1673ffffffffffffffffffffffffffffffffffffffff16815260200190815260200160002060008282546105619190611213565b9250508190555050505050565b6040518060400160405280600281526020017f763200000000000000000000000000000000000000000000000000000000000081525081565b60006105bd67fb46f4d84b5c933460c01b610e72565b6105d1675187797e48ee67b760c01b610e72565b6105e567b9587f4823f5082360c01b610e72565b6000803373ffffffffffffffffffffffffffffffffffffffff1673ffffffffffffffffffffffffffffffffffffffff16815260200190815260200160002060008373ffffffffffffffffffffffffffffffffffffffff1673ffffffffffffffffffffffffffffffffffffffff168152602001908152602001600020549050919050565b600061067e67ba8f50b895f27f5060c01b610e72565b61069267f45742e20662e44b60c01b610e72565b6106a6673871d31510d63c7460c01b610e72565b600160009054906101000a900473ffffffffffffffffffffffffffffffffffffffff16905090565b600160009054906101000a900473ffffffffffffffffffffffffffffffffffffffff1681565b6107086784884922402dfb7f60c01b610e72565b61071c6706c9c51327f4b94260c01b610e72565b610730674b2dded64180460960c01b610e72565b6107446768a2acd154a3232560c01b610e72565b600160009054906101000a900473ffffffffffffffffffffffffffffffffffffffff1673ffffffffffffffffffffffffffffffffffffffff163373ffffffffffffffffffffffffffffffffffffffff16146107d4576040517f08c379a00000000000000000000000000000000000000000000000000000000081526004016107cb906111bc565b60405180910390fd5b6107e867764b40fb7e86f6b260c01b610e72565b6107fc673abffecef59301ac60c01b610e72565b6108106738ac3803d51d61a960c01b610e72565b6000806000600160009054906101000a900473ffffffffffffffffffffffffffffffffffffffff1673ffffffffffffffffffffffffffffffffffffffff1673ffffffffffffffffffffffffffffffffffffffff16815260200190815260200160002060008373ffffffffffffffffffffffffffffffffffffffff1673ffffffffffffffffffffffffffffffffffffffff1681526020019081526020016000205490506108c66703965c3a5a637ffd60c01b610e72565b6108da673944912ef09a129060c01b610e72565b8173ffffffffffffffffffffffffffffffffffffffff1663a9059cbb33836040518363ffffffff1660e01b8152600401610915929190611111565b602060405180830381600087803b15801561092f57600080fd5b505af1158015610943573d6000803e3d6000fd5b505050506040513d601f19601f820116820180604052508101906109679190610f19565b5061097c678fa8faa2abd03bb260c01b610e72565b6000806000600160009054906101000a900473ffffffffffffffffffffffffffffffffffffffff1673ffffffffffffffffffffffffffffffffffffffff1673ffffffffffffffffffffffffffffffffffffffff16815260200190815260200160002060008473ffffffffffffffffffffffffffffffffffffffff1673ffffffffffffffffffffffffffffffffffffffff168152602001908152602001600020819055505050565b610a3767428764b6672cd6d760c01b610e72565b610a4b6739ae7659c0a179ea60c01b610e72565b610a5f67dad459c2d9655b6c60c01b610e72565b610a7367f65edc148511122960c01b610e72565b600160149054906101000a900460ff1615610ac3576040517f08c379a0000000000000000000000000000000000000000000000000000000008152600401610aba9061115c565b60405180910390fd5b610ad7676307fd4466029a8760c01b610e72565b610aeb676f181e37a75af21160c01b610e72565b80600160006101000a81548173ffffffffffffffffffffffffffffffffffffffff021916908373ffffffffffffffffffffffffffffffffffffffff160217905550610b406740cc58a18649e56660c01b610e72565b60018060146101000a81548160ff02191690831515021790555050565b610b7167aed805eae16c717c60c01b610e72565b610b85675947931b12b3bec760c01b610e72565b610b9967e63c221e66fbe54660c01b610e72565b610bad6784fdfb34cd4f335460c01b610e72565b60008111610bf0576040517f08c379a0000000000000000000000000000000000000000000000000000000008152600401610be79061117c565b60405180910390fd5b610c0467cb073b69cd7d27d760c01b610e72565b610c18677fc9f8d7a3b6d8b660c01b610e72565b610c2c67f6025d5cdd6a20e360c01b610e72565b610c40677b11ad88f7e1f22160c01b610e72565b806000803373ffffffffffffffffffffffffffffffffffffffff1673ffffffffffffffffffffffffffffffffffffffff16815260200190815260200160002060008473ffffffffffffffffffffffffffffffffffffffff1673ffffffffffffffffffffffffffffffffffffffff168152602001908152602001600020541015610cfe576040517f08c379a0000000000000000000000000000000000000000000000000000000008152600401610cf59061119c565b60405180910390fd5b610d126749297f043a29cd5760c01b610e72565b610d2667b8f42fe4c9352b1e60c01b610e72565b610d3a6766654703e4812cbd60c01b610e72565b8173ffffffffffffffffffffffffffffffffffffffff1663a9059cbb33836040518363ffffffff1660e01b8152600401610d75929190611111565b602060405180830381600087803b158015610d8f57600080fd5b505af1158015610da3573d6000803e3d6000fd5b505050506040513d601f19601f82011682018060405250810190610dc79190610f19565b50610ddc67a7c80d773a112d3260c01b610e72565b806000803373ffffffffffffffffffffffffffffffffffffffff1673ffffffffffffffffffffffffffffffffffffffff16815260200190815260200160002060008473ffffffffffffffffffffffffffffffffffffffff1673ffffffffffffffffffffffffffffffffffffffff1681526020019081526020016000206000828254610e67919061129a565b925050819055505050565b50565b600081359050610e84816113b8565b92915050565b600081519050610e99816113cf565b92915050565b600081359050610eae816113e6565b92915050565b600060208284031215610ec657600080fd5b6000610ed484828501610e75565b91505092915050565b60008060408385031215610ef057600080fd5b6000610efe85828601610e75565b9250506020610f0f85828601610e9f565b9150509250929050565b600060208284031215610f2b57600080fd5b6000610f3984828501610e8a565b91505092915050565b610f4b816112ce565b82525050565b6000610f5c826111f7565b610f668185611202565b9350610f76818560208601611316565b610f7f816113a7565b840191505092915050565b6000610f97602183611202565b91507f5361666520636f6e747261637420616c726561647920696e697469616c697a6560008301527f64000000000000000000000000000000000000000000000000000000000000006020830152604082019050919050565b6000610ffd601d83611202565b91507f416d6f756e74206d7573742062652067726561746572207468616e20300000006000830152602082019050919050565b600061103d601483611202565b91507f496e73756666696369656e742062616c616e63650000000000000000000000006000830152602082019050919050565b600061107d601b83611202565b91507f4f6e6c79206f776e65722063616e207472616e73666572206f757400000000006000830152602082019050919050565b6110b98161130c565b82525050565b60006020820190506110d46000830184610f42565b92915050565b60006060820190506110ef6000830186610f42565b6110fc6020830185610f42565b61110960408301846110b0565b949350505050565b60006040820190506111266000830185610f42565b61113360208301846110b0565b9392505050565b600060208201905081810360008301526111548184610f51565b905092915050565b6000602082019050818103600083015261117581610f8a565b9050919050565b6000602082019050818103600083015261119581610ff0565b9050919050565b600060208201905081810360008301526111b581611030565b9050919050565b600060208201905081810360008301526111d581611070565b9050919050565b60006020820190506111f160008301846110b0565b92915050565b600081519050919050565b600082825260208201905092915050565b600061121e8261130c565b91506112298361130c565b9250827fffffffffffffffffffffffffffffffffffffffffffffffffffffffffffffffff0382111561125e5761125d611349565b5b828201905092915050565b60006112748261130c565b915061127f8361130c565b92508261128f5761128e611378565b5b828204905092915050565b60006112a58261130c565b91506112b08361130c565b9250828210156112c3576112c2611349565b5b828203905092915050565b60006112d9826112ec565b9050919050565b60008115159050919050565b600073ffffffffffffffffffffffffffffffffffffffff82169050919050565b6000819050919050565b60005b83811015611334578082015181840152602081019050611319565b83811115611343576000848401525b50505050565b7f4e487b7100000000000000000000000000000000000000000000000000000000600052601160045260246000fd5b7f4e487b7100000000000000000000000000000000000000000000000000000000600052601260045260246000fd5b6000601f19601f8301169050919050565b6113c1816112ce565b81146113cc57600080fd5b50565b6113d8816112e0565b81146113e357600080fd5b50565b6113ef8161130c565b81146113fa57600080fd5b5056fea2646970667358221220de26a454bbed8f714568ec312362879928819f9ec92df82aeca55b3f6b2d712c64736f6c63430008000033","opcodes":"PUSH1 0x80 PUSH1 0x40 MSTORE PUSH1 0x0 PUSH1 0x1 PUSH1 0x14 PUSH2 0x100 EXP DUP2 SLOAD DUP2 PUSH1 0xFF MUL NOT AND SWAP1 DUP4 ISZERO ISZERO MUL OR SWAP1 SSTORE POP CALLVALUE DUP1 ISZERO PUSH2 0x2B JUMPI PUSH1 0x0 DUP1 REVERT JUMPDEST POP PUSH2 0x1433 DUP1 PUSH2 0x3B PUSH1 0x0 CODECOPY PUSH1 0x0 RETURN INVALID PUSH1 0x80 PUSH1 0x40 MSTORE CALLVALUE DUP1 ISZERO PUSH2 0x10 JUMPI PUSH1 0x0 DUP1 REVERT JUMPDEST POP PUSH1 0x4 CALLDATASIZE LT PUSH2 0x93 JUMPI PUSH1 0x0 CALLDATALOAD PUSH1 0xE0 SHR DUP1 PUSH4 0x893D20E8 GT PUSH2 0x66 JUMPI DUP1 PUSH4 0x893D20E8 EQ PUSH2 0x120 JUMPI DUP1 PUSH4 0x8DA5CB5B EQ PUSH2 0x13E JUMPI DUP1 PUSH4 0xA5BF8EC6 EQ PUSH2 0x15C JUMPI DUP1 PUSH4 0xC4D66DE8 EQ PUSH2 0x178 JUMPI DUP1 PUSH4 0xF3FEF3A3 EQ PUSH2 0x194 JUMPI PUSH2 0x93 JUMP JUMPDEST DUP1 PUSH4 0xD8E6E2C EQ PUSH2 0x98 JUMPI DUP1 PUSH4 0x47E7EF24 EQ PUSH2 0xB6 JUMPI DUP1 PUSH4 0x54FD4D50 EQ PUSH2 0xD2 JUMPI DUP1 PUSH4 0x70A08231 EQ PUSH2 0xF0 JUMPI JUMPDEST PUSH1 0x0 DUP1 REVERT JUMPDEST PUSH2 0xA0 PUSH2 0x1B0 JUMP JUMPDEST PUSH1 0x40 MLOAD PUSH2 0xAD SWAP2 SWAP1 PUSH2 0x113A JUMP JUMPDEST PUSH1 0x40 MLOAD DUP1 SWAP2 SUB SWAP1 RETURN JUMPDEST PUSH2 0xD0 PUSH1 0x4 DUP1 CALLDATASIZE SUB DUP2 ADD SWAP1 PUSH2 0xCB SWAP2 SWAP1 PUSH2 0xEDD JUMP JUMPDEST PUSH2 0x229 JUMP JUMPDEST STOP JUMPDEST PUSH2 0xDA PUSH2 0x56E JUMP JUMPDEST PUSH1 0x40 MLOAD PUSH2 0xE7 SWAP2 SWAP1 PUSH2 0x113A JUMP JUMPDEST PUSH1 0x40 MLOAD DUP1 SWAP2 SUB SWAP1 RETURN JUMPDEST PUSH2 0x10A PUSH1 0x4 DUP1 CALLDATASIZE SUB DUP2 ADD SWAP1 PUSH2 0x105 SWAP2 SWAP1 PUSH2 0xEB4 JUMP JUMPDEST PUSH2 0x5A7 JUMP JUMPDEST PUSH1 0x40 MLOAD PUSH2 0x117 SWAP2 SWAP1 PUSH2 0x11DC JUMP JUMPDEST PUSH1 0x40 MLOAD DUP1 SWAP2 SUB SWAP1 RETURN JUMPDEST PUSH2 0x128 PUSH2 0x668 JUMP JUMPDEST PUSH1 0x40 MLOAD PUSH2 0x135 SWAP2 SWAP1 PUSH2 0x10BF JUMP JUMPDEST PUSH1 0x40 MLOAD DUP1 SWAP2 SUB SWAP1 RETURN JUMPDEST PUSH2 0x146 PUSH2 0x6CE JUMP JUMPDEST PUSH1 0x40 MLOAD PUSH2 0x153 SWAP2 SWAP1 PUSH2 0x10BF JUMP JUMPDEST PUSH1 0x40 MLOAD DUP1 SWAP2 SUB SWAP1 RETURN JUMPDEST PUSH2 0x176 PUSH1 0x4 DUP1 CALLDATASIZE SUB DUP2 ADD SWAP1 PUSH2 0x171 SWAP2 SWAP1 PUSH2 0xEB4 JUMP JUMPDEST PUSH2 0x6F4 JUMP JUMPDEST STOP JUMPDEST PUSH2 0x192 PUSH1 0x4 DUP1 CALLDATASIZE SUB DUP2 ADD SWAP1 PUSH2 0x18D SWAP2 SWAP1 PUSH2 0xEB4 JUMP JUMPDEST PUSH2 0xA23 JUMP JUMPDEST STOP JUMPDEST PUSH2 0x1AE PUSH1 0x4 DUP1 CALLDATASIZE SUB DUP2 ADD SWAP1 PUSH2 0x1A9 SWAP2 SWAP1 PUSH2 0xEDD JUMP JUMPDEST PUSH2 0xB5D JUMP JUMPDEST STOP JUMPDEST PUSH1 0x60 PUSH2 0x1C6 PUSH8 0x4BA27823FF2B54B8 PUSH1 0xC0 SHL PUSH2 0xE72 JUMP JUMPDEST PUSH2 0x1DA PUSH8 0x33954556CDD59C2C PUSH1 0xC0 SHL PUSH2 0xE72 JUMP JUMPDEST PUSH2 0x1EE PUSH8 0xE45CADD3D89F5917 PUSH1 0xC0 SHL PUSH2 0xE72 JUMP JUMPDEST PUSH1 0x40 MLOAD DUP1 PUSH1 0x40 ADD PUSH1 0x40 MSTORE DUP1 PUSH1 0x2 DUP2 MSTORE PUSH1 0x20 ADD PUSH32 0x7632000000000000000000000000000000000000000000000000000000000000 DUP2 MSTORE POP SWAP1 POP SWAP1 JUMP JUMPDEST PUSH2 0x23D PUSH8 0x3FEB308E7AF830AD PUSH1 0xC0 SHL PUSH2 0xE72 JUMP JUMPDEST PUSH2 0x251 PUSH8 0xF56EE498D59A8E82 PUSH1 0xC0 SHL PUSH2 0xE72 JUMP JUMPDEST PUSH2 0x265 PUSH8 0xFF4A09EB8448AA28 PUSH1 0xC0 SHL PUSH2 0xE72 JUMP JUMPDEST PUSH2 0x279 PUSH8 0xFD34D6D898E5C6CA PUSH1 0xC0 SHL PUSH2 0xE72 JUMP JUMPDEST PUSH1 0x0 DUP2 GT PUSH2 0x2BC JUMPI PUSH1 0x40 MLOAD PUSH32 0x8C379A000000000000000000000000000000000000000000000000000000000 DUP2 MSTORE PUSH1 0x4 ADD PUSH2 0x2B3 SWAP1 PUSH2 0x117C JUMP JUMPDEST PUSH1 0x40 MLOAD DUP1 SWAP2 SUB SWAP1 REVERT JUMPDEST PUSH2 0x2D0 PUSH8 0xFE18B4EF9F604BE0 PUSH1 0xC0 SHL PUSH2 0xE72 JUMP JUMPDEST PUSH2 0x2E4 PUSH8 0x2A5EEB5061CAC07E PUSH1 0xC0 SHL PUSH2 0xE72 JUMP JUMPDEST PUSH2 0x2F8 PUSH8 0xECBB72BC43A22031 PUSH1 0xC0 SHL PUSH2 0xE72 JUMP JUMPDEST DUP2 PUSH20 0xFFFFFFFFFFFFFFFFFFFFFFFFFFFFFFFFFFFFFFFF AND PUSH4 0x23B872DD CALLER ADDRESS DUP5 PUSH1 0x40 MLOAD DUP5 PUSH4 0xFFFFFFFF AND PUSH1 0xE0 SHL DUP2 MSTORE PUSH1 0x4 ADD PUSH2 0x335 SWAP4 SWAP3 SWAP2 SWAP1 PUSH2 0x10DA JUMP JUMPDEST PUSH1 0x20 PUSH1 0x40 MLOAD DUP1 DUP4 SUB DUP2 PUSH1 0x0 DUP8 DUP1 EXTCODESIZE ISZERO DUP1 ISZERO PUSH2 0x34F JUMPI PUSH1 0x0 DUP1 REVERT JUMPDEST POP GAS CALL ISZERO DUP1 ISZERO PUSH2 0x363 JUMPI RETURNDATASIZE PUSH1 0x0 DUP1 RETURNDATACOPY RETURNDATASIZE PUSH1 0x0 REVERT JUMPDEST POP POP POP POP PUSH1 0x40 MLOAD RETURNDATASIZE PUSH1 0x1F NOT PUSH1 0x1F DUP3 ADD AND DUP3 ADD DUP1 PUSH1 0x40 MSTORE POP DUP2 ADD SWAP1 PUSH2 0x387 SWAP2 SWAP1 PUSH2 0xF19 JUMP JUMPDEST POP PUSH2 0x39C PUSH8 0x5F0347FAC21FB1A2 PUSH1 0xC0 SHL PUSH2 0xE72 JUMP JUMPDEST PUSH2 0x3B0 PUSH8 0xF2C542B9ECDC46D7 PUSH1 0xC0 SHL PUSH2 0xE72 JUMP JUMPDEST PUSH1 0x0 PUSH2 0x1F4 DUP3 PUSH2 0x3C0 SWAP2 SWAP1 PUSH2 0x1269 JUMP JUMPDEST SWAP1 POP PUSH2 0x3D6 PUSH8 0x13776F6E0A23199D PUSH1 0xC0 SHL PUSH2 0xE72 JUMP JUMPDEST PUSH2 0x3EA PUSH8 0xFF167C056461984C PUSH1 0xC0 SHL PUSH2 0xE72 JUMP JUMPDEST PUSH1 0x0 DUP2 DUP4 PUSH2 0x3F8 SWAP2 SWAP1 PUSH2 0x129A JUMP JUMPDEST SWAP1 POP PUSH2 0x40E PUSH8 0x915CD31A5F11FB5D PUSH1 0xC0 SHL PUSH2 0xE72 JUMP JUMPDEST DUP1 PUSH1 0x0 DUP1 CALLER PUSH20 0xFFFFFFFFFFFFFFFFFFFFFFFFFFFFFFFFFFFFFFFF AND PUSH20 0xFFFFFFFFFFFFFFFFFFFFFFFFFFFFFFFFFFFFFFFF AND DUP2 MSTORE PUSH1 0x20 ADD SWAP1 DUP2 MSTORE PUSH1 0x20 ADD PUSH1 0x0 KECCAK256 PUSH1 0x0 DUP7 PUSH20 0xFFFFFFFFFFFFFFFFFFFFFFFFFFFFFFFFFFFFFFFF AND PUSH20 0xFFFFFFFFFFFFFFFFFFFFFFFFFFFFFFFFFFFFFFFF AND DUP2 MSTORE PUSH1 0x20 ADD SWAP1 DUP2 MSTORE PUSH1 0x20 ADD PUSH1 0x0 KECCAK256 PUSH1 0x0 DUP3 DUP3 SLOAD PUSH2 0x499 SWAP2 SWAP1 PUSH2 0x1213 JUMP JUMPDEST SWAP3 POP POP DUP2 SWAP1 SSTORE POP PUSH2 0x4B4 PUSH8 0x823801E8202D8CED PUSH1 0xC0 SHL PUSH2 0xE72 JUMP JUMPDEST DUP2 PUSH1 0x0 DUP1 PUSH1 0x1 PUSH1 0x0 SWAP1 SLOAD SWAP1 PUSH2 0x100 EXP SWAP1 DIV PUSH20 0xFFFFFFFFFFFFFFFFFFFFFFFFFFFFFFFFFFFFFFFF AND PUSH20 0xFFFFFFFFFFFFFFFFFFFFFFFFFFFFFFFFFFFFFFFF AND PUSH20 0xFFFFFFFFFFFFFFFFFFFFFFFFFFFFFFFFFFFFFFFF AND DUP2 MSTORE PUSH1 0x20 ADD SWAP1 DUP2 MSTORE PUSH1 0x20 ADD PUSH1 0x0 KECCAK256 PUSH1 0x0 DUP7 PUSH20 0xFFFFFFFFFFFFFFFFFFFFFFFFFFFFFFFFFFFFFFFF AND PUSH20 0xFFFFFFFFFFFFFFFFFFFFFFFFFFFFFFFFFFFFFFFF AND DUP2 MSTORE PUSH1 0x20 ADD SWAP1 DUP2 MSTORE PUSH1 0x20 ADD PUSH1 0x0 KECCAK256 PUSH1 0x0 DUP3 DUP3 SLOAD PUSH2 0x561 SWAP2 SWAP1 PUSH2 0x1213 JUMP JUMPDEST SWAP3 POP POP DUP2 SWAP1 SSTORE POP POP POP POP POP JUMP JUMPDEST PUSH1 0x40 MLOAD DUP1 PUSH1 0x40 ADD PUSH1 0x40 MSTORE DUP1 PUSH1 0x2 DUP2 MSTORE PUSH1 0x20 ADD PUSH32 0x7632000000000000000000000000000000000000000000000000000000000000 DUP2 MSTORE POP DUP2 JUMP JUMPDEST PUSH1 0x0 PUSH2 0x5BD PUSH8 0xFB46F4D84B5C9334 PUSH1 0xC0 SHL PUSH2 0xE72 JUMP JUMPDEST PUSH2 0x5D1 PUSH8 0x5187797E48EE67B7 PUSH1 0xC0 SHL PUSH2 0xE72 JUMP JUMPDEST PUSH2 0x5E5 PUSH8 0xB9587F4823F50823 PUSH1 0xC0 SHL PUSH2 0xE72 JUMP JUMPDEST PUSH1 0x0 DUP1 CALLER PUSH20 0xFFFFFFFFFFFFFFFFFFFFFFFFFFFFFFFFFFFFFFFF AND PUSH20 0xFFFFFFFFFFFFFFFFFFFFFFFFFFFFFFFFFFFFFFFF AND DUP2 MSTORE PUSH1 0x20 ADD SWAP1 DUP2 MSTORE PUSH1 0x20 ADD PUSH1 0x0 KECCAK256 PUSH1 0x0 DUP4 PUSH20 0xFFFFFFFFFFFFFFFFFFFFFFFFFFFFFFFFFFFFFFFF AND PUSH20 0xFFFFFFFFFFFFFFFFFFFFFFFFFFFFFFFFFFFFFFFF AND DUP2 MSTORE PUSH1 0x20 ADD SWAP1 DUP2 MSTORE PUSH1 0x20 ADD PUSH1 0x0 KECCAK256 SLOAD SWAP1 POP SWAP2 SWAP1 POP JUMP JUMPDEST PUSH1 0x0 PUSH2 0x67E PUSH8 0xBA8F50B895F27F50 PUSH1 0xC0 SHL PUSH2 0xE72 JUMP JUMPDEST PUSH2 0x692 PUSH8 0xF45742E20662E44B PUSH1 0xC0 SHL PUSH2 0xE72 JUMP JUMPDEST PUSH2 0x6A6 PUSH8 0x3871D31510D63C74 PUSH1 0xC0 SHL PUSH2 0xE72 JUMP JUMPDEST PUSH1 0x1 PUSH1 0x0 SWAP1 SLOAD SWAP1 PUSH2 0x100 EXP SWAP1 DIV PUSH20 0xFFFFFFFFFFFFFFFFFFFFFFFFFFFFFFFFFFFFFFFF AND SWAP1 POP SWAP1 JUMP JUMPDEST PUSH1 0x1 PUSH1 0x0 SWAP1 SLOAD SWAP1 PUSH2 0x100 EXP SWAP1 DIV PUSH20 0xFFFFFFFFFFFFFFFFFFFFFFFFFFFFFFFFFFFFFFFF AND DUP2 JUMP JUMPDEST PUSH2 0x708 PUSH8 0x84884922402DFB7F PUSH1 0xC0 SHL PUSH2 0xE72 JUMP JUMPDEST PUSH2 0x71C PUSH8 0x6C9C51327F4B942 PUSH1 0xC0 SHL PUSH2 0xE72 JUMP JUMPDEST PUSH2 0x730 PUSH8 0x4B2DDED641804609 PUSH1 0xC0 SHL PUSH2 0xE72 JUMP JUMPDEST PUSH2 0x744 PUSH8 0x68A2ACD154A32325 PUSH1 0xC0 SHL PUSH2 0xE72 JUMP JUMPDEST PUSH1 0x1 PUSH1 0x0 SWAP1 SLOAD SWAP1 PUSH2 0x100 EXP SWAP1 DIV PUSH20 0xFFFFFFFFFFFFFFFFFFFFFFFFFFFFFFFFFFFFFFFF AND PUSH20 0xFFFFFFFFFFFFFFFFFFFFFFFFFFFFFFFFFFFFFFFF AND CALLER PUSH20 0xFFFFFFFFFFFFFFFFFFFFFFFFFFFFFFFFFFFFFFFF AND EQ PUSH2 0x7D4 JUMPI PUSH1 0x40 MLOAD PUSH32 0x8C379A000000000000000000000000000000000000000000000000000000000 DUP2 MSTORE PUSH1 0x4 ADD PUSH2 0x7CB SWAP1 PUSH2 0x11BC JUMP JUMPDEST PUSH1 0x40 MLOAD DUP1 SWAP2 SUB SWAP1 REVERT JUMPDEST PUSH2 0x7E8 PUSH8 0x764B40FB7E86F6B2 PUSH1 0xC0 SHL PUSH2 0xE72 JUMP JUMPDEST PUSH2 0x7FC PUSH8 0x3ABFFECEF59301AC PUSH1 0xC0 SHL PUSH2 0xE72 JUMP JUMPDEST PUSH2 0x810 PUSH8 0x38AC3803D51D61A9 PUSH1 0xC0 SHL PUSH2 0xE72 JUMP JUMPDEST PUSH1 0x0 DUP1 PUSH1 0x0 PUSH1 0x1 PUSH1 0x0 SWAP1 SLOAD SWAP1 PUSH2 0x100 EXP SWAP1 DIV PUSH20 0xFFFFFFFFFFFFFFFFFFFFFFFFFFFFFFFFFFFFFFFF AND PUSH20 0xFFFFFFFFFFFFFFFFFFFFFFFFFFFFFFFFFFFFFFFF AND PUSH20 0xFFFFFFFFFFFFFFFFFFFFFFFFFFFFFFFFFFFFFFFF AND DUP2 MSTORE PUSH1 0x20 ADD SWAP1 DUP2 MSTORE PUSH1 0x20 ADD PUSH1 0x0 KECCAK256 PUSH1 0x0 DUP4 PUSH20 0xFFFFFFFFFFFFFFFFFFFFFFFFFFFFFFFFFFFFFFFF AND PUSH20 0xFFFFFFFFFFFFFFFFFFFFFFFFFFFFFFFFFFFFFFFF AND DUP2 MSTORE PUSH1 0x20 ADD SWAP1 DUP2 MSTORE PUSH1 0x20 ADD PUSH1 0x0 KECCAK256 SLOAD SWAP1 POP PUSH2 0x8C6 PUSH8 0x3965C3A5A637FFD PUSH1 0xC0 SHL PUSH2 0xE72 JUMP JUMPDEST PUSH2 0x8DA PUSH8 0x3944912EF09A1290 PUSH1 0xC0 SHL PUSH2 0xE72 JUMP JUMPDEST DUP2 PUSH20 0xFFFFFFFFFFFFFFFFFFFFFFFFFFFFFFFFFFFFFFFF AND PUSH4 0xA9059CBB CALLER DUP4 PUSH1 0x40 MLOAD DUP4 PUSH4 0xFFFFFFFF AND PUSH1 0xE0 SHL DUP2 MSTORE PUSH1 0x4 ADD PUSH2 0x915 SWAP3 SWAP2 SWAP1 PUSH2 0x1111 JUMP JUMPDEST PUSH1 0x20 PUSH1 0x40 MLOAD DUP1 DUP4 SUB DUP2 PUSH1 0x0 DUP8 DUP1 EXTCODESIZE ISZERO DUP1 ISZERO PUSH2 0x92F JUMPI PUSH1 0x0 DUP1 REVERT JUMPDEST POP GAS CALL ISZERO DUP1 ISZERO PUSH2 0x943 JUMPI RETURNDATASIZE PUSH1 0x0 DUP1 RETURNDATACOPY RETURNDATASIZE PUSH1 0x0 REVERT JUMPDEST POP POP POP POP PUSH1 0x40 MLOAD RETURNDATASIZE PUSH1 0x1F NOT PUSH1 0x1F DUP3 ADD AND DUP3 ADD DUP1 PUSH1 0x40 MSTORE POP DUP2 ADD SWAP1 PUSH2 0x967 SWAP2 SWAP1 PUSH2 0xF19 JUMP JUMPDEST POP PUSH2 0x97C PUSH8 0x8FA8FAA2ABD03BB2 PUSH1 0xC0 SHL PUSH2 0xE72 JUMP JUMPDEST PUSH1 0x0 DUP1 PUSH1 0x0 PUSH1 0x1 PUSH1 0x0 SWAP1 SLOAD SWAP1 PUSH2 0x100 EXP SWAP1 DIV PUSH20 0xFFFFFFFFFFFFFFFFFFFFFFFFFFFFFFFFFFFFFFFF AND PUSH20 0xFFFFFFFFFFFFFFFFFFFFFFFFFFFFFFFFFFFFFFFF AND PUSH20 0xFFFFFFFFFFFFFFFFFFFFFFFFFFFFFFFFFFFFFFFF AND DUP2 MSTORE PUSH1 0x20 ADD SWAP1 DUP2 MSTORE PUSH1 0x20 ADD PUSH1 0x0 KECCAK256 PUSH1 0x0 DUP5 PUSH20 0xFFFFFFFFFFFFFFFFFFFFFFFFFFFFFFFFFFFFFFFF AND PUSH20 0xFFFFFFFFFFFFFFFFFFFFFFFFFFFFFFFFFFFFFFFF AND DUP2 MSTORE PUSH1 0x20 ADD SWAP1 DUP2 MSTORE PUSH1 0x20 ADD PUSH1 0x0 KECCAK256 DUP2 SWAP1 SSTORE POP POP POP JUMP JUMPDEST PUSH2 0xA37 PUSH8 0x428764B6672CD6D7 PUSH1 0xC0 SHL PUSH2 0xE72 JUMP JUMPDEST PUSH2 0xA4B PUSH8 0x39AE7659C0A179EA PUSH1 0xC0 SHL PUSH2 0xE72 JUMP JUMPDEST PUSH2 0xA5F PUSH8 0xDAD459C2D9655B6C PUSH1 0xC0 SHL PUSH2 0xE72 JUMP JUMPDEST PUSH2 0xA73 PUSH8 0xF65EDC1485111229 PUSH1 0xC0 SHL PUSH2 0xE72 JUMP JUMPDEST PUSH1 0x1 PUSH1 0x14 SWAP1 SLOAD SWAP1 PUSH2 0x100 EXP SWAP1 DIV PUSH1 0xFF AND ISZERO PUSH2 0xAC3 JUMPI PUSH1 0x40 MLOAD PUSH32 0x8C379A000000000000000000000000000000000000000000000000000000000 DUP2 MSTORE PUSH1 0x4 ADD PUSH2 0xABA SWAP1 PUSH2 0x115C JUMP JUMPDEST PUSH1 0x40 MLOAD DUP1 SWAP2 SUB SWAP1 REVERT JUMPDEST PUSH2 0xAD7 PUSH8 0x6307FD4466029A87 PUSH1 0xC0 SHL PUSH2 0xE72 JUMP JUMPDEST PUSH2 0xAEB PUSH8 0x6F181E37A75AF211 PUSH1 0xC0 SHL PUSH2 0xE72 JUMP JUMPDEST DUP1 PUSH1 0x1 PUSH1 0x0 PUSH2 0x100 EXP DUP2 SLOAD DUP2 PUSH20 0xFFFFFFFFFFFFFFFFFFFFFFFFFFFFFFFFFFFFFFFF MUL NOT AND SWAP1 DUP4 PUSH20 0xFFFFFFFFFFFFFFFFFFFFFFFFFFFFFFFFFFFFFFFF AND MUL OR SWAP1 SSTORE POP PUSH2 0xB40 PUSH8 0x40CC58A18649E566 PUSH1 0xC0 SHL PUSH2 0xE72 JUMP JUMPDEST PUSH1 0x1 DUP1 PUSH1 0x14 PUSH2 0x100 EXP DUP2 SLOAD DUP2 PUSH1 0xFF MUL NOT AND SWAP1 DUP4 ISZERO ISZERO MUL OR SWAP1 SSTORE POP POP JUMP JUMPDEST PUSH2 0xB71 PUSH8 0xAED805EAE16C717C PUSH1 0xC0 SHL PUSH2 0xE72 JUMP JUMPDEST PUSH2 0xB85 PUSH8 0x5947931B12B3BEC7 PUSH1 0xC0 SHL PUSH2 0xE72 JUMP JUMPDEST PUSH2 0xB99 PUSH8 0xE63C221E66FBE546 PUSH1 0xC0 SHL PUSH2 0xE72 JUMP JUMPDEST PUSH2 0xBAD PUSH8 0x84FDFB34CD4F3354 PUSH1 0xC0 SHL PUSH2 0xE72 JUMP JUMPDEST PUSH1 0x0 DUP2 GT PUSH2 0xBF0 JUMPI PUSH1 0x40 MLOAD PUSH32 0x8C379A000000000000000000000000000000000000000000000000000000000 DUP2 MSTORE PUSH1 0x4 ADD PUSH2 0xBE7 SWAP1 PUSH2 0x117C JUMP JUMPDEST PUSH1 0x40 MLOAD DUP1 SWAP2 SUB SWAP1 REVERT JUMPDEST PUSH2 0xC04 PUSH8 0xCB073B69CD7D27D7 PUSH1 0xC0 SHL PUSH2 0xE72 JUMP JUMPDEST PUSH2 0xC18 PUSH8 0x7FC9F8D7A3B6D8B6 PUSH1 0xC0 SHL PUSH2 0xE72 JUMP JUMPDEST PUSH2 0xC2C PUSH8 0xF6025D5CDD6A20E3 PUSH1 0xC0 SHL PUSH2 0xE72 JUMP JUMPDEST PUSH2 0xC40 PUSH8 0x7B11AD88F7E1F221 PUSH1 0xC0 SHL PUSH2 0xE72 JUMP JUMPDEST DUP1 PUSH1 0x0 DUP1 CALLER PUSH20 0xFFFFFFFFFFFFFFFFFFFFFFFFFFFFFFFFFFFFFFFF AND PUSH20 0xFFFFFFFFFFFFFFFFFFFFFFFFFFFFFFFFFFFFFFFF AND DUP2 MSTORE PUSH1 0x20 ADD SWAP1 DUP2 MSTORE PUSH1 0x20 ADD PUSH1 0x0 KECCAK256 PUSH1 0x0 DUP5 PUSH20 0xFFFFFFFFFFFFFFFFFFFFFFFFFFFFFFFFFFFFFFFF AND PUSH20 0xFFFFFFFFFFFFFFFFFFFFFFFFFFFFFFFFFFFFFFFF AND DUP2 MSTORE PUSH1 0x20 ADD SWAP1 DUP2 MSTORE PUSH1 0x20 ADD PUSH1 0x0 KECCAK256 SLOAD LT ISZERO PUSH2 0xCFE JUMPI PUSH1 0x40 MLOAD PUSH32 0x8C379A000000000000000000000000000000000000000000000000000000000 DUP2 MSTORE PUSH1 0x4 ADD PUSH2 0xCF5 SWAP1 PUSH2 0x119C JUMP JUMPDEST PUSH1 0x40 MLOAD DUP1 SWAP2 SUB SWAP1 REVERT JUMPDEST PUSH2 0xD12 PUSH8 0x49297F043A29CD57 PUSH1 0xC0 SHL PUSH2 0xE72 JUMP JUMPDEST PUSH2 0xD26 PUSH8 0xB8F42FE4C9352B1E PUSH1 0xC0 SHL PUSH2 0xE72 JUMP JUMPDEST PUSH2 0xD3A PUSH8 0x66654703E4812CBD PUSH1 0xC0 SHL PUSH2 0xE72 JUMP JUMPDEST DUP2 PUSH20 0xFFFFFFFFFFFFFFFFFFFFFFFFFFFFFFFFFFFFFFFF AND PUSH4 0xA9059CBB CALLER DUP4 PUSH1 0x40 MLOAD DUP4 PUSH4 0xFFFFFFFF AND PUSH1 0xE0 SHL DUP2 MSTORE PUSH1 0x4 ADD PUSH2 0xD75 SWAP3 SWAP2 SWAP1 PUSH2 0x1111 JUMP JUMPDEST PUSH1 0x20 PUSH1 0x40 MLOAD DUP1 DUP4 SUB DUP2 PUSH1 0x0 DUP8 DUP1 EXTCODESIZE ISZERO DUP1 ISZERO PUSH2 0xD8F JUMPI PUSH1 0x0 DUP1 REVERT JUMPDEST POP GAS CALL ISZERO DUP1 ISZERO PUSH2 0xDA3 JUMPI RETURNDATASIZE PUSH1 0x0 DUP1 RETURNDATACOPY RETURNDATASIZE PUSH1 0x0 REVERT JUMPDEST POP POP POP POP PUSH1 0x40 MLOAD RETURNDATASIZE PUSH1 0x1F NOT PUSH1 0x1F DUP3 ADD AND DUP3 ADD DUP1 PUSH1 0x40 MSTORE POP DUP2 ADD SWAP1 PUSH2 0xDC7 SWAP2 SWAP1 PUSH2 0xF19 JUMP JUMPDEST POP PUSH2 0xDDC PUSH8 0xA7C80D773A112D32 PUSH1 0xC0 SHL PUSH2 0xE72 JUMP JUMPDEST DUP1 PUSH1 0x0 DUP1 CALLER PUSH20 0xFFFFFFFFFFFFFFFFFFFFFFFFFFFFFFFFFFFFFFFF AND PUSH20 0xFFFFFFFFFFFFFFFFFFFFFFFFFFFFFFFFFFFFFFFF AND DUP2 MSTORE PUSH1 0x20 ADD SWAP1 DUP2 MSTORE PUSH1 0x20 ADD PUSH1 0x0 KECCAK256 PUSH1 0x0 DUP5 PUSH20 0xFFFFFFFFFFFFFFFFFFFFFFFFFFFFFFFFFFFFFFFF AND PUSH20 0xFFFFFFFFFFFFFFFFFFFFFFFFFFFFFFFFFFFFFFFF AND DUP2 MSTORE PUSH1 0x20 ADD SWAP1 DUP2 MSTORE PUSH1 0x20 ADD PUSH1 0x0 KECCAK256 PUSH1 0x0 DUP3 DUP3 SLOAD PUSH2 0xE67 SWAP2 SWAP1 PUSH2 0x129A JUMP JUMPDEST SWAP3 POP POP DUP2 SWAP1 SSTORE POP POP POP JUMP JUMPDEST POP JUMP JUMPDEST PUSH1 0x0 DUP2 CALLDATALOAD SWAP1 POP PUSH2 0xE84 DUP2 PUSH2 0x13B8 JUMP JUMPDEST SWAP3 SWAP2 POP POP JUMP JUMPDEST PUSH1 0x0 DUP2 MLOAD SWAP1 POP PUSH2 0xE99 DUP2 PUSH2 0x13CF JUMP JUMPDEST SWAP3 SWAP2 POP POP JUMP JUMPDEST PUSH1 0x0 DUP2 CALLDATALOAD SWAP1 POP PUSH2 0xEAE DUP2 PUSH2 0x13E6 JUMP JUMPDEST SWAP3 SWAP2 POP POP JUMP JUMPDEST PUSH1 0x0 PUSH1 0x20 DUP3 DUP5 SUB SLT ISZERO PUSH2 0xEC6 JUMPI PUSH1 0x0 DUP1 REVERT JUMPDEST PUSH1 0x0 PUSH2 0xED4 DUP5 DUP3 DUP6 ADD PUSH2 0xE75 JUMP JUMPDEST SWAP2 POP POP SWAP3 SWAP2 POP POP JUMP JUMPDEST PUSH1 0x0 DUP1 PUSH1 0x40 DUP4 DUP6 SUB SLT ISZERO PUSH2 0xEF0 JUMPI PUSH1 0x0 DUP1 REVERT JUMPDEST PUSH1 0x0 PUSH2 0xEFE DUP6 DUP3 DUP7 ADD PUSH2 0xE75 JUMP JUMPDEST SWAP3 POP POP PUSH1 0x20 PUSH2 0xF0F DUP6 DUP3 DUP7 ADD PUSH2 0xE9F JUMP JUMPDEST SWAP2 POP POP SWAP3 POP SWAP3 SWAP1 POP JUMP JUMPDEST PUSH1 0x0 PUSH1 0x20 DUP3 DUP5 SUB SLT ISZERO PUSH2 0xF2B JUMPI PUSH1 0x0 DUP1 REVERT JUMPDEST PUSH1 0x0 PUSH2 0xF39 DUP5 DUP3 DUP6 ADD PUSH2 0xE8A JUMP JUMPDEST SWAP2 POP POP SWAP3 SWAP2 POP POP JUMP JUMPDEST PUSH2 0xF4B DUP2 PUSH2 0x12CE JUMP JUMPDEST DUP3 MSTORE POP POP JUMP JUMPDEST PUSH1 0x0 PUSH2 0xF5C DUP3 PUSH2 0x11F7 JUMP JUMPDEST PUSH2 0xF66 DUP2 DUP6 PUSH2 0x1202 JUMP JUMPDEST SWAP4 POP PUSH2 0xF76 DUP2 DUP6 PUSH1 0x20 DUP7 ADD PUSH2 0x1316 JUMP JUMPDEST PUSH2 0xF7F DUP2 PUSH2 0x13A7 JUMP JUMPDEST DUP5 ADD SWAP2 POP POP SWAP3 SWAP2 POP POP JUMP JUMPDEST PUSH1 0x0 PUSH2 0xF97 PUSH1 0x21 DUP4 PUSH2 0x1202 JUMP JUMPDEST SWAP2 POP PUSH32 0x5361666520636F6E747261637420616C726561647920696E697469616C697A65 PUSH1 0x0 DUP4 ADD MSTORE PUSH32 0x6400000000000000000000000000000000000000000000000000000000000000 PUSH1 0x20 DUP4 ADD MSTORE PUSH1 0x40 DUP3 ADD SWAP1 POP SWAP2 SWAP1 POP JUMP JUMPDEST PUSH1 0x0 PUSH2 0xFFD PUSH1 0x1D DUP4 PUSH2 0x1202 JUMP JUMPDEST SWAP2 POP PUSH32 0x416D6F756E74206D7573742062652067726561746572207468616E2030000000 PUSH1 0x0 DUP4 ADD MSTORE PUSH1 0x20 DUP3 ADD SWAP1 POP SWAP2 SWAP1 POP JUMP JUMPDEST PUSH1 0x0 PUSH2 0x103D PUSH1 0x14 DUP4 PUSH2 0x1202 JUMP JUMPDEST SWAP2 POP PUSH32 0x496E73756666696369656E742062616C616E6365000000000000000000000000 PUSH1 0x0 DUP4 ADD MSTORE PUSH1 0x20 DUP3 ADD SWAP1 POP SWAP2 SWAP1 POP JUMP JUMPDEST PUSH1 0x0 PUSH2 0x107D PUSH1 0x1B DUP4 PUSH2 0x1202 JUMP JUMPDEST SWAP2 POP PUSH32 0x4F6E6C79206F776E65722063616E207472616E73666572206F75740000000000 PUSH1 0x0 DUP4 ADD MSTORE PUSH1 0x20 DUP3 ADD SWAP1 POP SWAP2 SWAP1 POP JUMP JUMPDEST PUSH2 0x10B9 DUP2 PUSH2 0x130C JUMP JUMPDEST DUP3 MSTORE POP POP JUMP JUMPDEST PUSH1 0x0 PUSH1 0x20 DUP3 ADD SWAP1 POP PUSH2 0x10D4 PUSH1 0x0 DUP4 ADD DUP5 PUSH2 0xF42 JUMP JUMPDEST SWAP3 SWAP2 POP POP JUMP JUMPDEST PUSH1 0x0 PUSH1 0x60 DUP3 ADD SWAP1 POP PUSH2 0x10EF PUSH1 0x0 DUP4 ADD DUP7 PUSH2 0xF42 JUMP JUMPDEST PUSH2 0x10FC PUSH1 0x20 DUP4 ADD DUP6 PUSH2 0xF42 JUMP JUMPDEST PUSH2 0x1109 PUSH1 0x40 DUP4 ADD DUP5 PUSH2 0x10B0 JUMP JUMPDEST SWAP5 SWAP4 POP POP POP POP JUMP JUMPDEST PUSH1 0x0 PUSH1 0x40 DUP3 ADD SWAP1 POP PUSH2 0x1126 PUSH1 0x0 DUP4 ADD DUP6 PUSH2 0xF42 JUMP JUMPDEST PUSH2 0x1133 PUSH1 0x20 DUP4 ADD DUP5 PUSH2 0x10B0 JUMP JUMPDEST SWAP4 SWAP3 POP POP POP JUMP JUMPDEST PUSH1 0x0 PUSH1 0x20 DUP3 ADD SWAP1 POP DUP2 DUP2 SUB PUSH1 0x0 DUP4 ADD MSTORE PUSH2 0x1154 DUP2 DUP5 PUSH2 0xF51 JUMP JUMPDEST SWAP1 POP SWAP3 SWAP2 POP POP JUMP JUMPDEST PUSH1 0x0 PUSH1 0x20 DUP3 ADD SWAP1 POP DUP2 DUP2 SUB PUSH1 0x0 DUP4 ADD MSTORE PUSH2 0x1175 DUP2 PUSH2 0xF8A JUMP JUMPDEST SWAP1 POP SWAP2 SWAP1 POP JUMP JUMPDEST PUSH1 0x0 PUSH1 0x20 DUP3 ADD SWAP1 POP DUP2 DUP2 SUB PUSH1 0x0 DUP4 ADD MSTORE PUSH2 0x1195 DUP2 PUSH2 0xFF0 JUMP JUMPDEST SWAP1 POP SWAP2 SWAP1 POP JUMP JUMPDEST PUSH1 0x0 PUSH1 0x20 DUP3 ADD SWAP1 POP DUP2 DUP2 SUB PUSH1 0x0 DUP4 ADD MSTORE PUSH2 0x11B5 DUP2 PUSH2 0x1030 JUMP JUMPDEST SWAP1 POP SWAP2 SWAP1 POP JUMP JUMPDEST PUSH1 0x0 PUSH1 0x20 DUP3 ADD SWAP1 POP DUP2 DUP2 SUB PUSH1 0x0 DUP4 ADD MSTORE PUSH2 0x11D5 DUP2 PUSH2 0x1070 JUMP JUMPDEST SWAP1 POP SWAP2 SWAP1 POP JUMP JUMPDEST PUSH1 0x0 PUSH1 0x20 DUP3 ADD SWAP1 POP PUSH2 0x11F1 PUSH1 0x0 DUP4 ADD DUP5 PUSH2 0x10B0 JUMP JUMPDEST SWAP3 SWAP2 POP POP JUMP JUMPDEST PUSH1 0x0 DUP2 MLOAD SWAP1 POP SWAP2 SWAP1 POP JUMP JUMPDEST PUSH1 0x0 DUP3 DUP3 MSTORE PUSH1 0x20 DUP3 ADD SWAP1 POP SWAP3 SWAP2 POP POP JUMP JUMPDEST PUSH1 0x0 PUSH2 0x121E DUP3 PUSH2 0x130C JUMP JUMPDEST SWAP2 POP PUSH2 0x1229 DUP4 PUSH2 0x130C JUMP JUMPDEST SWAP3 POP DUP3 PUSH32 0xFFFFFFFFFFFFFFFFFFFFFFFFFFFFFFFFFFFFFFFFFFFFFFFFFFFFFFFFFFFFFFFF SUB DUP3 GT ISZERO PUSH2 0x125E JUMPI PUSH2 0x125D PUSH2 0x1349 JUMP JUMPDEST JUMPDEST DUP3 DUP3 ADD SWAP1 POP SWAP3 SWAP2 POP POP JUMP JUMPDEST PUSH1 0x0 PUSH2 0x1274 DUP3 PUSH2 0x130C JUMP JUMPDEST SWAP2 POP PUSH2 0x127F DUP4 PUSH2 0x130C JUMP JUMPDEST SWAP3 POP DUP3 PUSH2 0x128F JUMPI PUSH2 0x128E PUSH2 0x1378 JUMP JUMPDEST JUMPDEST DUP3 DUP3 DIV SWAP1 POP SWAP3 SWAP2 POP POP JUMP JUMPDEST PUSH1 0x0 PUSH2 0x12A5 DUP3 PUSH2 0x130C JUMP JUMPDEST SWAP2 POP PUSH2 0x12B0 DUP4 PUSH2 0x130C JUMP JUMPDEST SWAP3 POP DUP3 DUP3 LT ISZERO PUSH2 0x12C3 JUMPI PUSH2 0x12C2 PUSH2 0x1349 JUMP JUMPDEST JUMPDEST DUP3 DUP3 SUB SWAP1 POP SWAP3 SWAP2 POP POP JUMP JUMPDEST PUSH1 0x0 PUSH2 0x12D9 DUP3 PUSH2 0x12EC JUMP JUMPDEST SWAP1 POP SWAP2 SWAP1 POP JUMP JUMPDEST PUSH1 0x0 DUP2 ISZERO ISZERO SWAP1 POP SWAP2 SWAP1 POP JUMP JUMPDEST PUSH1 0x0 PUSH20 0xFFFFFFFFFFFFFFFFFFFFFFFFFFFFFFFFFFFFFFFF DUP3 AND SWAP1 POP SWAP2 SWAP1 POP JUMP JUMPDEST PUSH1 0x0 DUP2 SWAP1 POP SWAP2 SWAP1 POP JUMP JUMPDEST PUSH1 0x0 JUMPDEST DUP4 DUP2 LT ISZERO PUSH2 0x1334 JUMPI DUP1 DUP3 ADD MLOAD DUP2 DUP5 ADD MSTORE PUSH1 0x20 DUP2 ADD SWAP1 POP PUSH2 0x1319 JUMP JUMPDEST DUP4 DUP2 GT ISZERO PUSH2 0x1343 JUMPI PUSH1 0x0 DUP5 DUP5 ADD MSTORE JUMPDEST POP POP POP POP JUMP JUMPDEST PUSH32 0x4E487B7100000000000000000000000000000000000000000000000000000000 PUSH1 0x0 MSTORE PUSH1 0x11 PUSH1 0x4 MSTORE PUSH1 0x24 PUSH1 0x0 REVERT JUMPDEST PUSH32 0x4E487B7100000000000000000000000000000000000000000000000000000000 PUSH1 0x0 MSTORE PUSH1 0x12 PUSH1 0x4 MSTORE PUSH1 0x24 PUSH1 0x0 REVERT JUMPDEST PUSH1 0x0 PUSH1 0x1F NOT PUSH1 0x1F DUP4 ADD AND SWAP1 POP SWAP2 SWAP1 POP JUMP JUMPDEST PUSH2 0x13C1 DUP2 PUSH2 0x12CE JUMP JUMPDEST DUP2 EQ PUSH2 0x13CC JUMPI PUSH1 0x0 DUP1 REVERT JUMPDEST POP JUMP JUMPDEST PUSH2 0x13D8 DUP2 PUSH2 0x12E0 JUMP JUMPDEST DUP2 EQ PUSH2 0x13E3 JUMPI PUSH1 0x0 DUP1 REVERT JUMPDEST POP JUMP JUMPDEST PUSH2 0x13EF DUP2 PUSH2 0x130C JUMP JUMPDEST DUP2 EQ PUSH2 0x13FA JUMPI PUSH1 0x0 DUP1 REVERT JUMPDEST POP JUMP INVALID LOG2 PUSH5 0x6970667358 0x22 SLT KECCAK256 0xDE 0x26 LOG4 SLOAD 0xBB 0xED DUP16 PUSH18 0x4568EC312362879928819F9EC92DF82AECA5 JUMPDEST EXTCODEHASH PUSH12 0x2D712C64736F6C6343000800 STOP CALLER "},"methodIdentifiers":{"balanceOf(address)":"70a08231","deposit(address,uint256)":"47e7ef24","getOwner()":"893d20e8","getVersion()":"0d8e6e2c","initialize(address)":"c4d66de8","owner()":"8da5cb5b","takeFee(address)":"a5bf8ec6","version()":"54fd4d50","withdraw(address,uint256)":"f3fef3a3"}}}}}