{"contracts/SafeFactory.sol":{"SafeFactory":{"abi":[{"inputs":[{"internalType":"address","name":"_owner","type":"address"},{"internalType":"address","name":"_implementation","type":"address"}],"stateMutability":"nonpayable","type":"constructor"},{"anonymous":false,"inputs":[{"indexed":false,"internalType":"address","name":"newImplementation","type":"address"}],"name":"ImplementationUpdated","type":"event"},{"anonymous":false,"inputs":[{"indexed":false,"internalType":"address","name":"proxy","type":"address"}],"name":"ProxyCreated","type":"event"},{"anonymous":false,"inputs":[{"indexed":false,"internalType":"address","name":"safe","type":"address"}],"name":"SafeCreated","type":"event"},{"inputs":[],"name":"deploySafe","outputs":[],"stateMutability":"nonpayable","type":"function"},{"inputs":[],"name":"deploySafeProxy","outputs":[],"stateMutability":"nonpayable","type":"function"},{"inputs":[{"internalType":"uint256","name":"","type":"uint256"}],"name":"deployedProxies","outputs":[{"internalType":"address","name":"","type":"address"}],"stateMutability":"view","type":"function"},{"inputs":[{"internalType":"uint256","name":"","type":"uint256"}],"name":"deployedSafes","outputs":[{"internalType":"address","name":"","type":"address"}],"stateMutability":"view","type":"function"},{"inputs":[],"name":"getDeployedProxies","outputs":[{"internalType":"address[]","name":"","type":"address[]"}],"stateMutability":"view","type":"function"},{"inputs":[],"name":"getDeployedSafes","outputs":[{"internalType":"address[]","name":"","type":"address[]"}],"stateMutability":"view","type":"function"},{"inputs":[],"name":"implementation","outputs":[{"internalType":"address","name":"","type":"address"}],"stateMutability":"view","type":"function"},{"inputs":[],"name":"owner","outputs":[{"internalType":"address","name":"","type":"address"}],"stateMutability":"view","type":"function"},{"inputs":[{"internalType":"address","name":"newImp","type":"address"}],"name":"updateImplementation","outputs":[],"stateMutability":"nonpayable","type":"function"}],"evm":{"bytecode":{"linkReferences":{},"object":"60806040523480156200001157600080fd5b5060405162002fec38038062002fec83398181016040528101906200003791906200012e565b6200005367da3b2c28059c1e6e60c01b6200011460201b60201c565b6200006f679cda3882411334fb60c01b6200011460201b60201c565b816000806101000a81548173ffffffffffffffffffffffffffffffffffffffff021916908373ffffffffffffffffffffffffffffffffffffffff160217905550620000cb676e5f8ff6baf19df360c01b6200011460201b60201c565b80600160006101000a81548173ffffffffffffffffffffffffffffffffffffffff021916908373ffffffffffffffffffffffffffffffffffffffff1602179055505050620001bd565b50565b6000815190506200012881620001a3565b92915050565b600080604083850312156200014257600080fd5b6000620001528582860162000117565b9250506020620001658582860162000117565b9150509250929050565b60006200017c8262000183565b9050919050565b600073ffffffffffffffffffffffffffffffffffffffff82169050919050565b620001ae816200016f565b8114620001ba57600080fd5b50565b612e1f80620001cd6000396000f3fe60806040523480156200001157600080fd5b5060043610620000a05760003560e01c8063644f7aac116200006f578063644f7aac146200012b5780638da5cb5b14620001375780639a8787bf1462000159578063a72b27ef1462000165578063b5ac7cfa146200019b57620000a0565b8063025b22bc14620000a55780630414650b14620000c55780630eb7a00d14620000e75780635c60da1b1462000109575b600080fd5b620000c36004803603810190620000bd919062000aa4565b620001d1565b005b620000cf620004da565b604051620000de919062000cbc565b60405180910390f35b620000f1620005ac565b60405162000100919062000cbc565b60405180910390f35b620001136200067e565b60405162000122919062000c72565b60405180910390f35b62000135620006a4565b005b620001416200081a565b60405162000150919062000c72565b60405180910390f35b620001636200083e565b005b6200018360048036038101906200017d919062000ad0565b620009d7565b60405162000192919062000c72565b60405180910390f35b620001b96004803603810190620001b3919062000ad0565b62000a17565b604051620001c8919062000c72565b60405180910390f35b620001e767f83ce0f9dce8c16760c01b62000a57565b620001fd67796ab4208605424960c01b62000a57565b6200021367e49ee09e3729a17860c01b62000a57565b6200022967d260bb2e49f4f8c260c01b62000a57565b6200023f67af3ac1b8d44ac77860c01b62000a57565b60008054906101000a900473ffffffffffffffffffffffffffffffffffffffff1673ffffffffffffffffffffffffffffffffffffffff163373ffffffffffffffffffffffffffffffffffffffff1614620002d0576040517f08c379a0000000000000000000000000000000000000000000000000000000008152600401620002c79062000ce0565b60405180910390fd5b620002e6675f454f224fa99b9760c01b62000a57565b620002fc67b8c27798738dab1360c01b62000a57565b6200031267c87ab3d5452a822960c01b62000a57565b6200032867412d38edd21fc4c960c01b62000a57565b6200033e671332b0c755081ffa60c01b62000a57565b6200035467a29ff8470661c68860c01b62000a57565b6200036a677a66ced4bebdc3e160c01b62000a57565b60008173ffffffffffffffffffffffffffffffffffffffff16803b806020016040519081016040528181526000908060200190933c5111620003e3576040517f08c379a0000000000000000000000000000000000000000000000000000000008152600401620003da9062000d02565b60405180910390fd5b620003f967091d9b67d022614b60c01b62000a57565b6200040f6706602b527212fd9460c01b62000a57565b80600160006101000a81548173ffffffffffffffffffffffffffffffffffffffff021916908373ffffffffffffffffffffffffffffffffffffffff160217905550620004666798dfcac9bdc6d98c60c01b62000a57565b6200047c672b8033049638e1c360c01b62000a57565b7f310ba5f1d2ed074b51e2eccd052a47ae9ab7c6b800d1fca3db3999d6a592ca03600160009054906101000a900473ffffffffffffffffffffffffffffffffffffffff16604051620004cf919062000c72565b60405180910390a150565b6060620004f2672d9ca544ba6ca18460c01b62000a57565b6200050867e8f83c659edd45c260c01b62000a57565b6200051e6743cb8cf40a52d2fa60c01b62000a57565b6002805480602002602001604051908101604052809291908181526020018280548015620005a257602002820191906000526020600020905b8160009054906101000a900473ffffffffffffffffffffffffffffffffffffffff1673ffffffffffffffffffffffffffffffffffffffff168152602001906001019080831162000557575b5050505050905090565b6060620005c467e445c7edfd1fec8460c01b62000a57565b620005da67d9d92d5ec3e29c5060c01b62000a57565b620005f0673a486ae47545817a60c01b62000a57565b60038054806020026020016040519081016040528092919081815260200182805480156200067457602002820191906000526020600020905b8160009054906101000a900473ffffffffffffffffffffffffffffffffffffffff1673ffffffffffffffffffffffffffffffffffffffff168152602001906001019080831162000629575b5050505050905090565b600160009054906101000a900473ffffffffffffffffffffffffffffffffffffffff1681565b620006ba67993aa490d41993da60c01b62000a57565b620006d0676c62274d09828e1260c01b62000a57565b620006e667727a9febb0a1ecaf60c01b62000a57565b600033604051620006f79062000a5a565b62000703919062000c72565b604051809103906000f08015801562000720573d6000803e3d6000fd5b5090506200073967c2ae7c10029db98260c01b62000a57565b6200074f6708d6db00ee4f489960c01b62000a57565b7f9cebc3415f29f3a72d88a3509a7de71248d7362a11a5a188c070be993cc1d7c18160405162000780919062000c72565b60405180910390a16200079e6730f6a538e79a93aa60c01b62000a57565b620007b4672129a69f847801b960c01b62000a57565b6003819080600181540180825580915050600190039060005260206000200160009091909190916101000a81548173ffffffffffffffffffffffffffffffffffffffff021916908373ffffffffffffffffffffffffffffffffffffffff16021790555050565b60008054906101000a900473ffffffffffffffffffffffffffffffffffffffff1681565b6200085467dafe37c524c96abd60c01b62000a57565b6200086a671ed4cf2040165c0360c01b62000a57565b62000880674478cbafd3dd74b060c01b62000a57565b600033600160009054906101000a900473ffffffffffffffffffffffffffffffffffffffff16604051620008b49062000a68565b620008c192919062000c8f565b604051809103906000f080158015620008de573d6000803e3d6000fd5b509050620008f76796ed2bd885bbdba360c01b62000a57565b6200090d678189b9a5664e515060c01b62000a57565b7efffc2da0b561cae30d9826d37709e9421c4725faebc226cbbb7ef5fc5e7349816040516200093d919062000c72565b60405180910390a16200095b6790c7ad68cc2cc9fa60c01b62000a57565b6200097167b79191545a0b4a4f60c01b62000a57565b6002819080600181540180825580915050600190039060005260206000200160009091909190916101000a81548173ffffffffffffffffffffffffffffffffffffffff021916908373ffffffffffffffffffffffffffffffffffffffff16021790555050565b60028181548110620009e857600080fd5b906000526020600020016000915054906101000a900473ffffffffffffffffffffffffffffffffffffffff1681565b6003818154811062000a2857600080fd5b906000526020600020016000915054906101000a900473ffffffffffffffffffffffffffffffffffffffff1681565b50565b6111e98062000de183390190565b610e208062001fca83390190565b60008135905062000a878162000dac565b92915050565b60008135905062000a9e8162000dc6565b92915050565b60006020828403121562000ab757600080fd5b600062000ac78482850162000a76565b91505092915050565b60006020828403121562000ae357600080fd5b600062000af38482850162000a8d565b91505092915050565b600062000b0a838362000b16565b60208301905092915050565b62000b218162000d6e565b82525050565b62000b328162000d6e565b82525050565b600062000b458262000d34565b62000b51818562000d4c565b935062000b5e8362000d24565b8060005b8381101562000b9557815162000b79888262000afc565b975062000b868362000d3f565b92505060018101905062000b62565b5085935050505092915050565b600062000bb160218362000d5d565b91507f4f6e6c79206f776e65722063616e2063616c6c20746869732066756e6374696f60008301527f6e000000000000000000000000000000000000000000000000000000000000006020830152604082019050919050565b600062000c19602f8362000d5d565b91507f4e657720696d706c656d656e746174696f6e20616464726573732073686f756c60008301527f64206265206120636f6e747261637400000000000000000000000000000000006020830152604082019050919050565b600060208201905062000c89600083018462000b27565b92915050565b600060408201905062000ca6600083018562000b27565b62000cb5602083018462000b27565b9392505050565b6000602082019050818103600083015262000cd8818462000b38565b905092915050565b6000602082019050818103600083015262000cfb8162000ba2565b9050919050565b6000602082019050818103600083015262000d1d8162000c0a565b9050919050565b6000819050602082019050919050565b600081519050919050565b6000602082019050919050565b600082825260208201905092915050565b600082825260208201905092915050565b600062000d7b8262000d82565b9050919050565b600073ffffffffffffffffffffffffffffffffffffffff82169050919050565b6000819050919050565b62000db78162000d6e565b811462000dc357600080fd5b50565b62000dd18162000da2565b811462000ddd57600080fd5b5056fe60806040523480156200001157600080fd5b50604051620011e9380380620011e98339818101604052810190620000379190620000d1565b6200005367f3e0dcf25690517760c01b620000b760201b60201c565b6200006f6780a297d2730280d160c01b620000b760201b60201c565b80600160006101000a81548173ffffffffffffffffffffffffffffffffffffffff021916908373ffffffffffffffffffffffffffffffffffffffff160217905550506200014b565b50565b600081519050620000cb8162000131565b92915050565b600060208284031215620000e457600080fd5b6000620000f484828501620000ba565b91505092915050565b60006200010a8262000111565b9050919050565b600073ffffffffffffffffffffffffffffffffffffffff82169050919050565b6200013c81620000fd565b81146200014857600080fd5b50565b61108e806200015b6000396000f3fe608060405234801561001057600080fd5b50600436106100625760003560e01c806347e7ef241461006757806370a0823114610083578063893d20e8146100b35780638da5cb5b146100d1578063a5bf8ec6146100ef578063f3fef3a31461010b575b600080fd5b610081600480360381019061007c9190610c68565b610127565b005b61009d60048036038101906100989190610c3f565b61046c565b6040516100aa9190610e86565b60405180910390f35b6100bb61052d565b6040516100c89190610dab565b60405180910390f35b6100d9610593565b6040516100e69190610dab565b60405180910390f35b61010960048036038101906101049190610c3f565b6105b9565b005b61012560048036038101906101209190610c68565b6108e8565b005b61013b674a32d6cf2adcbf1c60c01b610bfd565b61014f6756acf12c413ef60060c01b610bfd565b61016367a19da07d082d9b3460c01b610bfd565b61017767d124cfa8de31682c60c01b610bfd565b600081116101ba576040517f08c379a00000000000000000000000000000000000000000000000000000000081526004016101b190610e26565b60405180910390fd5b6101ce67c42d7c7db9dc105860c01b610bfd565b6101e267c7468688e55fb75160c01b610bfd565b6101f6679a6faa7d4ab7518c60c01b610bfd565b8173ffffffffffffffffffffffffffffffffffffffff166323b872dd3330846040518463ffffffff1660e01b815260040161023393929190610dc6565b602060405180830381600087803b15801561024d57600080fd5b505af1158015610261573d6000803e3d6000fd5b505050506040513d601f19601f820116820180604052508101906102859190610ca4565b5061029a67e252e19c86e5967f60c01b610bfd565b6102ae6743a94d22d929225e60c01b610bfd565b60006103e8826102be9190610f08565b90506102d4670f4fed0d9977177460c01b610bfd565b6102e867a270a2942adc8eb760c01b610bfd565b600081836102f69190610f39565b905061030c673f002d58d0b5ff5060c01b610bfd565b806000803373ffffffffffffffffffffffffffffffffffffffff1673ffffffffffffffffffffffffffffffffffffffff16815260200190815260200160002060008673ffffffffffffffffffffffffffffffffffffffff1673ffffffffffffffffffffffffffffffffffffffff16815260200190815260200160002060008282546103979190610eb2565b925050819055506103b2674314e4e46f59efc260c01b610bfd565b81600080600160009054906101000a900473ffffffffffffffffffffffffffffffffffffffff1673ffffffffffffffffffffffffffffffffffffffff1673ffffffffffffffffffffffffffffffffffffffff16815260200190815260200160002060008673ffffffffffffffffffffffffffffffffffffffff1673ffffffffffffffffffffffffffffffffffffffff168152602001908152602001600020600082825461045f9190610eb2565b9250508190555050505050565b6000610482671f8ffd56a862505860c01b610bfd565b610496672cae6d371de2473e60c01b610bfd565b6104aa676d00f2fb00e480f460c01b610bfd565b6000803373ffffffffffffffffffffffffffffffffffffffff1673ffffffffffffffffffffffffffffffffffffffff16815260200190815260200160002060008373ffffffffffffffffffffffffffffffffffffffff1673ffffffffffffffffffffffffffffffffffffffff168152602001908152602001600020549050919050565b6000610543675cabbb8b8b36f1df60c01b610bfd565b61055767e5641f50649b399a60c01b610bfd565b61056b6738cb44f9297a02cd60c01b610bfd565b600160009054906101000a900473ffffffffffffffffffffffffffffffffffffffff16905090565b600160009054906101000a900473ffffffffffffffffffffffffffffffffffffffff1681565b6105cd67add117ec7879f3c660c01b610bfd565b6105e167c2832f8e0127ca2960c01b610bfd565b6105f56765bcc9a5416582a960c01b610bfd565b61060967f641cac2f7bd578c60c01b610bfd565b600160009054906101000a900473ffffffffffffffffffffffffffffffffffffffff1673ffffffffffffffffffffffffffffffffffffffff163373ffffffffffffffffffffffffffffffffffffffff1614610699576040517f08c379a000000000000000000000000000000000000000000000000000000000815260040161069090610e66565b60405180910390fd5b6106ad6735c8cab8ec379f1660c01b610bfd565b6106c167c1928bfb0da5e88860c01b610bfd565b6106d567f97db5fb2358aa9d60c01b610bfd565b6000806000600160009054906101000a900473ffffffffffffffffffffffffffffffffffffffff1673ffffffffffffffffffffffffffffffffffffffff1673ffffffffffffffffffffffffffffffffffffffff16815260200190815260200160002060008373ffffffffffffffffffffffffffffffffffffffff1673ffffffffffffffffffffffffffffffffffffffff16815260200190815260200160002054905061078b67a2fbd030a2a6940360c01b610bfd565b61079f678a89e88d7cea72c660c01b610bfd565b8173ffffffffffffffffffffffffffffffffffffffff1663a9059cbb33836040518363ffffffff1660e01b81526004016107da929190610dfd565b602060405180830381600087803b1580156107f457600080fd5b505af1158015610808573d6000803e3d6000fd5b505050506040513d601f19601f8201168201806040525081019061082c9190610ca4565b50610841674ec6e9ffb84eec2a60c01b610bfd565b6000806000600160009054906101000a900473ffffffffffffffffffffffffffffffffffffffff1673ffffffffffffffffffffffffffffffffffffffff1673ffffffffffffffffffffffffffffffffffffffff16815260200190815260200160002060008473ffffffffffffffffffffffffffffffffffffffff1673ffffffffffffffffffffffffffffffffffffffff168152602001908152602001600020819055505050565b6108fc679b48360e5746a39360c01b610bfd565b610910676e04b93bdae267e360c01b610bfd565b61092467d9876bd4071c269b60c01b610bfd565b610938670500b24c3cd59ffb60c01b610bfd565b6000811161097b576040517f08c379a000000000000000000000000000000000000000000000000000000000815260040161097290610e26565b60405180910390fd5b61098f6775a765bd351aaf4460c01b610bfd565b6109a3676933283e1161702e60c01b610bfd565b6109b7670f250d1feb9c72f560c01b610bfd565b6109cb67fb454d1fc565996a60c01b610bfd565b806000803373ffffffffffffffffffffffffffffffffffffffff1673ffffffffffffffffffffffffffffffffffffffff16815260200190815260200160002060008473ffffffffffffffffffffffffffffffffffffffff1673ffffffffffffffffffffffffffffffffffffffff168152602001908152602001600020541015610a89576040517f08c379a0000000000000000000000000000000000000000000000000000000008152600401610a8090610e46565b60405180910390fd5b610a9d67e2387a69c0877e2860c01b610bfd565b610ab16750de72c56ad2983960c01b610bfd565b610ac567f1896b27841668cf60c01b610bfd565b8173ffffffffffffffffffffffffffffffffffffffff1663a9059cbb33836040518363ffffffff1660e01b8152600401610b00929190610dfd565b602060405180830381600087803b158015610b1a57600080fd5b505af1158015610b2e573d6000803e3d6000fd5b505050506040513d601f19601f82011682018060405250810190610b529190610ca4565b50610b67674617020797e246a260c01b610bfd565b806000803373ffffffffffffffffffffffffffffffffffffffff1673ffffffffffffffffffffffffffffffffffffffff16815260200190815260200160002060008473ffffffffffffffffffffffffffffffffffffffff1673ffffffffffffffffffffffffffffffffffffffff1681526020019081526020016000206000828254610bf29190610f39565b925050819055505050565b50565b600081359050610c0f81611013565b92915050565b600081519050610c248161102a565b92915050565b600081359050610c3981611041565b92915050565b600060208284031215610c5157600080fd5b6000610c5f84828501610c00565b91505092915050565b60008060408385031215610c7b57600080fd5b6000610c8985828601610c00565b9250506020610c9a85828601610c2a565b9150509250929050565b600060208284031215610cb657600080fd5b6000610cc484828501610c15565b91505092915050565b610cd681610f6d565b82525050565b6000610ce9601d83610ea1565b91507f416d6f756e74206d7573742062652067726561746572207468616e20300000006000830152602082019050919050565b6000610d29601483610ea1565b91507f496e73756666696369656e742062616c616e63650000000000000000000000006000830152602082019050919050565b6000610d69601b83610ea1565b91507f4f6e6c79206f776e65722063616e207472616e73666572206f757400000000006000830152602082019050919050565b610da581610fab565b82525050565b6000602082019050610dc06000830184610ccd565b92915050565b6000606082019050610ddb6000830186610ccd565b610de86020830185610ccd565b610df56040830184610d9c565b949350505050565b6000604082019050610e126000830185610ccd565b610e1f6020830184610d9c565b9392505050565b60006020820190508181036000830152610e3f81610cdc565b9050919050565b60006020820190508181036000830152610e5f81610d1c565b9050919050565b60006020820190508181036000830152610e7f81610d5c565b9050919050565b6000602082019050610e9b6000830184610d9c565b92915050565b600082825260208201905092915050565b6000610ebd82610fab565b9150610ec883610fab565b9250827fffffffffffffffffffffffffffffffffffffffffffffffffffffffffffffffff03821115610efd57610efc610fb5565b5b828201905092915050565b6000610f1382610fab565b9150610f1e83610fab565b925082610f2e57610f2d610fe4565b5b828204905092915050565b6000610f4482610fab565b9150610f4f83610fab565b925082821015610f6257610f61610fb5565b5b828203905092915050565b6000610f7882610f8b565b9050919050565b60008115159050919050565b600073ffffffffffffffffffffffffffffffffffffffff82169050919050565b6000819050919050565b7f4e487b7100000000000000000000000000000000000000000000000000000000600052601160045260246000fd5b7f4e487b7100000000000000000000000000000000000000000000000000000000600052601260045260246000fd5b61101c81610f6d565b811461102757600080fd5b50565b61103381610f7f565b811461103e57600080fd5b50565b61104a81610fab565b811461105557600080fd5b5056fea2646970667358221220bb37443148ac7df26de64c2c0360b639d964d0139ebb95e5c0efeee82184201a64736f6c6343000800003360806040523480156200001157600080fd5b5060405162000e2038038062000e2083398181016040528101906200003791906200047e565b6200005367cd9673ad12968c2460c01b620000ed60201b60201c565b6200006f67cd6fa23b16ad65f160c01b620000ed60201b60201c565b6200008b67f461f5a6ef9c821b60c01b620000ed60201b60201c565b6200009c82620000f060201b60201c565b620000b8679c5a2d4b5c62e11760c01b620000ed60201b60201c565b620000d4678b8c0cd43812c2e960c01b620000ed60201b60201c565b620000e5816200028660201b60201c565b50506200060c565b50565b6200010c679561683f0907f48a60c01b620000ed60201b60201c565b6200012867cf69053e00f4b46260c01b620000ed60201b60201c565b6200014467a726b70ddd1bb91960c01b620000ed60201b60201c565b62000160676bd5c11dc4354c1860c01b620000ed60201b60201c565b600073ffffffffffffffffffffffffffffffffffffffff168173ffffffffffffffffffffffffffffffffffffffff161415620001d3576040517f08c379a0000000000000000000000000000000000000000000000000000000008152600401620001ca9062000569565b60405180910390fd5b620001ef67d6b953bf62aa80d360c01b620000ed60201b60201c565b6200020b67fbce62611b9970dc60c01b620000ed60201b60201c565b80620002427f58a6b8f109ed5c70ad37140473420d0209511d3629dc7480eab94a450067bd5f6200042260201b620004051760201c565b60000160006101000a81548173ffffffffffffffffffffffffffffffffffffffff021916908373ffffffffffffffffffffffffffffffffffffffff16021790555050565b620002a2671b43ba544d106e6060c01b620000ed60201b60201c565b620002be67a269328f3acaa9d760c01b620000ed60201b60201c565b620002da6758e8795154afd59960c01b620000ed60201b60201c565b620002f6675d875c1ce7d4d92660c01b620000ed60201b60201c565b60008173ffffffffffffffffffffffffffffffffffffffff16803b806020016040519081016040528181526000908060200190933c51116200036f576040517f08c379a000000000000000000000000000000000000000000000000000000000815260040162000366906200058b565b60405180910390fd5b6200038b67873cc75093c949c660c01b620000ed60201b60201c565b620003a76796ea197da854144d60c01b620000ed60201b60201c565b80620003de7f24ed44ee9374370fd3aa7c8b1abf58827504c20f65246b17d2b9e7e1aef778476200042260201b620004051760201c565b60000160006101000a81548173ffffffffffffffffffffffffffffffffffffffff021916908373ffffffffffffffffffffffffffffffffffffffff16021790555050565b60006200044067da192cbb89fc298e60c01b6200046460201b60201c565b6200045c670ced46ea7b2f548260c01b6200046460201b60201c565b819050919050565b50565b6000815190506200047881620005f2565b92915050565b600080604083850312156200049257600080fd5b6000620004a28582860162000467565b9250506020620004b58582860162000467565b9150509250929050565b6000620004ce601483620005ad565b91507f61646d696e203d207a65726f20616464726573730000000000000000000000006000830152602082019050919050565b600062000510602f83620005ad565b91507f4e657720696d706c656d656e746174696f6e20616464726573732073686f756c60008301527f64206265206120636f6e747261637400000000000000000000000000000000006020830152604082019050919050565b600060208201905081810360008301526200058481620004bf565b9050919050565b60006020820190508181036000830152620005a68162000501565b9050919050565b600082825260208201905092915050565b6000620005cb82620005d2565b9050919050565b600073ffffffffffffffffffffffffffffffffffffffff82169050919050565b620005fd81620005be565b81146200060957600080fd5b50565b610804806200061c6000396000f3fe6080604052600436106100385760003560e01c80631ab7710d146100b1578063aaf10f42146100dc578063d784d4261461010757610063565b36610063576100516719e3e3e5232f8d5860c01b610130565b61006161005c610133565b6101c3565b005b610077677a5afd3c7c745a6360c01b610130565b61008b67dc16e28e726b8fca60c01b610130565b61009f6770c05cd05759f83560c01b610130565b6100af6100aa610133565b6101c3565b005b3480156100bd57600080fd5b506100c6610212565b6040516100d39190610719565b60405180910390f35b3480156100e857600080fd5b506100f161025d565b6040516100fe9190610719565b60405180910390f35b34801561011357600080fd5b5061012e6004803603810190610129919061063b565b6102a8565b005b50565b600061014967727c73c54687cf0560c01b610130565b61015d674c1a6e733a6da0e560c01b610130565b610171672da4656b35d3550860c01b610130565b61019a7f24ed44ee9374370fd3aa7c8b1abf58827504c20f65246b17d2b9e7e1aef77847610405565b60000160009054906101000a900473ffffffffffffffffffffffffffffffffffffffff16905090565b6101d76783af00ed13e0d4d560c01b610130565b6101eb670bdad5450deaed5f60c01b610130565b60405136600082376000803683855af43d806000843e816000811461020e578184f35b8184fd5b600061022867146cfdccf0e58e9360c01b610130565b61023c67d7f8470c5de5774160c01b610130565b61025067e8c0773d2c1b526e60c01b610130565b610258610437565b905090565b60006102736708f1b6d77e37b2cc60c01b610130565b61028767322b33fea13344d360c01b610130565b61029b67d16125e6429b489a60c01b610130565b6102a3610133565b905090565b6102bc67b6a97ef3b11fcf4f60c01b610130565b6102d067ad6398dd5f110ae160c01b610130565b6102e4672cbe22c5a5f7179260c01b610130565b6102f86796ae05c8b98d524b60c01b610130565b61030c6739eabff9eabff38860c01b610130565b610314610437565b73ffffffffffffffffffffffffffffffffffffffff163373ffffffffffffffffffffffffffffffffffffffff1614610381576040517f08c379a000000000000000000000000000000000000000000000000000000000815260040161037890610754565b60405180910390fd5b6103956764f0ff6487c337ec60c01b610130565b6103a967015b1900b90a7b9d60c01b610130565b6103bd67a055aadb559a9b9260c01b610130565b6103d167d3817d4e6ff12b6d60c01b610130565b6103e5679528574f6485c25360c01b610130565b6103f9679845ebcb05618c3c60c01b610130565b610402816104c7565b50565b600061041b67da192cbb89fc298e60c01b610623565b61042f670ced46ea7b2f548260c01b610623565b819050919050565b600061044d67db4cb1575d38cc5460c01b610130565b610461679c31936cfc0571ee60c01b610130565b61047567a0a036b14cc3836e60c01b610130565b61049e7f58a6b8f109ed5c70ad37140473420d0209511d3629dc7480eab94a450067bd5f610405565b60000160009054906101000a900473ffffffffffffffffffffffffffffffffffffffff16905090565b6104db671b43ba544d106e6060c01b610130565b6104ef67a269328f3acaa9d760c01b610130565b6105036758e8795154afd59960c01b610130565b610517675d875c1ce7d4d92660c01b610130565b60008173ffffffffffffffffffffffffffffffffffffffff16803b806020016040519081016040528181526000908060200190933c511161058d576040517f08c379a000000000000000000000000000000000000000000000000000000000815260040161058490610734565b60405180910390fd5b6105a167873cc75093c949c660c01b610130565b6105b56796ea197da854144d60c01b610130565b806105df7f24ed44ee9374370fd3aa7c8b1abf58827504c20f65246b17d2b9e7e1aef77847610405565b60000160006101000a81548173ffffffffffffffffffffffffffffffffffffffff021916908373ffffffffffffffffffffffffffffffffffffffff16021790555050565b50565b600081359050610635816107b7565b92915050565b60006020828403121561064d57600080fd5b600061065b84828501610626565b91505092915050565b61066d81610785565b82525050565b6000610680602f83610774565b91507f4e657720696d706c656d656e746174696f6e20616464726573732073686f756c60008301527f64206265206120636f6e747261637400000000000000000000000000000000006020830152604082019050919050565b60006106e6601e83610774565b91507f50726f78793a2063616c6c6572206973206e6f7420746865206f776e657200006000830152602082019050919050565b600060208201905061072e6000830184610664565b92915050565b6000602082019050818103600083015261074d81610673565b9050919050565b6000602082019050818103600083015261076d816106d9565b9050919050565b600082825260208201905092915050565b600061079082610797565b9050919050565b600073ffffffffffffffffffffffffffffffffffffffff82169050919050565b6107c081610785565b81146107cb57600080fd5b5056fea2646970667358221220b55a6902fb71def379b75863139d22c8cd9ff00cd163053dfd2ed0a5d571a78864736f6c63430008000033a26469706673582212202ce23b54660e6c8cfcf38dd8e680021063ed95f0060d71abd71133bc577f2f2064736f6c63430008000033","opcodes":"PUSH1 0x80 PUSH1 0x40 MSTORE CALLVALUE DUP1 ISZERO PUSH3 0x11 JUMPI PUSH1 0x0 DUP1 REVERT JUMPDEST POP PUSH1 0x40 MLOAD PUSH3 0x2FEC CODESIZE SUB DUP1 PUSH3 0x2FEC DUP4 CODECOPY DUP2 DUP2 ADD PUSH1 0x40 MSTORE DUP2 ADD SWAP1 PUSH3 0x37 SWAP2 SWAP1 PUSH3 0x12E JUMP JUMPDEST PUSH3 0x53 PUSH8 0xDA3B2C28059C1E6E PUSH1 0xC0 SHL PUSH3 0x114 PUSH1 0x20 SHL PUSH1 0x20 SHR JUMP JUMPDEST PUSH3 0x6F PUSH8 0x9CDA3882411334FB PUSH1 0xC0 SHL PUSH3 0x114 PUSH1 0x20 SHL PUSH1 0x20 SHR JUMP JUMPDEST DUP2 PUSH1 0x0 DUP1 PUSH2 0x100 EXP DUP2 SLOAD DUP2 PUSH20 0xFFFFFFFFFFFFFFFFFFFFFFFFFFFFFFFFFFFFFFFF MUL NOT AND SWAP1 DUP4 PUSH20 0xFFFFFFFFFFFFFFFFFFFFFFFFFFFFFFFFFFFFFFFF AND MUL OR SWAP1 SSTORE POP PUSH3 0xCB PUSH8 0x6E5F8FF6BAF19DF3 PUSH1 0xC0 SHL PUSH3 0x114 PUSH1 0x20 SHL PUSH1 0x20 SHR JUMP JUMPDEST DUP1 PUSH1 0x1 PUSH1 0x0 PUSH2 0x100 EXP DUP2 SLOAD DUP2 PUSH20 0xFFFFFFFFFFFFFFFFFFFFFFFFFFFFFFFFFFFFFFFF MUL NOT AND SWAP1 DUP4 PUSH20 0xFFFFFFFFFFFFFFFFFFFFFFFFFFFFFFFFFFFFFFFF AND MUL OR SWAP1 SSTORE POP POP POP PUSH3 0x1BD JUMP JUMPDEST POP JUMP JUMPDEST PUSH1 0x0 DUP2 MLOAD SWAP1 POP PUSH3 0x128 DUP2 PUSH3 0x1A3 JUMP JUMPDEST SWAP3 SWAP2 POP POP JUMP JUMPDEST PUSH1 0x0 DUP1 PUSH1 0x40 DUP4 DUP6 SUB SLT ISZERO PUSH3 0x142 JUMPI PUSH1 0x0 DUP1 REVERT JUMPDEST PUSH1 0x0 PUSH3 0x152 DUP6 DUP3 DUP7 ADD PUSH3 0x117 JUMP JUMPDEST SWAP3 POP POP PUSH1 0x20 PUSH3 0x165 DUP6 DUP3 DUP7 ADD PUSH3 0x117 JUMP JUMPDEST SWAP2 POP POP SWAP3 POP SWAP3 SWAP1 POP JUMP JUMPDEST PUSH1 0x0 PUSH3 0x17C DUP3 PUSH3 0x183 JUMP JUMPDEST SWAP1 POP SWAP2 SWAP1 POP JUMP JUMPDEST PUSH1 0x0 PUSH20 0xFFFFFFFFFFFFFFFFFFFFFFFFFFFFFFFFFFFFFFFF DUP3 AND SWAP1 POP SWAP2 SWAP1 POP JUMP JUMPDEST PUSH3 0x1AE DUP2 PUSH3 0x16F JUMP JUMPDEST DUP2 EQ PUSH3 0x1BA JUMPI PUSH1 0x0 DUP1 REVERT JUMPDEST POP JUMP JUMPDEST PUSH2 0x2E1F DUP1 PUSH3 0x1CD PUSH1 0x0 CODECOPY PUSH1 0x0 RETURN INVALID PUSH1 0x80 PUSH1 0x40 MSTORE CALLVALUE DUP1 ISZERO PUSH3 0x11 JUMPI PUSH1 0x0 DUP1 REVERT JUMPDEST POP PUSH1 0x4 CALLDATASIZE LT PUSH3 0xA0 JUMPI PUSH1 0x0 CALLDATALOAD PUSH1 0xE0 SHR DUP1 PUSH4 0x644F7AAC GT PUSH3 0x6F JUMPI DUP1 PUSH4 0x644F7AAC EQ PUSH3 0x12B JUMPI DUP1 PUSH4 0x8DA5CB5B EQ PUSH3 0x137 JUMPI DUP1 PUSH4 0x9A8787BF EQ PUSH3 0x159 JUMPI DUP1 PUSH4 0xA72B27EF EQ PUSH3 0x165 JUMPI DUP1 PUSH4 0xB5AC7CFA EQ PUSH3 0x19B JUMPI PUSH3 0xA0 JUMP JUMPDEST DUP1 PUSH4 0x25B22BC EQ PUSH3 0xA5 JUMPI DUP1 PUSH4 0x414650B EQ PUSH3 0xC5 JUMPI DUP1 PUSH4 0xEB7A00D EQ PUSH3 0xE7 JUMPI DUP1 PUSH4 0x5C60DA1B EQ PUSH3 0x109 JUMPI JUMPDEST PUSH1 0x0 DUP1 REVERT JUMPDEST PUSH3 0xC3 PUSH1 0x4 DUP1 CALLDATASIZE SUB DUP2 ADD SWAP1 PUSH3 0xBD SWAP2 SWAP1 PUSH3 0xAA4 JUMP JUMPDEST PUSH3 0x1D1 JUMP JUMPDEST STOP JUMPDEST PUSH3 0xCF PUSH3 0x4DA JUMP JUMPDEST PUSH1 0x40 MLOAD PUSH3 0xDE SWAP2 SWAP1 PUSH3 0xCBC JUMP JUMPDEST PUSH1 0x40 MLOAD DUP1 SWAP2 SUB SWAP1 RETURN JUMPDEST PUSH3 0xF1 PUSH3 0x5AC JUMP JUMPDEST PUSH1 0x40 MLOAD PUSH3 0x100 SWAP2 SWAP1 PUSH3 0xCBC JUMP JUMPDEST PUSH1 0x40 MLOAD DUP1 SWAP2 SUB SWAP1 RETURN JUMPDEST PUSH3 0x113 PUSH3 0x67E JUMP JUMPDEST PUSH1 0x40 MLOAD PUSH3 0x122 SWAP2 SWAP1 PUSH3 0xC72 JUMP JUMPDEST PUSH1 0x40 MLOAD DUP1 SWAP2 SUB SWAP1 RETURN JUMPDEST PUSH3 0x135 PUSH3 0x6A4 JUMP JUMPDEST STOP JUMPDEST PUSH3 0x141 PUSH3 0x81A JUMP JUMPDEST PUSH1 0x40 MLOAD PUSH3 0x150 SWAP2 SWAP1 PUSH3 0xC72 JUMP JUMPDEST PUSH1 0x40 MLOAD DUP1 SWAP2 SUB SWAP1 RETURN JUMPDEST PUSH3 0x163 PUSH3 0x83E JUMP JUMPDEST STOP JUMPDEST PUSH3 0x183 PUSH1 0x4 DUP1 CALLDATASIZE SUB DUP2 ADD SWAP1 PUSH3 0x17D SWAP2 SWAP1 PUSH3 0xAD0 JUMP JUMPDEST PUSH3 0x9D7 JUMP JUMPDEST PUSH1 0x40 MLOAD PUSH3 0x192 SWAP2 SWAP1 PUSH3 0xC72 JUMP JUMPDEST PUSH1 0x40 MLOAD DUP1 SWAP2 SUB SWAP1 RETURN JUMPDEST PUSH3 0x1B9 PUSH1 0x4 DUP1 CALLDATASIZE SUB DUP2 ADD SWAP1 PUSH3 0x1B3 SWAP2 SWAP1 PUSH3 0xAD0 JUMP JUMPDEST PUSH3 0xA17 JUMP JUMPDEST PUSH1 0x40 MLOAD PUSH3 0x1C8 SWAP2 SWAP1 PUSH3 0xC72 JUMP JUMPDEST PUSH1 0x40 MLOAD DUP1 SWAP2 SUB SWAP1 RETURN JUMPDEST PUSH3 0x1E7 PUSH8 0xF83CE0F9DCE8C167 PUSH1 0xC0 SHL PUSH3 0xA57 JUMP JUMPDEST PUSH3 0x1FD PUSH8 0x796AB42086054249 PUSH1 0xC0 SHL PUSH3 0xA57 JUMP JUMPDEST PUSH3 0x213 PUSH8 0xE49EE09E3729A178 PUSH1 0xC0 SHL PUSH3 0xA57 JUMP JUMPDEST PUSH3 0x229 PUSH8 0xD260BB2E49F4F8C2 PUSH1 0xC0 SHL PUSH3 0xA57 JUMP JUMPDEST PUSH3 0x23F PUSH8 0xAF3AC1B8D44AC778 PUSH1 0xC0 SHL PUSH3 0xA57 JUMP JUMPDEST PUSH1 0x0 DUP1 SLOAD SWAP1 PUSH2 0x100 EXP SWAP1 DIV PUSH20 0xFFFFFFFFFFFFFFFFFFFFFFFFFFFFFFFFFFFFFFFF AND PUSH20 0xFFFFFFFFFFFFFFFFFFFFFFFFFFFFFFFFFFFFFFFF AND CALLER PUSH20 0xFFFFFFFFFFFFFFFFFFFFFFFFFFFFFFFFFFFFFFFF AND EQ PUSH3 0x2D0 JUMPI PUSH1 0x40 MLOAD PUSH32 0x8C379A000000000000000000000000000000000000000000000000000000000 DUP2 MSTORE PUSH1 0x4 ADD PUSH3 0x2C7 SWAP1 PUSH3 0xCE0 JUMP JUMPDEST PUSH1 0x40 MLOAD DUP1 SWAP2 SUB SWAP1 REVERT JUMPDEST PUSH3 0x2E6 PUSH8 0x5F454F224FA99B97 PUSH1 0xC0 SHL PUSH3 0xA57 JUMP JUMPDEST PUSH3 0x2FC PUSH8 0xB8C27798738DAB13 PUSH1 0xC0 SHL PUSH3 0xA57 JUMP JUMPDEST PUSH3 0x312 PUSH8 0xC87AB3D5452A8229 PUSH1 0xC0 SHL PUSH3 0xA57 JUMP JUMPDEST PUSH3 0x328 PUSH8 0x412D38EDD21FC4C9 PUSH1 0xC0 SHL PUSH3 0xA57 JUMP JUMPDEST PUSH3 0x33E PUSH8 0x1332B0C755081FFA PUSH1 0xC0 SHL PUSH3 0xA57 JUMP JUMPDEST PUSH3 0x354 PUSH8 0xA29FF8470661C688 PUSH1 0xC0 SHL PUSH3 0xA57 JUMP JUMPDEST PUSH3 0x36A PUSH8 0x7A66CED4BEBDC3E1 PUSH1 0xC0 SHL PUSH3 0xA57 JUMP JUMPDEST PUSH1 0x0 DUP2 PUSH20 0xFFFFFFFFFFFFFFFFFFFFFFFFFFFFFFFFFFFFFFFF AND DUP1 EXTCODESIZE DUP1 PUSH1 0x20 ADD PUSH1 0x40 MLOAD SWAP1 DUP2 ADD PUSH1 0x40 MSTORE DUP2 DUP2 MSTORE PUSH1 0x0 SWAP1 DUP1 PUSH1 0x20 ADD SWAP1 SWAP4 EXTCODECOPY MLOAD GT PUSH3 0x3E3 JUMPI PUSH1 0x40 MLOAD PUSH32 0x8C379A000000000000000000000000000000000000000000000000000000000 DUP2 MSTORE PUSH1 0x4 ADD PUSH3 0x3DA SWAP1 PUSH3 0xD02 JUMP JUMPDEST PUSH1 0x40 MLOAD DUP1 SWAP2 SUB SWAP1 REVERT JUMPDEST PUSH3 0x3F9 PUSH8 0x91D9B67D022614B PUSH1 0xC0 SHL PUSH3 0xA57 JUMP JUMPDEST PUSH3 0x40F PUSH8 0x6602B527212FD94 PUSH1 0xC0 SHL PUSH3 0xA57 JUMP JUMPDEST DUP1 PUSH1 0x1 PUSH1 0x0 PUSH2 0x100 EXP DUP2 SLOAD DUP2 PUSH20 0xFFFFFFFFFFFFFFFFFFFFFFFFFFFFFFFFFFFFFFFF MUL NOT AND SWAP1 DUP4 PUSH20 0xFFFFFFFFFFFFFFFFFFFFFFFFFFFFFFFFFFFFFFFF AND MUL OR SWAP1 SSTORE POP PUSH3 0x466 PUSH8 0x98DFCAC9BDC6D98C PUSH1 0xC0 SHL PUSH3 0xA57 JUMP JUMPDEST PUSH3 0x47C PUSH8 0x2B8033049638E1C3 PUSH1 0xC0 SHL PUSH3 0xA57 JUMP JUMPDEST PUSH32 0x310BA5F1D2ED074B51E2ECCD052A47AE9AB7C6B800D1FCA3DB3999D6A592CA03 PUSH1 0x1 PUSH1 0x0 SWAP1 SLOAD SWAP1 PUSH2 0x100 EXP SWAP1 DIV PUSH20 0xFFFFFFFFFFFFFFFFFFFFFFFFFFFFFFFFFFFFFFFF AND PUSH1 0x40 MLOAD PUSH3 0x4CF SWAP2 SWAP1 PUSH3 0xC72 JUMP JUMPDEST PUSH1 0x40 MLOAD DUP1 SWAP2 SUB SWAP1 LOG1 POP JUMP JUMPDEST PUSH1 0x60 PUSH3 0x4F2 PUSH8 0x2D9CA544BA6CA184 PUSH1 0xC0 SHL PUSH3 0xA57 JUMP JUMPDEST PUSH3 0x508 PUSH8 0xE8F83C659EDD45C2 PUSH1 0xC0 SHL PUSH3 0xA57 JUMP JUMPDEST PUSH3 0x51E PUSH8 0x43CB8CF40A52D2FA PUSH1 0xC0 SHL PUSH3 0xA57 JUMP JUMPDEST PUSH1 0x2 DUP1 SLOAD DUP1 PUSH1 0x20 MUL PUSH1 0x20 ADD PUSH1 0x40 MLOAD SWAP1 DUP2 ADD PUSH1 0x40 MSTORE DUP1 SWAP3 SWAP2 SWAP1 DUP2 DUP2 MSTORE PUSH1 0x20 ADD DUP3 DUP1 SLOAD DUP1 ISZERO PUSH3 0x5A2 JUMPI PUSH1 0x20 MUL DUP3 ADD SWAP2 SWAP1 PUSH1 0x0 MSTORE PUSH1 0x20 PUSH1 0x0 KECCAK256 SWAP1 JUMPDEST DUP2 PUSH1 0x0 SWAP1 SLOAD SWAP1 PUSH2 0x100 EXP SWAP1 DIV PUSH20 0xFFFFFFFFFFFFFFFFFFFFFFFFFFFFFFFFFFFFFFFF AND PUSH20 0xFFFFFFFFFFFFFFFFFFFFFFFFFFFFFFFFFFFFFFFF AND DUP2 MSTORE PUSH1 0x20 ADD SWAP1 PUSH1 0x1 ADD SWAP1 DUP1 DUP4 GT PUSH3 0x557 JUMPI JUMPDEST POP POP POP POP POP SWAP1 POP SWAP1 JUMP JUMPDEST PUSH1 0x60 PUSH3 0x5C4 PUSH8 0xE445C7EDFD1FEC84 PUSH1 0xC0 SHL PUSH3 0xA57 JUMP JUMPDEST PUSH3 0x5DA PUSH8 0xD9D92D5EC3E29C50 PUSH1 0xC0 SHL PUSH3 0xA57 JUMP JUMPDEST PUSH3 0x5F0 PUSH8 0x3A486AE47545817A PUSH1 0xC0 SHL PUSH3 0xA57 JUMP JUMPDEST PUSH1 0x3 DUP1 SLOAD DUP1 PUSH1 0x20 MUL PUSH1 0x20 ADD PUSH1 0x40 MLOAD SWAP1 DUP2 ADD PUSH1 0x40 MSTORE DUP1 SWAP3 SWAP2 SWAP1 DUP2 DUP2 MSTORE PUSH1 0x20 ADD DUP3 DUP1 SLOAD DUP1 ISZERO PUSH3 0x674 JUMPI PUSH1 0x20 MUL DUP3 ADD SWAP2 SWAP1 PUSH1 0x0 MSTORE PUSH1 0x20 PUSH1 0x0 KECCAK256 SWAP1 JUMPDEST DUP2 PUSH1 0x0 SWAP1 SLOAD SWAP1 PUSH2 0x100 EXP SWAP1 DIV PUSH20 0xFFFFFFFFFFFFFFFFFFFFFFFFFFFFFFFFFFFFFFFF AND PUSH20 0xFFFFFFFFFFFFFFFFFFFFFFFFFFFFFFFFFFFFFFFF AND DUP2 MSTORE PUSH1 0x20 ADD SWAP1 PUSH1 0x1 ADD SWAP1 DUP1 DUP4 GT PUSH3 0x629 JUMPI JUMPDEST POP POP POP POP POP SWAP1 POP SWAP1 JUMP JUMPDEST PUSH1 0x1 PUSH1 0x0 SWAP1 SLOAD SWAP1 PUSH2 0x100 EXP SWAP1 DIV PUSH20 0xFFFFFFFFFFFFFFFFFFFFFFFFFFFFFFFFFFFFFFFF AND DUP2 JUMP JUMPDEST PUSH3 0x6BA PUSH8 0x993AA490D41993DA PUSH1 0xC0 SHL PUSH3 0xA57 JUMP JUMPDEST PUSH3 0x6D0 PUSH8 0x6C62274D09828E12 PUSH1 0xC0 SHL PUSH3 0xA57 JUMP JUMPDEST PUSH3 0x6E6 PUSH8 0x727A9FEBB0A1ECAF PUSH1 0xC0 SHL PUSH3 0xA57 JUMP JUMPDEST PUSH1 0x0 CALLER PUSH1 0x40 MLOAD PUSH3 0x6F7 SWAP1 PUSH3 0xA5A JUMP JUMPDEST PUSH3 0x703 SWAP2 SWAP1 PUSH3 0xC72 JUMP JUMPDEST PUSH1 0x40 MLOAD DUP1 SWAP2 SUB SWAP1 PUSH1 0x0 CREATE DUP1 ISZERO DUP1 ISZERO PUSH3 0x720 JUMPI RETURNDATASIZE PUSH1 0x0 DUP1 RETURNDATACOPY RETURNDATASIZE PUSH1 0x0 REVERT JUMPDEST POP SWAP1 POP PUSH3 0x739 PUSH8 0xC2AE7C10029DB982 PUSH1 0xC0 SHL PUSH3 0xA57 JUMP JUMPDEST PUSH3 0x74F PUSH8 0x8D6DB00EE4F4899 PUSH1 0xC0 SHL PUSH3 0xA57 JUMP JUMPDEST PUSH32 0x9CEBC3415F29F3A72D88A3509A7DE71248D7362A11A5A188C070BE993CC1D7C1 DUP2 PUSH1 0x40 MLOAD PUSH3 0x780 SWAP2 SWAP1 PUSH3 0xC72 JUMP JUMPDEST PUSH1 0x40 MLOAD DUP1 SWAP2 SUB SWAP1 LOG1 PUSH3 0x79E PUSH8 0x30F6A538E79A93AA PUSH1 0xC0 SHL PUSH3 0xA57 JUMP JUMPDEST PUSH3 0x7B4 PUSH8 0x2129A69F847801B9 PUSH1 0xC0 SHL PUSH3 0xA57 JUMP JUMPDEST PUSH1 0x3 DUP2 SWAP1 DUP1 PUSH1 0x1 DUP2 SLOAD ADD DUP1 DUP3 SSTORE DUP1 SWAP2 POP POP PUSH1 0x1 SWAP1 SUB SWAP1 PUSH1 0x0 MSTORE PUSH1 0x20 PUSH1 0x0 KECCAK256 ADD PUSH1 0x0 SWAP1 SWAP2 SWAP1 SWAP2 SWAP1 SWAP2 PUSH2 0x100 EXP DUP2 SLOAD DUP2 PUSH20 0xFFFFFFFFFFFFFFFFFFFFFFFFFFFFFFFFFFFFFFFF MUL NOT AND SWAP1 DUP4 PUSH20 0xFFFFFFFFFFFFFFFFFFFFFFFFFFFFFFFFFFFFFFFF AND MUL OR SWAP1 SSTORE POP POP JUMP JUMPDEST PUSH1 0x0 DUP1 SLOAD SWAP1 PUSH2 0x100 EXP SWAP1 DIV PUSH20 0xFFFFFFFFFFFFFFFFFFFFFFFFFFFFFFFFFFFFFFFF AND DUP2 JUMP JUMPDEST PUSH3 0x854 PUSH8 0xDAFE37C524C96ABD PUSH1 0xC0 SHL PUSH3 0xA57 JUMP JUMPDEST PUSH3 0x86A PUSH8 0x1ED4CF2040165C03 PUSH1 0xC0 SHL PUSH3 0xA57 JUMP JUMPDEST PUSH3 0x880 PUSH8 0x4478CBAFD3DD74B0 PUSH1 0xC0 SHL PUSH3 0xA57 JUMP JUMPDEST PUSH1 0x0 CALLER PUSH1 0x1 PUSH1 0x0 SWAP1 SLOAD SWAP1 PUSH2 0x100 EXP SWAP1 DIV PUSH20 0xFFFFFFFFFFFFFFFFFFFFFFFFFFFFFFFFFFFFFFFF AND PUSH1 0x40 MLOAD PUSH3 0x8B4 SWAP1 PUSH3 0xA68 JUMP JUMPDEST PUSH3 0x8C1 SWAP3 SWAP2 SWAP1 PUSH3 0xC8F JUMP JUMPDEST PUSH1 0x40 MLOAD DUP1 SWAP2 SUB SWAP1 PUSH1 0x0 CREATE DUP1 ISZERO DUP1 ISZERO PUSH3 0x8DE JUMPI RETURNDATASIZE PUSH1 0x0 DUP1 RETURNDATACOPY RETURNDATASIZE PUSH1 0x0 REVERT JUMPDEST POP SWAP1 POP PUSH3 0x8F7 PUSH8 0x96ED2BD885BBDBA3 PUSH1 0xC0 SHL PUSH3 0xA57 JUMP JUMPDEST PUSH3 0x90D PUSH8 0x8189B9A5664E5150 PUSH1 0xC0 SHL PUSH3 0xA57 JUMP JUMPDEST PUSH31 0xFFFC2DA0B561CAE30D9826D37709E9421C4725FAEBC226CBBB7EF5FC5E7349 DUP2 PUSH1 0x40 MLOAD PUSH3 0x93D SWAP2 SWAP1 PUSH3 0xC72 JUMP JUMPDEST PUSH1 0x40 MLOAD DUP1 SWAP2 SUB SWAP1 LOG1 PUSH3 0x95B PUSH8 0x90C7AD68CC2CC9FA PUSH1 0xC0 SHL PUSH3 0xA57 JUMP JUMPDEST PUSH3 0x971 PUSH8 0xB79191545A0B4A4F PUSH1 0xC0 SHL PUSH3 0xA57 JUMP JUMPDEST PUSH1 0x2 DUP2 SWAP1 DUP1 PUSH1 0x1 DUP2 SLOAD ADD DUP1 DUP3 SSTORE DUP1 SWAP2 POP POP PUSH1 0x1 SWAP1 SUB SWAP1 PUSH1 0x0 MSTORE PUSH1 0x20 PUSH1 0x0 KECCAK256 ADD PUSH1 0x0 SWAP1 SWAP2 SWAP1 SWAP2 SWAP1 SWAP2 PUSH2 0x100 EXP DUP2 SLOAD DUP2 PUSH20 0xFFFFFFFFFFFFFFFFFFFFFFFFFFFFFFFFFFFFFFFF MUL NOT AND SWAP1 DUP4 PUSH20 0xFFFFFFFFFFFFFFFFFFFFFFFFFFFFFFFFFFFFFFFF AND MUL OR SWAP1 SSTORE POP POP JUMP JUMPDEST PUSH1 0x2 DUP2 DUP2 SLOAD DUP2 LT PUSH3 0x9E8 JUMPI PUSH1 0x0 DUP1 REVERT JUMPDEST SWAP1 PUSH1 0x0 MSTORE PUSH1 0x20 PUSH1 0x0 KECCAK256 ADD PUSH1 0x0 SWAP2 POP SLOAD SWAP1 PUSH2 0x100 EXP SWAP1 DIV PUSH20 0xFFFFFFFFFFFFFFFFFFFFFFFFFFFFFFFFFFFFFFFF AND DUP2 JUMP JUMPDEST PUSH1 0x3 DUP2 DUP2 SLOAD DUP2 LT PUSH3 0xA28 JUMPI PUSH1 0x0 DUP1 REVERT JUMPDEST SWAP1 PUSH1 0x0 MSTORE PUSH1 0x20 PUSH1 0x0 KECCAK256 ADD PUSH1 0x0 SWAP2 POP SLOAD SWAP1 PUSH2 0x100 EXP SWAP1 DIV PUSH20 0xFFFFFFFFFFFFFFFFFFFFFFFFFFFFFFFFFFFFFFFF AND DUP2 JUMP JUMPDEST POP JUMP JUMPDEST PUSH2 0x11E9 DUP1 PUSH3 0xDE1 DUP4 CODECOPY ADD SWAP1 JUMP JUMPDEST PUSH2 0xE20 DUP1 PUSH3 0x1FCA DUP4 CODECOPY ADD SWAP1 JUMP JUMPDEST PUSH1 0x0 DUP2 CALLDATALOAD SWAP1 POP PUSH3 0xA87 DUP2 PUSH3 0xDAC JUMP JUMPDEST SWAP3 SWAP2 POP POP JUMP JUMPDEST PUSH1 0x0 DUP2 CALLDATALOAD SWAP1 POP PUSH3 0xA9E DUP2 PUSH3 0xDC6 JUMP JUMPDEST SWAP3 SWAP2 POP POP JUMP JUMPDEST PUSH1 0x0 PUSH1 0x20 DUP3 DUP5 SUB SLT ISZERO PUSH3 0xAB7 JUMPI PUSH1 0x0 DUP1 REVERT JUMPDEST PUSH1 0x0 PUSH3 0xAC7 DUP5 DUP3 DUP6 ADD PUSH3 0xA76 JUMP JUMPDEST SWAP2 POP POP SWAP3 SWAP2 POP POP JUMP JUMPDEST PUSH1 0x0 PUSH1 0x20 DUP3 DUP5 SUB SLT ISZERO PUSH3 0xAE3 JUMPI PUSH1 0x0 DUP1 REVERT JUMPDEST PUSH1 0x0 PUSH3 0xAF3 DUP5 DUP3 DUP6 ADD PUSH3 0xA8D JUMP JUMPDEST SWAP2 POP POP SWAP3 SWAP2 POP POP JUMP JUMPDEST PUSH1 0x0 PUSH3 0xB0A DUP4 DUP4 PUSH3 0xB16 JUMP JUMPDEST PUSH1 0x20 DUP4 ADD SWAP1 POP SWAP3 SWAP2 POP POP JUMP JUMPDEST PUSH3 0xB21 DUP2 PUSH3 0xD6E JUMP JUMPDEST DUP3 MSTORE POP POP JUMP JUMPDEST PUSH3 0xB32 DUP2 PUSH3 0xD6E JUMP JUMPDEST DUP3 MSTORE POP POP JUMP JUMPDEST PUSH1 0x0 PUSH3 0xB45 DUP3 PUSH3 0xD34 JUMP JUMPDEST PUSH3 0xB51 DUP2 DUP6 PUSH3 0xD4C JUMP JUMPDEST SWAP4 POP PUSH3 0xB5E DUP4 PUSH3 0xD24 JUMP JUMPDEST DUP1 PUSH1 0x0 JUMPDEST DUP4 DUP2 LT ISZERO PUSH3 0xB95 JUMPI DUP2 MLOAD PUSH3 0xB79 DUP9 DUP3 PUSH3 0xAFC JUMP JUMPDEST SWAP8 POP PUSH3 0xB86 DUP4 PUSH3 0xD3F JUMP JUMPDEST SWAP3 POP POP PUSH1 0x1 DUP2 ADD SWAP1 POP PUSH3 0xB62 JUMP JUMPDEST POP DUP6 SWAP4 POP POP POP POP SWAP3 SWAP2 POP POP JUMP JUMPDEST PUSH1 0x0 PUSH3 0xBB1 PUSH1 0x21 DUP4 PUSH3 0xD5D JUMP JUMPDEST SWAP2 POP PUSH32 0x4F6E6C79206F776E65722063616E2063616C6C20746869732066756E6374696F PUSH1 0x0 DUP4 ADD MSTORE PUSH32 0x6E00000000000000000000000000000000000000000000000000000000000000 PUSH1 0x20 DUP4 ADD MSTORE PUSH1 0x40 DUP3 ADD SWAP1 POP SWAP2 SWAP1 POP JUMP JUMPDEST PUSH1 0x0 PUSH3 0xC19 PUSH1 0x2F DUP4 PUSH3 0xD5D JUMP JUMPDEST SWAP2 POP PUSH32 0x4E657720696D706C656D656E746174696F6E20616464726573732073686F756C PUSH1 0x0 DUP4 ADD MSTORE PUSH32 0x64206265206120636F6E74726163740000000000000000000000000000000000 PUSH1 0x20 DUP4 ADD MSTORE PUSH1 0x40 DUP3 ADD SWAP1 POP SWAP2 SWAP1 POP JUMP JUMPDEST PUSH1 0x0 PUSH1 0x20 DUP3 ADD SWAP1 POP PUSH3 0xC89 PUSH1 0x0 DUP4 ADD DUP5 PUSH3 0xB27 JUMP JUMPDEST SWAP3 SWAP2 POP POP JUMP JUMPDEST PUSH1 0x0 PUSH1 0x40 DUP3 ADD SWAP1 POP PUSH3 0xCA6 PUSH1 0x0 DUP4 ADD DUP6 PUSH3 0xB27 JUMP JUMPDEST PUSH3 0xCB5 PUSH1 0x20 DUP4 ADD DUP5 PUSH3 0xB27 JUMP JUMPDEST SWAP4 SWAP3 POP POP POP JUMP JUMPDEST PUSH1 0x0 PUSH1 0x20 DUP3 ADD SWAP1 POP DUP2 DUP2 SUB PUSH1 0x0 DUP4 ADD MSTORE PUSH3 0xCD8 DUP2 DUP5 PUSH3 0xB38 JUMP JUMPDEST SWAP1 POP SWAP3 SWAP2 POP POP JUMP JUMPDEST PUSH1 0x0 PUSH1 0x20 DUP3 ADD SWAP1 POP DUP2 DUP2 SUB PUSH1 0x0 DUP4 ADD MSTORE PUSH3 0xCFB DUP2 PUSH3 0xBA2 JUMP JUMPDEST SWAP1 POP SWAP2 SWAP1 POP JUMP JUMPDEST PUSH1 0x0 PUSH1 0x20 DUP3 ADD SWAP1 POP DUP2 DUP2 SUB PUSH1 0x0 DUP4 ADD MSTORE PUSH3 0xD1D DUP2 PUSH3 0xC0A JUMP JUMPDEST SWAP1 POP SWAP2 SWAP1 POP JUMP JUMPDEST PUSH1 0x0 DUP2 SWAP1 POP PUSH1 0x20 DUP3 ADD SWAP1 POP SWAP2 SWAP1 POP JUMP JUMPDEST PUSH1 0x0 DUP2 MLOAD SWAP1 POP SWAP2 SWAP1 POP JUMP JUMPDEST PUSH1 0x0 PUSH1 0x20 DUP3 ADD SWAP1 POP SWAP2 SWAP1 POP JUMP JUMPDEST PUSH1 0x0 DUP3 DUP3 MSTORE PUSH1 0x20 DUP3 ADD SWAP1 POP SWAP3 SWAP2 POP POP JUMP JUMPDEST PUSH1 0x0 DUP3 DUP3 MSTORE PUSH1 0x20 DUP3 ADD SWAP1 POP SWAP3 SWAP2 POP POP JUMP JUMPDEST PUSH1 0x0 PUSH3 0xD7B DUP3 PUSH3 0xD82 JUMP JUMPDEST SWAP1 POP SWAP2 SWAP1 POP JUMP JUMPDEST PUSH1 0x0 PUSH20 0xFFFFFFFFFFFFFFFFFFFFFFFFFFFFFFFFFFFFFFFF DUP3 AND SWAP1 POP SWAP2 SWAP1 POP JUMP JUMPDEST PUSH1 0x0 DUP2 SWAP1 POP SWAP2 SWAP1 POP JUMP JUMPDEST PUSH3 0xDB7 DUP2 PUSH3 0xD6E JUMP JUMPDEST DUP2 EQ PUSH3 0xDC3 JUMPI PUSH1 0x0 DUP1 REVERT JUMPDEST POP JUMP JUMPDEST PUSH3 0xDD1 DUP2 PUSH3 0xDA2 JUMP JUMPDEST DUP2 EQ PUSH3 0xDDD JUMPI PUSH1 0x0 DUP1 REVERT JUMPDEST POP JUMP INVALID PUSH1 0x80 PUSH1 0x40 MSTORE CALLVALUE DUP1 ISZERO PUSH3 0x11 JUMPI PUSH1 0x0 DUP1 REVERT JUMPDEST POP PUSH1 0x40 MLOAD PUSH3 0x11E9 CODESIZE SUB DUP1 PUSH3 0x11E9 DUP4 CODECOPY DUP2 DUP2 ADD PUSH1 0x40 MSTORE DUP2 ADD SWAP1 PUSH3 0x37 SWAP2 SWAP1 PUSH3 0xD1 JUMP JUMPDEST PUSH3 0x53 PUSH8 0xF3E0DCF256905177 PUSH1 0xC0 SHL PUSH3 0xB7 PUSH1 0x20 SHL PUSH1 0x20 SHR JUMP JUMPDEST PUSH3 0x6F PUSH8 0x80A297D2730280D1 PUSH1 0xC0 SHL PUSH3 0xB7 PUSH1 0x20 SHL PUSH1 0x20 SHR JUMP JUMPDEST DUP1 PUSH1 0x1 PUSH1 0x0 PUSH2 0x100 EXP DUP2 SLOAD DUP2 PUSH20 0xFFFFFFFFFFFFFFFFFFFFFFFFFFFFFFFFFFFFFFFF MUL NOT AND SWAP1 DUP4 PUSH20 0xFFFFFFFFFFFFFFFFFFFFFFFFFFFFFFFFFFFFFFFF AND MUL OR SWAP1 SSTORE POP POP PUSH3 0x14B JUMP JUMPDEST POP JUMP JUMPDEST PUSH1 0x0 DUP2 MLOAD SWAP1 POP PUSH3 0xCB DUP2 PUSH3 0x131 JUMP JUMPDEST SWAP3 SWAP2 POP POP JUMP JUMPDEST PUSH1 0x0 PUSH1 0x20 DUP3 DUP5 SUB SLT ISZERO PUSH3 0xE4 JUMPI PUSH1 0x0 DUP1 REVERT JUMPDEST PUSH1 0x0 PUSH3 0xF4 DUP5 DUP3 DUP6 ADD PUSH3 0xBA JUMP JUMPDEST SWAP2 POP POP SWAP3 SWAP2 POP POP JUMP JUMPDEST PUSH1 0x0 PUSH3 0x10A DUP3 PUSH3 0x111 JUMP JUMPDEST SWAP1 POP SWAP2 SWAP1 POP JUMP JUMPDEST PUSH1 0x0 PUSH20 0xFFFFFFFFFFFFFFFFFFFFFFFFFFFFFFFFFFFFFFFF DUP3 AND SWAP1 POP SWAP2 SWAP1 POP JUMP JUMPDEST PUSH3 0x13C DUP2 PUSH3 0xFD JUMP JUMPDEST DUP2 EQ PUSH3 0x148 JUMPI PUSH1 0x0 DUP1 REVERT JUMPDEST POP JUMP JUMPDEST PUSH2 0x108E DUP1 PUSH3 0x15B PUSH1 0x0 CODECOPY PUSH1 0x0 RETURN INVALID PUSH1 0x80 PUSH1 0x40 MSTORE CALLVALUE DUP1 ISZERO PUSH2 0x10 JUMPI PUSH1 0x0 DUP1 REVERT JUMPDEST POP PUSH1 0x4 CALLDATASIZE LT PUSH2 0x62 JUMPI PUSH1 0x0 CALLDATALOAD PUSH1 0xE0 SHR DUP1 PUSH4 0x47E7EF24 EQ PUSH2 0x67 JUMPI DUP1 PUSH4 0x70A08231 EQ PUSH2 0x83 JUMPI DUP1 PUSH4 0x893D20E8 EQ PUSH2 0xB3 JUMPI DUP1 PUSH4 0x8DA5CB5B EQ PUSH2 0xD1 JUMPI DUP1 PUSH4 0xA5BF8EC6 EQ PUSH2 0xEF JUMPI DUP1 PUSH4 0xF3FEF3A3 EQ PUSH2 0x10B JUMPI JUMPDEST PUSH1 0x0 DUP1 REVERT JUMPDEST PUSH2 0x81 PUSH1 0x4 DUP1 CALLDATASIZE SUB DUP2 ADD SWAP1 PUSH2 0x7C SWAP2 SWAP1 PUSH2 0xC68 JUMP JUMPDEST PUSH2 0x127 JUMP JUMPDEST STOP JUMPDEST PUSH2 0x9D PUSH1 0x4 DUP1 CALLDATASIZE SUB DUP2 ADD SWAP1 PUSH2 0x98 SWAP2 SWAP1 PUSH2 0xC3F JUMP JUMPDEST PUSH2 0x46C JUMP JUMPDEST PUSH1 0x40 MLOAD PUSH2 0xAA SWAP2 SWAP1 PUSH2 0xE86 JUMP JUMPDEST PUSH1 0x40 MLOAD DUP1 SWAP2 SUB SWAP1 RETURN JUMPDEST PUSH2 0xBB PUSH2 0x52D JUMP JUMPDEST PUSH1 0x40 MLOAD PUSH2 0xC8 SWAP2 SWAP1 PUSH2 0xDAB JUMP JUMPDEST PUSH1 0x40 MLOAD DUP1 SWAP2 SUB SWAP1 RETURN JUMPDEST PUSH2 0xD9 PUSH2 0x593 JUMP JUMPDEST PUSH1 0x40 MLOAD PUSH2 0xE6 SWAP2 SWAP1 PUSH2 0xDAB JUMP JUMPDEST PUSH1 0x40 MLOAD DUP1 SWAP2 SUB SWAP1 RETURN JUMPDEST PUSH2 0x109 PUSH1 0x4 DUP1 CALLDATASIZE SUB DUP2 ADD SWAP1 PUSH2 0x104 SWAP2 SWAP1 PUSH2 0xC3F JUMP JUMPDEST PUSH2 0x5B9 JUMP JUMPDEST STOP JUMPDEST PUSH2 0x125 PUSH1 0x4 DUP1 CALLDATASIZE SUB DUP2 ADD SWAP1 PUSH2 0x120 SWAP2 SWAP1 PUSH2 0xC68 JUMP JUMPDEST PUSH2 0x8E8 JUMP JUMPDEST STOP JUMPDEST PUSH2 0x13B PUSH8 0x4A32D6CF2ADCBF1C PUSH1 0xC0 SHL PUSH2 0xBFD JUMP JUMPDEST PUSH2 0x14F PUSH8 0x56ACF12C413EF600 PUSH1 0xC0 SHL PUSH2 0xBFD JUMP JUMPDEST PUSH2 0x163 PUSH8 0xA19DA07D082D9B34 PUSH1 0xC0 SHL PUSH2 0xBFD JUMP JUMPDEST PUSH2 0x177 PUSH8 0xD124CFA8DE31682C PUSH1 0xC0 SHL PUSH2 0xBFD JUMP JUMPDEST PUSH1 0x0 DUP2 GT PUSH2 0x1BA JUMPI PUSH1 0x40 MLOAD PUSH32 0x8C379A000000000000000000000000000000000000000000000000000000000 DUP2 MSTORE PUSH1 0x4 ADD PUSH2 0x1B1 SWAP1 PUSH2 0xE26 JUMP JUMPDEST PUSH1 0x40 MLOAD DUP1 SWAP2 SUB SWAP1 REVERT JUMPDEST PUSH2 0x1CE PUSH8 0xC42D7C7DB9DC1058 PUSH1 0xC0 SHL PUSH2 0xBFD JUMP JUMPDEST PUSH2 0x1E2 PUSH8 0xC7468688E55FB751 PUSH1 0xC0 SHL PUSH2 0xBFD JUMP JUMPDEST PUSH2 0x1F6 PUSH8 0x9A6FAA7D4AB7518C PUSH1 0xC0 SHL PUSH2 0xBFD JUMP JUMPDEST DUP2 PUSH20 0xFFFFFFFFFFFFFFFFFFFFFFFFFFFFFFFFFFFFFFFF AND PUSH4 0x23B872DD CALLER ADDRESS DUP5 PUSH1 0x40 MLOAD DUP5 PUSH4 0xFFFFFFFF AND PUSH1 0xE0 SHL DUP2 MSTORE PUSH1 0x4 ADD PUSH2 0x233 SWAP4 SWAP3 SWAP2 SWAP1 PUSH2 0xDC6 JUMP JUMPDEST PUSH1 0x20 PUSH1 0x40 MLOAD DUP1 DUP4 SUB DUP2 PUSH1 0x0 DUP8 DUP1 EXTCODESIZE ISZERO DUP1 ISZERO PUSH2 0x24D JUMPI PUSH1 0x0 DUP1 REVERT JUMPDEST POP GAS CALL ISZERO DUP1 ISZERO PUSH2 0x261 JUMPI RETURNDATASIZE PUSH1 0x0 DUP1 RETURNDATACOPY RETURNDATASIZE PUSH1 0x0 REVERT JUMPDEST POP POP POP POP PUSH1 0x40 MLOAD RETURNDATASIZE PUSH1 0x1F NOT PUSH1 0x1F DUP3 ADD AND DUP3 ADD DUP1 PUSH1 0x40 MSTORE POP DUP2 ADD SWAP1 PUSH2 0x285 SWAP2 SWAP1 PUSH2 0xCA4 JUMP JUMPDEST POP PUSH2 0x29A PUSH8 0xE252E19C86E5967F PUSH1 0xC0 SHL PUSH2 0xBFD JUMP JUMPDEST PUSH2 0x2AE PUSH8 0x43A94D22D929225E PUSH1 0xC0 SHL PUSH2 0xBFD JUMP JUMPDEST PUSH1 0x0 PUSH2 0x3E8 DUP3 PUSH2 0x2BE SWAP2 SWAP1 PUSH2 0xF08 JUMP JUMPDEST SWAP1 POP PUSH2 0x2D4 PUSH8 0xF4FED0D99771774 PUSH1 0xC0 SHL PUSH2 0xBFD JUMP JUMPDEST PUSH2 0x2E8 PUSH8 0xA270A2942ADC8EB7 PUSH1 0xC0 SHL PUSH2 0xBFD JUMP JUMPDEST PUSH1 0x0 DUP2 DUP4 PUSH2 0x2F6 SWAP2 SWAP1 PUSH2 0xF39 JUMP JUMPDEST SWAP1 POP PUSH2 0x30C PUSH8 0x3F002D58D0B5FF50 PUSH1 0xC0 SHL PUSH2 0xBFD JUMP JUMPDEST DUP1 PUSH1 0x0 DUP1 CALLER PUSH20 0xFFFFFFFFFFFFFFFFFFFFFFFFFFFFFFFFFFFFFFFF AND PUSH20 0xFFFFFFFFFFFFFFFFFFFFFFFFFFFFFFFFFFFFFFFF AND DUP2 MSTORE PUSH1 0x20 ADD SWAP1 DUP2 MSTORE PUSH1 0x20 ADD PUSH1 0x0 KECCAK256 PUSH1 0x0 DUP7 PUSH20 0xFFFFFFFFFFFFFFFFFFFFFFFFFFFFFFFFFFFFFFFF AND PUSH20 0xFFFFFFFFFFFFFFFFFFFFFFFFFFFFFFFFFFFFFFFF AND DUP2 MSTORE PUSH1 0x20 ADD SWAP1 DUP2 MSTORE PUSH1 0x20 ADD PUSH1 0x0 KECCAK256 PUSH1 0x0 DUP3 DUP3 SLOAD PUSH2 0x397 SWAP2 SWAP1 PUSH2 0xEB2 JUMP JUMPDEST SWAP3 POP POP DUP2 SWAP1 SSTORE POP PUSH2 0x3B2 PUSH8 0x4314E4E46F59EFC2 PUSH1 0xC0 SHL PUSH2 0xBFD JUMP JUMPDEST DUP2 PUSH1 0x0 DUP1 PUSH1 0x1 PUSH1 0x0 SWAP1 SLOAD SWAP1 PUSH2 0x100 EXP SWAP1 DIV PUSH20 0xFFFFFFFFFFFFFFFFFFFFFFFFFFFFFFFFFFFFFFFF AND PUSH20 0xFFFFFFFFFFFFFFFFFFFFFFFFFFFFFFFFFFFFFFFF AND PUSH20 0xFFFFFFFFFFFFFFFFFFFFFFFFFFFFFFFFFFFFFFFF AND DUP2 MSTORE PUSH1 0x20 ADD SWAP1 DUP2 MSTORE PUSH1 0x20 ADD PUSH1 0x0 KECCAK256 PUSH1 0x0 DUP7 PUSH20 0xFFFFFFFFFFFFFFFFFFFFFFFFFFFFFFFFFFFFFFFF AND PUSH20 0xFFFFFFFFFFFFFFFFFFFFFFFFFFFFFFFFFFFFFFFF AND DUP2 MSTORE PUSH1 0x20 ADD SWAP1 DUP2 MSTORE PUSH1 0x20 ADD PUSH1 0x0 KECCAK256 PUSH1 0x0 DUP3 DUP3 SLOAD PUSH2 0x45F SWAP2 SWAP1 PUSH2 0xEB2 JUMP JUMPDEST SWAP3 POP POP DUP2 SWAP1 SSTORE POP POP POP POP POP JUMP JUMPDEST PUSH1 0x0 PUSH2 0x482 PUSH8 0x1F8FFD56A8625058 PUSH1 0xC0 SHL PUSH2 0xBFD JUMP JUMPDEST PUSH2 0x496 PUSH8 0x2CAE6D371DE2473E PUSH1 0xC0 SHL PUSH2 0xBFD JUMP JUMPDEST PUSH2 0x4AA PUSH8 0x6D00F2FB00E480F4 PUSH1 0xC0 SHL PUSH2 0xBFD JUMP JUMPDEST PUSH1 0x0 DUP1 CALLER PUSH20 0xFFFFFFFFFFFFFFFFFFFFFFFFFFFFFFFFFFFFFFFF AND PUSH20 0xFFFFFFFFFFFFFFFFFFFFFFFFFFFFFFFFFFFFFFFF AND DUP2 MSTORE PUSH1 0x20 ADD SWAP1 DUP2 MSTORE PUSH1 0x20 ADD PUSH1 0x0 KECCAK256 PUSH1 0x0 DUP4 PUSH20 0xFFFFFFFFFFFFFFFFFFFFFFFFFFFFFFFFFFFFFFFF AND PUSH20 0xFFFFFFFFFFFFFFFFFFFFFFFFFFFFFFFFFFFFFFFF AND DUP2 MSTORE PUSH1 0x20 ADD SWAP1 DUP2 MSTORE PUSH1 0x20 ADD PUSH1 0x0 KECCAK256 SLOAD SWAP1 POP SWAP2 SWAP1 POP JUMP JUMPDEST PUSH1 0x0 PUSH2 0x543 PUSH8 0x5CABBB8B8B36F1DF PUSH1 0xC0 SHL PUSH2 0xBFD JUMP JUMPDEST PUSH2 0x557 PUSH8 0xE5641F50649B399A PUSH1 0xC0 SHL PUSH2 0xBFD JUMP JUMPDEST PUSH2 0x56B PUSH8 0x38CB44F9297A02CD PUSH1 0xC0 SHL PUSH2 0xBFD JUMP JUMPDEST PUSH1 0x1 PUSH1 0x0 SWAP1 SLOAD SWAP1 PUSH2 0x100 EXP SWAP1 DIV PUSH20 0xFFFFFFFFFFFFFFFFFFFFFFFFFFFFFFFFFFFFFFFF AND SWAP1 POP SWAP1 JUMP JUMPDEST PUSH1 0x1 PUSH1 0x0 SWAP1 SLOAD SWAP1 PUSH2 0x100 EXP SWAP1 DIV PUSH20 0xFFFFFFFFFFFFFFFFFFFFFFFFFFFFFFFFFFFFFFFF AND DUP2 JUMP JUMPDEST PUSH2 0x5CD PUSH8 0xADD117EC7879F3C6 PUSH1 0xC0 SHL PUSH2 0xBFD JUMP JUMPDEST PUSH2 0x5E1 PUSH8 0xC2832F8E0127CA29 PUSH1 0xC0 SHL PUSH2 0xBFD JUMP JUMPDEST PUSH2 0x5F5 PUSH8 0x65BCC9A5416582A9 PUSH1 0xC0 SHL PUSH2 0xBFD JUMP JUMPDEST PUSH2 0x609 PUSH8 0xF641CAC2F7BD578C PUSH1 0xC0 SHL PUSH2 0xBFD JUMP JUMPDEST PUSH1 0x1 PUSH1 0x0 SWAP1 SLOAD SWAP1 PUSH2 0x100 EXP SWAP1 DIV PUSH20 0xFFFFFFFFFFFFFFFFFFFFFFFFFFFFFFFFFFFFFFFF AND PUSH20 0xFFFFFFFFFFFFFFFFFFFFFFFFFFFFFFFFFFFFFFFF AND CALLER PUSH20 0xFFFFFFFFFFFFFFFFFFFFFFFFFFFFFFFFFFFFFFFF AND EQ PUSH2 0x699 JUMPI PUSH1 0x40 MLOAD PUSH32 0x8C379A000000000000000000000000000000000000000000000000000000000 DUP2 MSTORE PUSH1 0x4 ADD PUSH2 0x690 SWAP1 PUSH2 0xE66 JUMP JUMPDEST PUSH1 0x40 MLOAD DUP1 SWAP2 SUB SWAP1 REVERT JUMPDEST PUSH2 0x6AD PUSH8 0x35C8CAB8EC379F16 PUSH1 0xC0 SHL PUSH2 0xBFD JUMP JUMPDEST PUSH2 0x6C1 PUSH8 0xC1928BFB0DA5E888 PUSH1 0xC0 SHL PUSH2 0xBFD JUMP JUMPDEST PUSH2 0x6D5 PUSH8 0xF97DB5FB2358AA9D PUSH1 0xC0 SHL PUSH2 0xBFD JUMP JUMPDEST PUSH1 0x0 DUP1 PUSH1 0x0 PUSH1 0x1 PUSH1 0x0 SWAP1 SLOAD SWAP1 PUSH2 0x100 EXP SWAP1 DIV PUSH20 0xFFFFFFFFFFFFFFFFFFFFFFFFFFFFFFFFFFFFFFFF AND PUSH20 0xFFFFFFFFFFFFFFFFFFFFFFFFFFFFFFFFFFFFFFFF AND PUSH20 0xFFFFFFFFFFFFFFFFFFFFFFFFFFFFFFFFFFFFFFFF AND DUP2 MSTORE PUSH1 0x20 ADD SWAP1 DUP2 MSTORE PUSH1 0x20 ADD PUSH1 0x0 KECCAK256 PUSH1 0x0 DUP4 PUSH20 0xFFFFFFFFFFFFFFFFFFFFFFFFFFFFFFFFFFFFFFFF AND PUSH20 0xFFFFFFFFFFFFFFFFFFFFFFFFFFFFFFFFFFFFFFFF AND DUP2 MSTORE PUSH1 0x20 ADD SWAP1 DUP2 MSTORE PUSH1 0x20 ADD PUSH1 0x0 KECCAK256 SLOAD SWAP1 POP PUSH2 0x78B PUSH8 0xA2FBD030A2A69403 PUSH1 0xC0 SHL PUSH2 0xBFD JUMP JUMPDEST PUSH2 0x79F PUSH8 0x8A89E88D7CEA72C6 PUSH1 0xC0 SHL PUSH2 0xBFD JUMP JUMPDEST DUP2 PUSH20 0xFFFFFFFFFFFFFFFFFFFFFFFFFFFFFFFFFFFFFFFF AND PUSH4 0xA9059CBB CALLER DUP4 PUSH1 0x40 MLOAD DUP4 PUSH4 0xFFFFFFFF AND PUSH1 0xE0 SHL DUP2 MSTORE PUSH1 0x4 ADD PUSH2 0x7DA SWAP3 SWAP2 SWAP1 PUSH2 0xDFD JUMP JUMPDEST PUSH1 0x20 PUSH1 0x40 MLOAD DUP1 DUP4 SUB DUP2 PUSH1 0x0 DUP8 DUP1 EXTCODESIZE ISZERO DUP1 ISZERO PUSH2 0x7F4 JUMPI PUSH1 0x0 DUP1 REVERT JUMPDEST POP GAS CALL ISZERO DUP1 ISZERO PUSH2 0x808 JUMPI RETURNDATASIZE PUSH1 0x0 DUP1 RETURNDATACOPY RETURNDATASIZE PUSH1 0x0 REVERT JUMPDEST POP POP POP POP PUSH1 0x40 MLOAD RETURNDATASIZE PUSH1 0x1F NOT PUSH1 0x1F DUP3 ADD AND DUP3 ADD DUP1 PUSH1 0x40 MSTORE POP DUP2 ADD SWAP1 PUSH2 0x82C SWAP2 SWAP1 PUSH2 0xCA4 JUMP JUMPDEST POP PUSH2 0x841 PUSH8 0x4EC6E9FFB84EEC2A PUSH1 0xC0 SHL PUSH2 0xBFD JUMP JUMPDEST PUSH1 0x0 DUP1 PUSH1 0x0 PUSH1 0x1 PUSH1 0x0 SWAP1 SLOAD SWAP1 PUSH2 0x100 EXP SWAP1 DIV PUSH20 0xFFFFFFFFFFFFFFFFFFFFFFFFFFFFFFFFFFFFFFFF AND PUSH20 0xFFFFFFFFFFFFFFFFFFFFFFFFFFFFFFFFFFFFFFFF AND PUSH20 0xFFFFFFFFFFFFFFFFFFFFFFFFFFFFFFFFFFFFFFFF AND DUP2 MSTORE PUSH1 0x20 ADD SWAP1 DUP2 MSTORE PUSH1 0x20 ADD PUSH1 0x0 KECCAK256 PUSH1 0x0 DUP5 PUSH20 0xFFFFFFFFFFFFFFFFFFFFFFFFFFFFFFFFFFFFFFFF AND PUSH20 0xFFFFFFFFFFFFFFFFFFFFFFFFFFFFFFFFFFFFFFFF AND DUP2 MSTORE PUSH1 0x20 ADD SWAP1 DUP2 MSTORE PUSH1 0x20 ADD PUSH1 0x0 KECCAK256 DUP2 SWAP1 SSTORE POP POP POP JUMP JUMPDEST PUSH2 0x8FC PUSH8 0x9B48360E5746A393 PUSH1 0xC0 SHL PUSH2 0xBFD JUMP JUMPDEST PUSH2 0x910 PUSH8 0x6E04B93BDAE267E3 PUSH1 0xC0 SHL PUSH2 0xBFD JUMP JUMPDEST PUSH2 0x924 PUSH8 0xD9876BD4071C269B PUSH1 0xC0 SHL PUSH2 0xBFD JUMP JUMPDEST PUSH2 0x938 PUSH8 0x500B24C3CD59FFB PUSH1 0xC0 SHL PUSH2 0xBFD JUMP JUMPDEST PUSH1 0x0 DUP2 GT PUSH2 0x97B JUMPI PUSH1 0x40 MLOAD PUSH32 0x8C379A000000000000000000000000000000000000000000000000000000000 DUP2 MSTORE PUSH1 0x4 ADD PUSH2 0x972 SWAP1 PUSH2 0xE26 JUMP JUMPDEST PUSH1 0x40 MLOAD DUP1 SWAP2 SUB SWAP1 REVERT JUMPDEST PUSH2 0x98F PUSH8 0x75A765BD351AAF44 PUSH1 0xC0 SHL PUSH2 0xBFD JUMP JUMPDEST PUSH2 0x9A3 PUSH8 0x6933283E1161702E PUSH1 0xC0 SHL PUSH2 0xBFD JUMP JUMPDEST PUSH2 0x9B7 PUSH8 0xF250D1FEB9C72F5 PUSH1 0xC0 SHL PUSH2 0xBFD JUMP JUMPDEST PUSH2 0x9CB PUSH8 0xFB454D1FC565996A PUSH1 0xC0 SHL PUSH2 0xBFD JUMP JUMPDEST DUP1 PUSH1 0x0 DUP1 CALLER PUSH20 0xFFFFFFFFFFFFFFFFFFFFFFFFFFFFFFFFFFFFFFFF AND PUSH20 0xFFFFFFFFFFFFFFFFFFFFFFFFFFFFFFFFFFFFFFFF AND DUP2 MSTORE PUSH1 0x20 ADD SWAP1 DUP2 MSTORE PUSH1 0x20 ADD PUSH1 0x0 KECCAK256 PUSH1 0x0 DUP5 PUSH20 0xFFFFFFFFFFFFFFFFFFFFFFFFFFFFFFFFFFFFFFFF AND PUSH20 0xFFFFFFFFFFFFFFFFFFFFFFFFFFFFFFFFFFFFFFFF AND DUP2 MSTORE PUSH1 0x20 ADD SWAP1 DUP2 MSTORE PUSH1 0x20 ADD PUSH1 0x0 KECCAK256 SLOAD LT ISZERO PUSH2 0xA89 JUMPI PUSH1 0x40 MLOAD PUSH32 0x8C379A000000000000000000000000000000000000000000000000000000000 DUP2 MSTORE PUSH1 0x4 ADD PUSH2 0xA80 SWAP1 PUSH2 0xE46 JUMP JUMPDEST PUSH1 0x40 MLOAD DUP1 SWAP2 SUB SWAP1 REVERT JUMPDEST PUSH2 0xA9D PUSH8 0xE2387A69C0877E28 PUSH1 0xC0 SHL PUSH2 0xBFD JUMP JUMPDEST PUSH2 0xAB1 PUSH8 0x50DE72C56AD29839 PUSH1 0xC0 SHL PUSH2 0xBFD JUMP JUMPDEST PUSH2 0xAC5 PUSH8 0xF1896B27841668CF PUSH1 0xC0 SHL PUSH2 0xBFD JUMP JUMPDEST DUP2 PUSH20 0xFFFFFFFFFFFFFFFFFFFFFFFFFFFFFFFFFFFFFFFF AND PUSH4 0xA9059CBB CALLER DUP4 PUSH1 0x40 MLOAD DUP4 PUSH4 0xFFFFFFFF AND PUSH1 0xE0 SHL DUP2 MSTORE PUSH1 0x4 ADD PUSH2 0xB00 SWAP3 SWAP2 SWAP1 PUSH2 0xDFD JUMP JUMPDEST PUSH1 0x20 PUSH1 0x40 MLOAD DUP1 DUP4 SUB DUP2 PUSH1 0x0 DUP8 DUP1 EXTCODESIZE ISZERO DUP1 ISZERO PUSH2 0xB1A JUMPI PUSH1 0x0 DUP1 REVERT JUMPDEST POP GAS CALL ISZERO DUP1 ISZERO PUSH2 0xB2E JUMPI RETURNDATASIZE PUSH1 0x0 DUP1 RETURNDATACOPY RETURNDATASIZE PUSH1 0x0 REVERT JUMPDEST POP POP POP POP PUSH1 0x40 MLOAD RETURNDATASIZE PUSH1 0x1F NOT PUSH1 0x1F DUP3 ADD AND DUP3 ADD DUP1 PUSH1 0x40 MSTORE POP DUP2 ADD SWAP1 PUSH2 0xB52 SWAP2 SWAP1 PUSH2 0xCA4 JUMP JUMPDEST POP PUSH2 0xB67 PUSH8 0x4617020797E246A2 PUSH1 0xC0 SHL PUSH2 0xBFD JUMP JUMPDEST DUP1 PUSH1 0x0 DUP1 CALLER PUSH20 0xFFFFFFFFFFFFFFFFFFFFFFFFFFFFFFFFFFFFFFFF AND PUSH20 0xFFFFFFFFFFFFFFFFFFFFFFFFFFFFFFFFFFFFFFFF AND DUP2 MSTORE PUSH1 0x20 ADD SWAP1 DUP2 MSTORE PUSH1 0x20 ADD PUSH1 0x0 KECCAK256 PUSH1 0x0 DUP5 PUSH20 0xFFFFFFFFFFFFFFFFFFFFFFFFFFFFFFFFFFFFFFFF AND PUSH20 0xFFFFFFFFFFFFFFFFFFFFFFFFFFFFFFFFFFFFFFFF AND DUP2 MSTORE PUSH1 0x20 ADD SWAP1 DUP2 MSTORE PUSH1 0x20 ADD PUSH1 0x0 KECCAK256 PUSH1 0x0 DUP3 DUP3 SLOAD PUSH2 0xBF2 SWAP2 SWAP1 PUSH2 0xF39 JUMP JUMPDEST SWAP3 POP POP DUP2 SWAP1 SSTORE POP POP POP JUMP JUMPDEST POP JUMP JUMPDEST PUSH1 0x0 DUP2 CALLDATALOAD SWAP1 POP PUSH2 0xC0F DUP2 PUSH2 0x1013 JUMP JUMPDEST SWAP3 SWAP2 POP POP JUMP JUMPDEST PUSH1 0x0 DUP2 MLOAD SWAP1 POP PUSH2 0xC24 DUP2 PUSH2 0x102A JUMP JUMPDEST SWAP3 SWAP2 POP POP JUMP JUMPDEST PUSH1 0x0 DUP2 CALLDATALOAD SWAP1 POP PUSH2 0xC39 DUP2 PUSH2 0x1041 JUMP JUMPDEST SWAP3 SWAP2 POP POP JUMP JUMPDEST PUSH1 0x0 PUSH1 0x20 DUP3 DUP5 SUB SLT ISZERO PUSH2 0xC51 JUMPI PUSH1 0x0 DUP1 REVERT JUMPDEST PUSH1 0x0 PUSH2 0xC5F DUP5 DUP3 DUP6 ADD PUSH2 0xC00 JUMP JUMPDEST SWAP2 POP POP SWAP3 SWAP2 POP POP JUMP JUMPDEST PUSH1 0x0 DUP1 PUSH1 0x40 DUP4 DUP6 SUB SLT ISZERO PUSH2 0xC7B JUMPI PUSH1 0x0 DUP1 REVERT JUMPDEST PUSH1 0x0 PUSH2 0xC89 DUP6 DUP3 DUP7 ADD PUSH2 0xC00 JUMP JUMPDEST SWAP3 POP POP PUSH1 0x20 PUSH2 0xC9A DUP6 DUP3 DUP7 ADD PUSH2 0xC2A JUMP JUMPDEST SWAP2 POP POP SWAP3 POP SWAP3 SWAP1 POP JUMP JUMPDEST PUSH1 0x0 PUSH1 0x20 DUP3 DUP5 SUB SLT ISZERO PUSH2 0xCB6 JUMPI PUSH1 0x0 DUP1 REVERT JUMPDEST PUSH1 0x0 PUSH2 0xCC4 DUP5 DUP3 DUP6 ADD PUSH2 0xC15 JUMP JUMPDEST SWAP2 POP POP SWAP3 SWAP2 POP POP JUMP JUMPDEST PUSH2 0xCD6 DUP2 PUSH2 0xF6D JUMP JUMPDEST DUP3 MSTORE POP POP JUMP JUMPDEST PUSH1 0x0 PUSH2 0xCE9 PUSH1 0x1D DUP4 PUSH2 0xEA1 JUMP JUMPDEST SWAP2 POP PUSH32 0x416D6F756E74206D7573742062652067726561746572207468616E2030000000 PUSH1 0x0 DUP4 ADD MSTORE PUSH1 0x20 DUP3 ADD SWAP1 POP SWAP2 SWAP1 POP JUMP JUMPDEST PUSH1 0x0 PUSH2 0xD29 PUSH1 0x14 DUP4 PUSH2 0xEA1 JUMP JUMPDEST SWAP2 POP PUSH32 0x496E73756666696369656E742062616C616E6365000000000000000000000000 PUSH1 0x0 DUP4 ADD MSTORE PUSH1 0x20 DUP3 ADD SWAP1 POP SWAP2 SWAP1 POP JUMP JUMPDEST PUSH1 0x0 PUSH2 0xD69 PUSH1 0x1B DUP4 PUSH2 0xEA1 JUMP JUMPDEST SWAP2 POP PUSH32 0x4F6E6C79206F776E65722063616E207472616E73666572206F75740000000000 PUSH1 0x0 DUP4 ADD MSTORE PUSH1 0x20 DUP3 ADD SWAP1 POP SWAP2 SWAP1 POP JUMP JUMPDEST PUSH2 0xDA5 DUP2 PUSH2 0xFAB JUMP JUMPDEST DUP3 MSTORE POP POP JUMP JUMPDEST PUSH1 0x0 PUSH1 0x20 DUP3 ADD SWAP1 POP PUSH2 0xDC0 PUSH1 0x0 DUP4 ADD DUP5 PUSH2 0xCCD JUMP JUMPDEST SWAP3 SWAP2 POP POP JUMP JUMPDEST PUSH1 0x0 PUSH1 0x60 DUP3 ADD SWAP1 POP PUSH2 0xDDB PUSH1 0x0 DUP4 ADD DUP7 PUSH2 0xCCD JUMP JUMPDEST PUSH2 0xDE8 PUSH1 0x20 DUP4 ADD DUP6 PUSH2 0xCCD JUMP JUMPDEST PUSH2 0xDF5 PUSH1 0x40 DUP4 ADD DUP5 PUSH2 0xD9C JUMP JUMPDEST SWAP5 SWAP4 POP POP POP POP JUMP JUMPDEST PUSH1 0x0 PUSH1 0x40 DUP3 ADD SWAP1 POP PUSH2 0xE12 PUSH1 0x0 DUP4 ADD DUP6 PUSH2 0xCCD JUMP JUMPDEST PUSH2 0xE1F PUSH1 0x20 DUP4 ADD DUP5 PUSH2 0xD9C JUMP JUMPDEST SWAP4 SWAP3 POP POP POP JUMP JUMPDEST PUSH1 0x0 PUSH1 0x20 DUP3 ADD SWAP1 POP DUP2 DUP2 SUB PUSH1 0x0 DUP4 ADD MSTORE PUSH2 0xE3F DUP2 PUSH2 0xCDC JUMP JUMPDEST SWAP1 POP SWAP2 SWAP1 POP JUMP JUMPDEST PUSH1 0x0 PUSH1 0x20 DUP3 ADD SWAP1 POP DUP2 DUP2 SUB PUSH1 0x0 DUP4 ADD MSTORE PUSH2 0xE5F DUP2 PUSH2 0xD1C JUMP JUMPDEST SWAP1 POP SWAP2 SWAP1 POP JUMP JUMPDEST PUSH1 0x0 PUSH1 0x20 DUP3 ADD SWAP1 POP DUP2 DUP2 SUB PUSH1 0x0 DUP4 ADD MSTORE PUSH2 0xE7F DUP2 PUSH2 0xD5C JUMP JUMPDEST SWAP1 POP SWAP2 SWAP1 POP JUMP JUMPDEST PUSH1 0x0 PUSH1 0x20 DUP3 ADD SWAP1 POP PUSH2 0xE9B PUSH1 0x0 DUP4 ADD DUP5 PUSH2 0xD9C JUMP JUMPDEST SWAP3 SWAP2 POP POP JUMP JUMPDEST PUSH1 0x0 DUP3 DUP3 MSTORE PUSH1 0x20 DUP3 ADD SWAP1 POP SWAP3 SWAP2 POP POP JUMP JUMPDEST PUSH1 0x0 PUSH2 0xEBD DUP3 PUSH2 0xFAB JUMP JUMPDEST SWAP2 POP PUSH2 0xEC8 DUP4 PUSH2 0xFAB JUMP JUMPDEST SWAP3 POP DUP3 PUSH32 0xFFFFFFFFFFFFFFFFFFFFFFFFFFFFFFFFFFFFFFFFFFFFFFFFFFFFFFFFFFFFFFFF SUB DUP3 GT ISZERO PUSH2 0xEFD JUMPI PUSH2 0xEFC PUSH2 0xFB5 JUMP JUMPDEST JUMPDEST DUP3 DUP3 ADD SWAP1 POP SWAP3 SWAP2 POP POP JUMP JUMPDEST PUSH1 0x0 PUSH2 0xF13 DUP3 PUSH2 0xFAB JUMP JUMPDEST SWAP2 POP PUSH2 0xF1E DUP4 PUSH2 0xFAB JUMP JUMPDEST SWAP3 POP DUP3 PUSH2 0xF2E JUMPI PUSH2 0xF2D PUSH2 0xFE4 JUMP JUMPDEST JUMPDEST DUP3 DUP3 DIV SWAP1 POP SWAP3 SWAP2 POP POP JUMP JUMPDEST PUSH1 0x0 PUSH2 0xF44 DUP3 PUSH2 0xFAB JUMP JUMPDEST SWAP2 POP PUSH2 0xF4F DUP4 PUSH2 0xFAB JUMP JUMPDEST SWAP3 POP DUP3 DUP3 LT ISZERO PUSH2 0xF62 JUMPI PUSH2 0xF61 PUSH2 0xFB5 JUMP JUMPDEST JUMPDEST DUP3 DUP3 SUB SWAP1 POP SWAP3 SWAP2 POP POP JUMP JUMPDEST PUSH1 0x0 PUSH2 0xF78 DUP3 PUSH2 0xF8B JUMP JUMPDEST SWAP1 POP SWAP2 SWAP1 POP JUMP JUMPDEST PUSH1 0x0 DUP2 ISZERO ISZERO SWAP1 POP SWAP2 SWAP1 POP JUMP JUMPDEST PUSH1 0x0 PUSH20 0xFFFFFFFFFFFFFFFFFFFFFFFFFFFFFFFFFFFFFFFF DUP3 AND SWAP1 POP SWAP2 SWAP1 POP JUMP JUMPDEST PUSH1 0x0 DUP2 SWAP1 POP SWAP2 SWAP1 POP JUMP JUMPDEST PUSH32 0x4E487B7100000000000000000000000000000000000000000000000000000000 PUSH1 0x0 MSTORE PUSH1 0x11 PUSH1 0x4 MSTORE PUSH1 0x24 PUSH1 0x0 REVERT JUMPDEST PUSH32 0x4E487B7100000000000000000000000000000000000000000000000000000000 PUSH1 0x0 MSTORE PUSH1 0x12 PUSH1 0x4 MSTORE PUSH1 0x24 PUSH1 0x0 REVERT JUMPDEST PUSH2 0x101C DUP2 PUSH2 0xF6D JUMP JUMPDEST DUP2 EQ PUSH2 0x1027 JUMPI PUSH1 0x0 DUP1 REVERT JUMPDEST POP JUMP JUMPDEST PUSH2 0x1033 DUP2 PUSH2 0xF7F JUMP JUMPDEST DUP2 EQ PUSH2 0x103E JUMPI PUSH1 0x0 DUP1 REVERT JUMPDEST POP JUMP JUMPDEST PUSH2 0x104A DUP2 PUSH2 0xFAB JUMP JUMPDEST DUP2 EQ PUSH2 0x1055 JUMPI PUSH1 0x0 DUP1 REVERT JUMPDEST POP JUMP INVALID LOG2 PUSH5 0x6970667358 0x22 SLT KECCAK256 0xBB CALLDATACOPY DIFFICULTY BALANCE 0x48 0xAC PUSH30 0xF26DE64C2C0360B639D964D0139EBB95E5C0EFEEE82184201A64736F6C63 NUMBER STOP ADDMOD STOP STOP CALLER PUSH1 0x80 PUSH1 0x40 MSTORE CALLVALUE DUP1 ISZERO PUSH3 0x11 JUMPI PUSH1 0x0 DUP1 REVERT JUMPDEST POP PUSH1 0x40 MLOAD PUSH3 0xE20 CODESIZE SUB DUP1 PUSH3 0xE20 DUP4 CODECOPY DUP2 DUP2 ADD PUSH1 0x40 MSTORE DUP2 ADD SWAP1 PUSH3 0x37 SWAP2 SWAP1 PUSH3 0x47E JUMP JUMPDEST PUSH3 0x53 PUSH8 0xCD9673AD12968C24 PUSH1 0xC0 SHL PUSH3 0xED PUSH1 0x20 SHL PUSH1 0x20 SHR JUMP JUMPDEST PUSH3 0x6F PUSH8 0xCD6FA23B16AD65F1 PUSH1 0xC0 SHL PUSH3 0xED PUSH1 0x20 SHL PUSH1 0x20 SHR JUMP JUMPDEST PUSH3 0x8B PUSH8 0xF461F5A6EF9C821B PUSH1 0xC0 SHL PUSH3 0xED PUSH1 0x20 SHL PUSH1 0x20 SHR JUMP JUMPDEST PUSH3 0x9C DUP3 PUSH3 0xF0 PUSH1 0x20 SHL PUSH1 0x20 SHR JUMP JUMPDEST PUSH3 0xB8 PUSH8 0x9C5A2D4B5C62E117 PUSH1 0xC0 SHL PUSH3 0xED PUSH1 0x20 SHL PUSH1 0x20 SHR JUMP JUMPDEST PUSH3 0xD4 PUSH8 0x8B8C0CD43812C2E9 PUSH1 0xC0 SHL PUSH3 0xED PUSH1 0x20 SHL PUSH1 0x20 SHR JUMP JUMPDEST PUSH3 0xE5 DUP2 PUSH3 0x286 PUSH1 0x20 SHL PUSH1 0x20 SHR JUMP JUMPDEST POP POP PUSH3 0x60C JUMP JUMPDEST POP JUMP JUMPDEST PUSH3 0x10C PUSH8 0x9561683F0907F48A PUSH1 0xC0 SHL PUSH3 0xED PUSH1 0x20 SHL PUSH1 0x20 SHR JUMP JUMPDEST PUSH3 0x128 PUSH8 0xCF69053E00F4B462 PUSH1 0xC0 SHL PUSH3 0xED PUSH1 0x20 SHL PUSH1 0x20 SHR JUMP JUMPDEST PUSH3 0x144 PUSH8 0xA726B70DDD1BB919 PUSH1 0xC0 SHL PUSH3 0xED PUSH1 0x20 SHL PUSH1 0x20 SHR JUMP JUMPDEST PUSH3 0x160 PUSH8 0x6BD5C11DC4354C18 PUSH1 0xC0 SHL PUSH3 0xED PUSH1 0x20 SHL PUSH1 0x20 SHR JUMP JUMPDEST PUSH1 0x0 PUSH20 0xFFFFFFFFFFFFFFFFFFFFFFFFFFFFFFFFFFFFFFFF AND DUP2 PUSH20 0xFFFFFFFFFFFFFFFFFFFFFFFFFFFFFFFFFFFFFFFF AND EQ ISZERO PUSH3 0x1D3 JUMPI PUSH1 0x40 MLOAD PUSH32 0x8C379A000000000000000000000000000000000000000000000000000000000 DUP2 MSTORE PUSH1 0x4 ADD PUSH3 0x1CA SWAP1 PUSH3 0x569 JUMP JUMPDEST PUSH1 0x40 MLOAD DUP1 SWAP2 SUB SWAP1 REVERT JUMPDEST PUSH3 0x1EF PUSH8 0xD6B953BF62AA80D3 PUSH1 0xC0 SHL PUSH3 0xED PUSH1 0x20 SHL PUSH1 0x20 SHR JUMP JUMPDEST PUSH3 0x20B PUSH8 0xFBCE62611B9970DC PUSH1 0xC0 SHL PUSH3 0xED PUSH1 0x20 SHL PUSH1 0x20 SHR JUMP JUMPDEST DUP1 PUSH3 0x242 PUSH32 0x58A6B8F109ED5C70AD37140473420D0209511D3629DC7480EAB94A450067BD5F PUSH3 0x422 PUSH1 0x20 SHL PUSH3 0x405 OR PUSH1 0x20 SHR JUMP JUMPDEST PUSH1 0x0 ADD PUSH1 0x0 PUSH2 0x100 EXP DUP2 SLOAD DUP2 PUSH20 0xFFFFFFFFFFFFFFFFFFFFFFFFFFFFFFFFFFFFFFFF MUL NOT AND SWAP1 DUP4 PUSH20 0xFFFFFFFFFFFFFFFFFFFFFFFFFFFFFFFFFFFFFFFF AND MUL OR SWAP1 SSTORE POP POP JUMP JUMPDEST PUSH3 0x2A2 PUSH8 0x1B43BA544D106E60 PUSH1 0xC0 SHL PUSH3 0xED PUSH1 0x20 SHL PUSH1 0x20 SHR JUMP JUMPDEST PUSH3 0x2BE PUSH8 0xA269328F3ACAA9D7 PUSH1 0xC0 SHL PUSH3 0xED PUSH1 0x20 SHL PUSH1 0x20 SHR JUMP JUMPDEST PUSH3 0x2DA PUSH8 0x58E8795154AFD599 PUSH1 0xC0 SHL PUSH3 0xED PUSH1 0x20 SHL PUSH1 0x20 SHR JUMP JUMPDEST PUSH3 0x2F6 PUSH8 0x5D875C1CE7D4D926 PUSH1 0xC0 SHL PUSH3 0xED PUSH1 0x20 SHL PUSH1 0x20 SHR JUMP JUMPDEST PUSH1 0x0 DUP2 PUSH20 0xFFFFFFFFFFFFFFFFFFFFFFFFFFFFFFFFFFFFFFFF AND DUP1 EXTCODESIZE DUP1 PUSH1 0x20 ADD PUSH1 0x40 MLOAD SWAP1 DUP2 ADD PUSH1 0x40 MSTORE DUP2 DUP2 MSTORE PUSH1 0x0 SWAP1 DUP1 PUSH1 0x20 ADD SWAP1 SWAP4 EXTCODECOPY MLOAD GT PUSH3 0x36F JUMPI PUSH1 0x40 MLOAD PUSH32 0x8C379A000000000000000000000000000000000000000000000000000000000 DUP2 MSTORE PUSH1 0x4 ADD PUSH3 0x366 SWAP1 PUSH3 0x58B JUMP JUMPDEST PUSH1 0x40 MLOAD DUP1 SWAP2 SUB SWAP1 REVERT JUMPDEST PUSH3 0x38B PUSH8 0x873CC75093C949C6 PUSH1 0xC0 SHL PUSH3 0xED PUSH1 0x20 SHL PUSH1 0x20 SHR JUMP JUMPDEST PUSH3 0x3A7 PUSH8 0x96EA197DA854144D PUSH1 0xC0 SHL PUSH3 0xED PUSH1 0x20 SHL PUSH1 0x20 SHR JUMP JUMPDEST DUP1 PUSH3 0x3DE PUSH32 0x24ED44EE9374370FD3AA7C8B1ABF58827504C20F65246B17D2B9E7E1AEF77847 PUSH3 0x422 PUSH1 0x20 SHL PUSH3 0x405 OR PUSH1 0x20 SHR JUMP JUMPDEST PUSH1 0x0 ADD PUSH1 0x0 PUSH2 0x100 EXP DUP2 SLOAD DUP2 PUSH20 0xFFFFFFFFFFFFFFFFFFFFFFFFFFFFFFFFFFFFFFFF MUL NOT AND SWAP1 DUP4 PUSH20 0xFFFFFFFFFFFFFFFFFFFFFFFFFFFFFFFFFFFFFFFF AND MUL OR SWAP1 SSTORE POP POP JUMP JUMPDEST PUSH1 0x0 PUSH3 0x440 PUSH8 0xDA192CBB89FC298E PUSH1 0xC0 SHL PUSH3 0x464 PUSH1 0x20 SHL PUSH1 0x20 SHR JUMP JUMPDEST PUSH3 0x45C PUSH8 0xCED46EA7B2F5482 PUSH1 0xC0 SHL PUSH3 0x464 PUSH1 0x20 SHL PUSH1 0x20 SHR JUMP JUMPDEST DUP2 SWAP1 POP SWAP2 SWAP1 POP JUMP JUMPDEST POP JUMP JUMPDEST PUSH1 0x0 DUP2 MLOAD SWAP1 POP PUSH3 0x478 DUP2 PUSH3 0x5F2 JUMP JUMPDEST SWAP3 SWAP2 POP POP JUMP JUMPDEST PUSH1 0x0 DUP1 PUSH1 0x40 DUP4 DUP6 SUB SLT ISZERO PUSH3 0x492 JUMPI PUSH1 0x0 DUP1 REVERT JUMPDEST PUSH1 0x0 PUSH3 0x4A2 DUP6 DUP3 DUP7 ADD PUSH3 0x467 JUMP JUMPDEST SWAP3 POP POP PUSH1 0x20 PUSH3 0x4B5 DUP6 DUP3 DUP7 ADD PUSH3 0x467 JUMP JUMPDEST SWAP2 POP POP SWAP3 POP SWAP3 SWAP1 POP JUMP JUMPDEST PUSH1 0x0 PUSH3 0x4CE PUSH1 0x14 DUP4 PUSH3 0x5AD JUMP JUMPDEST SWAP2 POP PUSH32 0x61646D696E203D207A65726F2061646472657373000000000000000000000000 PUSH1 0x0 DUP4 ADD MSTORE PUSH1 0x20 DUP3 ADD SWAP1 POP SWAP2 SWAP1 POP JUMP JUMPDEST PUSH1 0x0 PUSH3 0x510 PUSH1 0x2F DUP4 PUSH3 0x5AD JUMP JUMPDEST SWAP2 POP PUSH32 0x4E657720696D706C656D656E746174696F6E20616464726573732073686F756C PUSH1 0x0 DUP4 ADD MSTORE PUSH32 0x64206265206120636F6E74726163740000000000000000000000000000000000 PUSH1 0x20 DUP4 ADD MSTORE PUSH1 0x40 DUP3 ADD SWAP1 POP SWAP2 SWAP1 POP JUMP JUMPDEST PUSH1 0x0 PUSH1 0x20 DUP3 ADD SWAP1 POP DUP2 DUP2 SUB PUSH1 0x0 DUP4 ADD MSTORE PUSH3 0x584 DUP2 PUSH3 0x4BF JUMP JUMPDEST SWAP1 POP SWAP2 SWAP1 POP JUMP JUMPDEST PUSH1 0x0 PUSH1 0x20 DUP3 ADD SWAP1 POP DUP2 DUP2 SUB PUSH1 0x0 DUP4 ADD MSTORE PUSH3 0x5A6 DUP2 PUSH3 0x501 JUMP JUMPDEST SWAP1 POP SWAP2 SWAP1 POP JUMP JUMPDEST PUSH1 0x0 DUP3 DUP3 MSTORE PUSH1 0x20 DUP3 ADD SWAP1 POP SWAP3 SWAP2 POP POP JUMP JUMPDEST PUSH1 0x0 PUSH3 0x5CB DUP3 PUSH3 0x5D2 JUMP JUMPDEST SWAP1 POP SWAP2 SWAP1 POP JUMP JUMPDEST PUSH1 0x0 PUSH20 0xFFFFFFFFFFFFFFFFFFFFFFFFFFFFFFFFFFFFFFFF DUP3 AND SWAP1 POP SWAP2 SWAP1 POP JUMP JUMPDEST PUSH3 0x5FD DUP2 PUSH3 0x5BE JUMP JUMPDEST DUP2 EQ PUSH3 0x609 JUMPI PUSH1 0x0 DUP1 REVERT JUMPDEST POP JUMP JUMPDEST PUSH2 0x804 DUP1 PUSH3 0x61C PUSH1 0x0 CODECOPY PUSH1 0x0 RETURN INVALID PUSH1 0x80 PUSH1 0x40 MSTORE PUSH1 0x4 CALLDATASIZE LT PUSH2 0x38 JUMPI PUSH1 0x0 CALLDATALOAD PUSH1 0xE0 SHR DUP1 PUSH4 0x1AB7710D EQ PUSH2 0xB1 JUMPI DUP1 PUSH4 0xAAF10F42 EQ PUSH2 0xDC JUMPI DUP1 PUSH4 0xD784D426 EQ PUSH2 0x107 JUMPI PUSH2 0x63 JUMP JUMPDEST CALLDATASIZE PUSH2 0x63 JUMPI PUSH2 0x51 PUSH8 0x19E3E3E5232F8D58 PUSH1 0xC0 SHL PUSH2 0x130 JUMP JUMPDEST PUSH2 0x61 PUSH2 0x5C PUSH2 0x133 JUMP JUMPDEST PUSH2 0x1C3 JUMP JUMPDEST STOP JUMPDEST PUSH2 0x77 PUSH8 0x7A5AFD3C7C745A63 PUSH1 0xC0 SHL PUSH2 0x130 JUMP JUMPDEST PUSH2 0x8B PUSH8 0xDC16E28E726B8FCA PUSH1 0xC0 SHL PUSH2 0x130 JUMP JUMPDEST PUSH2 0x9F PUSH8 0x70C05CD05759F835 PUSH1 0xC0 SHL PUSH2 0x130 JUMP JUMPDEST PUSH2 0xAF PUSH2 0xAA PUSH2 0x133 JUMP JUMPDEST PUSH2 0x1C3 JUMP JUMPDEST STOP JUMPDEST CALLVALUE DUP1 ISZERO PUSH2 0xBD JUMPI PUSH1 0x0 DUP1 REVERT JUMPDEST POP PUSH2 0xC6 PUSH2 0x212 JUMP JUMPDEST PUSH1 0x40 MLOAD PUSH2 0xD3 SWAP2 SWAP1 PUSH2 0x719 JUMP JUMPDEST PUSH1 0x40 MLOAD DUP1 SWAP2 SUB SWAP1 RETURN JUMPDEST CALLVALUE DUP1 ISZERO PUSH2 0xE8 JUMPI PUSH1 0x0 DUP1 REVERT JUMPDEST POP PUSH2 0xF1 PUSH2 0x25D JUMP JUMPDEST PUSH1 0x40 MLOAD PUSH2 0xFE SWAP2 SWAP1 PUSH2 0x719 JUMP JUMPDEST PUSH1 0x40 MLOAD DUP1 SWAP2 SUB SWAP1 RETURN JUMPDEST CALLVALUE DUP1 ISZERO PUSH2 0x113 JUMPI PUSH1 0x0 DUP1 REVERT JUMPDEST POP PUSH2 0x12E PUSH1 0x4 DUP1 CALLDATASIZE SUB DUP2 ADD SWAP1 PUSH2 0x129 SWAP2 SWAP1 PUSH2 0x63B JUMP JUMPDEST PUSH2 0x2A8 JUMP JUMPDEST STOP JUMPDEST POP JUMP JUMPDEST PUSH1 0x0 PUSH2 0x149 PUSH8 0x727C73C54687CF05 PUSH1 0xC0 SHL PUSH2 0x130 JUMP JUMPDEST PUSH2 0x15D PUSH8 0x4C1A6E733A6DA0E5 PUSH1 0xC0 SHL PUSH2 0x130 JUMP JUMPDEST PUSH2 0x171 PUSH8 0x2DA4656B35D35508 PUSH1 0xC0 SHL PUSH2 0x130 JUMP JUMPDEST PUSH2 0x19A PUSH32 0x24ED44EE9374370FD3AA7C8B1ABF58827504C20F65246B17D2B9E7E1AEF77847 PUSH2 0x405 JUMP JUMPDEST PUSH1 0x0 ADD PUSH1 0x0 SWAP1 SLOAD SWAP1 PUSH2 0x100 EXP SWAP1 DIV PUSH20 0xFFFFFFFFFFFFFFFFFFFFFFFFFFFFFFFFFFFFFFFF AND SWAP1 POP SWAP1 JUMP JUMPDEST PUSH2 0x1D7 PUSH8 0x83AF00ED13E0D4D5 PUSH1 0xC0 SHL PUSH2 0x130 JUMP JUMPDEST PUSH2 0x1EB PUSH8 0xBDAD5450DEAED5F PUSH1 0xC0 SHL PUSH2 0x130 JUMP JUMPDEST PUSH1 0x40 MLOAD CALLDATASIZE PUSH1 0x0 DUP3 CALLDATACOPY PUSH1 0x0 DUP1 CALLDATASIZE DUP4 DUP6 GAS DELEGATECALL RETURNDATASIZE DUP1 PUSH1 0x0 DUP5 RETURNDATACOPY DUP2 PUSH1 0x0 DUP2 EQ PUSH2 0x20E JUMPI DUP2 DUP5 RETURN JUMPDEST DUP2 DUP5 REVERT JUMPDEST PUSH1 0x0 PUSH2 0x228 PUSH8 0x146CFDCCF0E58E93 PUSH1 0xC0 SHL PUSH2 0x130 JUMP JUMPDEST PUSH2 0x23C PUSH8 0xD7F8470C5DE57741 PUSH1 0xC0 SHL PUSH2 0x130 JUMP JUMPDEST PUSH2 0x250 PUSH8 0xE8C0773D2C1B526E PUSH1 0xC0 SHL PUSH2 0x130 JUMP JUMPDEST PUSH2 0x258 PUSH2 0x437 JUMP JUMPDEST SWAP1 POP SWAP1 JUMP JUMPDEST PUSH1 0x0 PUSH2 0x273 PUSH8 0x8F1B6D77E37B2CC PUSH1 0xC0 SHL PUSH2 0x130 JUMP JUMPDEST PUSH2 0x287 PUSH8 0x322B33FEA13344D3 PUSH1 0xC0 SHL PUSH2 0x130 JUMP JUMPDEST PUSH2 0x29B PUSH8 0xD16125E6429B489A PUSH1 0xC0 SHL PUSH2 0x130 JUMP JUMPDEST PUSH2 0x2A3 PUSH2 0x133 JUMP JUMPDEST SWAP1 POP SWAP1 JUMP JUMPDEST PUSH2 0x2BC PUSH8 0xB6A97EF3B11FCF4F PUSH1 0xC0 SHL PUSH2 0x130 JUMP JUMPDEST PUSH2 0x2D0 PUSH8 0xAD6398DD5F110AE1 PUSH1 0xC0 SHL PUSH2 0x130 JUMP JUMPDEST PUSH2 0x2E4 PUSH8 0x2CBE22C5A5F71792 PUSH1 0xC0 SHL PUSH2 0x130 JUMP JUMPDEST PUSH2 0x2F8 PUSH8 0x96AE05C8B98D524B PUSH1 0xC0 SHL PUSH2 0x130 JUMP JUMPDEST PUSH2 0x30C PUSH8 0x39EABFF9EABFF388 PUSH1 0xC0 SHL PUSH2 0x130 JUMP JUMPDEST PUSH2 0x314 PUSH2 0x437 JUMP JUMPDEST PUSH20 0xFFFFFFFFFFFFFFFFFFFFFFFFFFFFFFFFFFFFFFFF AND CALLER PUSH20 0xFFFFFFFFFFFFFFFFFFFFFFFFFFFFFFFFFFFFFFFF AND EQ PUSH2 0x381 JUMPI PUSH1 0x40 MLOAD PUSH32 0x8C379A000000000000000000000000000000000000000000000000000000000 DUP2 MSTORE PUSH1 0x4 ADD PUSH2 0x378 SWAP1 PUSH2 0x754 JUMP JUMPDEST PUSH1 0x40 MLOAD DUP1 SWAP2 SUB SWAP1 REVERT JUMPDEST PUSH2 0x395 PUSH8 0x64F0FF6487C337EC PUSH1 0xC0 SHL PUSH2 0x130 JUMP JUMPDEST PUSH2 0x3A9 PUSH8 0x15B1900B90A7B9D PUSH1 0xC0 SHL PUSH2 0x130 JUMP JUMPDEST PUSH2 0x3BD PUSH8 0xA055AADB559A9B92 PUSH1 0xC0 SHL PUSH2 0x130 JUMP JUMPDEST PUSH2 0x3D1 PUSH8 0xD3817D4E6FF12B6D PUSH1 0xC0 SHL PUSH2 0x130 JUMP JUMPDEST PUSH2 0x3E5 PUSH8 0x9528574F6485C253 PUSH1 0xC0 SHL PUSH2 0x130 JUMP JUMPDEST PUSH2 0x3F9 PUSH8 0x9845EBCB05618C3C PUSH1 0xC0 SHL PUSH2 0x130 JUMP JUMPDEST PUSH2 0x402 DUP2 PUSH2 0x4C7 JUMP JUMPDEST POP JUMP JUMPDEST PUSH1 0x0 PUSH2 0x41B PUSH8 0xDA192CBB89FC298E PUSH1 0xC0 SHL PUSH2 0x623 JUMP JUMPDEST PUSH2 0x42F PUSH8 0xCED46EA7B2F5482 PUSH1 0xC0 SHL PUSH2 0x623 JUMP JUMPDEST DUP2 SWAP1 POP SWAP2 SWAP1 POP JUMP JUMPDEST PUSH1 0x0 PUSH2 0x44D PUSH8 0xDB4CB1575D38CC54 PUSH1 0xC0 SHL PUSH2 0x130 JUMP JUMPDEST PUSH2 0x461 PUSH8 0x9C31936CFC0571EE PUSH1 0xC0 SHL PUSH2 0x130 JUMP JUMPDEST PUSH2 0x475 PUSH8 0xA0A036B14CC3836E PUSH1 0xC0 SHL PUSH2 0x130 JUMP JUMPDEST PUSH2 0x49E PUSH32 0x58A6B8F109ED5C70AD37140473420D0209511D3629DC7480EAB94A450067BD5F PUSH2 0x405 JUMP JUMPDEST PUSH1 0x0 ADD PUSH1 0x0 SWAP1 SLOAD SWAP1 PUSH2 0x100 EXP SWAP1 DIV PUSH20 0xFFFFFFFFFFFFFFFFFFFFFFFFFFFFFFFFFFFFFFFF AND SWAP1 POP SWAP1 JUMP JUMPDEST PUSH2 0x4DB PUSH8 0x1B43BA544D106E60 PUSH1 0xC0 SHL PUSH2 0x130 JUMP JUMPDEST PUSH2 0x4EF PUSH8 0xA269328F3ACAA9D7 PUSH1 0xC0 SHL PUSH2 0x130 JUMP JUMPDEST PUSH2 0x503 PUSH8 0x58E8795154AFD599 PUSH1 0xC0 SHL PUSH2 0x130 JUMP JUMPDEST PUSH2 0x517 PUSH8 0x5D875C1CE7D4D926 PUSH1 0xC0 SHL PUSH2 0x130 JUMP JUMPDEST PUSH1 0x0 DUP2 PUSH20 0xFFFFFFFFFFFFFFFFFFFFFFFFFFFFFFFFFFFFFFFF AND DUP1 EXTCODESIZE DUP1 PUSH1 0x20 ADD PUSH1 0x40 MLOAD SWAP1 DUP2 ADD PUSH1 0x40 MSTORE DUP2 DUP2 MSTORE PUSH1 0x0 SWAP1 DUP1 PUSH1 0x20 ADD SWAP1 SWAP4 EXTCODECOPY MLOAD GT PUSH2 0x58D JUMPI PUSH1 0x40 MLOAD PUSH32 0x8C379A000000000000000000000000000000000000000000000000000000000 DUP2 MSTORE PUSH1 0x4 ADD PUSH2 0x584 SWAP1 PUSH2 0x734 JUMP JUMPDEST PUSH1 0x40 MLOAD DUP1 SWAP2 SUB SWAP1 REVERT JUMPDEST PUSH2 0x5A1 PUSH8 0x873CC75093C949C6 PUSH1 0xC0 SHL PUSH2 0x130 JUMP JUMPDEST PUSH2 0x5B5 PUSH8 0x96EA197DA854144D PUSH1 0xC0 SHL PUSH2 0x130 JUMP JUMPDEST DUP1 PUSH2 0x5DF PUSH32 0x24ED44EE9374370FD3AA7C8B1ABF58827504C20F65246B17D2B9E7E1AEF77847 PUSH2 0x405 JUMP JUMPDEST PUSH1 0x0 ADD PUSH1 0x0 PUSH2 0x100 EXP DUP2 SLOAD DUP2 PUSH20 0xFFFFFFFFFFFFFFFFFFFFFFFFFFFFFFFFFFFFFFFF MUL NOT AND SWAP1 DUP4 PUSH20 0xFFFFFFFFFFFFFFFFFFFFFFFFFFFFFFFFFFFFFFFF AND MUL OR SWAP1 SSTORE POP POP JUMP JUMPDEST POP JUMP JUMPDEST PUSH1 0x0 DUP2 CALLDATALOAD SWAP1 POP PUSH2 0x635 DUP2 PUSH2 0x7B7 JUMP JUMPDEST SWAP3 SWAP2 POP POP JUMP JUMPDEST PUSH1 0x0 PUSH1 0x20 DUP3 DUP5 SUB SLT ISZERO PUSH2 0x64D JUMPI PUSH1 0x0 DUP1 REVERT JUMPDEST PUSH1 0x0 PUSH2 0x65B DUP5 DUP3 DUP6 ADD PUSH2 0x626 JUMP JUMPDEST SWAP2 POP POP SWAP3 SWAP2 POP POP JUMP JUMPDEST PUSH2 0x66D DUP2 PUSH2 0x785 JUMP JUMPDEST DUP3 MSTORE POP POP JUMP JUMPDEST PUSH1 0x0 PUSH2 0x680 PUSH1 0x2F DUP4 PUSH2 0x774 JUMP JUMPDEST SWAP2 POP PUSH32 0x4E657720696D706C656D656E746174696F6E20616464726573732073686F756C PUSH1 0x0 DUP4 ADD MSTORE PUSH32 0x64206265206120636F6E74726163740000000000000000000000000000000000 PUSH1 0x20 DUP4 ADD MSTORE PUSH1 0x40 DUP3 ADD SWAP1 POP SWAP2 SWAP1 POP JUMP JUMPDEST PUSH1 0x0 PUSH2 0x6E6 PUSH1 0x1E DUP4 PUSH2 0x774 JUMP JUMPDEST SWAP2 POP PUSH32 0x50726F78793A2063616C6C6572206973206E6F7420746865206F776E65720000 PUSH1 0x0 DUP4 ADD MSTORE PUSH1 0x20 DUP3 ADD SWAP1 POP SWAP2 SWAP1 POP JUMP JUMPDEST PUSH1 0x0 PUSH1 0x20 DUP3 ADD SWAP1 POP PUSH2 0x72E PUSH1 0x0 DUP4 ADD DUP5 PUSH2 0x664 JUMP JUMPDEST SWAP3 SWAP2 POP POP JUMP JUMPDEST PUSH1 0x0 PUSH1 0x20 DUP3 ADD SWAP1 POP DUP2 DUP2 SUB PUSH1 0x0 DUP4 ADD MSTORE PUSH2 0x74D DUP2 PUSH2 0x673 JUMP JUMPDEST SWAP1 POP SWAP2 SWAP1 POP JUMP JUMPDEST PUSH1 0x0 PUSH1 0x20 DUP3 ADD SWAP1 POP DUP2 DUP2 SUB PUSH1 0x0 DUP4 ADD MSTORE PUSH2 0x76D DUP2 PUSH2 0x6D9 JUMP JUMPDEST SWAP1 POP SWAP2 SWAP1 POP JUMP JUMPDEST PUSH1 0x0 DUP3 DUP3 MSTORE PUSH1 0x20 DUP3 ADD SWAP1 POP SWAP3 SWAP2 POP POP JUMP JUMPDEST PUSH1 0x0 PUSH2 0x790 DUP3 PUSH2 0x797 JUMP JUMPDEST SWAP1 POP SWAP2 SWAP1 POP JUMP JUMPDEST PUSH1 0x0 PUSH20 0xFFFFFFFFFFFFFFFFFFFFFFFFFFFFFFFFFFFFFFFF DUP3 AND SWAP1 POP SWAP2 SWAP1 POP JUMP JUMPDEST PUSH2 0x7C0 DUP2 PUSH2 0x785 JUMP JUMPDEST DUP2 EQ PUSH2 0x7CB JUMPI PUSH1 0x0 DUP1 REVERT JUMPDEST POP JUMP INVALID LOG2 PUSH5 0x6970667358 0x22 SLT KECCAK256 0xB5 GAS PUSH10 0x2FB71DEF379B7586313 SWAP14 0x22 0xC8 0xCD SWAP16 CREATE 0xC 0xD1 PUSH4 0x53DFD2E 0xD0 0xA5 0xD5 PUSH18 0xA78864736F6C63430008000033A264697066 PUSH20 0x582212202CE23B54660E6C8CFCF38DD8E6800210 PUSH4 0xED95F006 0xD PUSH18 0xABD71133BC577F2F2064736F6C6343000800 STOP CALLER "},"methodIdentifiers":{"deploySafe()":"644f7aac","deploySafeProxy()":"9a8787bf","deployedProxies(uint256)":"a72b27ef","deployedSafes(uint256)":"b5ac7cfa","getDeployedProxies()":"0414650b","getDeployedSafes()":"0eb7a00d","implementation()":"5c60da1b","owner()":"8da5cb5b","updateImplementation(address)":"025b22bc"}}}}}