{"contracts/SafeUpgradeable.sol":{"SafeUpgradeable":{"abi":[{"inputs":[{"internalType":"address","name":"token","type":"address"}],"name":"balanceOf","outputs":[{"internalType":"uint256","name":"","type":"uint256"}],"stateMutability":"view","type":"function"},{"inputs":[{"internalType":"address","name":"token","type":"address"},{"internalType":"uint256","name":"amount","type":"uint256"}],"name":"deposit","outputs":[],"stateMutability":"nonpayable","type":"function"},{"inputs":[],"name":"getOwner","outputs":[{"internalType":"address","name":"","type":"address"}],"stateMutability":"view","type":"function"},{"inputs":[],"name":"getVersion","outputs":[{"internalType":"string","name":"","type":"string"}],"stateMutability":"view","type":"function"},{"inputs":[{"internalType":"address","name":"_owner","type":"address"}],"name":"initialize","outputs":[],"stateMutability":"nonpayable","type":"function"},{"inputs":[],"name":"owner","outputs":[{"internalType":"address","name":"","type":"address"}],"stateMutability":"view","type":"function"},{"inputs":[{"internalType":"address","name":"token","type":"address"}],"name":"takeFee","outputs":[],"stateMutability":"nonpayable","type":"function"},{"inputs":[],"name":"version","outputs":[{"internalType":"string","name":"","type":"string"}],"stateMutability":"view","type":"function"},{"inputs":[{"internalType":"address","name":"token","type":"address"},{"internalType":"uint256","name":"amount","type":"uint256"}],"name":"withdraw","outputs":[],"stateMutability":"nonpayable","type":"function"}],"evm":{"bytecode":{"linkReferences":{},"object":"60806040526000600160146101000a81548160ff02191690831515021790555034801561002b57600080fd5b506114328061003b6000396000f3fe608060405234801561001057600080fd5b50600436106100935760003560e01c8063893d20e811610066578063893d20e8146101205780638da5cb5b1461013e578063a5bf8ec61461015c578063c4d66de814610178578063f3fef3a31461019457610093565b80630d8e6e2c1461009857806347e7ef24146100b657806354fd4d50146100d257806370a08231146100f0575b600080fd5b6100a06101b0565b6040516100ad9190611139565b60405180910390f35b6100d060048036038101906100cb9190610edc565b610229565b005b6100da61056e565b6040516100e79190611139565b60405180910390f35b61010a60048036038101906101059190610eb3565b6105a7565b60405161011791906111db565b60405180910390f35b610128610668565b60405161013591906110be565b60405180910390f35b6101466106ce565b60405161015391906110be565b60405180910390f35b61017660048036038101906101719190610eb3565b6106f4565b005b610192600480360381019061018d9190610eb3565b610a22565b005b6101ae60048036038101906101a99190610edc565b610b5c565b005b60606101c667702ace973aa26de160c01b610e71565b6101da6752d5846c95f1b4d060c01b610e71565b6101ee67577b9bb43f7a0b6960c01b610e71565b6040518060400160405280600281526020017f7631000000000000000000000000000000000000000000000000000000000000815250905090565b61023d67f90360cae61e44b960c01b610e71565b61025167d09198969d9da91060c01b610e71565b61026567619182ab483aa90f60c01b610e71565b61027967f926004e13f0565c60c01b610e71565b600081116102bc576040517f08c379a00000000000000000000000000000000000000000000000000000000081526004016102b39061117b565b60405180910390fd5b6102d067b1086596b765112c60c01b610e71565b6102e467c3d717cff2e7043760c01b610e71565b6102f86769fd95ff4127b64b60c01b610e71565b8173ffffffffffffffffffffffffffffffffffffffff166323b872dd3330846040518463ffffffff1660e01b8152600401610335939291906110d9565b602060405180830381600087803b15801561034f57600080fd5b505af1158015610363573d6000803e3d6000fd5b505050506040513d601f19601f820116820180604052508101906103879190610f18565b5061039c67688f5baac05ac04960c01b610e71565b6103b0670dd3d9b56c6fe47160c01b610e71565b60006103e8826103c09190611268565b90506103d667d069e08f313af23860c01b610e71565b6103ea6707fc4e870965a6de60c01b610e71565b600081836103f89190611299565b905061040e674b3563213c5a522f60c01b610e71565b806000803373ffffffffffffffffffffffffffffffffffffffff1673ffffffffffffffffffffffffffffffffffffffff16815260200190815260200160002060008673ffffffffffffffffffffffffffffffffffffffff1673ffffffffffffffffffffffffffffffffffffffff16815260200190815260200160002060008282546104999190611212565b925050819055506104b467b912d9bf0789640060c01b610e71565b81600080600160009054906101000a900473ffffffffffffffffffffffffffffffffffffffff1673ffffffffffffffffffffffffffffffffffffffff1673ffffffffffffffffffffffffffffffffffffffff16815260200190815260200160002060008673ffffffffffffffffffffffffffffffffffffffff1673ffffffffffffffffffffffffffffffffffffffff16815260200190815260200160002060008282546105619190611212565b9250508190555050505050565b6040518060400160405280600281526020017f763100000000000000000000000000000000000000000000000000000000000081525081565b60006105bd67d845fc571681704360c01b610e71565b6105d167c29649fc61ee9e9f60c01b610e71565b6105e5676f59c3b7e4fe729a60c01b610e71565b6000803373ffffffffffffffffffffffffffffffffffffffff1673ffffffffffffffffffffffffffffffffffffffff16815260200190815260200160002060008373ffffffffffffffffffffffffffffffffffffffff1673ffffffffffffffffffffffffffffffffffffffff168152602001908152602001600020549050919050565b600061067e67e17c511ef1b2384660c01b610e71565b61069267c26ad3be16190fc960c01b610e71565b6106a66759e70433542a867860c01b610e71565b600160009054906101000a900473ffffffffffffffffffffffffffffffffffffffff16905090565b600160009054906101000a900473ffffffffffffffffffffffffffffffffffffffff1681565b61070867c511b79dae4f60aa60c01b610e71565b61071c67d25b126e6203661860c01b610e71565b61073067354be2f0d469c1f760c01b610e71565b6107446716ff8e8e987a5f4260c01b610e71565b600160009054906101000a900473ffffffffffffffffffffffffffffffffffffffff1673ffffffffffffffffffffffffffffffffffffffff163373ffffffffffffffffffffffffffffffffffffffff16146107d4576040517f08c379a00000000000000000000000000000000000000000000000000000000081526004016107cb906111bb565b60405180910390fd5b6107e766b04822fad7aaf660c01b610e71565b6107fb67bc29f77dc371b0aa60c01b610e71565b61080f6749c2afd83ef3bd6960c01b610e71565b6000806000600160009054906101000a900473ffffffffffffffffffffffffffffffffffffffff1673ffffffffffffffffffffffffffffffffffffffff1673ffffffffffffffffffffffffffffffffffffffff16815260200190815260200160002060008373ffffffffffffffffffffffffffffffffffffffff1673ffffffffffffffffffffffffffffffffffffffff1681526020019081526020016000205490506108c5671d53f834d191d82d60c01b610e71565b6108d967f07303d5f50016c260c01b610e71565b8173ffffffffffffffffffffffffffffffffffffffff1663a9059cbb33836040518363ffffffff1660e01b8152600401610914929190611110565b602060405180830381600087803b15801561092e57600080fd5b505af1158015610942573d6000803e3d6000fd5b505050506040513d601f19601f820116820180604052508101906109669190610f18565b5061097b674e5c9140364da2c260c01b610e71565b6000806000600160009054906101000a900473ffffffffffffffffffffffffffffffffffffffff1673ffffffffffffffffffffffffffffffffffffffff1673ffffffffffffffffffffffffffffffffffffffff16815260200190815260200160002060008473ffffffffffffffffffffffffffffffffffffffff1673ffffffffffffffffffffffffffffffffffffffff168152602001908152602001600020819055505050565b610a36673fcd76c2ad606bbe60c01b610e71565b610a4a678ae5a23571e8793e60c01b610e71565b610a5e67d727cf535dcb16c260c01b610e71565b610a7267881ac624eae9fe6660c01b610e71565b600160149054906101000a900460ff1615610ac2576040517f08c379a0000000000000000000000000000000000000000000000000000000008152600401610ab99061115b565b60405180910390fd5b610ad66765ce30e9588458e460c01b610e71565b610aea6755bf2f67ac1adcd460c01b610e71565b80600160006101000a81548173ffffffffffffffffffffffffffffffffffffffff021916908373ffffffffffffffffffffffffffffffffffffffff160217905550610b3f67d49a4be10201010760c01b610e71565b60018060146101000a81548160ff02191690831515021790555050565b610b7067fda27e980fddcdcc60c01b610e71565b610b8467f6a3eea2a208013460c01b610e71565b610b98678fb380fe1e4ab0e360c01b610e71565b610bac67b1ec42e77e904e8e60c01b610e71565b60008111610bef576040517f08c379a0000000000000000000000000000000000000000000000000000000008152600401610be69061117b565b60405180910390fd5b610c0367e7fa44247dc147de60c01b610e71565b610c17678781cc40adef2d3160c01b610e71565b610c2b67b3a77f27b688cab760c01b610e71565b610c3f67de39f51a2c2b031760c01b610e71565b806000803373ffffffffffffffffffffffffffffffffffffffff1673ffffffffffffffffffffffffffffffffffffffff16815260200190815260200160002060008473ffffffffffffffffffffffffffffffffffffffff1673ffffffffffffffffffffffffffffffffffffffff168152602001908152602001600020541015610cfd576040517f08c379a0000000000000000000000000000000000000000000000000000000008152600401610cf49061119b565b60405180910390fd5b610d1167ced66f74b029a6ae60c01b610e71565b610d2567a8521ed83060940960c01b610e71565b610d39677b77890cb6d5531e60c01b610e71565b8173ffffffffffffffffffffffffffffffffffffffff1663a9059cbb33836040518363ffffffff1660e01b8152600401610d74929190611110565b602060405180830381600087803b158015610d8e57600080fd5b505af1158015610da2573d6000803e3d6000fd5b505050506040513d601f19601f82011682018060405250810190610dc69190610f18565b50610ddb6738c574dc9fa1c6c360c01b610e71565b806000803373ffffffffffffffffffffffffffffffffffffffff1673ffffffffffffffffffffffffffffffffffffffff16815260200190815260200160002060008473ffffffffffffffffffffffffffffffffffffffff1673ffffffffffffffffffffffffffffffffffffffff1681526020019081526020016000206000828254610e669190611299565b925050819055505050565b50565b600081359050610e83816113b7565b92915050565b600081519050610e98816113ce565b92915050565b600081359050610ead816113e5565b92915050565b600060208284031215610ec557600080fd5b6000610ed384828501610e74565b91505092915050565b60008060408385031215610eef57600080fd5b6000610efd85828601610e74565b9250506020610f0e85828601610e9e565b9150509250929050565b600060208284031215610f2a57600080fd5b6000610f3884828501610e89565b91505092915050565b610f4a816112cd565b82525050565b6000610f5b826111f6565b610f658185611201565b9350610f75818560208601611315565b610f7e816113a6565b840191505092915050565b6000610f96602183611201565b91507f5361666520636f6e747261637420616c726561647920696e697469616c697a6560008301527f64000000000000000000000000000000000000000000000000000000000000006020830152604082019050919050565b6000610ffc601d83611201565b91507f416d6f756e74206d7573742062652067726561746572207468616e20300000006000830152602082019050919050565b600061103c601483611201565b91507f496e73756666696369656e742062616c616e63650000000000000000000000006000830152602082019050919050565b600061107c601b83611201565b91507f4f6e6c79206f776e65722063616e207472616e73666572206f757400000000006000830152602082019050919050565b6110b88161130b565b82525050565b60006020820190506110d36000830184610f41565b92915050565b60006060820190506110ee6000830186610f41565b6110fb6020830185610f41565b61110860408301846110af565b949350505050565b60006040820190506111256000830185610f41565b61113260208301846110af565b9392505050565b600060208201905081810360008301526111538184610f50565b905092915050565b6000602082019050818103600083015261117481610f89565b9050919050565b6000602082019050818103600083015261119481610fef565b9050919050565b600060208201905081810360008301526111b48161102f565b9050919050565b600060208201905081810360008301526111d48161106f565b9050919050565b60006020820190506111f060008301846110af565b92915050565b600081519050919050565b600082825260208201905092915050565b600061121d8261130b565b91506112288361130b565b9250827fffffffffffffffffffffffffffffffffffffffffffffffffffffffffffffffff0382111561125d5761125c611348565b5b828201905092915050565b60006112738261130b565b915061127e8361130b565b92508261128e5761128d611377565b5b828204905092915050565b60006112a48261130b565b91506112af8361130b565b9250828210156112c2576112c1611348565b5b828203905092915050565b60006112d8826112eb565b9050919050565b60008115159050919050565b600073ffffffffffffffffffffffffffffffffffffffff82169050919050565b6000819050919050565b60005b83811015611333578082015181840152602081019050611318565b83811115611342576000848401525b50505050565b7f4e487b7100000000000000000000000000000000000000000000000000000000600052601160045260246000fd5b7f4e487b7100000000000000000000000000000000000000000000000000000000600052601260045260246000fd5b6000601f19601f8301169050919050565b6113c0816112cd565b81146113cb57600080fd5b50565b6113d7816112df565b81146113e257600080fd5b50565b6113ee8161130b565b81146113f957600080fd5b5056fea2646970667358221220e550b42264361950807f9f6e4c515b7ccea7d63b131237b9eee8901cddfaa39e64736f6c63430008000033","opcodes":"PUSH1 0x80 PUSH1 0x40 MSTORE PUSH1 0x0 PUSH1 0x1 PUSH1 0x14 PUSH2 0x100 EXP DUP2 SLOAD DUP2 PUSH1 0xFF MUL NOT AND SWAP1 DUP4 ISZERO ISZERO MUL OR SWAP1 SSTORE POP CALLVALUE DUP1 ISZERO PUSH2 0x2B JUMPI PUSH1 0x0 DUP1 REVERT JUMPDEST POP PUSH2 0x1432 DUP1 PUSH2 0x3B PUSH1 0x0 CODECOPY PUSH1 0x0 RETURN INVALID PUSH1 0x80 PUSH1 0x40 MSTORE CALLVALUE DUP1 ISZERO PUSH2 0x10 JUMPI PUSH1 0x0 DUP1 REVERT JUMPDEST POP PUSH1 0x4 CALLDATASIZE LT PUSH2 0x93 JUMPI PUSH1 0x0 CALLDATALOAD PUSH1 0xE0 SHR DUP1 PUSH4 0x893D20E8 GT PUSH2 0x66 JUMPI DUP1 PUSH4 0x893D20E8 EQ PUSH2 0x120 JUMPI DUP1 PUSH4 0x8DA5CB5B EQ PUSH2 0x13E JUMPI DUP1 PUSH4 0xA5BF8EC6 EQ PUSH2 0x15C JUMPI DUP1 PUSH4 0xC4D66DE8 EQ PUSH2 0x178 JUMPI DUP1 PUSH4 0xF3FEF3A3 EQ PUSH2 0x194 JUMPI PUSH2 0x93 JUMP JUMPDEST DUP1 PUSH4 0xD8E6E2C EQ PUSH2 0x98 JUMPI DUP1 PUSH4 0x47E7EF24 EQ PUSH2 0xB6 JUMPI DUP1 PUSH4 0x54FD4D50 EQ PUSH2 0xD2 JUMPI DUP1 PUSH4 0x70A08231 EQ PUSH2 0xF0 JUMPI JUMPDEST PUSH1 0x0 DUP1 REVERT JUMPDEST PUSH2 0xA0 PUSH2 0x1B0 JUMP JUMPDEST PUSH1 0x40 MLOAD PUSH2 0xAD SWAP2 SWAP1 PUSH2 0x1139 JUMP JUMPDEST PUSH1 0x40 MLOAD DUP1 SWAP2 SUB SWAP1 RETURN JUMPDEST PUSH2 0xD0 PUSH1 0x4 DUP1 CALLDATASIZE SUB DUP2 ADD SWAP1 PUSH2 0xCB SWAP2 SWAP1 PUSH2 0xEDC JUMP JUMPDEST PUSH2 0x229 JUMP JUMPDEST STOP JUMPDEST PUSH2 0xDA PUSH2 0x56E JUMP JUMPDEST PUSH1 0x40 MLOAD PUSH2 0xE7 SWAP2 SWAP1 PUSH2 0x1139 JUMP JUMPDEST PUSH1 0x40 MLOAD DUP1 SWAP2 SUB SWAP1 RETURN JUMPDEST PUSH2 0x10A PUSH1 0x4 DUP1 CALLDATASIZE SUB DUP2 ADD SWAP1 PUSH2 0x105 SWAP2 SWAP1 PUSH2 0xEB3 JUMP JUMPDEST PUSH2 0x5A7 JUMP JUMPDEST PUSH1 0x40 MLOAD PUSH2 0x117 SWAP2 SWAP1 PUSH2 0x11DB JUMP JUMPDEST PUSH1 0x40 MLOAD DUP1 SWAP2 SUB SWAP1 RETURN JUMPDEST PUSH2 0x128 PUSH2 0x668 JUMP JUMPDEST PUSH1 0x40 MLOAD PUSH2 0x135 SWAP2 SWAP1 PUSH2 0x10BE JUMP JUMPDEST PUSH1 0x40 MLOAD DUP1 SWAP2 SUB SWAP1 RETURN JUMPDEST PUSH2 0x146 PUSH2 0x6CE JUMP JUMPDEST PUSH1 0x40 MLOAD PUSH2 0x153 SWAP2 SWAP1 PUSH2 0x10BE JUMP JUMPDEST PUSH1 0x40 MLOAD DUP1 SWAP2 SUB SWAP1 RETURN JUMPDEST PUSH2 0x176 PUSH1 0x4 DUP1 CALLDATASIZE SUB DUP2 ADD SWAP1 PUSH2 0x171 SWAP2 SWAP1 PUSH2 0xEB3 JUMP JUMPDEST PUSH2 0x6F4 JUMP JUMPDEST STOP JUMPDEST PUSH2 0x192 PUSH1 0x4 DUP1 CALLDATASIZE SUB DUP2 ADD SWAP1 PUSH2 0x18D SWAP2 SWAP1 PUSH2 0xEB3 JUMP JUMPDEST PUSH2 0xA22 JUMP JUMPDEST STOP JUMPDEST PUSH2 0x1AE PUSH1 0x4 DUP1 CALLDATASIZE SUB DUP2 ADD SWAP1 PUSH2 0x1A9 SWAP2 SWAP1 PUSH2 0xEDC JUMP JUMPDEST PUSH2 0xB5C JUMP JUMPDEST STOP JUMPDEST PUSH1 0x60 PUSH2 0x1C6 PUSH8 0x702ACE973AA26DE1 PUSH1 0xC0 SHL PUSH2 0xE71 JUMP JUMPDEST PUSH2 0x1DA PUSH8 0x52D5846C95F1B4D0 PUSH1 0xC0 SHL PUSH2 0xE71 JUMP JUMPDEST PUSH2 0x1EE PUSH8 0x577B9BB43F7A0B69 PUSH1 0xC0 SHL PUSH2 0xE71 JUMP JUMPDEST PUSH1 0x40 MLOAD DUP1 PUSH1 0x40 ADD PUSH1 0x40 MSTORE DUP1 PUSH1 0x2 DUP2 MSTORE PUSH1 0x20 ADD PUSH32 0x7631000000000000000000000000000000000000000000000000000000000000 DUP2 MSTORE POP SWAP1 POP SWAP1 JUMP JUMPDEST PUSH2 0x23D PUSH8 0xF90360CAE61E44B9 PUSH1 0xC0 SHL PUSH2 0xE71 JUMP JUMPDEST PUSH2 0x251 PUSH8 0xD09198969D9DA910 PUSH1 0xC0 SHL PUSH2 0xE71 JUMP JUMPDEST PUSH2 0x265 PUSH8 0x619182AB483AA90F PUSH1 0xC0 SHL PUSH2 0xE71 JUMP JUMPDEST PUSH2 0x279 PUSH8 0xF926004E13F0565C PUSH1 0xC0 SHL PUSH2 0xE71 JUMP JUMPDEST PUSH1 0x0 DUP2 GT PUSH2 0x2BC JUMPI PUSH1 0x40 MLOAD PUSH32 0x8C379A000000000000000000000000000000000000000000000000000000000 DUP2 MSTORE PUSH1 0x4 ADD PUSH2 0x2B3 SWAP1 PUSH2 0x117B JUMP JUMPDEST PUSH1 0x40 MLOAD DUP1 SWAP2 SUB SWAP1 REVERT JUMPDEST PUSH2 0x2D0 PUSH8 0xB1086596B765112C PUSH1 0xC0 SHL PUSH2 0xE71 JUMP JUMPDEST PUSH2 0x2E4 PUSH8 0xC3D717CFF2E70437 PUSH1 0xC0 SHL PUSH2 0xE71 JUMP JUMPDEST PUSH2 0x2F8 PUSH8 0x69FD95FF4127B64B PUSH1 0xC0 SHL PUSH2 0xE71 JUMP JUMPDEST DUP2 PUSH20 0xFFFFFFFFFFFFFFFFFFFFFFFFFFFFFFFFFFFFFFFF AND PUSH4 0x23B872DD CALLER ADDRESS DUP5 PUSH1 0x40 MLOAD DUP5 PUSH4 0xFFFFFFFF AND PUSH1 0xE0 SHL DUP2 MSTORE PUSH1 0x4 ADD PUSH2 0x335 SWAP4 SWAP3 SWAP2 SWAP1 PUSH2 0x10D9 JUMP JUMPDEST PUSH1 0x20 PUSH1 0x40 MLOAD DUP1 DUP4 SUB DUP2 PUSH1 0x0 DUP8 DUP1 EXTCODESIZE ISZERO DUP1 ISZERO PUSH2 0x34F JUMPI PUSH1 0x0 DUP1 REVERT JUMPDEST POP GAS CALL ISZERO DUP1 ISZERO PUSH2 0x363 JUMPI RETURNDATASIZE PUSH1 0x0 DUP1 RETURNDATACOPY RETURNDATASIZE PUSH1 0x0 REVERT JUMPDEST POP POP POP POP PUSH1 0x40 MLOAD RETURNDATASIZE PUSH1 0x1F NOT PUSH1 0x1F DUP3 ADD AND DUP3 ADD DUP1 PUSH1 0x40 MSTORE POP DUP2 ADD SWAP1 PUSH2 0x387 SWAP2 SWAP1 PUSH2 0xF18 JUMP JUMPDEST POP PUSH2 0x39C PUSH8 0x688F5BAAC05AC049 PUSH1 0xC0 SHL PUSH2 0xE71 JUMP JUMPDEST PUSH2 0x3B0 PUSH8 0xDD3D9B56C6FE471 PUSH1 0xC0 SHL PUSH2 0xE71 JUMP JUMPDEST PUSH1 0x0 PUSH2 0x3E8 DUP3 PUSH2 0x3C0 SWAP2 SWAP1 PUSH2 0x1268 JUMP JUMPDEST SWAP1 POP PUSH2 0x3D6 PUSH8 0xD069E08F313AF238 PUSH1 0xC0 SHL PUSH2 0xE71 JUMP JUMPDEST PUSH2 0x3EA PUSH8 0x7FC4E870965A6DE PUSH1 0xC0 SHL PUSH2 0xE71 JUMP JUMPDEST PUSH1 0x0 DUP2 DUP4 PUSH2 0x3F8 SWAP2 SWAP1 PUSH2 0x1299 JUMP JUMPDEST SWAP1 POP PUSH2 0x40E PUSH8 0x4B3563213C5A522F PUSH1 0xC0 SHL PUSH2 0xE71 JUMP JUMPDEST DUP1 PUSH1 0x0 DUP1 CALLER PUSH20 0xFFFFFFFFFFFFFFFFFFFFFFFFFFFFFFFFFFFFFFFF AND PUSH20 0xFFFFFFFFFFFFFFFFFFFFFFFFFFFFFFFFFFFFFFFF AND DUP2 MSTORE PUSH1 0x20 ADD SWAP1 DUP2 MSTORE PUSH1 0x20 ADD PUSH1 0x0 KECCAK256 PUSH1 0x0 DUP7 PUSH20 0xFFFFFFFFFFFFFFFFFFFFFFFFFFFFFFFFFFFFFFFF AND PUSH20 0xFFFFFFFFFFFFFFFFFFFFFFFFFFFFFFFFFFFFFFFF AND DUP2 MSTORE PUSH1 0x20 ADD SWAP1 DUP2 MSTORE PUSH1 0x20 ADD PUSH1 0x0 KECCAK256 PUSH1 0x0 DUP3 DUP3 SLOAD PUSH2 0x499 SWAP2 SWAP1 PUSH2 0x1212 JUMP JUMPDEST SWAP3 POP POP DUP2 SWAP1 SSTORE POP PUSH2 0x4B4 PUSH8 0xB912D9BF07896400 PUSH1 0xC0 SHL PUSH2 0xE71 JUMP JUMPDEST DUP2 PUSH1 0x0 DUP1 PUSH1 0x1 PUSH1 0x0 SWAP1 SLOAD SWAP1 PUSH2 0x100 EXP SWAP1 DIV PUSH20 0xFFFFFFFFFFFFFFFFFFFFFFFFFFFFFFFFFFFFFFFF AND PUSH20 0xFFFFFFFFFFFFFFFFFFFFFFFFFFFFFFFFFFFFFFFF AND PUSH20 0xFFFFFFFFFFFFFFFFFFFFFFFFFFFFFFFFFFFFFFFF AND DUP2 MSTORE PUSH1 0x20 ADD SWAP1 DUP2 MSTORE PUSH1 0x20 ADD PUSH1 0x0 KECCAK256 PUSH1 0x0 DUP7 PUSH20 0xFFFFFFFFFFFFFFFFFFFFFFFFFFFFFFFFFFFFFFFF AND PUSH20 0xFFFFFFFFFFFFFFFFFFFFFFFFFFFFFFFFFFFFFFFF AND DUP2 MSTORE PUSH1 0x20 ADD SWAP1 DUP2 MSTORE PUSH1 0x20 ADD PUSH1 0x0 KECCAK256 PUSH1 0x0 DUP3 DUP3 SLOAD PUSH2 0x561 SWAP2 SWAP1 PUSH2 0x1212 JUMP JUMPDEST SWAP3 POP POP DUP2 SWAP1 SSTORE POP POP POP POP POP JUMP JUMPDEST PUSH1 0x40 MLOAD DUP1 PUSH1 0x40 ADD PUSH1 0x40 MSTORE DUP1 PUSH1 0x2 DUP2 MSTORE PUSH1 0x20 ADD PUSH32 0x7631000000000000000000000000000000000000000000000000000000000000 DUP2 MSTORE POP DUP2 JUMP JUMPDEST PUSH1 0x0 PUSH2 0x5BD PUSH8 0xD845FC5716817043 PUSH1 0xC0 SHL PUSH2 0xE71 JUMP JUMPDEST PUSH2 0x5D1 PUSH8 0xC29649FC61EE9E9F PUSH1 0xC0 SHL PUSH2 0xE71 JUMP JUMPDEST PUSH2 0x5E5 PUSH8 0x6F59C3B7E4FE729A PUSH1 0xC0 SHL PUSH2 0xE71 JUMP JUMPDEST PUSH1 0x0 DUP1 CALLER PUSH20 0xFFFFFFFFFFFFFFFFFFFFFFFFFFFFFFFFFFFFFFFF AND PUSH20 0xFFFFFFFFFFFFFFFFFFFFFFFFFFFFFFFFFFFFFFFF AND DUP2 MSTORE PUSH1 0x20 ADD SWAP1 DUP2 MSTORE PUSH1 0x20 ADD PUSH1 0x0 KECCAK256 PUSH1 0x0 DUP4 PUSH20 0xFFFFFFFFFFFFFFFFFFFFFFFFFFFFFFFFFFFFFFFF AND PUSH20 0xFFFFFFFFFFFFFFFFFFFFFFFFFFFFFFFFFFFFFFFF AND DUP2 MSTORE PUSH1 0x20 ADD SWAP1 DUP2 MSTORE PUSH1 0x20 ADD PUSH1 0x0 KECCAK256 SLOAD SWAP1 POP SWAP2 SWAP1 POP JUMP JUMPDEST PUSH1 0x0 PUSH2 0x67E PUSH8 0xE17C511EF1B23846 PUSH1 0xC0 SHL PUSH2 0xE71 JUMP JUMPDEST PUSH2 0x692 PUSH8 0xC26AD3BE16190FC9 PUSH1 0xC0 SHL PUSH2 0xE71 JUMP JUMPDEST PUSH2 0x6A6 PUSH8 0x59E70433542A8678 PUSH1 0xC0 SHL PUSH2 0xE71 JUMP JUMPDEST PUSH1 0x1 PUSH1 0x0 SWAP1 SLOAD SWAP1 PUSH2 0x100 EXP SWAP1 DIV PUSH20 0xFFFFFFFFFFFFFFFFFFFFFFFFFFFFFFFFFFFFFFFF AND SWAP1 POP SWAP1 JUMP JUMPDEST PUSH1 0x1 PUSH1 0x0 SWAP1 SLOAD SWAP1 PUSH2 0x100 EXP SWAP1 DIV PUSH20 0xFFFFFFFFFFFFFFFFFFFFFFFFFFFFFFFFFFFFFFFF AND DUP2 JUMP JUMPDEST PUSH2 0x708 PUSH8 0xC511B79DAE4F60AA PUSH1 0xC0 SHL PUSH2 0xE71 JUMP JUMPDEST PUSH2 0x71C PUSH8 0xD25B126E62036618 PUSH1 0xC0 SHL PUSH2 0xE71 JUMP JUMPDEST PUSH2 0x730 PUSH8 0x354BE2F0D469C1F7 PUSH1 0xC0 SHL PUSH2 0xE71 JUMP JUMPDEST PUSH2 0x744 PUSH8 0x16FF8E8E987A5F42 PUSH1 0xC0 SHL PUSH2 0xE71 JUMP JUMPDEST PUSH1 0x1 PUSH1 0x0 SWAP1 SLOAD SWAP1 PUSH2 0x100 EXP SWAP1 DIV PUSH20 0xFFFFFFFFFFFFFFFFFFFFFFFFFFFFFFFFFFFFFFFF AND PUSH20 0xFFFFFFFFFFFFFFFFFFFFFFFFFFFFFFFFFFFFFFFF AND CALLER PUSH20 0xFFFFFFFFFFFFFFFFFFFFFFFFFFFFFFFFFFFFFFFF AND EQ PUSH2 0x7D4 JUMPI PUSH1 0x40 MLOAD PUSH32 0x8C379A000000000000000000000000000000000000000000000000000000000 DUP2 MSTORE PUSH1 0x4 ADD PUSH2 0x7CB SWAP1 PUSH2 0x11BB JUMP JUMPDEST PUSH1 0x40 MLOAD DUP1 SWAP2 SUB SWAP1 REVERT JUMPDEST PUSH2 0x7E7 PUSH7 0xB04822FAD7AAF6 PUSH1 0xC0 SHL PUSH2 0xE71 JUMP JUMPDEST PUSH2 0x7FB PUSH8 0xBC29F77DC371B0AA PUSH1 0xC0 SHL PUSH2 0xE71 JUMP JUMPDEST PUSH2 0x80F PUSH8 0x49C2AFD83EF3BD69 PUSH1 0xC0 SHL PUSH2 0xE71 JUMP JUMPDEST PUSH1 0x0 DUP1 PUSH1 0x0 PUSH1 0x1 PUSH1 0x0 SWAP1 SLOAD SWAP1 PUSH2 0x100 EXP SWAP1 DIV PUSH20 0xFFFFFFFFFFFFFFFFFFFFFFFFFFFFFFFFFFFFFFFF AND PUSH20 0xFFFFFFFFFFFFFFFFFFFFFFFFFFFFFFFFFFFFFFFF AND PUSH20 0xFFFFFFFFFFFFFFFFFFFFFFFFFFFFFFFFFFFFFFFF AND DUP2 MSTORE PUSH1 0x20 ADD SWAP1 DUP2 MSTORE PUSH1 0x20 ADD PUSH1 0x0 KECCAK256 PUSH1 0x0 DUP4 PUSH20 0xFFFFFFFFFFFFFFFFFFFFFFFFFFFFFFFFFFFFFFFF AND PUSH20 0xFFFFFFFFFFFFFFFFFFFFFFFFFFFFFFFFFFFFFFFF AND DUP2 MSTORE PUSH1 0x20 ADD SWAP1 DUP2 MSTORE PUSH1 0x20 ADD PUSH1 0x0 KECCAK256 SLOAD SWAP1 POP PUSH2 0x8C5 PUSH8 0x1D53F834D191D82D PUSH1 0xC0 SHL PUSH2 0xE71 JUMP JUMPDEST PUSH2 0x8D9 PUSH8 0xF07303D5F50016C2 PUSH1 0xC0 SHL PUSH2 0xE71 JUMP JUMPDEST DUP2 PUSH20 0xFFFFFFFFFFFFFFFFFFFFFFFFFFFFFFFFFFFFFFFF AND PUSH4 0xA9059CBB CALLER DUP4 PUSH1 0x40 MLOAD DUP4 PUSH4 0xFFFFFFFF AND PUSH1 0xE0 SHL DUP2 MSTORE PUSH1 0x4 ADD PUSH2 0x914 SWAP3 SWAP2 SWAP1 PUSH2 0x1110 JUMP JUMPDEST PUSH1 0x20 PUSH1 0x40 MLOAD DUP1 DUP4 SUB DUP2 PUSH1 0x0 DUP8 DUP1 EXTCODESIZE ISZERO DUP1 ISZERO PUSH2 0x92E JUMPI PUSH1 0x0 DUP1 REVERT JUMPDEST POP GAS CALL ISZERO DUP1 ISZERO PUSH2 0x942 JUMPI RETURNDATASIZE PUSH1 0x0 DUP1 RETURNDATACOPY RETURNDATASIZE PUSH1 0x0 REVERT JUMPDEST POP POP POP POP PUSH1 0x40 MLOAD RETURNDATASIZE PUSH1 0x1F NOT PUSH1 0x1F DUP3 ADD AND DUP3 ADD DUP1 PUSH1 0x40 MSTORE POP DUP2 ADD SWAP1 PUSH2 0x966 SWAP2 SWAP1 PUSH2 0xF18 JUMP JUMPDEST POP PUSH2 0x97B PUSH8 0x4E5C9140364DA2C2 PUSH1 0xC0 SHL PUSH2 0xE71 JUMP JUMPDEST PUSH1 0x0 DUP1 PUSH1 0x0 PUSH1 0x1 PUSH1 0x0 SWAP1 SLOAD SWAP1 PUSH2 0x100 EXP SWAP1 DIV PUSH20 0xFFFFFFFFFFFFFFFFFFFFFFFFFFFFFFFFFFFFFFFF AND PUSH20 0xFFFFFFFFFFFFFFFFFFFFFFFFFFFFFFFFFFFFFFFF AND PUSH20 0xFFFFFFFFFFFFFFFFFFFFFFFFFFFFFFFFFFFFFFFF AND DUP2 MSTORE PUSH1 0x20 ADD SWAP1 DUP2 MSTORE PUSH1 0x20 ADD PUSH1 0x0 KECCAK256 PUSH1 0x0 DUP5 PUSH20 0xFFFFFFFFFFFFFFFFFFFFFFFFFFFFFFFFFFFFFFFF AND PUSH20 0xFFFFFFFFFFFFFFFFFFFFFFFFFFFFFFFFFFFFFFFF AND DUP2 MSTORE PUSH1 0x20 ADD SWAP1 DUP2 MSTORE PUSH1 0x20 ADD PUSH1 0x0 KECCAK256 DUP2 SWAP1 SSTORE POP POP POP JUMP JUMPDEST PUSH2 0xA36 PUSH8 0x3FCD76C2AD606BBE PUSH1 0xC0 SHL PUSH2 0xE71 JUMP JUMPDEST PUSH2 0xA4A PUSH8 0x8AE5A23571E8793E PUSH1 0xC0 SHL PUSH2 0xE71 JUMP JUMPDEST PUSH2 0xA5E PUSH8 0xD727CF535DCB16C2 PUSH1 0xC0 SHL PUSH2 0xE71 JUMP JUMPDEST PUSH2 0xA72 PUSH8 0x881AC624EAE9FE66 PUSH1 0xC0 SHL PUSH2 0xE71 JUMP JUMPDEST PUSH1 0x1 PUSH1 0x14 SWAP1 SLOAD SWAP1 PUSH2 0x100 EXP SWAP1 DIV PUSH1 0xFF AND ISZERO PUSH2 0xAC2 JUMPI PUSH1 0x40 MLOAD PUSH32 0x8C379A000000000000000000000000000000000000000000000000000000000 DUP2 MSTORE PUSH1 0x4 ADD PUSH2 0xAB9 SWAP1 PUSH2 0x115B JUMP JUMPDEST PUSH1 0x40 MLOAD DUP1 SWAP2 SUB SWAP1 REVERT JUMPDEST PUSH2 0xAD6 PUSH8 0x65CE30E9588458E4 PUSH1 0xC0 SHL PUSH2 0xE71 JUMP JUMPDEST PUSH2 0xAEA PUSH8 0x55BF2F67AC1ADCD4 PUSH1 0xC0 SHL PUSH2 0xE71 JUMP JUMPDEST DUP1 PUSH1 0x1 PUSH1 0x0 PUSH2 0x100 EXP DUP2 SLOAD DUP2 PUSH20 0xFFFFFFFFFFFFFFFFFFFFFFFFFFFFFFFFFFFFFFFF MUL NOT AND SWAP1 DUP4 PUSH20 0xFFFFFFFFFFFFFFFFFFFFFFFFFFFFFFFFFFFFFFFF AND MUL OR SWAP1 SSTORE POP PUSH2 0xB3F PUSH8 0xD49A4BE102010107 PUSH1 0xC0 SHL PUSH2 0xE71 JUMP JUMPDEST PUSH1 0x1 DUP1 PUSH1 0x14 PUSH2 0x100 EXP DUP2 SLOAD DUP2 PUSH1 0xFF MUL NOT AND SWAP1 DUP4 ISZERO ISZERO MUL OR SWAP1 SSTORE POP POP JUMP JUMPDEST PUSH2 0xB70 PUSH8 0xFDA27E980FDDCDCC PUSH1 0xC0 SHL PUSH2 0xE71 JUMP JUMPDEST PUSH2 0xB84 PUSH8 0xF6A3EEA2A2080134 PUSH1 0xC0 SHL PUSH2 0xE71 JUMP JUMPDEST PUSH2 0xB98 PUSH8 0x8FB380FE1E4AB0E3 PUSH1 0xC0 SHL PUSH2 0xE71 JUMP JUMPDEST PUSH2 0xBAC PUSH8 0xB1EC42E77E904E8E PUSH1 0xC0 SHL PUSH2 0xE71 JUMP JUMPDEST PUSH1 0x0 DUP2 GT PUSH2 0xBEF JUMPI PUSH1 0x40 MLOAD PUSH32 0x8C379A000000000000000000000000000000000000000000000000000000000 DUP2 MSTORE PUSH1 0x4 ADD PUSH2 0xBE6 SWAP1 PUSH2 0x117B JUMP JUMPDEST PUSH1 0x40 MLOAD DUP1 SWAP2 SUB SWAP1 REVERT JUMPDEST PUSH2 0xC03 PUSH8 0xE7FA44247DC147DE PUSH1 0xC0 SHL PUSH2 0xE71 JUMP JUMPDEST PUSH2 0xC17 PUSH8 0x8781CC40ADEF2D31 PUSH1 0xC0 SHL PUSH2 0xE71 JUMP JUMPDEST PUSH2 0xC2B PUSH8 0xB3A77F27B688CAB7 PUSH1 0xC0 SHL PUSH2 0xE71 JUMP JUMPDEST PUSH2 0xC3F PUSH8 0xDE39F51A2C2B0317 PUSH1 0xC0 SHL PUSH2 0xE71 JUMP JUMPDEST DUP1 PUSH1 0x0 DUP1 CALLER PUSH20 0xFFFFFFFFFFFFFFFFFFFFFFFFFFFFFFFFFFFFFFFF AND PUSH20 0xFFFFFFFFFFFFFFFFFFFFFFFFFFFFFFFFFFFFFFFF AND DUP2 MSTORE PUSH1 0x20 ADD SWAP1 DUP2 MSTORE PUSH1 0x20 ADD PUSH1 0x0 KECCAK256 PUSH1 0x0 DUP5 PUSH20 0xFFFFFFFFFFFFFFFFFFFFFFFFFFFFFFFFFFFFFFFF AND PUSH20 0xFFFFFFFFFFFFFFFFFFFFFFFFFFFFFFFFFFFFFFFF AND DUP2 MSTORE PUSH1 0x20 ADD SWAP1 DUP2 MSTORE PUSH1 0x20 ADD PUSH1 0x0 KECCAK256 SLOAD LT ISZERO PUSH2 0xCFD JUMPI PUSH1 0x40 MLOAD PUSH32 0x8C379A000000000000000000000000000000000000000000000000000000000 DUP2 MSTORE PUSH1 0x4 ADD PUSH2 0xCF4 SWAP1 PUSH2 0x119B JUMP JUMPDEST PUSH1 0x40 MLOAD DUP1 SWAP2 SUB SWAP1 REVERT JUMPDEST PUSH2 0xD11 PUSH8 0xCED66F74B029A6AE PUSH1 0xC0 SHL PUSH2 0xE71 JUMP JUMPDEST PUSH2 0xD25 PUSH8 0xA8521ED830609409 PUSH1 0xC0 SHL PUSH2 0xE71 JUMP JUMPDEST PUSH2 0xD39 PUSH8 0x7B77890CB6D5531E PUSH1 0xC0 SHL PUSH2 0xE71 JUMP JUMPDEST DUP2 PUSH20 0xFFFFFFFFFFFFFFFFFFFFFFFFFFFFFFFFFFFFFFFF AND PUSH4 0xA9059CBB CALLER DUP4 PUSH1 0x40 MLOAD DUP4 PUSH4 0xFFFFFFFF AND PUSH1 0xE0 SHL DUP2 MSTORE PUSH1 0x4 ADD PUSH2 0xD74 SWAP3 SWAP2 SWAP1 PUSH2 0x1110 JUMP JUMPDEST PUSH1 0x20 PUSH1 0x40 MLOAD DUP1 DUP4 SUB DUP2 PUSH1 0x0 DUP8 DUP1 EXTCODESIZE ISZERO DUP1 ISZERO PUSH2 0xD8E JUMPI PUSH1 0x0 DUP1 REVERT JUMPDEST POP GAS CALL ISZERO DUP1 ISZERO PUSH2 0xDA2 JUMPI RETURNDATASIZE PUSH1 0x0 DUP1 RETURNDATACOPY RETURNDATASIZE PUSH1 0x0 REVERT JUMPDEST POP POP POP POP PUSH1 0x40 MLOAD RETURNDATASIZE PUSH1 0x1F NOT PUSH1 0x1F DUP3 ADD AND DUP3 ADD DUP1 PUSH1 0x40 MSTORE POP DUP2 ADD SWAP1 PUSH2 0xDC6 SWAP2 SWAP1 PUSH2 0xF18 JUMP JUMPDEST POP PUSH2 0xDDB PUSH8 0x38C574DC9FA1C6C3 PUSH1 0xC0 SHL PUSH2 0xE71 JUMP JUMPDEST DUP1 PUSH1 0x0 DUP1 CALLER PUSH20 0xFFFFFFFFFFFFFFFFFFFFFFFFFFFFFFFFFFFFFFFF AND PUSH20 0xFFFFFFFFFFFFFFFFFFFFFFFFFFFFFFFFFFFFFFFF AND DUP2 MSTORE PUSH1 0x20 ADD SWAP1 DUP2 MSTORE PUSH1 0x20 ADD PUSH1 0x0 KECCAK256 PUSH1 0x0 DUP5 PUSH20 0xFFFFFFFFFFFFFFFFFFFFFFFFFFFFFFFFFFFFFFFF AND PUSH20 0xFFFFFFFFFFFFFFFFFFFFFFFFFFFFFFFFFFFFFFFF AND DUP2 MSTORE PUSH1 0x20 ADD SWAP1 DUP2 MSTORE PUSH1 0x20 ADD PUSH1 0x0 KECCAK256 PUSH1 0x0 DUP3 DUP3 SLOAD PUSH2 0xE66 SWAP2 SWAP1 PUSH2 0x1299 JUMP JUMPDEST SWAP3 POP POP DUP2 SWAP1 SSTORE POP POP POP JUMP JUMPDEST POP JUMP JUMPDEST PUSH1 0x0 DUP2 CALLDATALOAD SWAP1 POP PUSH2 0xE83 DUP2 PUSH2 0x13B7 JUMP JUMPDEST SWAP3 SWAP2 POP POP JUMP JUMPDEST PUSH1 0x0 DUP2 MLOAD SWAP1 POP PUSH2 0xE98 DUP2 PUSH2 0x13CE JUMP JUMPDEST SWAP3 SWAP2 POP POP JUMP JUMPDEST PUSH1 0x0 DUP2 CALLDATALOAD SWAP1 POP PUSH2 0xEAD DUP2 PUSH2 0x13E5 JUMP JUMPDEST SWAP3 SWAP2 POP POP JUMP JUMPDEST PUSH1 0x0 PUSH1 0x20 DUP3 DUP5 SUB SLT ISZERO PUSH2 0xEC5 JUMPI PUSH1 0x0 DUP1 REVERT JUMPDEST PUSH1 0x0 PUSH2 0xED3 DUP5 DUP3 DUP6 ADD PUSH2 0xE74 JUMP JUMPDEST SWAP2 POP POP SWAP3 SWAP2 POP POP JUMP JUMPDEST PUSH1 0x0 DUP1 PUSH1 0x40 DUP4 DUP6 SUB SLT ISZERO PUSH2 0xEEF JUMPI PUSH1 0x0 DUP1 REVERT JUMPDEST PUSH1 0x0 PUSH2 0xEFD DUP6 DUP3 DUP7 ADD PUSH2 0xE74 JUMP JUMPDEST SWAP3 POP POP PUSH1 0x20 PUSH2 0xF0E DUP6 DUP3 DUP7 ADD PUSH2 0xE9E JUMP JUMPDEST SWAP2 POP POP SWAP3 POP SWAP3 SWAP1 POP JUMP JUMPDEST PUSH1 0x0 PUSH1 0x20 DUP3 DUP5 SUB SLT ISZERO PUSH2 0xF2A JUMPI PUSH1 0x0 DUP1 REVERT JUMPDEST PUSH1 0x0 PUSH2 0xF38 DUP5 DUP3 DUP6 ADD PUSH2 0xE89 JUMP JUMPDEST SWAP2 POP POP SWAP3 SWAP2 POP POP JUMP JUMPDEST PUSH2 0xF4A DUP2 PUSH2 0x12CD JUMP JUMPDEST DUP3 MSTORE POP POP JUMP JUMPDEST PUSH1 0x0 PUSH2 0xF5B DUP3 PUSH2 0x11F6 JUMP JUMPDEST PUSH2 0xF65 DUP2 DUP6 PUSH2 0x1201 JUMP JUMPDEST SWAP4 POP PUSH2 0xF75 DUP2 DUP6 PUSH1 0x20 DUP7 ADD PUSH2 0x1315 JUMP JUMPDEST PUSH2 0xF7E DUP2 PUSH2 0x13A6 JUMP JUMPDEST DUP5 ADD SWAP2 POP POP SWAP3 SWAP2 POP POP JUMP JUMPDEST PUSH1 0x0 PUSH2 0xF96 PUSH1 0x21 DUP4 PUSH2 0x1201 JUMP JUMPDEST SWAP2 POP PUSH32 0x5361666520636F6E747261637420616C726561647920696E697469616C697A65 PUSH1 0x0 DUP4 ADD MSTORE PUSH32 0x6400000000000000000000000000000000000000000000000000000000000000 PUSH1 0x20 DUP4 ADD MSTORE PUSH1 0x40 DUP3 ADD SWAP1 POP SWAP2 SWAP1 POP JUMP JUMPDEST PUSH1 0x0 PUSH2 0xFFC PUSH1 0x1D DUP4 PUSH2 0x1201 JUMP JUMPDEST SWAP2 POP PUSH32 0x416D6F756E74206D7573742062652067726561746572207468616E2030000000 PUSH1 0x0 DUP4 ADD MSTORE PUSH1 0x20 DUP3 ADD SWAP1 POP SWAP2 SWAP1 POP JUMP JUMPDEST PUSH1 0x0 PUSH2 0x103C PUSH1 0x14 DUP4 PUSH2 0x1201 JUMP JUMPDEST SWAP2 POP PUSH32 0x496E73756666696369656E742062616C616E6365000000000000000000000000 PUSH1 0x0 DUP4 ADD MSTORE PUSH1 0x20 DUP3 ADD SWAP1 POP SWAP2 SWAP1 POP JUMP JUMPDEST PUSH1 0x0 PUSH2 0x107C PUSH1 0x1B DUP4 PUSH2 0x1201 JUMP JUMPDEST SWAP2 POP PUSH32 0x4F6E6C79206F776E65722063616E207472616E73666572206F75740000000000 PUSH1 0x0 DUP4 ADD MSTORE PUSH1 0x20 DUP3 ADD SWAP1 POP SWAP2 SWAP1 POP JUMP JUMPDEST PUSH2 0x10B8 DUP2 PUSH2 0x130B JUMP JUMPDEST DUP3 MSTORE POP POP JUMP JUMPDEST PUSH1 0x0 PUSH1 0x20 DUP3 ADD SWAP1 POP PUSH2 0x10D3 PUSH1 0x0 DUP4 ADD DUP5 PUSH2 0xF41 JUMP JUMPDEST SWAP3 SWAP2 POP POP JUMP JUMPDEST PUSH1 0x0 PUSH1 0x60 DUP3 ADD SWAP1 POP PUSH2 0x10EE PUSH1 0x0 DUP4 ADD DUP7 PUSH2 0xF41 JUMP JUMPDEST PUSH2 0x10FB PUSH1 0x20 DUP4 ADD DUP6 PUSH2 0xF41 JUMP JUMPDEST PUSH2 0x1108 PUSH1 0x40 DUP4 ADD DUP5 PUSH2 0x10AF JUMP JUMPDEST SWAP5 SWAP4 POP POP POP POP JUMP JUMPDEST PUSH1 0x0 PUSH1 0x40 DUP3 ADD SWAP1 POP PUSH2 0x1125 PUSH1 0x0 DUP4 ADD DUP6 PUSH2 0xF41 JUMP JUMPDEST PUSH2 0x1132 PUSH1 0x20 DUP4 ADD DUP5 PUSH2 0x10AF JUMP JUMPDEST SWAP4 SWAP3 POP POP POP JUMP JUMPDEST PUSH1 0x0 PUSH1 0x20 DUP3 ADD SWAP1 POP DUP2 DUP2 SUB PUSH1 0x0 DUP4 ADD MSTORE PUSH2 0x1153 DUP2 DUP5 PUSH2 0xF50 JUMP JUMPDEST SWAP1 POP SWAP3 SWAP2 POP POP JUMP JUMPDEST PUSH1 0x0 PUSH1 0x20 DUP3 ADD SWAP1 POP DUP2 DUP2 SUB PUSH1 0x0 DUP4 ADD MSTORE PUSH2 0x1174 DUP2 PUSH2 0xF89 JUMP JUMPDEST SWAP1 POP SWAP2 SWAP1 POP JUMP JUMPDEST PUSH1 0x0 PUSH1 0x20 DUP3 ADD SWAP1 POP DUP2 DUP2 SUB PUSH1 0x0 DUP4 ADD MSTORE PUSH2 0x1194 DUP2 PUSH2 0xFEF JUMP JUMPDEST SWAP1 POP SWAP2 SWAP1 POP JUMP JUMPDEST PUSH1 0x0 PUSH1 0x20 DUP3 ADD SWAP1 POP DUP2 DUP2 SUB PUSH1 0x0 DUP4 ADD MSTORE PUSH2 0x11B4 DUP2 PUSH2 0x102F JUMP JUMPDEST SWAP1 POP SWAP2 SWAP1 POP JUMP JUMPDEST PUSH1 0x0 PUSH1 0x20 DUP3 ADD SWAP1 POP DUP2 DUP2 SUB PUSH1 0x0 DUP4 ADD MSTORE PUSH2 0x11D4 DUP2 PUSH2 0x106F JUMP JUMPDEST SWAP1 POP SWAP2 SWAP1 POP JUMP JUMPDEST PUSH1 0x0 PUSH1 0x20 DUP3 ADD SWAP1 POP PUSH2 0x11F0 PUSH1 0x0 DUP4 ADD DUP5 PUSH2 0x10AF JUMP JUMPDEST SWAP3 SWAP2 POP POP JUMP JUMPDEST PUSH1 0x0 DUP2 MLOAD SWAP1 POP SWAP2 SWAP1 POP JUMP JUMPDEST PUSH1 0x0 DUP3 DUP3 MSTORE PUSH1 0x20 DUP3 ADD SWAP1 POP SWAP3 SWAP2 POP POP JUMP JUMPDEST PUSH1 0x0 PUSH2 0x121D DUP3 PUSH2 0x130B JUMP JUMPDEST SWAP2 POP PUSH2 0x1228 DUP4 PUSH2 0x130B JUMP JUMPDEST SWAP3 POP DUP3 PUSH32 0xFFFFFFFFFFFFFFFFFFFFFFFFFFFFFFFFFFFFFFFFFFFFFFFFFFFFFFFFFFFFFFFF SUB DUP3 GT ISZERO PUSH2 0x125D JUMPI PUSH2 0x125C PUSH2 0x1348 JUMP JUMPDEST JUMPDEST DUP3 DUP3 ADD SWAP1 POP SWAP3 SWAP2 POP POP JUMP JUMPDEST PUSH1 0x0 PUSH2 0x1273 DUP3 PUSH2 0x130B JUMP JUMPDEST SWAP2 POP PUSH2 0x127E DUP4 PUSH2 0x130B JUMP JUMPDEST SWAP3 POP DUP3 PUSH2 0x128E JUMPI PUSH2 0x128D PUSH2 0x1377 JUMP JUMPDEST JUMPDEST DUP3 DUP3 DIV SWAP1 POP SWAP3 SWAP2 POP POP JUMP JUMPDEST PUSH1 0x0 PUSH2 0x12A4 DUP3 PUSH2 0x130B JUMP JUMPDEST SWAP2 POP PUSH2 0x12AF DUP4 PUSH2 0x130B JUMP JUMPDEST SWAP3 POP DUP3 DUP3 LT ISZERO PUSH2 0x12C2 JUMPI PUSH2 0x12C1 PUSH2 0x1348 JUMP JUMPDEST JUMPDEST DUP3 DUP3 SUB SWAP1 POP SWAP3 SWAP2 POP POP JUMP JUMPDEST PUSH1 0x0 PUSH2 0x12D8 DUP3 PUSH2 0x12EB JUMP JUMPDEST SWAP1 POP SWAP2 SWAP1 POP JUMP JUMPDEST PUSH1 0x0 DUP2 ISZERO ISZERO SWAP1 POP SWAP2 SWAP1 POP JUMP JUMPDEST PUSH1 0x0 PUSH20 0xFFFFFFFFFFFFFFFFFFFFFFFFFFFFFFFFFFFFFFFF DUP3 AND SWAP1 POP SWAP2 SWAP1 POP JUMP JUMPDEST PUSH1 0x0 DUP2 SWAP1 POP SWAP2 SWAP1 POP JUMP JUMPDEST PUSH1 0x0 JUMPDEST DUP4 DUP2 LT ISZERO PUSH2 0x1333 JUMPI DUP1 DUP3 ADD MLOAD DUP2 DUP5 ADD MSTORE PUSH1 0x20 DUP2 ADD SWAP1 POP PUSH2 0x1318 JUMP JUMPDEST DUP4 DUP2 GT ISZERO PUSH2 0x1342 JUMPI PUSH1 0x0 DUP5 DUP5 ADD MSTORE JUMPDEST POP POP POP POP JUMP JUMPDEST PUSH32 0x4E487B7100000000000000000000000000000000000000000000000000000000 PUSH1 0x0 MSTORE PUSH1 0x11 PUSH1 0x4 MSTORE PUSH1 0x24 PUSH1 0x0 REVERT JUMPDEST PUSH32 0x4E487B7100000000000000000000000000000000000000000000000000000000 PUSH1 0x0 MSTORE PUSH1 0x12 PUSH1 0x4 MSTORE PUSH1 0x24 PUSH1 0x0 REVERT JUMPDEST PUSH1 0x0 PUSH1 0x1F NOT PUSH1 0x1F DUP4 ADD AND SWAP1 POP SWAP2 SWAP1 POP JUMP JUMPDEST PUSH2 0x13C0 DUP2 PUSH2 0x12CD JUMP JUMPDEST DUP2 EQ PUSH2 0x13CB JUMPI PUSH1 0x0 DUP1 REVERT JUMPDEST POP JUMP JUMPDEST PUSH2 0x13D7 DUP2 PUSH2 0x12DF JUMP JUMPDEST DUP2 EQ PUSH2 0x13E2 JUMPI PUSH1 0x0 DUP1 REVERT JUMPDEST POP JUMP JUMPDEST PUSH2 0x13EE DUP2 PUSH2 0x130B JUMP JUMPDEST DUP2 EQ PUSH2 0x13F9 JUMPI PUSH1 0x0 DUP1 REVERT JUMPDEST POP JUMP INVALID LOG2 PUSH5 0x6970667358 0x22 SLT KECCAK256 0xE5 POP 0xB4 0x22 PUSH5 0x361950807F SWAP16 PUSH15 0x4C515B7CCEA7D63B131237B9EEE890 SHR 0xDD STATICCALL LOG3 SWAP15 PUSH5 0x736F6C6343 STOP ADDMOD STOP STOP CALLER "},"methodIdentifiers":{"balanceOf(address)":"70a08231","deposit(address,uint256)":"47e7ef24","getOwner()":"893d20e8","getVersion()":"0d8e6e2c","initialize(address)":"c4d66de8","owner()":"8da5cb5b","takeFee(address)":"a5bf8ec6","version()":"54fd4d50","withdraw(address,uint256)":"f3fef3a3"}}}}}