{
  "_format": "hh-sol-artifact-1",
  "contractName": "SafeUpgradeable",
  "sourceName": "contracts/SafeUpgradeable.sol",
  "abi": [
    {
      "inputs": [
        {
          "internalType": "address",
          "name": "token",
          "type": "address"
        }
      ],
      "name": "balanceOf",
      "outputs": [
        {
          "internalType": "uint256",
          "name": "",
          "type": "uint256"
        }
      ],
      "stateMutability": "view",
      "type": "function"
    },
    {
      "inputs": [
        {
          "internalType": "address",
          "name": "token",
          "type": "address"
        },
        {
          "internalType": "uint256",
          "name": "amount",
          "type": "uint256"
        }
      ],
      "name": "deposit",
      "outputs": [],
      "stateMutability": "nonpayable",
      "type": "function"
    },
    {
      "inputs": [],
      "name": "getOwner",
      "outputs": [
        {
          "internalType": "address",
          "name": "",
          "type": "address"
        }
      ],
      "stateMutability": "view",
      "type": "function"
    },
    {
      "inputs": [],
      "name": "getVersion",
      "outputs": [
        {
          "internalType": "string",
          "name": "",
          "type": "string"
        }
      ],
      "stateMutability": "view",
      "type": "function"
    },
    {
      "inputs": [
        {
          "internalType": "address",
          "name": "_owner",
          "type": "address"
        }
      ],
      "name": "initialize",
      "outputs": [],
      "stateMutability": "nonpayable",
      "type": "function"
    },
    {
      "inputs": [],
      "name": "owner",
      "outputs": [
        {
          "internalType": "address",
          "name": "",
          "type": "address"
        }
      ],
      "stateMutability": "view",
      "type": "function"
    },
    {
      "inputs": [
        {
          "internalType": "address",
          "name": "token",
          "type": "address"
        }
      ],
      "name": "takeFee",
      "outputs": [],
      "stateMutability": "nonpayable",
      "type": "function"
    },
    {
      "inputs": [],
      "name": "version",
      "outputs": [
        {
          "internalType": "string",
          "name": "",
          "type": "string"
        }
      ],
      "stateMutability": "view",
      "type": "function"
    },
    {
      "inputs": [
        {
          "internalType": "address",
          "name": "token",
          "type": "address"
        },
        {
          "internalType": "uint256",
          "name": "amount",
          "type": "uint256"
        }
      ],
      "name": "withdraw",
      "outputs": [],
      "stateMutability": "nonpayable",
      "type": "function"
    }
  ],
  "bytecode": "0x60806040526000600160146101000a81548160ff02191690831515021790555034801561002b57600080fd5b506114328061003b6000396000f3fe608060405234801561001057600080fd5b50600436106100935760003560e01c8063893d20e811610066578063893d20e8146101205780638da5cb5b1461013e578063a5bf8ec61461015c578063c4d66de814610178578063f3fef3a31461019457610093565b80630d8e6e2c1461009857806347e7ef24146100b657806354fd4d50146100d257806370a08231146100f0575b600080fd5b6100a06101b0565b6040516100ad9190611139565b60405180910390f35b6100d060048036038101906100cb9190610edc565b610229565b005b6100da61056e565b6040516100e79190611139565b60405180910390f35b61010a60048036038101906101059190610eb3565b6105a7565b60405161011791906111db565b60405180910390f35b610128610668565b60405161013591906110be565b60405180910390f35b6101466106ce565b60405161015391906110be565b60405180910390f35b61017660048036038101906101719190610eb3565b6106f4565b005b610192600480360381019061018d9190610eb3565b610a22565b005b6101ae60048036038101906101a99190610edc565b610b5c565b005b60606101c667702ace973aa26de160c01b610e71565b6101da6752d5846c95f1b4d060c01b610e71565b6101ee67577b9bb43f7a0b6960c01b610e71565b6040518060400160405280600281526020017f7631000000000000000000000000000000000000000000000000000000000000815250905090565b61023d67f90360cae61e44b960c01b610e71565b61025167d09198969d9da91060c01b610e71565b61026567619182ab483aa90f60c01b610e71565b61027967f926004e13f0565c60c01b610e71565b600081116102bc576040517f08c379a00000000000000000000000000000000000000000000000000000000081526004016102b39061117b565b60405180910390fd5b6102d067b1086596b765112c60c01b610e71565b6102e467c3d717cff2e7043760c01b610e71565b6102f86769fd95ff4127b64b60c01b610e71565b8173ffffffffffffffffffffffffffffffffffffffff166323b872dd3330846040518463ffffffff1660e01b8152600401610335939291906110d9565b602060405180830381600087803b15801561034f57600080fd5b505af1158015610363573d6000803e3d6000fd5b505050506040513d601f19601f820116820180604052508101906103879190610f18565b5061039c67688f5baac05ac04960c01b610e71565b6103b0670dd3d9b56c6fe47160c01b610e71565b60006103e8826103c09190611268565b90506103d667d069e08f313af23860c01b610e71565b6103ea6707fc4e870965a6de60c01b610e71565b600081836103f89190611299565b905061040e674b3563213c5a522f60c01b610e71565b806000803373ffffffffffffffffffffffffffffffffffffffff1673ffffffffffffffffffffffffffffffffffffffff16815260200190815260200160002060008673ffffffffffffffffffffffffffffffffffffffff1673ffffffffffffffffffffffffffffffffffffffff16815260200190815260200160002060008282546104999190611212565b925050819055506104b467b912d9bf0789640060c01b610e71565b81600080600160009054906101000a900473ffffffffffffffffffffffffffffffffffffffff1673ffffffffffffffffffffffffffffffffffffffff1673ffffffffffffffffffffffffffffffffffffffff16815260200190815260200160002060008673ffffffffffffffffffffffffffffffffffffffff1673ffffffffffffffffffffffffffffffffffffffff16815260200190815260200160002060008282546105619190611212565b9250508190555050505050565b6040518060400160405280600281526020017f763100000000000000000000000000000000000000000000000000000000000081525081565b60006105bd67d845fc571681704360c01b610e71565b6105d167c29649fc61ee9e9f60c01b610e71565b6105e5676f59c3b7e4fe729a60c01b610e71565b6000803373ffffffffffffffffffffffffffffffffffffffff1673ffffffffffffffffffffffffffffffffffffffff16815260200190815260200160002060008373ffffffffffffffffffffffffffffffffffffffff1673ffffffffffffffffffffffffffffffffffffffff168152602001908152602001600020549050919050565b600061067e67e17c511ef1b2384660c01b610e71565b61069267c26ad3be16190fc960c01b610e71565b6106a66759e70433542a867860c01b610e71565b600160009054906101000a900473ffffffffffffffffffffffffffffffffffffffff16905090565b600160009054906101000a900473ffffffffffffffffffffffffffffffffffffffff1681565b61070867c511b79dae4f60aa60c01b610e71565b61071c67d25b126e6203661860c01b610e71565b61073067354be2f0d469c1f760c01b610e71565b6107446716ff8e8e987a5f4260c01b610e71565b600160009054906101000a900473ffffffffffffffffffffffffffffffffffffffff1673ffffffffffffffffffffffffffffffffffffffff163373ffffffffffffffffffffffffffffffffffffffff16146107d4576040517f08c379a00000000000000000000000000000000000000000000000000000000081526004016107cb906111bb565b60405180910390fd5b6107e766b04822fad7aaf660c01b610e71565b6107fb67bc29f77dc371b0aa60c01b610e71565b61080f6749c2afd83ef3bd6960c01b610e71565b6000806000600160009054906101000a900473ffffffffffffffffffffffffffffffffffffffff1673ffffffffffffffffffffffffffffffffffffffff1673ffffffffffffffffffffffffffffffffffffffff16815260200190815260200160002060008373ffffffffffffffffffffffffffffffffffffffff1673ffffffffffffffffffffffffffffffffffffffff1681526020019081526020016000205490506108c5671d53f834d191d82d60c01b610e71565b6108d967f07303d5f50016c260c01b610e71565b8173ffffffffffffffffffffffffffffffffffffffff1663a9059cbb33836040518363ffffffff1660e01b8152600401610914929190611110565b602060405180830381600087803b15801561092e57600080fd5b505af1158015610942573d6000803e3d6000fd5b505050506040513d601f19601f820116820180604052508101906109669190610f18565b5061097b674e5c9140364da2c260c01b610e71565b6000806000600160009054906101000a900473ffffffffffffffffffffffffffffffffffffffff1673ffffffffffffffffffffffffffffffffffffffff1673ffffffffffffffffffffffffffffffffffffffff16815260200190815260200160002060008473ffffffffffffffffffffffffffffffffffffffff1673ffffffffffffffffffffffffffffffffffffffff168152602001908152602001600020819055505050565b610a36673fcd76c2ad606bbe60c01b610e71565b610a4a678ae5a23571e8793e60c01b610e71565b610a5e67d727cf535dcb16c260c01b610e71565b610a7267881ac624eae9fe6660c01b610e71565b600160149054906101000a900460ff1615610ac2576040517f08c379a0000000000000000000000000000000000000000000000000000000008152600401610ab99061115b565b60405180910390fd5b610ad66765ce30e9588458e460c01b610e71565b610aea6755bf2f67ac1adcd460c01b610e71565b80600160006101000a81548173ffffffffffffffffffffffffffffffffffffffff021916908373ffffffffffffffffffffffffffffffffffffffff160217905550610b3f67d49a4be10201010760c01b610e71565b60018060146101000a81548160ff02191690831515021790555050565b610b7067fda27e980fddcdcc60c01b610e71565b610b8467f6a3eea2a208013460c01b610e71565b610b98678fb380fe1e4ab0e360c01b610e71565b610bac67b1ec42e77e904e8e60c01b610e71565b60008111610bef576040517f08c379a0000000000000000000000000000000000000000000000000000000008152600401610be69061117b565b60405180910390fd5b610c0367e7fa44247dc147de60c01b610e71565b610c17678781cc40adef2d3160c01b610e71565b610c2b67b3a77f27b688cab760c01b610e71565b610c3f67de39f51a2c2b031760c01b610e71565b806000803373ffffffffffffffffffffffffffffffffffffffff1673ffffffffffffffffffffffffffffffffffffffff16815260200190815260200160002060008473ffffffffffffffffffffffffffffffffffffffff1673ffffffffffffffffffffffffffffffffffffffff168152602001908152602001600020541015610cfd576040517f08c379a0000000000000000000000000000000000000000000000000000000008152600401610cf49061119b565b60405180910390fd5b610d1167ced66f74b029a6ae60c01b610e71565b610d2567a8521ed83060940960c01b610e71565b610d39677b77890cb6d5531e60c01b610e71565b8173ffffffffffffffffffffffffffffffffffffffff1663a9059cbb33836040518363ffffffff1660e01b8152600401610d74929190611110565b602060405180830381600087803b158015610d8e57600080fd5b505af1158015610da2573d6000803e3d6000fd5b505050506040513d601f19601f82011682018060405250810190610dc69190610f18565b50610ddb6738c574dc9fa1c6c360c01b610e71565b806000803373ffffffffffffffffffffffffffffffffffffffff1673ffffffffffffffffffffffffffffffffffffffff16815260200190815260200160002060008473ffffffffffffffffffffffffffffffffffffffff1673ffffffffffffffffffffffffffffffffffffffff1681526020019081526020016000206000828254610e669190611299565b925050819055505050565b50565b600081359050610e83816113b7565b92915050565b600081519050610e98816113ce565b92915050565b600081359050610ead816113e5565b92915050565b600060208284031215610ec557600080fd5b6000610ed384828501610e74565b91505092915050565b60008060408385031215610eef57600080fd5b6000610efd85828601610e74565b9250506020610f0e85828601610e9e565b9150509250929050565b600060208284031215610f2a57600080fd5b6000610f3884828501610e89565b91505092915050565b610f4a816112cd565b82525050565b6000610f5b826111f6565b610f658185611201565b9350610f75818560208601611315565b610f7e816113a6565b840191505092915050565b6000610f96602183611201565b91507f5361666520636f6e747261637420616c726561647920696e697469616c697a6560008301527f64000000000000000000000000000000000000000000000000000000000000006020830152604082019050919050565b6000610ffc601d83611201565b91507f416d6f756e74206d7573742062652067726561746572207468616e20300000006000830152602082019050919050565b600061103c601483611201565b91507f496e73756666696369656e742062616c616e63650000000000000000000000006000830152602082019050919050565b600061107c601b83611201565b91507f4f6e6c79206f776e65722063616e207472616e73666572206f757400000000006000830152602082019050919050565b6110b88161130b565b82525050565b60006020820190506110d36000830184610f41565b92915050565b60006060820190506110ee6000830186610f41565b6110fb6020830185610f41565b61110860408301846110af565b949350505050565b60006040820190506111256000830185610f41565b61113260208301846110af565b9392505050565b600060208201905081810360008301526111538184610f50565b905092915050565b6000602082019050818103600083015261117481610f89565b9050919050565b6000602082019050818103600083015261119481610fef565b9050919050565b600060208201905081810360008301526111b48161102f565b9050919050565b600060208201905081810360008301526111d48161106f565b9050919050565b60006020820190506111f060008301846110af565b92915050565b600081519050919050565b600082825260208201905092915050565b600061121d8261130b565b91506112288361130b565b9250827fffffffffffffffffffffffffffffffffffffffffffffffffffffffffffffffff0382111561125d5761125c611348565b5b828201905092915050565b60006112738261130b565b915061127e8361130b565b92508261128e5761128d611377565b5b828204905092915050565b60006112a48261130b565b91506112af8361130b565b9250828210156112c2576112c1611348565b5b828203905092915050565b60006112d8826112eb565b9050919050565b60008115159050919050565b600073ffffffffffffffffffffffffffffffffffffffff82169050919050565b6000819050919050565b60005b83811015611333578082015181840152602081019050611318565b83811115611342576000848401525b50505050565b7f4e487b7100000000000000000000000000000000000000000000000000000000600052601160045260246000fd5b7f4e487b7100000000000000000000000000000000000000000000000000000000600052601260045260246000fd5b6000601f19601f8301169050919050565b6113c0816112cd565b81146113cb57600080fd5b50565b6113d7816112df565b81146113e257600080fd5b50565b6113ee8161130b565b81146113f957600080fd5b5056fea2646970667358221220e550b42264361950807f9f6e4c515b7ccea7d63b131237b9eee8901cddfaa39e64736f6c63430008000033",
  "linkReferences": {},
  "deployedLinkReferences": {}
}