{
  "_format": "hh-sol-artifact-1",
  "contractName": "SafeUpgradeableV2",
  "sourceName": "contracts/SafeUpgradeable.sol",
  "abi": [
    {
      "inputs": [
        {
          "internalType": "address",
          "name": "token",
          "type": "address"
        }
      ],
      "name": "balanceOf",
      "outputs": [
        {
          "internalType": "uint256",
          "name": "",
          "type": "uint256"
        }
      ],
      "stateMutability": "view",
      "type": "function"
    },
    {
      "inputs": [
        {
          "internalType": "address",
          "name": "token",
          "type": "address"
        },
        {
          "internalType": "uint256",
          "name": "amount",
          "type": "uint256"
        }
      ],
      "name": "deposit",
      "outputs": [],
      "stateMutability": "nonpayable",
      "type": "function"
    },
    {
      "inputs": [],
      "name": "getOwner",
      "outputs": [
        {
          "internalType": "address",
          "name": "",
          "type": "address"
        }
      ],
      "stateMutability": "view",
      "type": "function"
    },
    {
      "inputs": [],
      "name": "getVersion",
      "outputs": [
        {
          "internalType": "string",
          "name": "",
          "type": "string"
        }
      ],
      "stateMutability": "view",
      "type": "function"
    },
    {
      "inputs": [
        {
          "internalType": "address",
          "name": "_owner",
          "type": "address"
        }
      ],
      "name": "initialize",
      "outputs": [],
      "stateMutability": "nonpayable",
      "type": "function"
    },
    {
      "inputs": [],
      "name": "owner",
      "outputs": [
        {
          "internalType": "address",
          "name": "",
          "type": "address"
        }
      ],
      "stateMutability": "view",
      "type": "function"
    },
    {
      "inputs": [
        {
          "internalType": "address",
          "name": "token",
          "type": "address"
        }
      ],
      "name": "takeFee",
      "outputs": [],
      "stateMutability": "nonpayable",
      "type": "function"
    },
    {
      "inputs": [],
      "name": "version",
      "outputs": [
        {
          "internalType": "string",
          "name": "",
          "type": "string"
        }
      ],
      "stateMutability": "view",
      "type": "function"
    },
    {
      "inputs": [
        {
          "internalType": "address",
          "name": "token",
          "type": "address"
        },
        {
          "internalType": "uint256",
          "name": "amount",
          "type": "uint256"
        }
      ],
      "name": "withdraw",
      "outputs": [],
      "stateMutability": "nonpayable",
      "type": "function"
    }
  ],
  "bytecode": "0x60806040526000600160146101000a81548160ff02191690831515021790555034801561002b57600080fd5b506114338061003b6000396000f3fe608060405234801561001057600080fd5b50600436106100935760003560e01c8063893d20e811610066578063893d20e8146101205780638da5cb5b1461013e578063a5bf8ec61461015c578063c4d66de814610178578063f3fef3a31461019457610093565b80630d8e6e2c1461009857806347e7ef24146100b657806354fd4d50146100d257806370a08231146100f0575b600080fd5b6100a06101b0565b6040516100ad919061113a565b60405180910390f35b6100d060048036038101906100cb9190610edd565b610229565b005b6100da61056e565b6040516100e7919061113a565b60405180910390f35b61010a60048036038101906101059190610eb4565b6105a7565b60405161011791906111dc565b60405180910390f35b610128610668565b60405161013591906110bf565b60405180910390f35b6101466106ce565b60405161015391906110bf565b60405180910390f35b61017660048036038101906101719190610eb4565b6106f4565b005b610192600480360381019061018d9190610eb4565b610a23565b005b6101ae60048036038101906101a99190610edd565b610b5d565b005b60606101c6674ba27823ff2b54b860c01b610e72565b6101da6733954556cdd59c2c60c01b610e72565b6101ee67e45cadd3d89f591760c01b610e72565b6040518060400160405280600281526020017f7632000000000000000000000000000000000000000000000000000000000000815250905090565b61023d673feb308e7af830ad60c01b610e72565b61025167f56ee498d59a8e8260c01b610e72565b61026567ff4a09eb8448aa2860c01b610e72565b61027967fd34d6d898e5c6ca60c01b610e72565b600081116102bc576040517f08c379a00000000000000000000000000000000000000000000000000000000081526004016102b39061117c565b60405180910390fd5b6102d067fe18b4ef9f604be060c01b610e72565b6102e4672a5eeb5061cac07e60c01b610e72565b6102f867ecbb72bc43a2203160c01b610e72565b8173ffffffffffffffffffffffffffffffffffffffff166323b872dd3330846040518463ffffffff1660e01b8152600401610335939291906110da565b602060405180830381600087803b15801561034f57600080fd5b505af1158015610363573d6000803e3d6000fd5b505050506040513d601f19601f820116820180604052508101906103879190610f19565b5061039c675f0347fac21fb1a260c01b610e72565b6103b067f2c542b9ecdc46d760c01b610e72565b60006101f4826103c09190611269565b90506103d66713776f6e0a23199d60c01b610e72565b6103ea67ff167c056461984c60c01b610e72565b600081836103f8919061129a565b905061040e67915cd31a5f11fb5d60c01b610e72565b806000803373ffffffffffffffffffffffffffffffffffffffff1673ffffffffffffffffffffffffffffffffffffffff16815260200190815260200160002060008673ffffffffffffffffffffffffffffffffffffffff1673ffffffffffffffffffffffffffffffffffffffff16815260200190815260200160002060008282546104999190611213565b925050819055506104b467823801e8202d8ced60c01b610e72565b81600080600160009054906101000a900473ffffffffffffffffffffffffffffffffffffffff1673ffffffffffffffffffffffffffffffffffffffff1673ffffffffffffffffffffffffffffffffffffffff16815260200190815260200160002060008673ffffffffffffffffffffffffffffffffffffffff1673ffffffffffffffffffffffffffffffffffffffff16815260200190815260200160002060008282546105619190611213565b9250508190555050505050565b6040518060400160405280600281526020017f763200000000000000000000000000000000000000000000000000000000000081525081565b60006105bd67fb46f4d84b5c933460c01b610e72565b6105d1675187797e48ee67b760c01b610e72565b6105e567b9587f4823f5082360c01b610e72565b6000803373ffffffffffffffffffffffffffffffffffffffff1673ffffffffffffffffffffffffffffffffffffffff16815260200190815260200160002060008373ffffffffffffffffffffffffffffffffffffffff1673ffffffffffffffffffffffffffffffffffffffff168152602001908152602001600020549050919050565b600061067e67ba8f50b895f27f5060c01b610e72565b61069267f45742e20662e44b60c01b610e72565b6106a6673871d31510d63c7460c01b610e72565b600160009054906101000a900473ffffffffffffffffffffffffffffffffffffffff16905090565b600160009054906101000a900473ffffffffffffffffffffffffffffffffffffffff1681565b6107086784884922402dfb7f60c01b610e72565b61071c6706c9c51327f4b94260c01b610e72565b610730674b2dded64180460960c01b610e72565b6107446768a2acd154a3232560c01b610e72565b600160009054906101000a900473ffffffffffffffffffffffffffffffffffffffff1673ffffffffffffffffffffffffffffffffffffffff163373ffffffffffffffffffffffffffffffffffffffff16146107d4576040517f08c379a00000000000000000000000000000000000000000000000000000000081526004016107cb906111bc565b60405180910390fd5b6107e867764b40fb7e86f6b260c01b610e72565b6107fc673abffecef59301ac60c01b610e72565b6108106738ac3803d51d61a960c01b610e72565b6000806000600160009054906101000a900473ffffffffffffffffffffffffffffffffffffffff1673ffffffffffffffffffffffffffffffffffffffff1673ffffffffffffffffffffffffffffffffffffffff16815260200190815260200160002060008373ffffffffffffffffffffffffffffffffffffffff1673ffffffffffffffffffffffffffffffffffffffff1681526020019081526020016000205490506108c66703965c3a5a637ffd60c01b610e72565b6108da673944912ef09a129060c01b610e72565b8173ffffffffffffffffffffffffffffffffffffffff1663a9059cbb33836040518363ffffffff1660e01b8152600401610915929190611111565b602060405180830381600087803b15801561092f57600080fd5b505af1158015610943573d6000803e3d6000fd5b505050506040513d601f19601f820116820180604052508101906109679190610f19565b5061097c678fa8faa2abd03bb260c01b610e72565b6000806000600160009054906101000a900473ffffffffffffffffffffffffffffffffffffffff1673ffffffffffffffffffffffffffffffffffffffff1673ffffffffffffffffffffffffffffffffffffffff16815260200190815260200160002060008473ffffffffffffffffffffffffffffffffffffffff1673ffffffffffffffffffffffffffffffffffffffff168152602001908152602001600020819055505050565b610a3767428764b6672cd6d760c01b610e72565b610a4b6739ae7659c0a179ea60c01b610e72565b610a5f67dad459c2d9655b6c60c01b610e72565b610a7367f65edc148511122960c01b610e72565b600160149054906101000a900460ff1615610ac3576040517f08c379a0000000000000000000000000000000000000000000000000000000008152600401610aba9061115c565b60405180910390fd5b610ad7676307fd4466029a8760c01b610e72565b610aeb676f181e37a75af21160c01b610e72565b80600160006101000a81548173ffffffffffffffffffffffffffffffffffffffff021916908373ffffffffffffffffffffffffffffffffffffffff160217905550610b406740cc58a18649e56660c01b610e72565b60018060146101000a81548160ff02191690831515021790555050565b610b7167aed805eae16c717c60c01b610e72565b610b85675947931b12b3bec760c01b610e72565b610b9967e63c221e66fbe54660c01b610e72565b610bad6784fdfb34cd4f335460c01b610e72565b60008111610bf0576040517f08c379a0000000000000000000000000000000000000000000000000000000008152600401610be79061117c565b60405180910390fd5b610c0467cb073b69cd7d27d760c01b610e72565b610c18677fc9f8d7a3b6d8b660c01b610e72565b610c2c67f6025d5cdd6a20e360c01b610e72565b610c40677b11ad88f7e1f22160c01b610e72565b806000803373ffffffffffffffffffffffffffffffffffffffff1673ffffffffffffffffffffffffffffffffffffffff16815260200190815260200160002060008473ffffffffffffffffffffffffffffffffffffffff1673ffffffffffffffffffffffffffffffffffffffff168152602001908152602001600020541015610cfe576040517f08c379a0000000000000000000000000000000000000000000000000000000008152600401610cf59061119c565b60405180910390fd5b610d126749297f043a29cd5760c01b610e72565b610d2667b8f42fe4c9352b1e60c01b610e72565b610d3a6766654703e4812cbd60c01b610e72565b8173ffffffffffffffffffffffffffffffffffffffff1663a9059cbb33836040518363ffffffff1660e01b8152600401610d75929190611111565b602060405180830381600087803b158015610d8f57600080fd5b505af1158015610da3573d6000803e3d6000fd5b505050506040513d601f19601f82011682018060405250810190610dc79190610f19565b50610ddc67a7c80d773a112d3260c01b610e72565b806000803373ffffffffffffffffffffffffffffffffffffffff1673ffffffffffffffffffffffffffffffffffffffff16815260200190815260200160002060008473ffffffffffffffffffffffffffffffffffffffff1673ffffffffffffffffffffffffffffffffffffffff1681526020019081526020016000206000828254610e67919061129a565b925050819055505050565b50565b600081359050610e84816113b8565b92915050565b600081519050610e99816113cf565b92915050565b600081359050610eae816113e6565b92915050565b600060208284031215610ec657600080fd5b6000610ed484828501610e75565b91505092915050565b60008060408385031215610ef057600080fd5b6000610efe85828601610e75565b9250506020610f0f85828601610e9f565b9150509250929050565b600060208284031215610f2b57600080fd5b6000610f3984828501610e8a565b91505092915050565b610f4b816112ce565b82525050565b6000610f5c826111f7565b610f668185611202565b9350610f76818560208601611316565b610f7f816113a7565b840191505092915050565b6000610f97602183611202565b91507f5361666520636f6e747261637420616c726561647920696e697469616c697a6560008301527f64000000000000000000000000000000000000000000000000000000000000006020830152604082019050919050565b6000610ffd601d83611202565b91507f416d6f756e74206d7573742062652067726561746572207468616e20300000006000830152602082019050919050565b600061103d601483611202565b91507f496e73756666696369656e742062616c616e63650000000000000000000000006000830152602082019050919050565b600061107d601b83611202565b91507f4f6e6c79206f776e65722063616e207472616e73666572206f757400000000006000830152602082019050919050565b6110b98161130c565b82525050565b60006020820190506110d46000830184610f42565b92915050565b60006060820190506110ef6000830186610f42565b6110fc6020830185610f42565b61110960408301846110b0565b949350505050565b60006040820190506111266000830185610f42565b61113360208301846110b0565b9392505050565b600060208201905081810360008301526111548184610f51565b905092915050565b6000602082019050818103600083015261117581610f8a565b9050919050565b6000602082019050818103600083015261119581610ff0565b9050919050565b600060208201905081810360008301526111b581611030565b9050919050565b600060208201905081810360008301526111d581611070565b9050919050565b60006020820190506111f160008301846110b0565b92915050565b600081519050919050565b600082825260208201905092915050565b600061121e8261130c565b91506112298361130c565b9250827fffffffffffffffffffffffffffffffffffffffffffffffffffffffffffffffff0382111561125e5761125d611349565b5b828201905092915050565b60006112748261130c565b915061127f8361130c565b92508261128f5761128e611378565b5b828204905092915050565b60006112a58261130c565b91506112b08361130c565b9250828210156112c3576112c2611349565b5b828203905092915050565b60006112d9826112ec565b9050919050565b60008115159050919050565b600073ffffffffffffffffffffffffffffffffffffffff82169050919050565b6000819050919050565b60005b83811015611334578082015181840152602081019050611319565b83811115611343576000848401525b50505050565b7f4e487b7100000000000000000000000000000000000000000000000000000000600052601160045260246000fd5b7f4e487b7100000000000000000000000000000000000000000000000000000000600052601260045260246000fd5b6000601f19601f8301169050919050565b6113c1816112ce565b81146113cc57600080fd5b50565b6113d8816112e0565b81146113e357600080fd5b50565b6113ef8161130c565b81146113fa57600080fd5b5056fea2646970667358221220de26a454bbed8f714568ec312362879928819f9ec92df82aeca55b3f6b2d712c64736f6c63430008000033",
  "linkReferences": {},
  "deployedLinkReferences": {}
}