{
  "_format": "hh-sol-artifact-1",
  "contractName": "Safe",
  "sourceName": "contracts/Safe.sol",
  "abi": [
    {
      "inputs": [
        {
          "internalType": "address",
          "name": "_owner",
          "type": "address"
        }
      ],
      "stateMutability": "nonpayable",
      "type": "constructor"
    },
    {
      "inputs": [
        {
          "internalType": "address",
          "name": "token",
          "type": "address"
        }
      ],
      "name": "balanceOf",
      "outputs": [
        {
          "internalType": "uint256",
          "name": "",
          "type": "uint256"
        }
      ],
      "stateMutability": "view",
      "type": "function"
    },
    {
      "inputs": [
        {
          "internalType": "address",
          "name": "token",
          "type": "address"
        },
        {
          "internalType": "uint256",
          "name": "amount",
          "type": "uint256"
        }
      ],
      "name": "deposit",
      "outputs": [],
      "stateMutability": "nonpayable",
      "type": "function"
    },
    {
      "inputs": [],
      "name": "getOwner",
      "outputs": [
        {
          "internalType": "address",
          "name": "",
          "type": "address"
        }
      ],
      "stateMutability": "view",
      "type": "function"
    },
    {
      "inputs": [],
      "name": "owner",
      "outputs": [
        {
          "internalType": "address",
          "name": "",
          "type": "address"
        }
      ],
      "stateMutability": "view",
      "type": "function"
    },
    {
      "inputs": [
        {
          "internalType": "address",
          "name": "token",
          "type": "address"
        }
      ],
      "name": "takeFee",
      "outputs": [],
      "stateMutability": "nonpayable",
      "type": "function"
    },
    {
      "inputs": [
        {
          "internalType": "address",
          "name": "token",
          "type": "address"
        },
        {
          "internalType": "uint256",
          "name": "amount",
          "type": "uint256"
        }
      ],
      "name": "withdraw",
      "outputs": [],
      "stateMutability": "nonpayable",
      "type": "function"
    }
  ],
  "bytecode": "0x60806040523480156200001157600080fd5b50604051620011e9380380620011e98339818101604052810190620000379190620000d1565b6200005367f3e0dcf25690517760c01b620000b760201b60201c565b6200006f6780a297d2730280d160c01b620000b760201b60201c565b80600160006101000a81548173ffffffffffffffffffffffffffffffffffffffff021916908373ffffffffffffffffffffffffffffffffffffffff160217905550506200014b565b50565b600081519050620000cb8162000131565b92915050565b600060208284031215620000e457600080fd5b6000620000f484828501620000ba565b91505092915050565b60006200010a8262000111565b9050919050565b600073ffffffffffffffffffffffffffffffffffffffff82169050919050565b6200013c81620000fd565b81146200014857600080fd5b50565b61108e806200015b6000396000f3fe608060405234801561001057600080fd5b50600436106100625760003560e01c806347e7ef241461006757806370a0823114610083578063893d20e8146100b35780638da5cb5b146100d1578063a5bf8ec6146100ef578063f3fef3a31461010b575b600080fd5b610081600480360381019061007c9190610c68565b610127565b005b61009d60048036038101906100989190610c3f565b61046c565b6040516100aa9190610e86565b60405180910390f35b6100bb61052d565b6040516100c89190610dab565b60405180910390f35b6100d9610593565b6040516100e69190610dab565b60405180910390f35b61010960048036038101906101049190610c3f565b6105b9565b005b61012560048036038101906101209190610c68565b6108e8565b005b61013b674a32d6cf2adcbf1c60c01b610bfd565b61014f6756acf12c413ef60060c01b610bfd565b61016367a19da07d082d9b3460c01b610bfd565b61017767d124cfa8de31682c60c01b610bfd565b600081116101ba576040517f08c379a00000000000000000000000000000000000000000000000000000000081526004016101b190610e26565b60405180910390fd5b6101ce67c42d7c7db9dc105860c01b610bfd565b6101e267c7468688e55fb75160c01b610bfd565b6101f6679a6faa7d4ab7518c60c01b610bfd565b8173ffffffffffffffffffffffffffffffffffffffff166323b872dd3330846040518463ffffffff1660e01b815260040161023393929190610dc6565b602060405180830381600087803b15801561024d57600080fd5b505af1158015610261573d6000803e3d6000fd5b505050506040513d601f19601f820116820180604052508101906102859190610ca4565b5061029a67e252e19c86e5967f60c01b610bfd565b6102ae6743a94d22d929225e60c01b610bfd565b60006103e8826102be9190610f08565b90506102d4670f4fed0d9977177460c01b610bfd565b6102e867a270a2942adc8eb760c01b610bfd565b600081836102f69190610f39565b905061030c673f002d58d0b5ff5060c01b610bfd565b806000803373ffffffffffffffffffffffffffffffffffffffff1673ffffffffffffffffffffffffffffffffffffffff16815260200190815260200160002060008673ffffffffffffffffffffffffffffffffffffffff1673ffffffffffffffffffffffffffffffffffffffff16815260200190815260200160002060008282546103979190610eb2565b925050819055506103b2674314e4e46f59efc260c01b610bfd565b81600080600160009054906101000a900473ffffffffffffffffffffffffffffffffffffffff1673ffffffffffffffffffffffffffffffffffffffff1673ffffffffffffffffffffffffffffffffffffffff16815260200190815260200160002060008673ffffffffffffffffffffffffffffffffffffffff1673ffffffffffffffffffffffffffffffffffffffff168152602001908152602001600020600082825461045f9190610eb2565b9250508190555050505050565b6000610482671f8ffd56a862505860c01b610bfd565b610496672cae6d371de2473e60c01b610bfd565b6104aa676d00f2fb00e480f460c01b610bfd565b6000803373ffffffffffffffffffffffffffffffffffffffff1673ffffffffffffffffffffffffffffffffffffffff16815260200190815260200160002060008373ffffffffffffffffffffffffffffffffffffffff1673ffffffffffffffffffffffffffffffffffffffff168152602001908152602001600020549050919050565b6000610543675cabbb8b8b36f1df60c01b610bfd565b61055767e5641f50649b399a60c01b610bfd565b61056b6738cb44f9297a02cd60c01b610bfd565b600160009054906101000a900473ffffffffffffffffffffffffffffffffffffffff16905090565b600160009054906101000a900473ffffffffffffffffffffffffffffffffffffffff1681565b6105cd67add117ec7879f3c660c01b610bfd565b6105e167c2832f8e0127ca2960c01b610bfd565b6105f56765bcc9a5416582a960c01b610bfd565b61060967f641cac2f7bd578c60c01b610bfd565b600160009054906101000a900473ffffffffffffffffffffffffffffffffffffffff1673ffffffffffffffffffffffffffffffffffffffff163373ffffffffffffffffffffffffffffffffffffffff1614610699576040517f08c379a000000000000000000000000000000000000000000000000000000000815260040161069090610e66565b60405180910390fd5b6106ad6735c8cab8ec379f1660c01b610bfd565b6106c167c1928bfb0da5e88860c01b610bfd565b6106d567f97db5fb2358aa9d60c01b610bfd565b6000806000600160009054906101000a900473ffffffffffffffffffffffffffffffffffffffff1673ffffffffffffffffffffffffffffffffffffffff1673ffffffffffffffffffffffffffffffffffffffff16815260200190815260200160002060008373ffffffffffffffffffffffffffffffffffffffff1673ffffffffffffffffffffffffffffffffffffffff16815260200190815260200160002054905061078b67a2fbd030a2a6940360c01b610bfd565b61079f678a89e88d7cea72c660c01b610bfd565b8173ffffffffffffffffffffffffffffffffffffffff1663a9059cbb33836040518363ffffffff1660e01b81526004016107da929190610dfd565b602060405180830381600087803b1580156107f457600080fd5b505af1158015610808573d6000803e3d6000fd5b505050506040513d601f19601f8201168201806040525081019061082c9190610ca4565b50610841674ec6e9ffb84eec2a60c01b610bfd565b6000806000600160009054906101000a900473ffffffffffffffffffffffffffffffffffffffff1673ffffffffffffffffffffffffffffffffffffffff1673ffffffffffffffffffffffffffffffffffffffff16815260200190815260200160002060008473ffffffffffffffffffffffffffffffffffffffff1673ffffffffffffffffffffffffffffffffffffffff168152602001908152602001600020819055505050565b6108fc679b48360e5746a39360c01b610bfd565b610910676e04b93bdae267e360c01b610bfd565b61092467d9876bd4071c269b60c01b610bfd565b610938670500b24c3cd59ffb60c01b610bfd565b6000811161097b576040517f08c379a000000000000000000000000000000000000000000000000000000000815260040161097290610e26565b60405180910390fd5b61098f6775a765bd351aaf4460c01b610bfd565b6109a3676933283e1161702e60c01b610bfd565b6109b7670f250d1feb9c72f560c01b610bfd565b6109cb67fb454d1fc565996a60c01b610bfd565b806000803373ffffffffffffffffffffffffffffffffffffffff1673ffffffffffffffffffffffffffffffffffffffff16815260200190815260200160002060008473ffffffffffffffffffffffffffffffffffffffff1673ffffffffffffffffffffffffffffffffffffffff168152602001908152602001600020541015610a89576040517f08c379a0000000000000000000000000000000000000000000000000000000008152600401610a8090610e46565b60405180910390fd5b610a9d67e2387a69c0877e2860c01b610bfd565b610ab16750de72c56ad2983960c01b610bfd565b610ac567f1896b27841668cf60c01b610bfd565b8173ffffffffffffffffffffffffffffffffffffffff1663a9059cbb33836040518363ffffffff1660e01b8152600401610b00929190610dfd565b602060405180830381600087803b158015610b1a57600080fd5b505af1158015610b2e573d6000803e3d6000fd5b505050506040513d601f19601f82011682018060405250810190610b529190610ca4565b50610b67674617020797e246a260c01b610bfd565b806000803373ffffffffffffffffffffffffffffffffffffffff1673ffffffffffffffffffffffffffffffffffffffff16815260200190815260200160002060008473ffffffffffffffffffffffffffffffffffffffff1673ffffffffffffffffffffffffffffffffffffffff1681526020019081526020016000206000828254610bf29190610f39565b925050819055505050565b50565b600081359050610c0f81611013565b92915050565b600081519050610c248161102a565b92915050565b600081359050610c3981611041565b92915050565b600060208284031215610c5157600080fd5b6000610c5f84828501610c00565b91505092915050565b60008060408385031215610c7b57600080fd5b6000610c8985828601610c00565b9250506020610c9a85828601610c2a565b9150509250929050565b600060208284031215610cb657600080fd5b6000610cc484828501610c15565b91505092915050565b610cd681610f6d565b82525050565b6000610ce9601d83610ea1565b91507f416d6f756e74206d7573742062652067726561746572207468616e20300000006000830152602082019050919050565b6000610d29601483610ea1565b91507f496e73756666696369656e742062616c616e63650000000000000000000000006000830152602082019050919050565b6000610d69601b83610ea1565b91507f4f6e6c79206f776e65722063616e207472616e73666572206f757400000000006000830152602082019050919050565b610da581610fab565b82525050565b6000602082019050610dc06000830184610ccd565b92915050565b6000606082019050610ddb6000830186610ccd565b610de86020830185610ccd565b610df56040830184610d9c565b949350505050565b6000604082019050610e126000830185610ccd565b610e1f6020830184610d9c565b9392505050565b60006020820190508181036000830152610e3f81610cdc565b9050919050565b60006020820190508181036000830152610e5f81610d1c565b9050919050565b60006020820190508181036000830152610e7f81610d5c565b9050919050565b6000602082019050610e9b6000830184610d9c565b92915050565b600082825260208201905092915050565b6000610ebd82610fab565b9150610ec883610fab565b9250827fffffffffffffffffffffffffffffffffffffffffffffffffffffffffffffffff03821115610efd57610efc610fb5565b5b828201905092915050565b6000610f1382610fab565b9150610f1e83610fab565b925082610f2e57610f2d610fe4565b5b828204905092915050565b6000610f4482610fab565b9150610f4f83610fab565b925082821015610f6257610f61610fb5565b5b828203905092915050565b6000610f7882610f8b565b9050919050565b60008115159050919050565b600073ffffffffffffffffffffffffffffffffffffffff82169050919050565b6000819050919050565b7f4e487b7100000000000000000000000000000000000000000000000000000000600052601160045260246000fd5b7f4e487b7100000000000000000000000000000000000000000000000000000000600052601260045260246000fd5b61101c81610f6d565b811461102757600080fd5b50565b61103381610f7f565b811461103e57600080fd5b50565b61104a81610fab565b811461105557600080fd5b5056fea2646970667358221220bb37443148ac7df26de64c2c0360b639d964d0139ebb95e5c0efeee82184201a64736f6c63430008000033",
  "linkReferences": {},
  "deployedLinkReferences": {}
}