{
  "_format": "hh-sol-artifact-1",
  "contractName": "SafeFactory",
  "sourceName": "contracts/SafeFactory.sol",
  "abi": [
    {
      "inputs": [
        {
          "internalType": "address",
          "name": "_owner",
          "type": "address"
        },
        {
          "internalType": "address",
          "name": "_implementation",
          "type": "address"
        }
      ],
      "stateMutability": "nonpayable",
      "type": "constructor"
    },
    {
      "anonymous": false,
      "inputs": [
        {
          "indexed": false,
          "internalType": "address",
          "name": "newImplementation",
          "type": "address"
        }
      ],
      "name": "ImplementationUpdated",
      "type": "event"
    },
    {
      "anonymous": false,
      "inputs": [
        {
          "indexed": false,
          "internalType": "address",
          "name": "proxy",
          "type": "address"
        }
      ],
      "name": "ProxyCreated",
      "type": "event"
    },
    {
      "anonymous": false,
      "inputs": [
        {
          "indexed": false,
          "internalType": "address",
          "name": "safe",
          "type": "address"
        }
      ],
      "name": "SafeCreated",
      "type": "event"
    },
    {
      "inputs": [],
      "name": "deploySafe",
      "outputs": [],
      "stateMutability": "nonpayable",
      "type": "function"
    },
    {
      "inputs": [],
      "name": "deploySafeProxy",
      "outputs": [],
      "stateMutability": "nonpayable",
      "type": "function"
    },
    {
      "inputs": [
        {
          "internalType": "uint256",
          "name": "",
          "type": "uint256"
        }
      ],
      "name": "deployedProxies",
      "outputs": [
        {
          "internalType": "address",
          "name": "",
          "type": "address"
        }
      ],
      "stateMutability": "view",
      "type": "function"
    },
    {
      "inputs": [
        {
          "internalType": "uint256",
          "name": "",
          "type": "uint256"
        }
      ],
      "name": "deployedSafes",
      "outputs": [
        {
          "internalType": "address",
          "name": "",
          "type": "address"
        }
      ],
      "stateMutability": "view",
      "type": "function"
    },
    {
      "inputs": [],
      "name": "getDeployedProxies",
      "outputs": [
        {
          "internalType": "address[]",
          "name": "",
          "type": "address[]"
        }
      ],
      "stateMutability": "view",
      "type": "function"
    },
    {
      "inputs": [],
      "name": "getDeployedSafes",
      "outputs": [
        {
          "internalType": "address[]",
          "name": "",
          "type": "address[]"
        }
      ],
      "stateMutability": "view",
      "type": "function"
    },
    {
      "inputs": [],
      "name": "implementation",
      "outputs": [
        {
          "internalType": "address",
          "name": "",
          "type": "address"
        }
      ],
      "stateMutability": "view",
      "type": "function"
    },
    {
      "inputs": [],
      "name": "owner",
      "outputs": [
        {
          "internalType": "address",
          "name": "",
          "type": "address"
        }
      ],
      "stateMutability": "view",
      "type": "function"
    },
    {
      "inputs": [
        {
          "internalType": "address",
          "name": "newImp",
          "type": "address"
        }
      ],
      "name": "updateImplementation",
      "outputs": [],
      "stateMutability": "nonpayable",
      "type": "function"
    }
  ],
  "bytecode": "0x60806040523480156200001157600080fd5b5060405162002fec38038062002fec83398181016040528101906200003791906200012e565b6200005367da3b2c28059c1e6e60c01b6200011460201b60201c565b6200006f679cda3882411334fb60c01b6200011460201b60201c565b816000806101000a81548173ffffffffffffffffffffffffffffffffffffffff021916908373ffffffffffffffffffffffffffffffffffffffff160217905550620000cb676e5f8ff6baf19df360c01b6200011460201b60201c565b80600160006101000a81548173ffffffffffffffffffffffffffffffffffffffff021916908373ffffffffffffffffffffffffffffffffffffffff1602179055505050620001bd565b50565b6000815190506200012881620001a3565b92915050565b600080604083850312156200014257600080fd5b6000620001528582860162000117565b9250506020620001658582860162000117565b9150509250929050565b60006200017c8262000183565b9050919050565b600073ffffffffffffffffffffffffffffffffffffffff82169050919050565b620001ae816200016f565b8114620001ba57600080fd5b50565b612e1f80620001cd6000396000f3fe60806040523480156200001157600080fd5b5060043610620000a05760003560e01c8063644f7aac116200006f578063644f7aac146200012b5780638da5cb5b14620001375780639a8787bf1462000159578063a72b27ef1462000165578063b5ac7cfa146200019b57620000a0565b8063025b22bc14620000a55780630414650b14620000c55780630eb7a00d14620000e75780635c60da1b1462000109575b600080fd5b620000c36004803603810190620000bd919062000aa4565b620001d1565b005b620000cf620004da565b604051620000de919062000cbc565b60405180910390f35b620000f1620005ac565b60405162000100919062000cbc565b60405180910390f35b620001136200067e565b60405162000122919062000c72565b60405180910390f35b62000135620006a4565b005b620001416200081a565b60405162000150919062000c72565b60405180910390f35b620001636200083e565b005b6200018360048036038101906200017d919062000ad0565b620009d7565b60405162000192919062000c72565b60405180910390f35b620001b96004803603810190620001b3919062000ad0565b62000a17565b604051620001c8919062000c72565b60405180910390f35b620001e767f83ce0f9dce8c16760c01b62000a57565b620001fd67796ab4208605424960c01b62000a57565b6200021367e49ee09e3729a17860c01b62000a57565b6200022967d260bb2e49f4f8c260c01b62000a57565b6200023f67af3ac1b8d44ac77860c01b62000a57565b60008054906101000a900473ffffffffffffffffffffffffffffffffffffffff1673ffffffffffffffffffffffffffffffffffffffff163373ffffffffffffffffffffffffffffffffffffffff1614620002d0576040517f08c379a0000000000000000000000000000000000000000000000000000000008152600401620002c79062000ce0565b60405180910390fd5b620002e6675f454f224fa99b9760c01b62000a57565b620002fc67b8c27798738dab1360c01b62000a57565b6200031267c87ab3d5452a822960c01b62000a57565b6200032867412d38edd21fc4c960c01b62000a57565b6200033e671332b0c755081ffa60c01b62000a57565b6200035467a29ff8470661c68860c01b62000a57565b6200036a677a66ced4bebdc3e160c01b62000a57565b60008173ffffffffffffffffffffffffffffffffffffffff16803b806020016040519081016040528181526000908060200190933c5111620003e3576040517f08c379a0000000000000000000000000000000000000000000000000000000008152600401620003da9062000d02565b60405180910390fd5b620003f967091d9b67d022614b60c01b62000a57565b6200040f6706602b527212fd9460c01b62000a57565b80600160006101000a81548173ffffffffffffffffffffffffffffffffffffffff021916908373ffffffffffffffffffffffffffffffffffffffff160217905550620004666798dfcac9bdc6d98c60c01b62000a57565b6200047c672b8033049638e1c360c01b62000a57565b7f310ba5f1d2ed074b51e2eccd052a47ae9ab7c6b800d1fca3db3999d6a592ca03600160009054906101000a900473ffffffffffffffffffffffffffffffffffffffff16604051620004cf919062000c72565b60405180910390a150565b6060620004f2672d9ca544ba6ca18460c01b62000a57565b6200050867e8f83c659edd45c260c01b62000a57565b6200051e6743cb8cf40a52d2fa60c01b62000a57565b6002805480602002602001604051908101604052809291908181526020018280548015620005a257602002820191906000526020600020905b8160009054906101000a900473ffffffffffffffffffffffffffffffffffffffff1673ffffffffffffffffffffffffffffffffffffffff168152602001906001019080831162000557575b5050505050905090565b6060620005c467e445c7edfd1fec8460c01b62000a57565b620005da67d9d92d5ec3e29c5060c01b62000a57565b620005f0673a486ae47545817a60c01b62000a57565b60038054806020026020016040519081016040528092919081815260200182805480156200067457602002820191906000526020600020905b8160009054906101000a900473ffffffffffffffffffffffffffffffffffffffff1673ffffffffffffffffffffffffffffffffffffffff168152602001906001019080831162000629575b5050505050905090565b600160009054906101000a900473ffffffffffffffffffffffffffffffffffffffff1681565b620006ba67993aa490d41993da60c01b62000a57565b620006d0676c62274d09828e1260c01b62000a57565b620006e667727a9febb0a1ecaf60c01b62000a57565b600033604051620006f79062000a5a565b62000703919062000c72565b604051809103906000f08015801562000720573d6000803e3d6000fd5b5090506200073967c2ae7c10029db98260c01b62000a57565b6200074f6708d6db00ee4f489960c01b62000a57565b7f9cebc3415f29f3a72d88a3509a7de71248d7362a11a5a188c070be993cc1d7c18160405162000780919062000c72565b60405180910390a16200079e6730f6a538e79a93aa60c01b62000a57565b620007b4672129a69f847801b960c01b62000a57565b6003819080600181540180825580915050600190039060005260206000200160009091909190916101000a81548173ffffffffffffffffffffffffffffffffffffffff021916908373ffffffffffffffffffffffffffffffffffffffff16021790555050565b60008054906101000a900473ffffffffffffffffffffffffffffffffffffffff1681565b6200085467dafe37c524c96abd60c01b62000a57565b6200086a671ed4cf2040165c0360c01b62000a57565b62000880674478cbafd3dd74b060c01b62000a57565b600033600160009054906101000a900473ffffffffffffffffffffffffffffffffffffffff16604051620008b49062000a68565b620008c192919062000c8f565b604051809103906000f080158015620008de573d6000803e3d6000fd5b509050620008f76796ed2bd885bbdba360c01b62000a57565b6200090d678189b9a5664e515060c01b62000a57565b7efffc2da0b561cae30d9826d37709e9421c4725faebc226cbbb7ef5fc5e7349816040516200093d919062000c72565b60405180910390a16200095b6790c7ad68cc2cc9fa60c01b62000a57565b6200097167b79191545a0b4a4f60c01b62000a57565b6002819080600181540180825580915050600190039060005260206000200160009091909190916101000a81548173ffffffffffffffffffffffffffffffffffffffff021916908373ffffffffffffffffffffffffffffffffffffffff16021790555050565b60028181548110620009e857600080fd5b906000526020600020016000915054906101000a900473ffffffffffffffffffffffffffffffffffffffff1681565b6003818154811062000a2857600080fd5b906000526020600020016000915054906101000a900473ffffffffffffffffffffffffffffffffffffffff1681565b50565b6111e98062000de183390190565b610e208062001fca83390190565b60008135905062000a878162000dac565b92915050565b60008135905062000a9e8162000dc6565b92915050565b60006020828403121562000ab757600080fd5b600062000ac78482850162000a76565b91505092915050565b60006020828403121562000ae357600080fd5b600062000af38482850162000a8d565b91505092915050565b600062000b0a838362000b16565b60208301905092915050565b62000b218162000d6e565b82525050565b62000b328162000d6e565b82525050565b600062000b458262000d34565b62000b51818562000d4c565b935062000b5e8362000d24565b8060005b8381101562000b9557815162000b79888262000afc565b975062000b868362000d3f565b92505060018101905062000b62565b5085935050505092915050565b600062000bb160218362000d5d565b91507f4f6e6c79206f776e65722063616e2063616c6c20746869732066756e6374696f60008301527f6e000000000000000000000000000000000000000000000000000000000000006020830152604082019050919050565b600062000c19602f8362000d5d565b91507f4e657720696d706c656d656e746174696f6e20616464726573732073686f756c60008301527f64206265206120636f6e747261637400000000000000000000000000000000006020830152604082019050919050565b600060208201905062000c89600083018462000b27565b92915050565b600060408201905062000ca6600083018562000b27565b62000cb5602083018462000b27565b9392505050565b6000602082019050818103600083015262000cd8818462000b38565b905092915050565b6000602082019050818103600083015262000cfb8162000ba2565b9050919050565b6000602082019050818103600083015262000d1d8162000c0a565b9050919050565b6000819050602082019050919050565b600081519050919050565b6000602082019050919050565b600082825260208201905092915050565b600082825260208201905092915050565b600062000d7b8262000d82565b9050919050565b600073ffffffffffffffffffffffffffffffffffffffff82169050919050565b6000819050919050565b62000db78162000d6e565b811462000dc357600080fd5b50565b62000dd18162000da2565b811462000ddd57600080fd5b5056fe60806040523480156200001157600080fd5b50604051620011e9380380620011e98339818101604052810190620000379190620000d1565b6200005367f3e0dcf25690517760c01b620000b760201b60201c565b6200006f6780a297d2730280d160c01b620000b760201b60201c565b80600160006101000a81548173ffffffffffffffffffffffffffffffffffffffff021916908373ffffffffffffffffffffffffffffffffffffffff160217905550506200014b565b50565b600081519050620000cb8162000131565b92915050565b600060208284031215620000e457600080fd5b6000620000f484828501620000ba565b91505092915050565b60006200010a8262000111565b9050919050565b600073ffffffffffffffffffffffffffffffffffffffff82169050919050565b6200013c81620000fd565b81146200014857600080fd5b50565b61108e806200015b6000396000f3fe608060405234801561001057600080fd5b50600436106100625760003560e01c806347e7ef241461006757806370a0823114610083578063893d20e8146100b35780638da5cb5b146100d1578063a5bf8ec6146100ef578063f3fef3a31461010b575b600080fd5b610081600480360381019061007c9190610c68565b610127565b005b61009d60048036038101906100989190610c3f565b61046c565b6040516100aa9190610e86565b60405180910390f35b6100bb61052d565b6040516100c89190610dab565b60405180910390f35b6100d9610593565b6040516100e69190610dab565b60405180910390f35b61010960048036038101906101049190610c3f565b6105b9565b005b61012560048036038101906101209190610c68565b6108e8565b005b61013b674a32d6cf2adcbf1c60c01b610bfd565b61014f6756acf12c413ef60060c01b610bfd565b61016367a19da07d082d9b3460c01b610bfd565b61017767d124cfa8de31682c60c01b610bfd565b600081116101ba576040517f08c379a00000000000000000000000000000000000000000000000000000000081526004016101b190610e26565b60405180910390fd5b6101ce67c42d7c7db9dc105860c01b610bfd565b6101e267c7468688e55fb75160c01b610bfd565b6101f6679a6faa7d4ab7518c60c01b610bfd565b8173ffffffffffffffffffffffffffffffffffffffff166323b872dd3330846040518463ffffffff1660e01b815260040161023393929190610dc6565b602060405180830381600087803b15801561024d57600080fd5b505af1158015610261573d6000803e3d6000fd5b505050506040513d601f19601f820116820180604052508101906102859190610ca4565b5061029a67e252e19c86e5967f60c01b610bfd565b6102ae6743a94d22d929225e60c01b610bfd565b60006103e8826102be9190610f08565b90506102d4670f4fed0d9977177460c01b610bfd565b6102e867a270a2942adc8eb760c01b610bfd565b600081836102f69190610f39565b905061030c673f002d58d0b5ff5060c01b610bfd565b806000803373ffffffffffffffffffffffffffffffffffffffff1673ffffffffffffffffffffffffffffffffffffffff16815260200190815260200160002060008673ffffffffffffffffffffffffffffffffffffffff1673ffffffffffffffffffffffffffffffffffffffff16815260200190815260200160002060008282546103979190610eb2565b925050819055506103b2674314e4e46f59efc260c01b610bfd565b81600080600160009054906101000a900473ffffffffffffffffffffffffffffffffffffffff1673ffffffffffffffffffffffffffffffffffffffff1673ffffffffffffffffffffffffffffffffffffffff16815260200190815260200160002060008673ffffffffffffffffffffffffffffffffffffffff1673ffffffffffffffffffffffffffffffffffffffff168152602001908152602001600020600082825461045f9190610eb2565b9250508190555050505050565b6000610482671f8ffd56a862505860c01b610bfd565b610496672cae6d371de2473e60c01b610bfd565b6104aa676d00f2fb00e480f460c01b610bfd565b6000803373ffffffffffffffffffffffffffffffffffffffff1673ffffffffffffffffffffffffffffffffffffffff16815260200190815260200160002060008373ffffffffffffffffffffffffffffffffffffffff1673ffffffffffffffffffffffffffffffffffffffff168152602001908152602001600020549050919050565b6000610543675cabbb8b8b36f1df60c01b610bfd565b61055767e5641f50649b399a60c01b610bfd565b61056b6738cb44f9297a02cd60c01b610bfd565b600160009054906101000a900473ffffffffffffffffffffffffffffffffffffffff16905090565b600160009054906101000a900473ffffffffffffffffffffffffffffffffffffffff1681565b6105cd67add117ec7879f3c660c01b610bfd565b6105e167c2832f8e0127ca2960c01b610bfd565b6105f56765bcc9a5416582a960c01b610bfd565b61060967f641cac2f7bd578c60c01b610bfd565b600160009054906101000a900473ffffffffffffffffffffffffffffffffffffffff1673ffffffffffffffffffffffffffffffffffffffff163373ffffffffffffffffffffffffffffffffffffffff1614610699576040517f08c379a000000000000000000000000000000000000000000000000000000000815260040161069090610e66565b60405180910390fd5b6106ad6735c8cab8ec379f1660c01b610bfd565b6106c167c1928bfb0da5e88860c01b610bfd565b6106d567f97db5fb2358aa9d60c01b610bfd565b6000806000600160009054906101000a900473ffffffffffffffffffffffffffffffffffffffff1673ffffffffffffffffffffffffffffffffffffffff1673ffffffffffffffffffffffffffffffffffffffff16815260200190815260200160002060008373ffffffffffffffffffffffffffffffffffffffff1673ffffffffffffffffffffffffffffffffffffffff16815260200190815260200160002054905061078b67a2fbd030a2a6940360c01b610bfd565b61079f678a89e88d7cea72c660c01b610bfd565b8173ffffffffffffffffffffffffffffffffffffffff1663a9059cbb33836040518363ffffffff1660e01b81526004016107da929190610dfd565b602060405180830381600087803b1580156107f457600080fd5b505af1158015610808573d6000803e3d6000fd5b505050506040513d601f19601f8201168201806040525081019061082c9190610ca4565b50610841674ec6e9ffb84eec2a60c01b610bfd565b6000806000600160009054906101000a900473ffffffffffffffffffffffffffffffffffffffff1673ffffffffffffffffffffffffffffffffffffffff1673ffffffffffffffffffffffffffffffffffffffff16815260200190815260200160002060008473ffffffffffffffffffffffffffffffffffffffff1673ffffffffffffffffffffffffffffffffffffffff168152602001908152602001600020819055505050565b6108fc679b48360e5746a39360c01b610bfd565b610910676e04b93bdae267e360c01b610bfd565b61092467d9876bd4071c269b60c01b610bfd565b610938670500b24c3cd59ffb60c01b610bfd565b6000811161097b576040517f08c379a000000000000000000000000000000000000000000000000000000000815260040161097290610e26565b60405180910390fd5b61098f6775a765bd351aaf4460c01b610bfd565b6109a3676933283e1161702e60c01b610bfd565b6109b7670f250d1feb9c72f560c01b610bfd565b6109cb67fb454d1fc565996a60c01b610bfd565b806000803373ffffffffffffffffffffffffffffffffffffffff1673ffffffffffffffffffffffffffffffffffffffff16815260200190815260200160002060008473ffffffffffffffffffffffffffffffffffffffff1673ffffffffffffffffffffffffffffffffffffffff168152602001908152602001600020541015610a89576040517f08c379a0000000000000000000000000000000000000000000000000000000008152600401610a8090610e46565b60405180910390fd5b610a9d67e2387a69c0877e2860c01b610bfd565b610ab16750de72c56ad2983960c01b610bfd565b610ac567f1896b27841668cf60c01b610bfd565b8173ffffffffffffffffffffffffffffffffffffffff1663a9059cbb33836040518363ffffffff1660e01b8152600401610b00929190610dfd565b602060405180830381600087803b158015610b1a57600080fd5b505af1158015610b2e573d6000803e3d6000fd5b505050506040513d601f19601f82011682018060405250810190610b529190610ca4565b50610b67674617020797e246a260c01b610bfd565b806000803373ffffffffffffffffffffffffffffffffffffffff1673ffffffffffffffffffffffffffffffffffffffff16815260200190815260200160002060008473ffffffffffffffffffffffffffffffffffffffff1673ffffffffffffffffffffffffffffffffffffffff1681526020019081526020016000206000828254610bf29190610f39565b925050819055505050565b50565b600081359050610c0f81611013565b92915050565b600081519050610c248161102a565b92915050565b600081359050610c3981611041565b92915050565b600060208284031215610c5157600080fd5b6000610c5f84828501610c00565b91505092915050565b60008060408385031215610c7b57600080fd5b6000610c8985828601610c00565b9250506020610c9a85828601610c2a565b9150509250929050565b600060208284031215610cb657600080fd5b6000610cc484828501610c15565b91505092915050565b610cd681610f6d565b82525050565b6000610ce9601d83610ea1565b91507f416d6f756e74206d7573742062652067726561746572207468616e20300000006000830152602082019050919050565b6000610d29601483610ea1565b91507f496e73756666696369656e742062616c616e63650000000000000000000000006000830152602082019050919050565b6000610d69601b83610ea1565b91507f4f6e6c79206f776e65722063616e207472616e73666572206f757400000000006000830152602082019050919050565b610da581610fab565b82525050565b6000602082019050610dc06000830184610ccd565b92915050565b6000606082019050610ddb6000830186610ccd565b610de86020830185610ccd565b610df56040830184610d9c565b949350505050565b6000604082019050610e126000830185610ccd565b610e1f6020830184610d9c565b9392505050565b60006020820190508181036000830152610e3f81610cdc565b9050919050565b60006020820190508181036000830152610e5f81610d1c565b9050919050565b60006020820190508181036000830152610e7f81610d5c565b9050919050565b6000602082019050610e9b6000830184610d9c565b92915050565b600082825260208201905092915050565b6000610ebd82610fab565b9150610ec883610fab565b9250827fffffffffffffffffffffffffffffffffffffffffffffffffffffffffffffffff03821115610efd57610efc610fb5565b5b828201905092915050565b6000610f1382610fab565b9150610f1e83610fab565b925082610f2e57610f2d610fe4565b5b828204905092915050565b6000610f4482610fab565b9150610f4f83610fab565b925082821015610f6257610f61610fb5565b5b828203905092915050565b6000610f7882610f8b565b9050919050565b60008115159050919050565b600073ffffffffffffffffffffffffffffffffffffffff82169050919050565b6000819050919050565b7f4e487b7100000000000000000000000000000000000000000000000000000000600052601160045260246000fd5b7f4e487b7100000000000000000000000000000000000000000000000000000000600052601260045260246000fd5b61101c81610f6d565b811461102757600080fd5b50565b61103381610f7f565b811461103e57600080fd5b50565b61104a81610fab565b811461105557600080fd5b5056fea2646970667358221220bb37443148ac7df26de64c2c0360b639d964d0139ebb95e5c0efeee82184201a64736f6c6343000800003360806040523480156200001157600080fd5b5060405162000e2038038062000e2083398181016040528101906200003791906200047e565b6200005367cd9673ad12968c2460c01b620000ed60201b60201c565b6200006f67cd6fa23b16ad65f160c01b620000ed60201b60201c565b6200008b67f461f5a6ef9c821b60c01b620000ed60201b60201c565b6200009c82620000f060201b60201c565b620000b8679c5a2d4b5c62e11760c01b620000ed60201b60201c565b620000d4678b8c0cd43812c2e960c01b620000ed60201b60201c565b620000e5816200028660201b60201c565b50506200060c565b50565b6200010c679561683f0907f48a60c01b620000ed60201b60201c565b6200012867cf69053e00f4b46260c01b620000ed60201b60201c565b6200014467a726b70ddd1bb91960c01b620000ed60201b60201c565b62000160676bd5c11dc4354c1860c01b620000ed60201b60201c565b600073ffffffffffffffffffffffffffffffffffffffff168173ffffffffffffffffffffffffffffffffffffffff161415620001d3576040517f08c379a0000000000000000000000000000000000000000000000000000000008152600401620001ca9062000569565b60405180910390fd5b620001ef67d6b953bf62aa80d360c01b620000ed60201b60201c565b6200020b67fbce62611b9970dc60c01b620000ed60201b60201c565b80620002427f58a6b8f109ed5c70ad37140473420d0209511d3629dc7480eab94a450067bd5f6200042260201b620004051760201c565b60000160006101000a81548173ffffffffffffffffffffffffffffffffffffffff021916908373ffffffffffffffffffffffffffffffffffffffff16021790555050565b620002a2671b43ba544d106e6060c01b620000ed60201b60201c565b620002be67a269328f3acaa9d760c01b620000ed60201b60201c565b620002da6758e8795154afd59960c01b620000ed60201b60201c565b620002f6675d875c1ce7d4d92660c01b620000ed60201b60201c565b60008173ffffffffffffffffffffffffffffffffffffffff16803b806020016040519081016040528181526000908060200190933c51116200036f576040517f08c379a000000000000000000000000000000000000000000000000000000000815260040162000366906200058b565b60405180910390fd5b6200038b67873cc75093c949c660c01b620000ed60201b60201c565b620003a76796ea197da854144d60c01b620000ed60201b60201c565b80620003de7f24ed44ee9374370fd3aa7c8b1abf58827504c20f65246b17d2b9e7e1aef778476200042260201b620004051760201c565b60000160006101000a81548173ffffffffffffffffffffffffffffffffffffffff021916908373ffffffffffffffffffffffffffffffffffffffff16021790555050565b60006200044067da192cbb89fc298e60c01b6200046460201b60201c565b6200045c670ced46ea7b2f548260c01b6200046460201b60201c565b819050919050565b50565b6000815190506200047881620005f2565b92915050565b600080604083850312156200049257600080fd5b6000620004a28582860162000467565b9250506020620004b58582860162000467565b9150509250929050565b6000620004ce601483620005ad565b91507f61646d696e203d207a65726f20616464726573730000000000000000000000006000830152602082019050919050565b600062000510602f83620005ad565b91507f4e657720696d706c656d656e746174696f6e20616464726573732073686f756c60008301527f64206265206120636f6e747261637400000000000000000000000000000000006020830152604082019050919050565b600060208201905081810360008301526200058481620004bf565b9050919050565b60006020820190508181036000830152620005a68162000501565b9050919050565b600082825260208201905092915050565b6000620005cb82620005d2565b9050919050565b600073ffffffffffffffffffffffffffffffffffffffff82169050919050565b620005fd81620005be565b81146200060957600080fd5b50565b610804806200061c6000396000f3fe6080604052600436106100385760003560e01c80631ab7710d146100b1578063aaf10f42146100dc578063d784d4261461010757610063565b36610063576100516719e3e3e5232f8d5860c01b610130565b61006161005c610133565b6101c3565b005b610077677a5afd3c7c745a6360c01b610130565b61008b67dc16e28e726b8fca60c01b610130565b61009f6770c05cd05759f83560c01b610130565b6100af6100aa610133565b6101c3565b005b3480156100bd57600080fd5b506100c6610212565b6040516100d39190610719565b60405180910390f35b3480156100e857600080fd5b506100f161025d565b6040516100fe9190610719565b60405180910390f35b34801561011357600080fd5b5061012e6004803603810190610129919061063b565b6102a8565b005b50565b600061014967727c73c54687cf0560c01b610130565b61015d674c1a6e733a6da0e560c01b610130565b610171672da4656b35d3550860c01b610130565b61019a7f24ed44ee9374370fd3aa7c8b1abf58827504c20f65246b17d2b9e7e1aef77847610405565b60000160009054906101000a900473ffffffffffffffffffffffffffffffffffffffff16905090565b6101d76783af00ed13e0d4d560c01b610130565b6101eb670bdad5450deaed5f60c01b610130565b60405136600082376000803683855af43d806000843e816000811461020e578184f35b8184fd5b600061022867146cfdccf0e58e9360c01b610130565b61023c67d7f8470c5de5774160c01b610130565b61025067e8c0773d2c1b526e60c01b610130565b610258610437565b905090565b60006102736708f1b6d77e37b2cc60c01b610130565b61028767322b33fea13344d360c01b610130565b61029b67d16125e6429b489a60c01b610130565b6102a3610133565b905090565b6102bc67b6a97ef3b11fcf4f60c01b610130565b6102d067ad6398dd5f110ae160c01b610130565b6102e4672cbe22c5a5f7179260c01b610130565b6102f86796ae05c8b98d524b60c01b610130565b61030c6739eabff9eabff38860c01b610130565b610314610437565b73ffffffffffffffffffffffffffffffffffffffff163373ffffffffffffffffffffffffffffffffffffffff1614610381576040517f08c379a000000000000000000000000000000000000000000000000000000000815260040161037890610754565b60405180910390fd5b6103956764f0ff6487c337ec60c01b610130565b6103a967015b1900b90a7b9d60c01b610130565b6103bd67a055aadb559a9b9260c01b610130565b6103d167d3817d4e6ff12b6d60c01b610130565b6103e5679528574f6485c25360c01b610130565b6103f9679845ebcb05618c3c60c01b610130565b610402816104c7565b50565b600061041b67da192cbb89fc298e60c01b610623565b61042f670ced46ea7b2f548260c01b610623565b819050919050565b600061044d67db4cb1575d38cc5460c01b610130565b610461679c31936cfc0571ee60c01b610130565b61047567a0a036b14cc3836e60c01b610130565b61049e7f58a6b8f109ed5c70ad37140473420d0209511d3629dc7480eab94a450067bd5f610405565b60000160009054906101000a900473ffffffffffffffffffffffffffffffffffffffff16905090565b6104db671b43ba544d106e6060c01b610130565b6104ef67a269328f3acaa9d760c01b610130565b6105036758e8795154afd59960c01b610130565b610517675d875c1ce7d4d92660c01b610130565b60008173ffffffffffffffffffffffffffffffffffffffff16803b806020016040519081016040528181526000908060200190933c511161058d576040517f08c379a000000000000000000000000000000000000000000000000000000000815260040161058490610734565b60405180910390fd5b6105a167873cc75093c949c660c01b610130565b6105b56796ea197da854144d60c01b610130565b806105df7f24ed44ee9374370fd3aa7c8b1abf58827504c20f65246b17d2b9e7e1aef77847610405565b60000160006101000a81548173ffffffffffffffffffffffffffffffffffffffff021916908373ffffffffffffffffffffffffffffffffffffffff16021790555050565b50565b600081359050610635816107b7565b92915050565b60006020828403121561064d57600080fd5b600061065b84828501610626565b91505092915050565b61066d81610785565b82525050565b6000610680602f83610774565b91507f4e657720696d706c656d656e746174696f6e20616464726573732073686f756c60008301527f64206265206120636f6e747261637400000000000000000000000000000000006020830152604082019050919050565b60006106e6601e83610774565b91507f50726f78793a2063616c6c6572206973206e6f7420746865206f776e657200006000830152602082019050919050565b600060208201905061072e6000830184610664565b92915050565b6000602082019050818103600083015261074d81610673565b9050919050565b6000602082019050818103600083015261076d816106d9565b9050919050565b600082825260208201905092915050565b600061079082610797565b9050919050565b600073ffffffffffffffffffffffffffffffffffffffff82169050919050565b6107c081610785565b81146107cb57600080fd5b5056fea2646970667358221220b55a6902fb71def379b75863139d22c8cd9ff00cd163053dfd2ed0a5d571a78864736f6c63430008000033a26469706673582212202ce23b54660e6c8cfcf38dd8e680021063ed95f0060d71abd71133bc577f2f2064736f6c63430008000033",
  "linkReferences": {},
  "deployedLinkReferences": {}
}